:020000040800F2
:10000000A854012069020008710200087302000868
:10001000750200087702000879020008000000005D
:100020000000000000000000000000007B0200084B
:100030007D020008000000007F0200088102000825
:10004000830200088302000883020008830200087C
:10005000830200088302000883020008830200086C
:10006000830200088302000883020008830200085C
:10007000830200088302000883020008830200084C
:100080008302000883020008830200083508000884
:10009000B9070008830200088302000883020008F1
:1000A000830200088302000883020008830200081C
:1000B00001390008313900084D3900088302000871
:1000C00083020008830200088302000883020008FC
:1000D00083020008830200088302000883020008EC
:1000E00083020008830200088302000883020008DC
:1000F00083020008830200088302000883020008CC
:1001000083020008830200088302000883020008BB
:100110008302000883020008830200088139000876
:10012000830200088302000883020008830200089B
:10013000830200088302000883020008C90A00083D
:100140000D0A0008830200088302000883020008E9
:10015000830200088302000883020008830200086B
:10016000830200088302000883020008830200085B
:10017000830200088302000883020008830200084B
:10018000830200088302000800F002F800F05CF827
:100190000AA090E8000C82448344AAF10107DA45E2
:1001A00001D100F051F8AFF2090EBAE80F0013F0D8
:1001B000010F18BFFB1A43F00103184704B90000F0
:1001C00024B900000A444FF0000C10F8013B13F072
:1001D000070408BF10F8014B1D1108BF10F8015BA0
:1001E000641E05D010F8016B641E01F8016BF9D193
:1001F00013F0080F1EBF10F8014BAD1C0C1B09D1EA
:100200006D1E58BF01F801CBFAD505E014F8016B5B
:1002100001F8016B6D1EF9D59142D6D370470000ED
:100220000023002400250026103A28BF78C1FBD8FF
:10023000520728BF30C148BF0B6070471FB509F097
:1002400065F91FBD10B510BD00F0B8F91146FFF7F4
:10025000F5FF05F0CDF800F0D6F903B4FFF7F2FF93
:1002600003BC04F099F90000094880470948004799
:10027000FEE7FEE7FEE7FEE7FEE7FEE7FEE7FEE756
:10028000FEE7FEE704480549034A054B70470000B6
:100290009938000889010008A8D40020A85401203A
:1002A000A8D40020704710B54C1084EA530404D53C
:1002B0004042C1F1000138BF491E1B4204D55242E1
:1002C000C3F1000338BF5B1E00F0FCF814F0804F50
:1002D00004D04042C1F1000138BF491E14F0004F64
:1002E00004D05242C3F1000338BF5B1E10BD40EA88
:1002F000010310B59B070FD1042A0DD310C808C9FC
:10030000121F9C42F8D020BA19BA884201D90120A4
:1003100010BD4FF0FF3010BD1AB1D30703D0521CEF
:1003200007E0002010BD10F8013B11F8014B1B1B2A
:1003300007D110F8013B11F8014B1B1B01D1921E94
:10034000F1D1184610BD032A40F2308010F0030CA2
:1003500000F0158011F8013BBCF1020F624498BF18
:1003600011F801CB00F8013B38BF11F8013BA2F1B5
:10037000040298BF00F801CB38BF00F8013B11F030
:10038000030300F02980083AC0F0088051F8043BCC
:10039000083A51F804CBA0E80810F5E7121D5CBF3D
:1003A00051F8043B40F8043BAFF30080D20724BF70
:1003B00011F8013B11F801CB48BF11F8012B24BF04
:1003C00000F8013B00F801CB48BF00F8012B704753
:1003D00001B5FFF7B8FF01BD10B5203AC0F00B80A2
:1003E000B1E81850203AA0E81850B1E81850A0E839
:1003F0001850BFF4F5AF5FEA027C24BFB1E8185093
:10040000A0E8185044BF18C918C0BDE810405FEA02
:10041000827C24BF51F8043B40F8043B08BF70477E
:10042000D20728BF31F8023B48BF11F8012B28BF83
:1004300020F8023B48BF00F8012B70474FF0013C09
:1004400050F8042B51F8043B9A4221D1A2EB0C0343
:10045000934313EACC1317D150F8042B51F8043B03
:100460009A4215D1A2EB0C03934313EACC130BD1A0
:1004700050F8042B51F8043B9A4209D1A2EB0C032B
:10048000934313EACC13DBD04FF00000704700BF5A
:10049000D01A01BAB1FA81F101F0180122FA01F083
:1004A000CB40C1F12001DBB2C0B2C01A2CFA01F37B
:1004B000D11A914311EAC311E6D1704770477047D2
:1004C0007047704753EA020C00F069802DE9F04B49
:1004D0004FF00006002B1FBFB3FA83F503FA05F4B3
:1004E00024FA05F65E4012BF1643B2FA82F502FA0C
:1004F00005F4C5F120051EBF22FA05FC44EA0C04F0
:10050000203556EA044C4FEA144418BF641C4FF0DF
:1005100000084FF00009904271EB030C39D3002919
:1005200019BFB1FA81F701FA07F6B0FA80F700FABD
:1005300007F6C7F120071EBF20FA07FC46EA0C06A3
:100540002037B6FBF4FCA7EB0507103F07F01F0BA5
:10055000CBF120060CFA0BFB2CFA06F644BFB3468F
:100560000026202FA4BF5E464FF0000B5BEA060C6E
:1005700008BF4FF0010B19EB0B09ABFB027C48EBFA
:100580000608C01B06FB02CC0BFB03CC71EB0C0175
:10059000C1E70B46024641464846BDE8F08B13B51D
:1005A0004FF000004FF00001AFF30080BDE81C40A9
:1005B000704700000048704748D400207546FFF798
:1005C000F9FFAE4605006946534620F00700854610
:1005D00018B020B5FFF756FEBDE820404FF00006EA
:1005E0004FF000074FF000084FF0000B21F007011B
:1005F000AC46ACE8C009ACE8C009ACE8C009ACE85E
:10060000C0098D46704710B50446AFF30080204600
:10061000BDE81040FFF721BE10B502F0F7FB02F075
:100620008DFE0348034948610120087010BD000099
:100630005B95FFFF6CC5002010B58AB004465B488F
:1006400000F0C4FA0121084602F066FC01214806C8
:1006500002F072FC09220B21554801F011FA09221F
:100660000C21534801F00CFA08A801F039FA4FF4B4
:10067000C050089002208DF8240003208DF825003A
:1006800000208DF8260001208DF8270008A9484891
:1006900001F08EF905A800F0D4FC00208DF81A00B6
:1006A00001208DF81B0000208DF81C008DF81D0026
:1006B0008DF81E0001208DF81F0000208DF8160017
:1006C000A4F574309038F8B1A0F57430903870B15A
:1006D0003849084428BB00208DF8170008208DF801
:1006E000180003208DF81900ADF814001AE000205E
:1006F0008DF8170008208DF8180003208DF81900D8
:100700000620ADF814000DE000208DF81700082039
:100710008DF8180003208DF819000C20ADF8140096
:1007200000E000BF00BF05A9204800F088FB0020C2
:100730008DF80E008DF80F0001208DF810000020BC
:10074000ADF80400ADF80600ADF80800ADF80A00F9
:10075000ADF80C0001208DF8110001A800F052FA4C
:1007600001220221114800F061FB14208DF80000E5
:1007700002208DF8010001208DF802008DF80300A1
:10078000684601F087FE13208DF8000003208DF8E5
:10079000010002208DF8020001208DF80300684658
:1007A00001F078FE00200AB010BD00000064004097
:1007B00000000240E05EF8FF10B588B00022022180
:1007C0001A4800F033FB03AA0021184800F0C1FBCF
:1007D000039880B2ADF800009DF81500022803D1FF
:1007E00001208DF8020005E09DF8150010B90020E9
:1007F0008DF802009DF816008DF80300002405E036
:100800000DF11700015D01A80155641C9DF816004B
:10081000A042F5DC6946064803F076FF012202217A
:10082000024800F003FB08B010BD00000064004067
:100830005C31002010B586B001AC0121114800F0F8
:1008400065FA01281CD1104804F04AFD78B9214608
:100850000D4804F0E8FE21460A4800F002FC042896
:100860000AD10A480068401C0849086004E00022D8
:100870000121044800F0DAFA0121024800F052F99F
:1008800006B010BD0064004028CA0020247F00206C
:1008900010B58AB004465A4800F098F901210220A8
:1008A00002F03AFB0121880602F046FB09220521ED
:1008B000544801F0E5F809220621524801F0E0F819
:1008C00008A801F00DF96020089002208DF824009E
:1008D00003208DF8250000208DF8260001208DF8DA
:1008E000270008A9474801F063F805A800F0A9FB14
:1008F00000208DF81A008DF81B008DF81C008DF873
:100900001D008DF81E0001208DF81F0000208DF8BD
:100910001600A4F574309038F8B1A0F57430903812
:1009200070B13949084428BB00208DF81700082011
:100930008DF8180003208DF81900ADF814001AE0A6
:1009400000208DF8170008208DF8180003208DF87E
:1009500019000620ADF814000DE000208DF81700F6
:1009600008208DF8180003208DF819000C20ADF830
:10097000140000E000BF00BF05A9214800F05FFAA5
:100980000E208DF80E0000208DF80F0001208DF84C
:1009900010000020ADF80400ADF80600ADF8080026
:1009A000ADF80A00ADF80C0001208DF8110001A887
:1009B00000F028F901220221114800F037FA402006
:1009C0008DF8000002208DF8010001208DF8020052
:1009D0008DF80300684601F05DFD3F208DF80000B2
:1009E00003208DF8010002208DF8020001208DF80F
:1009F0000300684601F04EFD00200AB010BD000063
:100A00000068004000040240E05EF8FF10B588B0C6
:100A1000002202212A4800F009FA03AA00212848EE
:100A200000F097FA039880B2ADF800009DF8150029
:100A3000022803D101208DF8020009E09DF815007D
:100A400030B900208DF802009DF816008DF80300E3
:100A5000BDF800000B21B1EBE01F15D10020BDF85F
:100A60000010A1F2815161B9002407E09DF808202F
:100A70009DF8091042EA012108B2641C042CF5DB40
:100A800000E000BF00BF03E069460E4803F03CFEF3
:100A9000002405E00DF11700015D01A80155641C5B
:100AA0009DF81600A042F5DC6946064803F02CFECE
:100AB00001220221024800F0B9F908B010BD00007F
:100AC000006800408C63002010B586B001AC0121A5
:100AD000114800F01BF901281CD1104804F000FC5B
:100AE00078B921460D4804F09EFD21460A4800F0E1
:100AF000B8FA04280AD10A480068401C084908606E
:100B000004E000220121044800F090F9012102488C
:100B100000F008F806B010BD006800402CCF00209F
:100B2000287F0020B1F5007F3AD00FDC202928D0A3
:100B300006DC01291CD004291DD0082940D11DE064
:100B4000402921D0B1F5807F3AD126E0B1F5004FA0
:100B500031D006DCB1F5806F25D0B1F5006F2FD113
:100B600024E0B1F5803F12D0B1F5003F28D111E06B
:100B7000154A826025E00822C26022E01022C2608D
:100B80001FE0082202611CE01022026119E0082225
:100B9000426016E01022426013E00422426010E03E
:100BA000042242600DE0042242600AE000228261D9
:100BB0000422426005E0002282610422426000E0DB
:100BC00000BF00BF704700000101010010B50446DE
:100BD0000B48844209D10121480602F0BDF90021E9
:100BE0004FF0007002F0B8F908E00121880602F029
:100BF000B3F900214FF0806002F0AEF910BD0000A3
:100C00000064004010B50021837A012202FA03F14A
:100C10003D4A126842F001023B4B1A603A4A1C32CC
:100C200012688A43384B1C331A60027BCAB9364AB1
:100C30000C3212688A43344B0C331A604288C388E2
:100C400042EA0343304A4032847A42F83430028820
:100C5000838842EA03432C4A4032847A02EBC4027E
:100C60005360027B012A19D1274A0C3212680A43C9
:100C7000254B0C331A604288038842EA0343224A18
:100C80004032847A42F83430C288838842EA03438F
:100C90001D4A4032847A02EBC4025360C27A3AB9E8
:100CA000194A121D12688A43174B1B1D1A6006E071
:100CB000154A121D12680A43134B1B1D1A60028944
:100CC00032B9114A143212688A430F4B14331A6036
:100CD0000289012A06D10C4A143212680A430A4BCF
:100CE00014331A60427B012A06D1074A1C3212686B
:100CF0000A43054B1C331A60034A126822F00102B2
:100D0000014B1A6010BD00000066004070B504463B
:100D10000D46002660692840002871D0B5F5807F17
:100D20005CD010DC082D35D006DC012D20D0022D42
:100D300024D0042D72D127E0102D31D0202D35D0B4
:100D4000402D6BD138E0B5F5004F60D009DCB5F52A
:100D5000007F49D0B5F5806F4CD0B5F5006F5DD1FF
:100D60004FE0B5F5803F2DD0B5F5003F56D12FE0CF
:100D7000A0682D4900F0DBFC064651E0E068032145
:100D800000F0D5FC06464BE0E068082100F0CFFCFF
:100D9000064645E0E068102100F0C9FC06463FE049
:100DA0002069032100F0C3FC064639E020690821D0
:100DB00000F0BDFC064633E02069102100F0B7FCCE
:100DC00006462DE06068082100F0B1FC064627E0E9
:100DD0006068102100F0ABFC064621E0A06901210B
:100DE00000F0A5FC06461BE0A069022100F09FFC74
:100DF000064615E0A069042100F099FC06460FE0C4
:100E00000FE0A069702100F092FC064608E06068DF
:100E1000042100F08CFC064602E0FFE7002600BF3C
:100E200000E00026304670BD010101001AB143699F
:100E30000B43436102E043698B434361704730B524
:100E4000024600200023146824F002041460146891
:100E500044F00104146000E05B1C546804F00104D9
:100E60001CB94FF6FF74A342F6D1546804F0010494
:100E70000CB900206CE08C79012C04D1146844F08A
:100E80008004146003E0146824F080041460CC79BA
:100E9000012C04D1146844F04004146003E0146889
:100EA00024F0400414600C7A012C04D1146844F03E
:100EB0002004146003E0146824F0200414604C7AC9
:100EC000012C04D1146844F01004146003E0146889
:100ED00024F0100414608C7A012C04D1146844F0BE
:100EE0000804146003E0146824F008041460CC7A49
:100EF000012C04D1146844F00404146003E0146865
:100F000024F0040414608C78A407CD7844EA0564C6
:100F10000D7944EA05444D7944EA05540D886D1E67
:100F20002C43D461146824F001041460002300E011
:100F30005B1C546804F001041CB14FF6FF74A3421B
:100F4000F6D1546804F001040CB1002000E0012047
:100F500030BD10B500F5D87303EB01131B6803F027
:100F600004031372137A53B900F5D87303EB01131A
:100F70001B6840F2FF7404EA5353136009E000F564
:100F8000D87303EB01131B686FF0604404EAD303CA
:100F9000536000F5D87303EB01131B6803F00203E1
:100FA000537200F5D87303EB01135B6803F00F0372
:100FB000937200F5D87303EB01135B681B0AD374BB
:100FC00000F5D87303EB01139B68D37200F5D87357
:100FD00003EB01139B681C0A147300F5D87303EB31
:100FE00001139B681C0C547300F5D87303EB0113B9
:100FF0009B681B0E937300F5D87303EB0113DB683A
:10100000D37300F5D87303EB0113DB681C0A147467
:1010100000F5D87303EB0113DB681C0C547400F566
:10102000D87303EB0113DB681B0E937421B9C368FB
:1010300043F02003C36003E0036943F0200303612E
:1010400010BD00218171C171017241728172C17242
:101050008170C17003210171022141710121018060
:10106000704710B502460020936803F08063B3F127
:10107000806F00D110E0936803F00063B3F1006F5C
:1010800001D1012008E0936803F08053B3F1805F41
:1010900001D1022000E00420042874D002F5C073BE
:1010A00003EB00131B6803F0010402F5C07303EBAC
:1010B00000131C600B7A7BB94B7A0C8843EA4453CB
:1010C00002F5C07404EB00142468234302F5C074D5
:1010D00004EB0014236010E00B7A4C6843EAC4036D
:1010E0004C7A234302F5C07404EB001424682343B4
:1010F00002F5C07404EB001423608B7A03F00F0335
:101100008B7202F5C07303EB00135B6823F00F04CE
:1011100002F5C07303EB00135C6002F5C07303EBD0
:1011200000135B688C7A234302F5C07404EB00144F
:1011300063608B7B1C064B7B44EA03440B7B44EAD5
:101140000323CC7A234302F5C07404EB0014A3609C
:101150008B7C1C064B7C44EA03440B7C44EA03234F
:10116000CC7B234302F5C07404EB0014E36002F56A
:10117000C07303EB00131B6843F0010402F5C07356
:1011800003EB00131C6010BD10B5144A1449154838
:1011900001F022FF144A1549124801F01DFF144ABC
:1011A0001449104801F018FF134A14490D4801F082
:1011B00013FF134A13490B4801F00EFF124A13495B
:1011C000084801F009FF124A1249064801F004FFDD
:1011D000114A1249034801F0FFFE10BD418F00087B
:1011E00000003F608C630020718F000800004160A8
:1011F000598F000800006060298F000800006460BB
:10120000778F000800007A606B8F00080000816013
:101210005F8F000800008360658F00080000846015
:1012200010B5032418480068048018481649C1F80E
:10123000CC0800200CE04FF0FF3200EB4001C1EB86
:1012400040131149243101EB8301A1F86E20401CA9
:101250001028F0DB0C49B1F824090D4903F012FF06
:1012600002F036FC0020084989690880064A526964
:101270001188054A506801F06BF9FFF785FF0021DE
:10128000014807F069FF10BD8C6300200068004032
:1012900020A107003EB5044601200321064A074B62
:1012A000CDE900210290002242F60171204603F0B0
:1012B000E9F800203EBD00004C7F0020044D0020D6
:1012C00010B58CB004462046FFF7E4FF7D480B9034
:1012D00042F210700A90012003217B4A0BABCDE94A
:1012E00000210290002241F20501204603F0CAF8D5
:1012F00001200321744A0AABCDE9002102900022AB
:1013000041F20601204603F0BDF82068008800F590
:10131000C0600B902068008800F5B0600A90012042
:1013200009900321684A0BABCDE9002102900246E7
:101330004FF49051204603F0A5F801200321624AA2
:101340000AABCDE90021029002224FF490512046D1
:1013500003F098F8012003215C4A09ABCDE9002194
:1013600002900A464FF49051204603F08BF840F269
:1013700001600B9040F281500A90012009900321F6
:10138000514A0BABCDE90021029002464FF4945133
:10139000204603F077F8012003214B4A0AABCDE940
:1013A0000021029002224FF49451204603F06AF883
:1013B00001200321454A09ABCDE9002102900A46EC
:1013C0004FF49451204603F05DF84FF4D0700B9029
:1013D000FE200A903E4809903E48089001200321D3
:1013E000394A0BABCDE90021029002464FF4A051DF
:1013F000204603F047F801200321344A0AABCDE927
:101400000021029002224FF4A051204603F03AF846
:10141000012003212C4A09ABCDE9002102900246AC
:101420004FF4B051204603F02DF801200321264A45
:1014300008ABCDE90021029002224FF4B0512046C2
:1014400003F020F84FF428700790FE200690224801
:10145000059022480490012003211B4A07ABCDE9E7
:1014600000210290024641F20141204603F00AF8B1
:1014700001200321154A06ABCDE90021029002228A
:1014800041F20141204602F0FDFF012003210E4AF6
:1014900005ABCDE900210290024641F201612046F0
:1014A00002F0F0FF01200321074A04ABCDE900213F
:1014B0000290022241F20161204602F0E3FF0CB0EB
:1014C00010BD0000800000404C7F0020447F0020C1
:1014D0002000646020006C6010003F6010004160DC
:1014E00002469F2A04D1087808B10348704700BF1C
:1014F00000BF0020FAE700003000090610B5114ACD
:101500001149124801F068FD114A12490F4801F0D3
:1015100063FD114A11490D4801F05EFD104A4FF07C
:10152000C0510A4801F058FD002406E00D4821187A
:101530000D4A064801F050FD641CB4F5807FF5DDCE
:1015400010BD0000B5260008000001605C310020DD
:10155000212500080000036039250008000005600F
:10156000913C00080000C160C952000810B503F0AA
:1015700033FC04461948046019480068048019487F
:101580001749C1F8CC0800200CE04FF0FF3200EB07
:101590004001C1EB40131249243101EB8301A1F852
:1015A0006E20401C1028F0DB0D49B1F824090E49CB
:1015B00003F068FD02F0C3FA012009498969088037
:1015C000074A52691188064A506800F0C1FFFFF7C8
:1015D00095FF0021024807F0BFFD10BD000000206C
:1015E0005C3100200064004020A107003EB50446A5
:1015F000012003213E4A3F4BCDE900210290002209
:1016000042F61971204602F03DFF0120384ACDE92B
:101610000020394B002242F630710290204602F041
:1016200031FF0120324ACDE90020344B002242F63E
:1016300031710290204602F025FF01202C4ACDE9AD
:1016400000202F4B002242F632710290204602F019
:1016500019FF01200321264A2A4BCDE900210290DF
:10166000002242F63371204602F00CFF0120204A8E
:10167000CDE90020244B002242F63471029020462E
:1016800002F000FF0120214ACDE90020204B00227A
:1016900042F624710290204602F0F4FE012003215C
:1016A000134A1C4BCDE900210290002242F625711D
:1016B000204602F0E7FE01200321144A164BCDE933
:1016C00000210290002243F20101204602F0DAFEDE
:1016D000012003210D4A104B1B1DCDE90021029072
:1016E000024643F20101204602F0CCFE00203EBD3E
:1016F000487F0020E0280020002900202029002029
:101700004029002060290020802900204C7F0020F3
:10171000A0290020C02900206428002003460020C2
:10172000704710B5FFF722FFFFF77AFD10BD0246A4
:10173000002002EA01030BB1012000E00020704705
:1017400070B504460D46D4F8880750F82500C0F35C
:1017500007464FF0FF30D4F88C1721F8150001210F
:1017600004F29C70815531462046D4F89827904762
:1017700070BD2DE9FF4FDDE90D456CE0A5EB020AD8
:101780004FFA8AF3002B04DD91F800A00AFA03FA5D
:1017900005E091F800A0C3F1000B4AFA0BFA0AF039
:1017A000FF0C002B02DDC5F1080A01E0C2F1080AB6
:1017B0000AF0FF08804501DD824600E0C246564639
:1017C00005EB060B4FF0FF0A0AFA0BFAC5F1080EFB
:1017D0004FF0FF0B4BFA0EFB4AEA0B0A0AF0FF0729
:1017E0002CEA070994F800A00AEA070A84F800A086
:1017F00094F800A04AEA090A84F800A002EB060A5D
:101800000AF0FF0A5246BAF1070F0BDD0022DDF89D
:101810000CA0BAF1000F02D04FF0FF3A01E04FF0F8
:10182000010A514405EB060A0AF0FF0A5546BAF1CF
:10183000070F0BDD0025DDF83CA0BAF1000F02D048
:101840004FF0FF3A01E04FF0010A5444A0EB060AC2
:101850000AF0FF0000BF002890DCBDE8FF8F70B5E4
:1018600005460E46144600220221D4F8CC08FFF7A4
:10187000DDFA681C80B1B4F9EC09A84205D1B4F8CE
:10188000EC09401E00B2A4F8EC09002105EB45026A
:1018900004F62C1000F832104FF0FF3070BD00003D
:1018A00010B501200B49087246F24000488106201D
:1018B000887040F20F100849488108464089054960
:1018C0000861084601F054FE08B1FF2010BD002059
:1018D000FCE70000BC800020D080002010B5012073
:1018E0000C49087246F240004881062088700F209B
:1018F000094948810846408906490861084601F0BF
:1019000037FE08B1FF2010BD0120034908710020F7
:10191000F9E70000BC800020D080002030B50346ED
:101920000D460021002400BF09E0481C53F82000A8
:1019300043F8210053F821000444481C01B2501E12
:101940008842F2DC43F8215053F82100044494FB10
:10195000F2F030BD1CB50121052001F0DDFA0020B8
:101960008DF8040003208DF8050001208DF8070094
:101970004002009069460C4800F01AF84FF480705D
:1019800000906946094800F013F84FF40070009089
:101990006946064800F00CF84FF4806000906946F4
:1019A000024800F005F81CBD00080240000002409B
:1019B000F0B50A4600210023002400BF3DE00125C8
:1019C00005FA01F3156805EA03049C4234D1056861
:1019D0004F000326BE40B543056015794E00B54063
:1019E0000668354305601579012D02D01579022D61
:1019F00016D185684F000326BE40B54385605579F2
:101A00004E00B540866835438560456801268E40A6
:101A1000B5434560456896798E40B6B2354345601A
:101A2000C5684F000326BE40B543C560D5794E005A
:101A3000B540C6683543C560491C1029BFD3F0BD09
:101A40001CB50121042001F067FA4FF4E05000902A
:101A500001208DF8040000208DF8060003208DF889
:101A6000050001208DF8070069460448FFF7A0FF34
:101A70004FF4E051014800F02FF81CBD000802406F
:101A8000F0B5002300244D07ED0E02FA05F3CE1049
:101A900000F1200555F826504E07F70E0F26BE40E0
:101AA000B543CF1000F1200646F82750CE1000F1C4
:101AB000200555F8265045EA0304CE1000F1200514
:101AC00045F82640F0BD0246002013690B400BB1DB
:101AD000012000E000207047418370470183704778
:101AE0004FF6FF7101600021017141718171C17177
:101AF000704700002DE9FC4106460020009001904F
:101B0000002500270024804600BF00BF19E000BF69
:101B10003E48008800F002000028F9D04FF6FF7020
:101B20003A49091D088000BF3848008800F00100CC
:101B30000028F9D03548001D00882DF81500681CD4
:101B400085B2032DE3DBBDF800004006000CBDF8B4
:101B5000021040EAD1102E490881BDF8020040066B
:101B6000C00BBDF8041040EA9110294948600846AE
:101B70004068098940EA41474FF4D87097FBF0F775
:101B8000BC1B48F6A040041B94FBF0F100FB114481
:101B90001F484078D0B91F480088142810DA1D4823
:101BA0000088401C1B490880142221461848183020
:101BB000FFF7B4FE164988660846806EC86602E0E4
:101BC0000120134948702046BDE8FC811048806E12
:101BD000A4EB0008B8F1000001DB014600E041423F
:101BE000B1F57A6F0BDA1422214609481830FFF755
:101BF00095FE074988660846806EC86603E004487B
:101C0000C06E034988660248806EDDE708380040F0
:101C10006CC500207000002070B504460E46D4F854
:101C20002408008860B3002527E004F29C70405D22
:101C30000F2820D020680088A8421CD004F62C0071
:101C4000405D00280BDCD4F8200820B1294620464E
:101C5000D4F820289047012104F29C70415504F6E5
:101C60002C00405D401EC1B204F62C0041552946AF
:101C7000204603F0DBFB681CC5B2802DD5DB0EE0EF
:101C8000B4F91C082246AFF26F01FFF7E8FDA4F893
:101C90001C0801220221D4F8CC08FFF7C7F870BD58
:101CA00070B5002400251848C46CD0F8A853174814
:101CB0004460002181609FED160A80ED030A0561F2
:101CC0004161B1EE000A80ED060A011D00F5805069
:101CD000C0F80818A0F57F6000F57F61C1F8100812
:101CE0000948808900EE100AB8EE400A094880EDE4
:101CF000000A0123002211469FED070A034801F064
:101D00006BF8012070BD00003C8100204C9D00203C
:101D100000000000280000200AD7233C10B504462C
:101D20002CB14FF480610C48FFF7D8FE04E04FF46B
:101D300080610948FFF7D0FE0848408828B14FF479
:101D400080510548FFF7CAFE04E04FF48051024875
:101D5000FFF7C2FE10BD0000000802403C810020D9
:101D600070B52DED028B9FEDF90AB0EE408A00248C
:101D7000F748D0F8900340F6B83188425AD8F44872
:101D8000B0F89C03412855DAF148B0F87200A52854
:101D900050D0EF48D0F89003401CED49C1F89003B3
:101DA0000846C16CEB48B0F8040800EB4002EA4872
:101DB00040F82210E948016CE648B0F8040800EB4E
:101DC0004002E54800EB82004160E14890EDE40A02
:101DD000B8EE400AB0EE408A9FEDE10AC8EE000A74
:101DE000DC48B0F8040800EB4001DB4800EB810060
:101DF000C0ED020AD648C16ED648B0F8040800EB20
:101E00004000D84A42F820109FEDD50AC8EE000ADB
:101E1000D048B0F8040800EB4000114601EB800008
:101E2000C0ED020ACB48B0F80408401C81B2C94892
:101E3000A0F80418C748B0F80408FF287DDD002486
:101E4000CBE004EB4402C44901EB8201486800285E
:101E500001DB014600E041423C291DDABC4890F814
:101E6000A003D0B10021BA4880F8A013A0F89E13B7
:101E7000B0F89E232346B84900F56A7001F08CF84B
:101E8000B348B0F89E03401C81B2B148A0F89E133D
:101E9000B0F89E13A0F89C139DE0002C51DDFF2CA0
:101EA0004FDA651E05EB4506AB4D05EB86056B6805
:101EB000002B01DB1D4600E05D423C2D0DDD651C65
:101EC00005EB4506A44D05EB86056A68002A01DB93
:101ED000154600E055423C2D1BDC651E05EB450612
:101EE0009D4D05EB86056968002901DB0D4600E084
:101EF0004D423C2D0DDC651C05EB4506964D05EB72
:101F000086056868002801DB054600E045423C2D57
:101F100061DD8F48B0F89E2323468F4900F56A7033
:101F200001F03AF88A48B0F89E03401C81B2884814
:101F3000A0F89E13B0F89E1300E06AE0A0F89C138E
:101F400049E0FF2C23D1611E01EB4102824901EBE4
:101F500082014868002801DB014600E041423C293B
:101F600039DD7B48B0F89E2323467B4900F56A7033
:101F700001F012F87648B0F89E03401C81B2744814
:101F8000A0F89E13B0F89E13A0F89C1323E014BB96
:101F9000611C01EB4102704901EB82014868002895
:101FA00001DB014600E041423C2914DD6848B0F8FD
:101FB0009E232346684900F56A7000F0EDFF6448EF
:101FC000B0F89E03401C81B26148A0F89E13B0F89F
:101FD0009E13A0F89C13601C84B25E48B0F80408FD
:101FE000A0423FF72EAF00215A48A0F804185A48E3
:101FF000D0F8F41B5648C0F8A81F5748D0F8F81B73
:102000005348C0F8AC1F584890ED020A524880ED82
:10201000020A4F48D0F8900340F6B831884209D8F8
:102020004B48B0F89C03402804DA4948B0F87200E5
:10203000A5287AD14748B0F80408012876DB0024A7
:10204000BBE004EB4402444901EB820148680028EC
:1020500001DB014600E041423C2923DA1CBB611C44
:1020600001EB41023C4901EB82014868002801DB99
:10207000014600E041423C2914DD3548B0F89E237A
:102080002346354900F56A7000F086FF3048B0F805
:102090009E03401C81B22E48A0F89E13B0F89E13F8
:1020A000A0F89C1387E0FF2C23D1611E01EB4102B5
:1020B000294901EB82014868002801DB014600E064
:1020C00041423C2977DD2248B0F89E23234622492D
:1020D00000F56A7000F060FF1D48B0F89E03401CD8
:1020E00081B21B48A0F89E13B0F89E13A0F89C1371
:1020F00061E0002C5FDDFF2C5DDA621E02EB420323
:10210000154A02EB830252683C2A01DD012200E0FD
:1021100000227AB1621C02EB42030F4A02EB8302F7
:102120005168002903DB0A4602E00BE188E04A42DD
:102130003C2A2BDC621E02EB4203074A02EB8302BD
:1021400052683C2A12DD012211E00000000000006C
:102150003C810020E0940020E4900020D08000200A
:102160000000C84260B60020D89C002000226AB956
:10217000621C02EB4203754A02EB8302506800289E
:1021800001DB024600E042423C2A14DD7048B0F810
:102190009E2323466D4900F56A7000F0FDFE6C48F1
:1021A000B0F89E03401C81B26948A0F89E13B0F8B5
:1021B0009E13A0F89C13601C84B26648B0F8040813
:1021C000A0423FF73EAF1FED1F0A614880EDEC0AC9
:1021D0006048B0F80408401E00EB40015B4850F82E
:1021E00021105B48B0F89E0300EB40025A4840F8CB
:1021F000221000215648B0F89E0300EB40025648DA
:1022000000EB820041605348B0F80408401E00EB28
:1022100040014E4800EB810090ED020A4C48B0F8B6
:102220009E0300EB40014C4800EB810080ED020A68
:102230004748B0F89E03401C81B24548A0F89C1363
:1022400000252FE005EB4503434A52F82310404A8E
:102250007823106D0C2202F047FC014605EB450285
:102260003B48803040F8221005EB45013A4800EB2E
:10227000810005EB450241683548803000EB820063
:10228000416005EB4501344800EB810090ED020A06
:1022900005EB45012E48803000EB810080ED020AFD
:1022A000681C85B22A48B0F89C03A842CADC002109
:1022B000274880F87C10B0F89C0302281BDB012122
:1022C000234880F87D10B0F8740020F00200801CD4
:1022D0001F49A1F874000846B0F8740020F004010A
:1022E0001B48A0F87410B0F8740020F010011848D2
:1022F000A0F8741017E01648B0F8740020F002013E
:102300001348A0F87410B0F8740020F00400001D09
:102310000F49A1F874000846B0F8740020F01000CE
:102320001030A1F874000A48B0F8740020F00101E0
:102330000748A0F874100021C0F89013A0F8941377
:10234000A0F89E13BDEC028B70BD0000E49000204D
:102350003C810020E0940020E484002070B500243B
:102360000025454890F87400C0F3401000283DD087
:102370004148806F38B14048416D4164806F401ED4
:102380003D49886770BD3D4800F08EFA002869D04D
:10239000394880894FF4FA6191FBF0F13648816742
:1023A000B0F89C33002211469FED350A00F56970A4
:1023B00000F012FD0120304981F8A40300213148CA
:1023C000A0F822182C48C16C4165B0F8740020F0C8
:1023D000080008302849A1F874000846B0F87400D5
:1023E00020F020012448A0F874103BE0224890F827
:1023F0007400C0F3C000A8B31F48806F38B11E48F6
:10240000416D4164806F401E1B498867BAE71E48D2
:1024100000F04AFA30B3184880894FF4FA6191FB12
:10242000F0F115488167C16C4165FFF739FC12492D
:1024300081F896030121154880F8101C00211448EA
:10244000A0F822180C48B0F8740020F008010A48DF
:10245000A0F87410B0F8740020F020002030064975
:10246000A1F874000448046B456B2A4621464430A9
:1024700000F01AFD00BF85E73C8100204C9D002044
:102480000AD7233CE0940020E08400203C91002007
:102490004CAD002070B5002100230F22C4781CB37E
:1024A000174C246804F4E064C4F5E064C4F3072125
:1024B000C1F10404E3B20A4144789C40E1B284785B
:1024C000144021430C07210E0E4C05786155047809
:1024D00004F01F050124AC4005786D11AD0005F135
:1024E000E025C5F8004109E0047804F01F05012447
:1024F000AC40054D0678761145F8264070BD0000C9
:102500000CED00E000E400E080E100E0024901435E
:10251000024A1160704700000000FA050CED00E06F
:1025200010B50346024844680248C463002010BD49
:102530002C8100203C81002010B5034602488468AD
:102540000248C462002010BD2C8100203C81002084
:102550002DE9F04106460D46144600273746002077
:10256000184908600CE038461C370069D4F8F019A7
:102570000844C4F8F00913480068401C1149086079
:1025800010480068A842EED3D4F8F0092844C4F8F3
:10259000F00922462946304600F016F8B4F8A00E9D
:1025A000421E002104F6F41000F52F6006F07EFEB6
:1025B000B4F8A00E421E002104F6A46006F05FFEEF
:1025C000BDE8F0812C7F00202DE9F04180460F46C8
:1025D0001446B4F8A00E3844D4F8F019884202D951
:1025E0000020BDE8F081002628E0C6EBC60008EB1D
:1025F0008005B4F8A01E04F6F41000F52F6040F832
:102600002150B4F8A01E04F6A46040F82150B4F89C
:10261000A00E401CA4F8A00E287A062805D0287A1F
:10262000082802D0287A092807D12246D5E90301D3
:10263000FFF7CAFF08B90020D3E7761CBE42D4D307
:102640000120CEE770B504460D461646204606F03A
:1026500047FE002070BD70B504460D461646204664
:1026600002F0B8FC204602F061FC002070BD70B59D
:1026700004460D461646204602F07AFF204602F038
:102680002DFF002070BD30B503460C46D3F8F0088E
:10269000007860B9002106E00020D3F8F45845F82E
:1026A0002100481CC1B293F8ED088842F4DC0020F8
:1026B00030BD000010B503460748807A074C6478A7
:1026C000A04206D00448807A034CE0720348407868
:1026D000A072002010BD00003C8100202C81002051
:1026E00070B505460C464FF0FF3004EBC402A968F4
:1026F00001EB42014880002004EBC402A96801EB11
:102700004201C880E1B2284606F040FA70BD70B5BB
:1027100005460C464FF0FF3004EBC402A96801EBFC
:102720004201888004EBC401A86810F8110020F071
:10273000010004EBC402A96801F81200E1B22846C6
:1027400006F024FA70BD0000F8B504464FF4C055F9
:1027500023466A4629040020276AB8472049884250
:102760003CD02FE04FF0C05040EA054123466A4676
:102770000020276AB8470646009808BB7069F8B180
:10278000184840EA054123466A460020276AB847B0
:10279000154941611348401C40EA054123466A46F9
:1027A0000020276AB847104941610E48C01C40EA22
:1027B000054123466A460020276AB8470A49416115
:1027C000681C85B24FF0C05040EA054123466A4676
:1027D0000020276AB84702498842C3D1F8BD0000EB
:1027E0000CCA002002000018993C0008F8B5044605
:1027F000002523466A464FF0C0510020266AB047A4
:102800002649884248D03BE005EBC502A16801EBB0
:102810004201B1F9020022462149FFF720F805EBF9
:10282000C502A16801EB4201488001220221D4F8CF
:10283000CC08FEF7FBFA05EBC502A16801EB4201EB
:10284000B1F9040022461749FFF709F805EBC50264
:10285000A16801EB4201888001220221D4F8CC0852
:10286000FEF7E4FA002005EBC502A16801F81200AA
:1028700005EBC502A16801EB4201C880681CC5B226
:102880004FF0C05040EA054123466A460020266AC0
:10289000B04702498842B7D1F8BD00000CCA0020F9
:1028A000E12600080F2700080146087800287CD0A0
:1028B00041F62200405A002878D141F608004058DD
:1028C0000068FE4A106041F6080040584068FC4A23
:1028D000106041F60800405890ED020AF94880ED7A
:1028E000000A41F6080040580C3041F60C025050E6
:1028F000101F425841F61000405882422BD141F639
:1029000058000844C07830BB00200870002241F60F
:102910002200425201F1100041F608025050121DEF
:102920005050121D50509FEDE80A01F5C05080ED47
:10293000090A9FEDE50A80ED170A9FEDE30A80ED95
:10294000180A9FEDE10A80ED190A9FEDDF0A80ED7C
:102950001A0A01207047DB4890ED000A01F5C050CB
:1029600080ED090A41F60C0040580068D74A106013
:1029700041F60C0040584068D54A106041F60C0002
:10298000405890ED020AD34880ED000ACF48026813
:1029900041F614004250CF4890ED000AC948D0EDEE
:1029A000000A30EE600ACC4801E0CEE1BBE080EDE9
:1029B000000A90ED000AB5EEC00AF1EE10FA0ED84A
:1029C000C6480068401CC54A1060002008700022FC
:1029D00041F622004252801E4252FF20BAE701F522
:1029E000C05090ED110ABC48D0ED000A80EE801A6C
:1029F000BCEEC10A10EE100A82B24FF4C15042522E
:102A0000B24800684000404200EE100AB8EEC00A2A
:102A1000AF48D0ED000AF8EEE00AAF4890ED001A9A
:102A200000EE810AA648D0ED000AF8EEE00AAA48B6
:102A300090ED001A00EE810AA0480068400000EE08
:102A4000900AF8EEE00A30EE200AA348D0ED000A22
:102A500060EEA00A90ED001A60EE810A80EE201A66
:102A600001F5C05080ED171A9848006800EB40004F
:102A700000EE100AB8EEC00A9548D0ED000AF8EE54
:102A8000E00A954890ED001A00EEC10A8C480068F3
:102A9000400000EE900AF8EEE00A8F4890ED001A30
:102AA00000EEC10A8548006800EB400000EE900A85
:102AB000F8EEE00A30EE600A8748D0ED000A60EEDA
:102AC000A00A80EE201A01F5C05080ED181A7C484B
:102AD00090ED000AB8EEC00A01F5C05080ED190A69
:102AE000764890ED000AB8EEC00A01F5C05080EDBE
:102AF0001A0A90ED170A7A4880ED000A01F5C050D5
:102B000090ED180A774880ED000A01F5C05090ED6D
:102B1000190A754880ED000A01F5C05090ED1A0AB7
:102B2000724880ED000A41F62200405A00EE100A79
:102B3000F8EE400A01F5C05090ED111A614890ED91
:102B4000000A00EE810A01F5C05080ED090A90EDFF
:102B5000090A5C48D0ED000A30EE600A6048D0ED0A
:102B6000000A20EE200A01F5C050D0ED090A5548B0
:102B700090ED001A70EEC10A20EE200A01F5C05057
:102B8000D0ED090A4F4890ED001A70EEC10A20EE10
:102B9000200A01F5C05080ED0A0A90ED090A494863
:102BA000D0ED000A30EE600A4E48D0ED000A20EE6B
:102BB000200A01F5C050D0ED090A424890ED001AF4
:102BC00070EEC10A20EE200A01F5C05080ED0B0A1C
:102BD00090ED090A3B48D0ED000A30EE600A424809
:102BE000D0ED000A20EE200A01F5C05080ED0C0A5D
:102BF0003E4890ED000A01F5C05080ED0D0A3848BE
:102C000090ED000AF0EE080A20EE200A01F5C0500F
:102C1000D0ED090A2B4890ED001A70EEC10A20EEA3
:102C2000200A01F5C050D0ED090A264890ED001A9F
:102C300070EEC10A20EE200A01F5C05080ED0E0AA8
:102C4000284890ED000AF0EE000A20EE200A01F577
:102C5000C050D0ED090A1B4890ED001A70EEC10A71
:102C600020EE200A01F5C05080ED0F0A1E4890EDBD
:102C7000000A01F5C05080ED100A90ED0A0AD0ED6F
:102C80000B0A30EE200AD0ED0C0A30EE200AD0ED0F
:102C90000D0A30EE200A80ED140A90ED0E0AD0EDF8
:102CA0000F0A30EE200AD0ED100A30EE200A80ED37
:102CB000150A90ED140ABDEEC00A19E03C00002090
:102CC00040000020440000200000000048000020D8
:102CD0004C00002050000020640000203400002040
:102CE00054000020580000205C00002060000020FC
:102CF00010EE100A41F61802505001F5C05090ED48
:102D0000150ABDEEC00A10EE100A121D5050101F19
:102D100042582F48426441F62200405A401C82B279
:102D200041F622004252425A801E405A82424DD100
:102D3000487858B941F6080040580C3041F608026E
:102D40005050002241F6220042523FE0002008701D
:102D5000002241F62200425201F1100041F6080221
:102D60005050121D5050121D50501FED290A01F5F0
:102D7000C05080ED090A1FED2C0A80ED170A1FEDE7
:102D80002E0A80ED180A1FED300A80ED190A1FED9A
:102D9000320A80ED1A0A00200D4A82F8A4030022AC
:102DA0000C4880F8102C0A4880F89823B0F874007A
:102DB00020F008020648A0F87420B0F8740020F053
:102DC00020020348A0F874200120C3E50020C1E5DB
:102DD0003C8100203C91002030B500F5C05484EDCA
:102DE000110A41F658040444E17002EB4205041D47
:102DF00004EB850541F60804255003EB4305041D4B
:102E000004EB850541F61004255030BD1CB50121A9
:102E1000042000F081F80121022000F07DF801215A
:102E2000042000F079F80121042000F075F8012059
:102E30008DF8040000208DF8060003208DF80500B1
:102E400002208DF807004020009069461448FEF7E4
:102E5000AFFD40211248FEF73FFE4FF400400090C6
:102E600069461048FEF7A4FD4FF400410D48FEF7F7
:102E700033FE4FF48070009069460948FEF798FDD4
:102E80004FF480710648FEF729FE802000906946C5
:102E90000348FEF78DFD80210148FEF71FFE1CBD93
:102EA000000802400004024003688B4201DD01601B
:102EB00003E00368934200DA02607047FEB50446FF
:102EC0000E46D4F890070088A8B12068008800F565
:102ED000E06085B2ADF8005001208DF803000020BD
:102EE0008DF8020094F864078DF8040069462046C6
:102EF00001F06AFC0EE0B4F994072246AFF24301F8
:102F0000FEF7ADFCA4F8940701220221D4F8CC0806
:102F1000FDF78CFFFEBD000029B1064A126802438E
:102F2000044B1A6004E0034A12688243014B1A60A2
:102F3000704700003038024029B1064A1268024347
:102F4000044B1A6004E0034A12688243014B1A6082
:102F5000704700004038024029B1064A1268024317
:102F6000044B1A6004E0034A12688243014B1A6062
:102F7000704700002038024029B1064A1268024317
:102F8000044B1A6004E0034A12688243014B1A6042
:102F9000704700002438024030B503EB430451F879
:102FA000244002EB420540F8254003EB430401EBCB
:102FB0008404646802EB420500EB85056C6003EB5A
:102FC000430401EB840494ED020A02EB420400EB9B
:102FD000840484ED020A30BDF8B504460E46154659
:102FE00023466A4631460020D4F820C0E047074611
:102FF000009800B97D610098F8BD0000FEB5044658
:103000000D4600260121D4F8280900F09CFD05EBAF
:103010004500C0EB451104F1240000EB810040782D
:1030200002280FD101E0701C86B24FF0945040EAA4
:103030000641234602AA0020D4F820C0E047604998
:103040008842F0D105EB4500C0EB451104F12400A6
:1030500000EB8100407801280FD101E0701C86B29E
:103060004FF0905040EA0641234602AA0020D4F8CF
:1030700020C0E04752498842F0D105EB4500C0EB43
:10308000451104F1240010F82100401CB04200DD7D
:10309000FEBD05EB4500C0EB451104F1240000EB3B
:1030A00081004078022812D105EB4500C0EB4512A3
:1030B00004F1240010F82200424A42EA004123466B
:1030C00002AA0020D4F820C0E047C068077805EBCA
:1030D0004500C0EB451104F1240000EB810040786D
:1030E000012812D105EB4500C0EB451204F1240084
:1030F00010F82200344A42EA0041234602AA002086
:10310000D4F820C0E047C06807784FF0FF3105EBE6
:103110004500C0EB451204F1240000EB8200A0F84A
:103120006E10852105EB4500C0EB451204F124002B
:1031300000EB82008170254905EB4500C0EB45128C
:1031400004F1240000EB8200807BCDE9000105EB57
:103150004500C0EB451C04F1240000EB8C00838982
:1031600005EB4500C0EB451C04F1240010F82C20B1
:1031700005EB4500C0EB451C04F1240000EB8C007E
:103180004178204605F06CFE104905EB4500C0EB88
:10319000451204F1240000EB8200816005EB45003C
:1031A000C0EB451104F1240000EB810040780128B8
:1031B00003D1E9B2204605F0AFFC00BF68E700008C
:1031C0000CCA002003008012030000120000040556
:1031D0002DE9FF4104460D4605EB4500C0EB4511C6
:1031E00004F1240000EB8100006988B905EB45007B
:1031F000C0EB451104F1240000EB8100416905EBAF
:103200004500C0EB451204F1240000EB820001618F
:1032100005EB4500C0EB451104F1240000EB8100F3
:1032200000690390012003AACDE90020029005EB7C
:103230004500C0EB451704F1240000EB870000F1C6
:10324000180305EB4500C0EB451704F1240000EB23
:103250008700827B05EB4500C0EB451704F1240095
:1032600000EB87008189204601F00CF906461EB16B
:10327000304604B0BDE8F0810020FAE7F0B504461E
:10328000154601EB4100C0EB411704F1240000EBAF
:10329000870040692844402801D9FF20F0BD01EB98
:1032A0004100C0EB411704F1240000EB87004669A0
:1032B00000220FE09F5C01EB4100C0EB411C04F1D8
:1032C000240000EB8C00183006EB020C00F80C70A8
:1032D000501CC2B2AA42EDD301EB4100C0EB411732
:1032E00004F1240000EB87004069471901EB41001D
:1032F000C0EB411C04F1240000EB8C00476100206E
:10330000CCE7000010B5044600BF02210A4800F0D7
:1033100081F80028F9D02146074800F087F800BF5F
:103320000121054800F076F80028F9D0024800F0A5
:103330007AF800B210BD00000038004000B587B038
:1033400001210220FFF7E8FD01218803FFF7F4FDCA
:103350004FF4C040059002208DF8180000208DF831
:103360001A0003208DF8190001208DF81B0005A913
:103370002048FEF71DFB05220D211E48FEF780FBAD
:1033800005220E211B48FEF77BFB01218803FFF776
:10339000F3FD00214FF48040FFF7EEFD0020ADF873
:1033A00000004FF48270ADF802004FF40060ADF8F9
:1033B00004000220ADF806000020ADF808004FF42C
:1033C0000070ADF80A002820ADF80C000020ADF820
:1033D0000E000720ADF810006946074800F028F8F5
:1033E0000121054800F00AF84FF6FF70FFF78AFF49
:1033F00007B000BD000402400038004021B102883F
:1034000042F04002028004E002884FF6BF731A4087
:10341000028070470246002013890B400BB1012047
:1034200000E000207047014688897047818170471D
:1034300010B50022028802F441520B884C882343C5
:103440008C882343CC8823430C8923434C89234312
:103450008C892343CC8923431A430280838B4FF208
:10346000FF74234083830B8A038210BD70B50D88DF
:1034700005F4B065B5F5B06F52D1057A0E7806F057
:103480007F06B5424CD1CD78082D00D070BD0D79A6
:10349000802D04D10025C58003254570F6E74E79BF
:1034A0008D7906EB0525AAB2CB794589954237D1AE
:1034B000057B9D4234D10C79432C1DD0472C10D074
:1034C0004B2C06D04F2C25D10D7A05610225457075
:1034D00025E00E7A4D7A06EB05250561022545703B
:1034E0001DE08D7A2E044D7A06EB05260D7A3544C3
:1034F00005610225457012E0CD7A2E068D7A06EB25
:1035000005464D7A06EB05260D7A35440561022500
:10351000457004E0002505610325457000BF00BF2C
:1035200000BFB3E730B50C8804F4B064B4F5B06FF5
:103530001DD1047A0D7805F07F05AC4217D14D7985
:103540008C7905EB0424A2B2CB79448994420ED144
:10355000047B9C420BD10C79602C04D1052444706F
:103560000024848003E0062444700024848030BD5D
:103570002DE9FF4104460025002600270020039086
:10358000A77A6089060A207A00F07F0000F5C06003
:10359000ADF8000000208DF8020008208DF803002F
:1035A000A078062819D008DC02280DD0032813D0F3
:1035B00004282DD005283FD107E0072829D010285E
:1035C00016D0162838D114E000BF2F208DF8040043
:1035D000207C8DF80C0035E000BF2B208DF8040016
:1035E000207C8DF80C00208A000A8DF80D0029E05F
:1035F00000BF27208DF80400207C8DF80C00208A65
:10360000000A8DF80D002069000C8DF80E0019E0FD
:1036100000BF23208DF80400207C8DF80C00208A48
:10362000000A8DF80D002069000C8DF80E0020694D
:10363000000E8DF80F0005E006206070FF2004B03A
:10364000BDE8F08100BFF9B28DF80510F1B28DF838
:103650000610207B8DF807009DF80C108DF80810DF
:103660009DF80D108DF809109DF80E108DF80A10B8
:103670009DF80F108DF80B10042060700020A080C2
:103680006946044801F0A0F805460DB1FF20D6E7D1
:103690000020D4E78C6300202DE9F05F04468B46C0
:1036A0009246994600220221D4F8CC08FDF7BEFBD1
:1036B000002704F62C1543E0BAF1000F3DD028781E
:1036C000D0BBB4F9EC09401CB84205D1B4F8EC0900
:1036D000401C00B2A4F8EC09204601F05BFB064652
:1036E000C84608F1010008B1404601E04FF0FF3044
:1036F000804641F624300059B0420ED941F62430BC
:103700000059801B404508D906EB080141F62430DA
:1037100001512146404605F085FDC5F808A06C60C2
:10372000C5F80CB009EB060028610A986861012011
:1037300028703846BDE8F09FFFE7781C07B21835BF
:10374000B4F9EC09401CB84201DB082FB4DB4FF0A0
:10375000FF30EFE70CB5002001900090344800687E
:1037600040F480303249086000BF3148006800F4FE
:10377000003000900198401C0190009818B9019801
:10378000B0F5A04FF1D12A48006800F4003010B124
:103790000120009001E0002000900098012846D10F
:1037A00023484030006840F0805021494031086093
:1037B0002048006840F440401E4908601C4808301A
:1037C00000681B49083108600846006840F4004062
:1037D00008600846006840F4A05008601648091FB9
:1037E0000860081F006840F08070091F086000BF73
:1037F0000F48006800F000700028F9D040F2057012
:103800000E4908600A480830006820F003000849A3
:10381000083108600846006840F00200086000BFF8
:1038200003480830006800F00C000828F8D10CBDEF
:10383000003802400070004019544007003C02402C
:1038400001460120C8600A22C868B2FBF0F0086196
:103850004FF47A72C868B2FBF0F0486100207047FC
:1038600070B504460D46204605F023FB70BD0428C4
:1038700008D14FF0E021096941F004014FF0E02246
:10388000116107E04FF0E021096921F004014FF0D8
:10389000E02211617047000010B51548006840F43F
:1038A0007000134908601348006840F00100114996
:1038B000086000200F49083108600E4800680E4972
:1038C00008400C4908600D48091D0860081F006881
:1038D00020F48020091F0860002006490C31086090
:1038E000FFF738FF4FF0006001498039086010BDD4
:1038F00088ED00E000380240FFFFF6FE10300024A3
:1039000010B50121880700F064F970B14FF08040D4
:1039100000F05CF90549C1F82C0BA1F5805000F0CE
:10392000E3FB0121880700F00EF910BD5C41002087
:1039300010B50121044800F04CF918B101210248EA
:1039400000F001F910BD00000004004010B5012195
:10395000094800F03EF968B1074800F037F9074917
:10396000C1F82C0BA1F5805000F0BEFB01210248EC
:1039700000F0E9F810BD0000000800408C73002042
:1039800010B50121324800F024F900285FD03148F9
:103990000068401C2F49086008468068401C886009
:1039A000084600680969884231D300202949086027
:1039B00001202949087008722848007830B127484A
:1039C000407818B925494869FEF794F82248807A6A
:1039D000E5280AD1204890F87D0030B91E4890F8BB
:1039E0007C00012801D1FEF7BBF91B4890F8980331
:1039F00020B1012018494872FEF7B0FC05F078FDAF
:103A00001548407A18B11449486C00F0BFFF1148BE
:103A100080681049496988420CD300200D498860AC
:103A20000F48007880F001000D49087008460078C2
:103A3000FEF774F90B484078012804D10948C08882
:103A4000401C0849C8800121014800F07CF810BDE5
:103A50000014004030D400203C8100206CC50020C0
:103A600010000020A88000201FB501210420FFF7CE
:103A700063FA5320ADF800000020ADF80200401EAC
:103A800001900020ADF808008DF80A0069460F4843
:103A900000F0BCF8012211460C4800F0ABF80121FF
:103AA0000A4800F053F84FF48060FEF72FFD1E2007
:103AB0008DF80C0001208DF80D008DF80E008DF8AA
:103AC0000F0003A8FEF7E6FC1FBD00000008004041
:103AD00010B5FFF7C9FF10BD1FB501210846FFF75C
:103AE0002BFA5320ADF800000020ADF80200401E74
:103AF00001900020ADF808008DF80A0069464FF0EB
:103B0000804000F083F801221146900700F072F81F
:103B10000121880700F01AF84FF48060FEF7F6FCE8
:103B20001C208DF80C0002208DF80D0001208DF86E
:103B30000E008DF80F0003A8FEF7ACFC1FBD10B5FA
:103B4000FFF7CAFF10BDCA430282704721B1028845
:103B500042F00102028004E002884FF6FE731A4030
:103B6000028070477FB504460D4601212020FFF7F3
:103B7000E3F9681E80B2ADF800000020ADF8020045
:103B8000601E01900020ADF808008DF80A0069461B
:103B90000D4800F03BF8012211460B4800F02AF8CE
:103BA00001210948FFF7D2FF37208DF80C000320D0
:103BB0008DF80D0000208DF80E0001208DF80F000B
:103BC00003A8FEF767FC7FBD001400400146486A69
:103BD000704730B50246002000230024158A05EA0C
:103BE0000103958905EA010413B10CB1012000E03D
:103BF000002030BD1AB183890B43838102E08389A1
:103C00008B4383817047C1627047000000220288A5
:103C1000184B98420ED0184B98420BD0B0F1804F01
:103C200008D0164B984205D0154B984202D0154B40
:103C3000984204D14FF68F731A404B881A43124BA7
:103C4000984207D0114B984204D04FF6FF431A40D8
:103C50000B891A4302804B68C3620B880385054BAE
:103C6000984202D0044B984201D18B7A03860123FB
:103C700083827047000001400004014000040040BE
:103C800000080040000C00400010004000140040FC
:103C900003460020704700002DE9F84304460E4615
:103CA000174640F26A70005D002854D0022F04D0FD
:103CB000032F03D0052F4CD101E000BF00BF2346E6
:103CC0006A464FF0C0510020D4F820C0E04780463B
:103CD000A6EB08001C2190FBF1F0C5B205EBC50274
:103CE000A16801EB4201B1F9020022461B49FDF730
:103CF000B6FD05EBC502A16801EB42014880012237
:103D00000221D4F8CC08FDF791F805EBC502A168B3
:103D100001EB4201B1F9040022461149FDF79FFD74
:103D200005EBC502A16801EB420188800122022156
:103D3000D4F8CC08FDF77AF8002005EBC502A1689D
:103D400001F8120029462046FEF7CAFC0020BDE813
:103D5000F88300BF00BF0020F9E70000E12600085B
:103D60000F2700081CB501210220FFF7D5F84FF4FA
:103D70004060009001208DF8040000208DF80600BE
:103D800003208DF8050001208DF8070069460448DE
:103D9000FDF70EFE4FF440610148FDF79DFE1CBD8E
:103DA0000004024010B59CB004462046FDF71EFCFE
:103DB0004FF47A70049001200321BA4A04ABCDE994
:103DC00000210290002241F21701204600F05AFB28
:103DD000B5480068401CB44908602068008800F5B8
:103DE000C0601B902068008800F5B0601A90012028
:103DF00019900321AD4A1BABCDE900210290024688
:103E00004FF49051204600F03DFB01200321A74ACA
:103E10001AABCDE90021029002224FF490512046C6
:103E200000F030FB01200321A14A19ABCDE90021AC
:103E300002900A464FF49051204600F023FB206880
:103E4000008800F5C0701890FF201790C8201690C9
:103E50001420159001200321944A18ABCDE90021CC
:103E600002900246C902204600F00CFB012003210B
:103E70008F4A17ABCDE9002102900222C9022046E9
:103E800000F000FB01200321884A16ABCDE9002198
:103E900002900A46C902204600F0F4FA01200321EC
:103EA000824A15ABCDE9002102900522C9022046C5
:103EB00000F0E8FA7F481490012003217B4A14ABFC
:103EC000CDE90021029002464FF4D051204600F087
:103ED000D9FA4FF4C2701390FE20129001200321F2
:103EE000724A13ABCDE900210290024641F204412F
:103EF000204600F0C7FA012003216D4A12ABCDE93C
:103F000000210290022241F20441204600F0BAFA58
:103F10006948119001200321644A11ABCDE90021C9
:103F20000290024641F20461204600F0ABFA40F2F2
:103F300085101090FE200F90012003215B4A10ABEA
:103F4000CDE900210290024641F20541204600F0F1
:103F500099FA01200321564A0FABCDE900210290C6
:103F6000022241F20541204600F08CFA53480E909F
:103F7000012003214D4A0EABCDE9002102900246FB
:103F800041F20561204600F07DFA4FF4C3700D90B8
:103F9000FE200C9001200321444A0DABCDE9002105
:103FA0000290024641F20641204600F06BFA0120E1
:103FB00003213F4A0CABCDE900210290022241F2DD
:103FC0000641204600F05EFA3D480B900120032197
:103FD000364A0BABCDE900210290024641F2066160
:103FE000204600F04FFA40F287100A90FE20099018
:103FF000012003212D4A0AABCDE90021029002469F
:1040000041F20741204600F03DFA01200321284AF1
:1040100009ABCDE900210290022241F2074120467E
:1040200000F030FA27480890012003211F4A08AB0E
:10403000CDE900210290024641F20761204600F0DE
:1040400021FA4FF4C4700790FE200690012003214E
:10405000164A07ABCDE900210290024641F2084121
:10406000204600F00FFA01200321114A06ABCDE9EA
:1040700000210290022241F20841204600F002FA9B
:104080001148059001200321084A05ABCDE9002124
:104090000290024641F20861204600F0F3F91CB09C
:1040A00010BD0000487F0020547F00204C7F00207E
:1040B000447F002020016760200267602003676062
:1040C00020046760200567602006676002469F2A1B
:1040D00004D1087808B10348704700BF00BF002032
:1040E000FAE70000300009062DE9F047054640F2E6
:1040F000F317284600F04EFE804641F62430405922
:1041000000EB0809002605F62C1425E0207800F0C5
:104110000100F0B12069484513D8606910B9022048
:10412000207016E06069B8FBF0F100FB1180616956
:10413000081A2061032020702069B84209D227693B
:1041400007E02069A0EB090020612069B84200D295
:104150002769701C06B21834B5F9EC09B042D5DAFB
:1041600041F6243047512946384605F05BF80026D1
:1041700005F62C1410E0207800F0020048B12078F9
:1041800020F002002070A06818B1D4E90221606814
:104190009047701C06B21834B5F9EC09B042EADA5F
:1041A000BDE8F087704700002DE9FE4F8046894644
:1041B00092461F46DDE90C4B4AEA0940029043460D
:1041C00001AAD8F820C000200299E04705460198CE
:1041D00010B10198BDE8FE8F0E9860B1A87A022850
:1041E00009D12A4800231A4651460090484600F05B
:1041F000D5F92648EEE717B94FF00060EAE7687A8C
:1042000000F0E6FB2168884205D9687A00F0E0FBFF
:1042100020601F48DEE7687A8BF80000687A00F0BB
:10422000D7FB06469BF80000092806D032463846E0
:10423000E968FCF788F8266026E0E8680346D4F8C9
:1042400000C0BCF1000F02D0D4F800C000E0B446BA
:104250000CEB0002394603E010F801CB01F801CB6A
:1042600090F800C0BCF1000F01D09042F4D3A0EB55
:10427000030CC4F800C0D4F800C0B44503D24FF01A
:10428000000C80F800C000BF0020A3E70100010679
:1042900005000405704770477047704770477047C6
:1042A0007047704710B50446A069008820B9012204
:1042B0000021204601F0CCF810BD00002DE9FF419F
:1042C00004460F46002500264FF0030840F26A70AE
:1042D000005D18B9002004B0BDE8F0814FF0C05077
:1042E00040EA0541234603AA0020D4F820C0E04755
:1042F0006249884271D00020009001900290ABE0AA
:10430000B8F1030F06D0B8F1050F67D0B8F10B0F65
:1043100074D199E05A4840EA0541234603AA002097
:10432000D4F820C0E047C068006800F0004010B139
:104330004FF00B088FE05248401C40EA05412346ED
:1043400003AA0020D4F820C0E047C6684FB33078F5
:10435000012826DB3078F02823DC05EBC501A068B6
:1043600010F81100401CC0B205EBC502A16801F8AD
:1043700012003178884214D1002005EBC502A168F3
:1043800001F812000090019002906A4629462046EA
:1043900000F020F910B14FF00B085CE04FF0050879
:1043A00049E067B33078FC282AD105EBC501A06845
:1043B00000EB4100821D2946204600F00BF970B148
:1043C00005EBC501A06810F8110020F0010005EB15
:1043D000C502A16801F812000DE04CE02CE005EBED
:1043E000C501A06810F8110040F0010005EBC502FE
:1043F000A16801F812004FF00B082CE029E0FFE75C
:104400000FB1307870B1A7B93078FF2802D030787A
:10441000FE280ED105EBC501A06810F8110000F0D0
:10442000010030B92946204604F0B0FB4FF00B08DC
:1044300001E04FF00B080EE06A462946204604F0E2
:1044400073FC4FF00B0806E0681CC5B24FF0030880
:1044500001E0FF203FE700BF4FF0C05040EA0541B8
:10446000234603AA0020D4F820C0E047034988422D
:104470007FF446AF00BF00202DE700000CCA0020EB
:10448000010000182DE9FF4F83B007468946924688
:10449000109C4AEA094002903B4601AAD7F820C086
:1044A00000200299E0470546019818B1019807B02D
:1044B000BDE8F08F119860B1A87A012809D132487F
:1044C0000090002251464846236800F067F82E48C5
:1044D000EDE795F80980687A00F07AFA06462068D8
:1044E00040B12068B04205D0B8F1090F41D1206831
:1044F000B0423ED2FA694046069990470190019831
:1045000048B101980090324651464846236800F071
:1045100045F80198CBE72268E8680699FBF758FF51
:104520008346BBF1000F01D11848C0E7B8F1090F6D
:1045300006D12068B04203D20020E968226888547E
:104540002660686948B15246294638466B699847E3
:104550000190019808B10198A9E7A87A00F0040039
:1045600028B1524649463846D7F8D03898470020F7
:104570009DE726600648009032465146484623682B
:1045800000F00CF8024892E7020001063300000830
:10459000100007067047704700BF704730B50546EA
:1045A000039C002030BD10B572B6A82000F0D0F9F1
:1045B000FDF746FAFDF7CEF9FCF72EF84FF4FA7046
:1045C00000F03EFA54214FF47A70FFF7CBFA62B64E
:1045D00010BD00002DE9F04F8DB004460D46164683
:1045E0004FF0C05040EA054123460CAA0020D4F801
:1045F00020C0E0470B904FF0D05040EA05412346E1
:104600000CAA0020D4F820C0E0470A904FF000091F
:1046100000274FF0D05040EA054123460CAA002065
:10462000D4F820C0E047C0680990364840EA054108
:1046300023460CAA0020D4F820C0E047C0680088B8
:1046400030800020B07000BF0020069007904FF02F
:10465000D05040EA054009F1010240EA0201234638
:104660000CAA0020D4F820C0E047D0F80CA0DAF85B
:104670000000000C05909AF80080B8F1000F31D0CE
:1046800007EB080040282DD8A8F10100012101EB1B
:10469000D0000490BAF80000C0F3072B01200021DD
:1046A00008AA04ABCDE90032CDE9021006AB5A46A8
:1046B00020460599FFF778FD18B1FF200DB0BDE841
:1046C000F08F002207F00700311D01EBD701CDE983
:1046D0000102009108F0FF00134606A9FDF749F812
:1046E000474400BF09F1010000F0FF090998007874
:1046F0004845A9DC781E012101EBD000F0700020B4
:10470000DCE700000100001870B504460D462E8855
:10471000F0110F2855D2DFE800F04C085422232472
:104720002526272829393A544300802E0ED141F6F8
:1047300088300059401C41F6883108514FF4ED6033
:10474000005D58B1204604F0C3F907E040F26770FD
:10475000005D18B12946204600F085FF31E000BF1A
:1047600000BF00BF00BF00BF00BF00BF41F68C30DC
:104770000059401C41F68C31085140F26A70005DCE
:1047800018B12946204601F09FF81AE000BF40F218
:104790006670005D18B12946204601F05FFA10E00E
:1047A00040F26970005D18B12946204600F0F2FF22
:1047B00007E0A069008818B12946204600F06EFF86
:1047C00000BF00BF70BD00002DE9F04385B0044676
:1047D0000E464FF001096D4630882860B07810B160
:1047E0000220687201E00020687200202872F078D0
:1047F000A872B4F82409012802D1DFF88C8005E002
:10480000B4F82409022801D1DFF8808000220121B8
:10481000D4F8CC08FCF70AFB002705E0301DC15D89
:1048200005F10B00C1557F1CF078B842F6D8B9F1FC
:10483000010F26D12946D4F8CC08FCF712FC042835
:1048400013D1404600F057FD68B92946404600F0B4
:104850001BFD01221146D4F8CC08FCF7E7FA012031
:1048600005B0BDE8F083FF20FAE7404600F038FDD0
:1048700028B901221146D4F8CC08FCF7D7FA002059
:10488000EEE700BFECE7000028CA00202CCF002094
:10489000F0B585B005460F466C4628882060A8789C
:1048A00010B10220607201E00020607200202072CE
:1048B000E878A072002201212348FCF7B7FA00260D
:1048C00005E0281D815D04F10B008155761CE87818
:1048D000B042F6D8012F22D121461B48FCF7C1FB7C
:1048E000042811D1194800F006FD58B9214617488F
:1048F00000F0CAFC012211461348FCF797FA012088
:1049000005B0F0BDFF20FBE7104800F0E9FC20B93E
:10491000012211460C48FCF789FA0020F0E7022F2B
:1049200010D10A4800F0E7FC50B92146074800F0D2
:10493000ABFC012211460448FCF778FA0120DFE7BE
:10494000FF20DDE700BFDBE7006800402CCF002040
:1049500010B504466FF00400FEF789FFE11704EB81
:104960005171C1F3C701074A11701046007800EB7E
:104970004001C1EBC0104FF6FF7101EAC0000249CF
:10498000088010BD607F0020627F002001B584B0E8
:1049900040F28310ADF8040000208DF806000420DA
:1049A0008DF807000498C0B28DF808000498010A39
:1049B0008DF809100498010C8DF80A100498010E66
:1049C0008DF80B10022101A8FFF762FF05B000BDB2
:1049D00001460020062915D005DC29D2DFE801F0C8
:1049E000281E16181A10322920D004DC07290BD0F3
:1049F00008291DD110E0482912D0492918D112E008
:104A0000012017E0022015E0042013E0012011E04E
:104A100002200FE004200DE004200BE0012009E05B
:104A2000054A106806E0054A106803E00C2001E022
:104A3000002000BF00BF7047C818002044190020A4
:104A400070B504464FF4077094FBF0F0C6B24FF413
:104A5000077094FBF0F100FB114085B205E04FF4C4
:104A6000077000F009F8701EC6B2002EF7D115B11C
:104A7000284600F001F870BD0146114A12884A43E9
:104A80004FF0E0235A6100229A611A46126942F0FF
:104A900001021A6100BF4FF0E022106900F001022C
:104AA0001AB100F48032002AF5D04FF0E0221269EA
:104AB00022F001024FF0E0231A6100229A61704750
:104AC000627F002010B50446044A05492046FEF7DF
:104AD00083FA0020D4F8F018087010BD872600086B
:104AE00000000310704700002DE9F04F85B08146AB
:104AF0008A4693461E460020049000BF00BF00BFB8
:104B0000012000FA0BF0C117CDE902010020CDE928
:104B10000060AAEB0900C517044648F6A043002030
:104B20002146A1FB037C05FB03C204FB00253C4698
:104B3000DDE90060DDE90212A1FB067C02FB06C292
:104B400001FB00233A4620462946FBF7ACFB04460E
:104B50000D4600210846091BA84110DA48F6A0417D
:104B60000020091BA84108DA48F6A042002320468D
:104B70002946FBF798FB04920FE004940DE00949E5
:104B8000611A75F1FF3007DA064A131420462946E8
:104B9000FBF789FB049200E00494049805B0BDE89B
:104BA000F08F00006073FFFF2DE9FF5F04460E46A3
:104BB00015469946DDE90EA802AB2A463146204645
:104BC00000F055F9074637B9012D04D19DF80810BA
:104BD000204603F0A1FFDFBB022D39D19DF808105C
:104BE00001EB4102C2EB411204F1240101EB82010D
:104BF000B1F96E0022462C49FCF731FE9DF80810F1
:104C000001EB4102C2EB411204F1240101EB8201EC
:104C1000A1F86E0001220221D4F8CC08FCF706F9B5
:104C200085219DF8080000EB4002C2EB401204F120
:104C3000240000EB820081709DF8080000EB400129
:104C4000C1EB401104F1240000EB8100C0F80880A2
:104C50004B46324629462046CDE900A804F000F92B
:104C600007461FB1FF2004B0BDE8F09F022D0BD115
:104C70000E4840EA0641234603AA0020D4F820C08B
:104C8000E047C06890F800B0012D0BD1084840EA19
:104C90000641234603AA0020D4F820C0E047C0689C
:104CA00090F800B00020DEE7FD2F0008030080121E
:104CB000030000122DE9F04782460E4617461D46B6
:104CC0004FF00008B5F8A00E401E81469EBB2CE0B8
:104CD00008EB090000EBD0714C1005F6F41000F55C
:104CE0002F6050F8240001685046FBF7A7FB00280E
:104CF00002DAA4F1010918E005F6F41000F52F60BE
:104D000050F8240001685046FBF798FB002802DDAC
:104D100004F1010809E00020386005F6F41000F500
:104D20002F6050F82400BDE8F087C845D0DD174853
:104D300038601748F7E7FFE736B31FE008EB0900D4
:104D400000EBD0714C1005F6A46050F824004068C8
:104D5000B04202D9A4F1010910E005F6A46050F8B0
:104D600024004068B04202D204F1010806E00020AD
:104D7000386005F6A46050F82400D4E7C845DDDDAE
:104D8000024838600248CEE700BFCCE700000206C8
:104D90000CCA002070B50446D4F82809FEF716FFA7
:104DA000054641F62C300059A84206D941F6843018
:104DB0000059401C41F68431085141F62C3000590D
:104DC000A84204D241F62C300059281A70BD41F691
:104DD0002C300059401BF9E770B500244FF40071E6
:104DE0000E48FCF770FE05464FF480710C48FCF746
:104DF0006AFE022111FB005509020948FCF763FE17
:104E0000042111FB005509020548FCF75CFE08214E
:104E100011FB005484F00F04204670BD00080240CE
:104E200000000240014608680078704730B503462C
:104E30000C46002117E001EB4100C0EB411503F1E6
:104E4000240000EB8500807858B9117001EB410017
:104E5000C0EB411503F1240000EB850044700020F5
:104E600030BD481CC1B21029E5DBFF20F8E770B562
:104E700004460D4600212FE001EB4100C0EB411636
:104E800004F1240000EB8600807818B301EB4100A8
:104E9000C0EB411604F1240000EB860080788528E1
:104EA00018D001EB4100C0EB411604F1240010F8CA
:104EB0002600A8420ED101EB4100C0EB411604F1DF
:104EC000240000EB86004078904203D103B11970B2
:104ED000002070BD481CC1B21029CDDBFF20F8E7CF
:104EE00030B5034601EB4100C0EB411403F124004F
:104EF00000EB8400006910B90020106013E001EBA2
:104F00004100C0EB411403F1240000EB840004696C
:104F100001EB4100C0EB411503F1240000EB8500DB
:104F20004069201A1060002030BD0000F8B504462A
:104F3000244A25492046FEF74FF8002084F8C80887
:104F400000251CE0D4F8880730F8250086B2A6B109
:104F5000002000904FF47A7006FB00F31B4A2946AC
:104F60002046FEF799FBD4F88C1721F81500012292
:104F70000221D4F8CC08FBF759FF681CC5B2D4F85D
:104F800084070078A842DDDCD4F890070088B8B127
:104F9000D4F8900706884FF47A7106FB01F006FBFF
:104FA00001F30B4A002100902046FEF775FBA4F8A0
:104FB000940701220221D4F8CC08FBF737FF00BF89
:104FC000F8BD000057260008000017104117000820
:104FD000BD2E000870B50446002513E0D4F88C17E8
:104FE00031F9150022461149FCF739FCD4F88C1729
:104FF00021F8150001220221D4F8CC08FBF716FF96
:10500000681CC5B2D4F884070078A842E6DCB4F97D
:10501000940722460649FCF722FCA4F894070122D3
:105020000221D4F8CC08FBF701FF70BD411700083E
:10503000BD2E0008F0B506460C46154656F824006D
:1050400047681BE000E06D1EAC4204DA56F825000C
:105050004068B842F7D22A462146304604F09CF90F
:1050600000E0641CAC4204DA56F824004068B84200
:10507000F7D92A462146304604F08EF9AC42E1DBEE
:105080002046F0BD70B504460D46012C03D12846DC
:10509000FBF7D2FA04E0022C02D12846FBF7F8FB1A
:1050A000002070BD2DE9F84304460D46174698468A
:1050B000DDE90896022E05D0032E03D0042E01D080
:1050C000052E18D100206E4B6E4A294600902046CE
:1050D000FEF7E2FA05EB4501C1EB451204F12401AC
:1050E00001EB8201A1F86E0001220221D4F8CC0864
:1050F000FBF79CFE1DE005EB4501C1EB451204F1F9
:10510000240101EB8201B1F96E0022465D49FCF7F2
:10511000A6FB05EB4501C1EB451204F1240101EBAF
:105120008201A1F86E0001220221D4F8CC08FBF71D
:105130007DFE05EB4500C0EB451104F1240000F8AD
:10514000217005EB4500C0EB451104F1240000EB94
:105150008100A0F80C8005EB4500C0EB451104F17F
:10516000240000EB810080F80E9005EB4500C0EBB9
:10517000451104F1240000EB81008670002105EB4D
:105180004500C0EB451204F1240000EB82000171E0
:1051900005EB4500C0EB451204F1240000EB820052
:1051A000016105EB4500C0EB451204F1240000EB62
:1051B0008200416105EB4500C0EB451204F124007B
:1051C00000EB820080F8581005EB4500C0EB45125B
:1051D00004F1240000EB820080F8591005EB450033
:1051E000C0EB451204F1240000EB820080F85A1055
:1051F00005EB4500C0EB451204F1240000EB8200F2
:10520000C16505EB4500C0EB451204F1240000EB3D
:10521000820080F8601005EB4500C0EB451204F1F8
:10522000240000EB820080F8611005EB4500C0EB24
:10523000451204F1240000EB820080F8621005EBB7
:105240004500C0EB451204F1240000EB820080F819
:10525000631005EB4500C0EB451204F1240000EBA0
:10526000820080F86C1005EB4500C0EB451204F19C
:10527000240000EB820001670020BDE8F8830000F5
:10528000C0C62D00FD2F000870B504460D4620460F
:1052900000F031F8B0B9B4F8021501EB810104EB6C
:1052A000810014222946FBF797F8B4F80215481C30
:1052B000C11700EB91618911A0EB8111A4F80215CF
:1052C000002070BDFF20FCE710B5034603480088AE
:1052D000401C024C2080002010BD00007200002005
:1052E0000146B1F80005B1F80225904201D1012034
:1052F00070470020FCE70146B1F80225501CB1F8C8
:105300000025C31700EB93639B11A0EB83139A4214
:1053100001D1012070470020FCE710B5044620466B
:10532000FFF704FE204600F0D9F810BD10B5044682
:105330002046FFF74FFE204600F01AF910BDF0B5E9
:1053400004461D4601EB4100C0EB411704F1240067
:1053500000EB870040691044402801D9FF20F0BDD0
:1053600001EB4100C0EB411704F1240000EB870082
:105370004069871801EB4100C0EB411C04F1240097
:1053800000EB8C000069874201D9FF20E7E701EBC1
:105390004100C0EB411704F1240000EB870046698F
:1053A00000230DE001EB4100C0EB411704F12400A4
:1053B00000EB87001830F718C05DE854581CC3B2E2
:1053C0009342EFD301EB4100C0EB411704F12400FD
:1053D00000EB87004069871801EB4100C0EB411CDE
:1053E00004F1240000EB8C0047610020B7E70000C7
:1053F00000BFFFF7D8F8FEF7B5FC0A48FEF720FA21
:105400004FF4FA70FFF71CFBFCF78BF900BF06485E
:1054100040780028FBD003E0FCF760FAFCF740FA84
:10542000FAE7000030D400206CC50020FEB5054628
:105430000C4644F4E066ADF8006001208DF80200EF
:1054400000208DF8030069462846FFF7BDF9FEBD30
:10545000FEB506460C4615460020ADF800008DF856
:10546000020002208DF803008DF804508DF80540ED
:1054700069463046FFF7A8F9FEBD2DE9F041064622
:105480000C46154656F82400076821E000E06D1E22
:10549000AC4207DA56F8251008683946FAF7CEFF0D
:1054A0000028F4DA2A462146304603F075FF00E072
:1054B000641CAC4207DA56F8241008683946FAF73B
:1054C000BDFF0028F4DD2A462146304603F064FF84
:1054D000AC42DBDB2046BDE8F0810000F8B50446B5
:1054E0001F4A20492046FDF777FD1D4A1E492046E8
:1054F000FDF772FDD4F82408008880B3D4F828089A
:10550000007860B3D4F8240806884FF47A7106FB5B
:1055100001F006FB01F3154A002100902046FEF73A
:10552000BBF8A4F81C0801220221D4F8CC08FBF730
:105530007DFC002510E004F29C70405D0F2809D02E
:1055400020680088A84205D0D4F82808017804F61D
:105550002C004155681CC5B2802DECDB00BFF8BDA6
:105560006F26000800000C1000000D10191C000828
:1055700010B50446B4F91C0822460649FCF76FF939
:10558000A4F81C0801220221D4F8CC08FBF74EFC39
:1055900010BD0000191C0008F0B587B004460D4688
:1055A00040200690012005AA06ABCDE9012000931A
:1055B000039005EB4500C0EB451704F1240000EB18
:1055C000870000F1180305EB4500C0EB451704F117
:1055D000240000EB8700827B05EB4500C0EB4517FC
:1055E00004F1240000EB870081892046FEF7DCFDF2
:1055F000064616B1304607B0F0BD05EB4500C0EBDE
:10560000451204F1240000EB82000699016100219B
:1056100005EB4500C0EB451204F1240000EB8200CD
:1056200041610020E7E770B504460D462046FFF7CC
:1056300057FE08B1FF2070BDB4F8000500EB8000F4
:1056400004EB800114222846FAF7C6FEB4F80015D0
:10565000481CC11700EB91618911A0EB8111A4F8DE
:1056600000150020E7E72DE9F04105460C46E078FB
:10567000082801D0BDE8F081207800F07F0621796C
:10568000607941EA002794F8068043463A4631465D
:105690002846D5F820C9E04700BFEBE770B50446BF
:1056A0000D4694F864077F2807D094F8640705280E
:1056B00003D094F8640704286BD1687920B1687925
:1056C00021680988884264D128790A2815D007DC26
:1056D00007285DD2DFE800F05C121F0D105C0E00A1
:1056E0000F2808D0802823D081282ED082284FD19F
:1056F00037E04DE000BF4BE04AE049E094F8640732
:105700007F2803D094F86407042803D1052120469C
:1057100003F022FD3CE094F864077F2803D094F85E
:105720006407052803D10421204603F015FD2FE06E
:1057300094F86407052803D094F86407042803D17B
:105740007F21204603F008FD22E0D4F87C0718B141
:105750002046D4F87C1788470021204603F0FCFC43
:1057600016E02046FFF75EFB0646D4F8800718B126
:105770002046D4F880178847FF20216808803146EA
:10578000204603F0FBFB0021204603F0E5FC00BFB0
:1057900000BF70BD2DE9FE4F04460F46387800F07B
:1057A0007F05B878012829D120680088A84224D133
:1057B0002068008800F5E06086B2ADF80060012046
:1057C0008DF8030000208DF8020094F864078DF82E
:1057D000040094F8C80848B19DF8040040F0800027
:1057E0008DF80400002084F8C80802E0012084F845
:1057F000C80869462046FEF7E7FF61E0387900F007
:105800007F08D4F82808017804F62C004155903818
:10581000405D404509D0424629462046D4F8C43868
:10582000984704F29C7000F8058004F29C70405D7B
:1058300020B929462046D4F8C028904704F29C702D
:10584000405D0F283BD0002633E0D4F8880750F89D
:105850002600C0F307494D4529D1D4F8880730F810
:1058600026001FFA80FAD4F88C1731F91600224668
:105870001449FBF7F4FF01220221D4F8CC08FBF70E
:10588000D5FA002000904FF47A700AFB00F30D4A1D
:1058900031462046FDF700FFD4F88C1721F816009A
:1058A00001220221D4F8CC08FBF7C0FA00BF701C1B
:1058B000C6B2D4F884070078B042C6DC00BF00BF8F
:1058C000BDE8FE8F411700082DE9F04F8DB004466A
:1058D0000E4600200B9081468246099006900220D9
:1058E00008903088C0F30A000690002700250020A9
:1058F0000C90B07800287CD1C7E00898022802D02C
:10590000042812D117E0D04840EA054123460AAAEC
:105910000020D4F820C0E047C068099009980088AA
:105920003188884202D104200890ADE0681CC5B2DD
:1059300002200890A8E04FF0B05040EA054123460D
:105940000AAA0020D4F820C0E047C0680B900020CD
:105950000C905EE00020049005904FF0B05040EABB
:1059600005420C98401C42EA000123460AAA002086
:10597000D4F820C0E047D0F80C90B9F1000F03D163
:10598000FF200DB0BDE8F08F99F80080B8F1000F4E
:105990003AD007EB0800F178B0EBC10F34DC0020FF
:1059A00004AACDE90020BB460290F81707EB50701F
:1059B000C010A7EBC000C2B2301D00EBE70100230E
:1059C0004046FBF7D6FEA8F10100012101EBE00003
:1059D00003900120002103AACDE900210290B9F82B
:1059E0000000C0F30722D9F80000010C04AB2046E8
:1059F00000E059E0FEF746FD0790079808B1FF2048
:105A0000BFE707EB0800C7B20C98401CC0B20C906F
:105A100000BF0B9801780C9881429BDCE06888B34A
:105A20008948001D40EA054123460AAA0020D4F80F
:105A300020C0E047C068B0F800B0BBF1000F20D034
:105A4000E26832F9150022462169FBF708FF0122BE
:105A50000221D4F8CC08FBF7E9F9002000904FF4BC
:105A60007A700BFB00F3294620462269FDF714FEED
:105A7000E16821F8150001220221D4F8CC08FBF7D7
:105A8000D5F900BF00207CE700BF4FF0A05040EAEE
:105A9000054123460AAA0020D4F820C0E0476B49FC
:105AA00088427FF42AAFCCE0B0780128FBD108907F
:105AB000B9E00898012804D004281AD0052812D18A
:105AC0008EE0634840EA054123460AAA0020D4F844
:105AD00020C0E047C0680990099800883188884252
