:020000040800F2
:10000000E8080020C50C0008B5030008B703000885
:10001000BB030008BF030008C30300080000000082
:10002000000000000000000000000000C7030008FE
:10003000C903000800000000CB030008CD0300083E
:10004000E50C0008E50C0008E50C0008E50C0008CC
:10005000E50C0008E50C0008E50C0008E50C0008BC
:10006000E50C0008E50C0008E50C0008E50C0008AC
:10007000E50C0008E50C0008E50C0008E50C00089C
:10008000E50C0008E50C0008E50C0008E50C00088C
:10009000A1C80008E50C0008E50C0008E50C000804
:1000A000E50C0008E50C0008E50C0008E50C00086C
:1000B000D7C50008E50C0008E50C0008E50C0008B1
:1000C000E50C0008E50C0008E50C0008E50C00084C
:1000D000E50C00083D070008E50C0008E50C0008E9
:1000E000E50C0008E50C0008E50C0008E50C00082C
:1000F000E50C0008E50C0008E50C0008E50C00081C
:10010000E50C0008E50C0008E50C0008E50C00080B
:10011000E50C0008E50C0008E50C0008E50C0008FB
:10012000E50C0008E50C0008E50C0008E50C0008EB
:10013000E50C0008E50C0008E50C0008E50C0008DB
:1001400057C90008E50C0008E50C0008E50C00089C
:10015000E50C0008E50C0008E50C0008E50C0008BB
:10016000E50C0008E50C0008E50C0008E50C0008AB
:10017000E50C0008E50C0008E50C00080000000094
:10018000E50C0008E50C000800F002F800F067F844
:100190000AA090E8000C82448344AAF10107DA45E2
:1001A00001D100F05CF8AFF2090EBAE80F0013F0CD
:1001B000010F18BFFB1A43F001031847D8D5000000
:1001C000F8D500000A444FF0000C10F8013B13F082
:1001D000070408BF10F8014B1D1108BF10F8015BA0
:1001E000641E05D010F8016B641E01F8016BF9D193
:1001F00013F0080F1EBF10F8014BAD1C0C1B09D1EA
:100200006D1E58BF01F801CBFAD505E014F8016B5B
:1002100001F8016B6D1EF9D59142D6D370470000ED
:100220000023002400250026103A28BF78C1FBD8FF
:10023000520728BF30C148BF0B60704764290CF0DB
:10024000678478290CF0A08473290CF0D0850020F5
:1002500070471FB50CF062FE1FBD10B510BD0CF04D
:100260002BFE1146FFF7F5FF00F008F80CF049FEF1
:1002700003B4FFF7F2FF03BC00F000FA86B00020E1
:100280004549087088704870C870002500F0CCF8A7
:1002900000F09EF84FF4407000F036FDA82000F00A
:1002A0006BF93E493E480CF0AFF90CF02BF94FF4D6
:1002B000E13000F0F0F90126314639480BF0A5FD98
:1002C000002137480BF039FD052135480BF035FD8D
:1002D00034A103C9CDE9040140F20160ADF8040086
:1002E00000208DF8060008208DF80700002004E0AB
:1002F00004A90A5C02A90A54401C0828F8DB49E05A
:10030000002000F0D4F80446CCB1012C06D0022C19
:1003100008D0032C0AD0042C10D10BE001201E4978
:1003200008700BE001201C49487007E001201A49C1
:10033000887003E001201849C87000BF00BF16484C
:10034000007858B101A919480CF077FA054615B99B
:1003500000201749086000200F4908700E484078B7
:1003600028B100201249091D08600B4948700A484D
:10037000807828B101200E49086000200649887065
:100380000548C07830B101200949091D08600020E6
:100390000149C870B4E700000000002040420F008F
:1003A0007401002023FF600078000000006400401A
:1003B000A4824242704700BFFEE700BFFEE700BFD5
:1003C000FEE700BFFEE770477047704770470000C8
:1003D0001CB50121202001F02BF801208DF804002C
:1003E00000208DF8060001208DF8070003208DF80D
:1003F00005004FF4007000906946084800F07AFD4F
:100400004FF4806000906946044800F073FD0120BD
:10041000034908600349C1F8A8021CBD001402404A
:10042000A4824242008042421CB500BF4E48006890
:1004300040F010004C49086000BF00BF084600684B
:1004400040F01000086000BF00BF0846006840F0A0
:100450001000086000BF00BF0846006840F00100BF
:10046000086000BF0120009000231A46102101906F
:100470003E4800F083FA0120009000231A4608212C
:1004800001903A4800F07AFA0120009000231A46C1
:1004900004210190354800F071FA02200121002367
:1004A0001A46CDE90010324800F068FA1CBD70B55C
:1004B0000446002514B101202E4908702D4800780B
:1004C000002834D01021294800F0C7FA78B108215B
:1004D000264800F0C2FA50B10421244800F0BDFAC9
:1004E00028B10121224800F0B8FA01281FD10A20C2
:1004F00000F0A4F800201F49087010211B4800F0EC
:10050000ACFA00B901250821184800F0A6FA00B994
:1005100002250421154800F0A0FA00B903250121A5
:10052000134800F09AFA01281BD1042519E0102184
:100530000E4800F092FA012813D108210B4800F070
:100540008CFA01280DD10421084800F086FA012810
:1005500007D10121064800F080FA10B901200549B1
:100560000870284670BD000030380240001002407C
:10057000000002400400002010B504466FF00400A3
:1005800000F014FCE11704EB5171C1F3C701394AC3
:1005900011701046007800EB4001C1EBC0104FF61F
:1005A000FF7101EAC0003449088010BD0146314A9C
:1005B00012784A434FF0E0235A6100229A611A46AA
:1005C000126942F001021A6100BF4FF0E022106987
:1005D00000F001021AB100F48032002AF5D04FF089
:1005E000E022126922F001024FF0E0231A6100229A
:1005F0009A6170470146204A12884A434FF0E0232F
:100600005A6100229A611A46126942F001021A6187
:1006100000BF4FF0E022106900F001021AB100F4AF
:100620008032002AF5D04FF0E022126922F0010258
:100630004FF0E0231A6100229A61704770B50446BA
:100640004FF4077094FBF0F0C6B24FF4077094FBC0
:10065000F0F100FB114085B205E04FF40770FFF7A1
:10066000C9FF701EC6B2002EF7D115B12846FFF79C
:10067000C1FF70BD060000200800002000BF7047C9
:1006800000BF354A128802F04002002AF9D0C2B2F7
:10069000314B9A80704710B588B004460121084656
:1006A00000F0C6FE0121102000F01CFF07220921E6
:1006B0002A4800F0AAFC07220A21284800F0A5FCDD
:1006C0004FF4C060069002208DF81C008DF81D00CC
:1006D00000208DF81E0001208DF81F0006A91F487C
:1006E00000F008FC02940020ADF80C00ADF80E00FC
:1006F000ADF81000ADF814000C20ADF8120002A9FE
:10070000154801F050F80121134801F0D4F80122F6
:1007100040F22551104801F084F925208DF804009D
:100720000F208DF8050000208DF8060001208DF8BF
:10073000070001A800F0EDFA08B010BD10B540F2B6
:100740002551054801F0A8F928B1034801F0E2F865
:10075000C4B20148848010BD001001400000024076
:100760004A0A52020243FE4B1A60704701460723B1
:1007700023EA01021202FA4B1B1D18684FF6FF0311
:100780001840F84B18431043F54B1B1D1860704779
:100790002DE9F0410746884614461D462846FFF7D6
:1007A000E5FFC5F1040007FA00F60F20284100EA32
:1007B0000800064306F00F06E21704EBD26252115E
:1007C000920002F1E022D2F800212146E31704EB67
:1007D000D3635B11A4EB431C012303FA0CF31A430C
:1007E0002046E31704EBD3635B119B0003F1E02386
:1007F000C3F80021DC48005D40EA0610DA490855DC
:10080000BDE8F0812DE9F04303460C4600260020A8
:1008100000250027DFF854C3A3EB0C0C4FEA9C26FD
:10082000DFF84CC3DCF800C04CF4804CDFF84083A8
:10083000C8F800C000BF69E04FF0010C0CFA00F5E9
:1008400004EA0507AF4260D14FEA807C4FEA1C7191
:10085000DFF820C34FEA90085CF828C04FF00F087B
:1008600008FA01F82CEA080CDFF808834FEA90092F
:1008700048F829C0C4464FEA90085CF828C006FA38
:1008800001F84CEA080CDFF8EC824FEA900948F8CE
:1008900029C0DFF8E4C2DCF800804FF0010C0CFA4C
:1008A00000FC48EA0C08DFF8D0C2CCF8008002F067
:1008B000010CBCF1000F11D0DFF8BCC20CF10C0C24
:1008C000DCF800C04FF0010808FA00F84CEA080C08
:1008D000DFF8A48208F10C08C8F800C002F0020C8E
:1008E000BCF1000F11D0DFF890C20CF1080CDCF85D
:1008F00000C04FF0010808FA00F84CEA080CDFF8D5
:10090000788208F10808C8F800C0401C102893D36A
:10091000BDE8F083F0B5034600200024002500BFA9
:1009200029E0012606FA00F401EA0405A54221D1D6
:10093000C70803F1200656F8276047074FEAD76C2F
:100940000F2707FA0CF7BE434FEAD00C03F120073C
:1009500047F82C60C70803F1200656F827604707C0
:10096000FF0E02FA07F73E434FEAD00C03F12007CF
:1009700047F82C60401C1028D3D3F0BD2DE9F04778
:100980000C46DDE90867002100258C4600BF60E0C9
:100990004FF0010808FA01F504EA050CAC4557D1FF
:1009A000D0F800804FEA410A4FF0030909FA0AF92A
:1009B00028EA0908C0F80080D0F800804FEA410911
:1009C00002FA09F948EA0908C0F80080012A01D0B2
:1009D000022A27D1D0F808804FEA410A4FF00309D4
:1009E00009FA0AF928EA0908C0F80880D0F808804E
:1009F0004FEA410906FA09F948EA0908C0F80880EF
:100A0000D0F804904FF0010808FA01F829EA080923
:100A1000C0F80490D0F8048003FA01F948EA090804
:100A2000C0F80480D0F80C804FEA410A4FF0030967
:100A300009FA0AF928EA0908C0F80C80D0F80C80F5
:100A40004FEA410907FA09F948EA0908C0F80C8099
:100A5000491C10299CD3BDE8F08702461069084064
:100A600008B1012070470020FCE730BF704772B624
:100A7000704762B6704700BF80F3088800BF7047B8
:100A800000B53B48001F006840F080503849091FFE
:100A900008603A48406840F4807038494860084629
:100AA000006840F0040008600846006840F002005A
:100AB00008602B480830006840F0040028490831DD
:100AC0000860FFF7D2FF00BD2648001D2449091D1C
:100AD00008607047F0B504460D460021002000264E
:100AE000234F443F3F6847F48037DFF884C0ACF1C0
:100AF000440CCCF8007000E0491C1D4F443F3F6897
:100B000007F400371FB947F6FF77B942F4D347F629
:100B1000FF77B94201D10120B1E0154F3F1F3F6877
:100B200047F08057DFF848C0ACF1040CCCF80070F7
:100B3000124F3F6847F44047DFF840C0CCF80070E0
:100B40000B4F403F3F6805F03F0C47EA0C07DFF8CA
:100B500020C0ACF1400CCCF8007067463F680FE055
:100B600008ED00E00000FA0500E400E000000240AB
:100B70004438024008380140003C01400070004009
:100B800047EA8417CCF8007067463F684FF0010CC5
:100B9000CCEB520C47EA0C47DFF820C1CCF80070D0
:100BA00067463F6847EA0367CCF8007067463F68CE
:100BB00047F48007CCF800700CF104073F680CF193
:100BC000040CCCF8007067463F6847F4A057CCF897
:100BD000007067463F6847F40047CCF80070374F15
:100BE0003F1F3F6847F08077DFF8D0C0ACF1040CBE
:100BF000CCF80070002105E0491CB1F5001F01D3BD
:100C0000022006E02D4F3F1F3F6807F00077002FBE
:100C1000F2D000BF2A4F3F6847F48077DFF8A0C0CA
:100C2000CCF8007067463F6847F40077CCF8007056
:100C300067463F6847F48067CCF8007067463F68B6
:100C400047F00507CCF800701C4F3F1D3F6847F088
:100C50000207DFF868C00CF1040CCCF8007000212A
:100C60000AE0164F3F1D3F68C7F38106491CB1F5E6
:100C7000001F01D3042001E0032EF2D100BFF0BD1C
:100C8000F0B504460D4616461F4601200B49091FC4
:100C9000086000200949091D0860091F086007490C
:100CA000083108603B46324629462046FFF712FFCE
:100CB00000214FF00060FFF753FDF0BD0438024003
:100CC000003C02400B48016841F4700101600A4891
:100CD0000047FEE7FEE7FEE7FEE7FEE7FEE7FEE78A
:100CE000FEE7FEE7FEE7000004480549034A054B1E
:100CF0007047000088ED00E089010008E80400204A
:100D0000E8080020E804002032490143324A11601B
:100D1000704770B5002100230F22C4781CB32E4CFD
:100D2000246804F4E064C4F5E064C4F30721C1F16D
:100D30000404E3B20A4144789C40E1B28478144050
:100D400021430C07210E254C05786155047804F0E9
:100D50001F050124AC4005786D11AD0005F1E025BB
:100D6000C5F8004109E0047804F01F050124AC40F7
:100D70001B4D0678761145F8264070BD194A0A4089
:100D80000243154B1B1F1A60704739B1124A121DDE
:100D900012680243104B1B1D1A6006E00E4A121D1A
:100DA000126882430C4B1B1D1A607047042808D13F
:100DB0004FF0E021096941F004014FF0E022116198
:100DC00007E04FF0E021096921F004014FF0E02233
:100DD000116170470000FA050CED00E000E400E04E
:100DE00080E100E080FFFF1F10B504469848844270
:100DF00008D10121084600F086FB0021012000F007
:100E000082FB76E09348844208D10121022000F061
:100E10007AFB0021022000F076FB6AE08E488442D3
:100E200008D10121042000F06EFB0021042000F015
:100E30006AFB5EE08948844208D10121082000F065
:100E400062FB0021082000F05EFB52E084488442EF
:100E500008D10121102000F056FB0021102000F0E5
:100E600052FB46E07F48844208D10121202000F057
:100E70004AFB0021202000F046FB3AE07A488442F9
:100E800008D10121402000F03EFB0021402000F06D
:100E90003AFB2EE07548844208D10121802000F001
:100EA00032FB0021802000F02EFB22E070488442BB
:100EB00008D10121801500F026FB0021A01500F0CB
:100EC00022FB16E06B48844208D10121401500F056
:100ED0001AFB0021601500F016FB0AE06648844208
:100EE00007D10121001500F00EFB0021201500F0B4
:100EF0000AFB10BDF0B50A4600210023002400BF04
:100F00003DE0012505FA01F3156805EA03049C425A
:100F100034D105684F000326BE40B54305601579FE
:100F20004E00B5400668354305601579012D02D0A5
:100F30001579022D16D185684F000326BE40B543B2
:100F4000856055794E00B5408668354385604568B3
:100F500001268E40B5434560456896798E40B6B20D
:100F600035434560C5684F000326BE40B543C560A4
:100F7000D5794E00B540C6683543C560491C102977
:100F8000BFD3F0BD4FF6FF710160002101714171C7
:100F90008171C171704708B54FF480320092009A98
:100FA0000A430092009AC261C161009AC261C2699B
:100FB0000092C269009208BD0246002013690B40EE
:100FC0000BB1012000E0002070470146086980B2A3
:100FD00070470246002053690B400BB1012000E02E
:100FE000002070470146486980B27047018370470E
:100FF000418370470AB1018300E04183704741613A
:10100000704742694A4042617047F0B500230024AE
:101010004D07ED0E02FA05F3CE1000F1200555F84C
:1010200026504E07F70E0F26BE40B543CF1000F1F5
:10103000200646F82750CE1000F1200555F826501E
:1010400045EA0304CE1000F1200545F82640F0BD26
:10105000000002400004024000080240000C024070
:10106000001002400014024000180240001C024020
:10107000002002400024024000280240F948006895
:1010800040F00100F74908600020F6490831086087
:10109000F4480068F4490840F2490860F348091D23
:1010A0000860F348EF4984310860F0481038091DA2
:1010B0000860EC48006820F48020EA4908600020BD
:1010C000E8490C310860E7498C310860704700211D
:1010D000E44A921C117011460870704710B5014621
:1010E0000022002300204A11012A02D1DD4C23688E
:1010F00008E0022A03D1DB4C7034236802E0D94CAB
:101100007434236801F01F02012494401C400CB188
:10111000012000E0002010BD38B500200090002420
:10112000002500BF3120FFF7D9FF05460098401C7D
:1011300000900098B0F5A04F01D0002DF2D03120E2
:10114000FFF7CCFF08B1012400E00024204638BDA1
:1011500001460020C34A106820F0F80040EAC100B0
:1011600010607047C349086070470021BD4A703263
:1011700011701170012802D004280AD104E0012165
:10118000B84A7032117005E00521B64A703211700C
:1011900000E000BF00BF7047B7490860704770B5F6
:1011A000049C41EA82150126C6EB530645EA064532
:1011B000054345EA0465AB4E361D356070BDAD494B
:1011C00008667047820142EA0172A64B84331A60B6
:1011D0007047A8498866704710B5830143EA0163E8
:1011E00043EA02739F4C8834236010BDA14908670D
:1011F0007047A049C864704702460020994B0833E5
:10120000186820F0EC6042EA01031843954B08335C
:101210001860704702460020924B0833186820F08F
:10122000784042EA010318438E4B08331860704738
:10123000014600208B4A0832106820F00300084362
:101240001060704787480830006800F00C00704755
:1012500001460020834A0832106820F0F00008435D
:1012600010607047014600207E4A0832106820F462
:10127000E05008431060704701460020794A083268
:10128000106820F4604040EAC10010607047F0B57B
:10129000002100220024022500260223714F083776
:1012A0003F6807F00C0121B1042905D0082937D186
:1012B00005E0724F076036E0714F076033E0694F19
:1012C0003F1D3F68C7F38056664F3F1D3F6807F0DC
:1012D0003F036EB16A4FB7FBF3F7DFF888C10CF13B
:1012E000040CDCF800C0CCF3881C07FB0CF40CE009
:1012F000624FB7FBF3F7DFF86CC10CF1040CDCF8BC
:1013000000C0CCF3881C07FB0CF4564F3F1D3F6810
:10131000C7F301477F1C7D00B4FBF5F7076002E0CF
:10132000564F076000BF00BF4E4F08373F6807F0B9
:10133000F0010909534F7A5C0768D7404760494F6D
:1013400008373F6807F4E051890A4E4F7A5C4768D6
:10135000D7408760434F08373F6807F46041490B27
:10136000484F7A5C4768D740C760F0BD002100F461
:101370004072B2F5407F0AD13A4A0832116821F42E
:10138000F811414A02401143364A08321160354A89
:1013900070321268C0F30B031A43324B70331A6079
:1013A000704735494439086070473349403908600F
:1013B000704736490860704701460020294A8C3240
:1013C000106820F01F004A1E1043264A8C3210601D
:1013D000704701460020234A8C32106820F4F850F0
:1013E0004A1E40EA02201F4A8C32106070470146B4
:1013F00000201C4A8C32106820F440100843106012
:10140000704701460020174A8C32106820F44000D3
:1014100008431060704701460020124A8C32106861
:1014200020F4403008431060704719490860704745
:1014300039B10C4A3032126802430A4B30331A6019
:1014400006E0084A303212688243064B30331A6095
:101450007047F9B1034A343212680243014B343306
:101460001A601CE000380240FFFFF6EA103000244A
:101470000030002000004742800E47420024F40064
:1014800000127A0010000020FFFCFF0F5C014742B1
:10149000E01147428F4A126882438E4B1A607047B0
:1014A00039B18C4A121D126802438A4B1B1D1A6007
:1014B00006E0884A121D12688243864B1B1D1A6083
:1014C000704739B1834A0C3212680243814B0C33A6
:1014D0001A6006E07F4A0C32126882437D4B0C335F
:1014E0001A60704739B17B4A103212680243794B57
:1014F00010331A6006E0774A103212688243754B47
:1015000010331A60704739B1724A243A12680243A4
:10151000704B243B1A6006E06E4A243A12688243FC
:101520006C4B243B1A60704739B16A4A203A126802
:101530000243684B203B1A6006E0664A203A126874
:101540008243644B203B1A60704739B1614A1C3AB0
:10155000126802435F4B1C3B1A6006E05D4A1C3A6E
:10156000126882435B4B1C3B1A60704739B1594A81
:10157000143A12680243574B143B1A6006E0554A6E
:10158000143A12688243534B143B1A60704739B1C6
:10159000504A103A126802434E4B103B1A6006E064
:1015A0004C4A103A126882434A4B103B1A6070470B
:1015B00039B1484A1C3212680243464B1C331A6048
:1015C00006E0444A1C3212688243424B1C331A60C4
:1015D000704739B13F4A2032126802433D4B2033F5
:1015E0001A6006E03B4A203212688243394B2033AE
:1015F0001A60704739B1374A243212680243354BBA
:1016000024331A6006E0334A243212688243314B95
:1016100024331A60704739B12E4A2C3212680243C3
:101620002C4B2C331A6006E02A4A2C321268824373
:10163000284B2C331A60704739B1264A3032126871
:101640000243244B30331A6006E0224A30321268DB
:101650008243204B30331A607047012808D11D495E
:101660003C31096841F008011A4A3C32116007E038
:1016700018493C31096821F00801164A3C321160D2
:10168000704739B1134A273A12780243114B273B6E
:101690001A7006E00F4A273A127882430D4B273B17
:1016A0001A7070470B484030006840F0807009495C
:1016B00040310860704701460020064A283A126807
:1016C0000A400AB1012000E0002070470149263994
:1016D000087070473438024010B50446FA48844216
:1016E00008D101211020FFF752FF00211020FFF741
:1016F0004EFF57E0F548844209D101214804FFF725
:1017000035FF00214FF40030FFF730FF4AE0F0488A
:10171000844209D101218804FFF728FF00214FF4FA
:101720008020FFF723FF3DE0EA48844209D10121F0
:10173000C804FFF71BFF00214FF40020FFF716FF3E
:1017400030E0E548844209D101210805FFF70EFF8A
:1017500000214FF48010FFF709FF23E0DF488442A7
:1017600008D101212020FFF712FF00212020FFF7E0
:101770000EFF17E0DA48844209D101218807FFF7FC
:10178000F5FE00214FF08040FFF7F0FE0AE0D5485B
:10179000844207D101214005FFF7E8FE00216005E2
:1017A000FFF7E4FE10BD2DE9FF4705460E46002475
:1017B000A14600BFA046B08900B100BF2C8A24F426
:1017C0004054F08804432C82AC8941F20C6084437D
:1017D000B08831890843718908430443AC81AC8ADD
:1017E00024F44074B0890443AC826846FFF74FFD8F
:1017F000B548854202D0B948854202D1DDF80C9047
:1018000001E0DDF80890A88900F4004040B109EB40
:10181000C90000EB091031684900B0FBF1F707E09F
:1018200009EBC90000EB091031688900B0FBF1F742
:101830006420B7FBF0F004012009642101FB10785B
:10184000A88900F4004040B1322000EBC800B0FB92
:10185000F1F000F00700044308E0322000EB08102C
:101860006421B0FBF1F000F00F0004432C81BDE8CF
:10187000FF874FF41651016000218180C1800181F2
:101880000C21418100218181704710B50246002062
:10189000108A20F470600B884C8823438C88234383
:1018A000CC8823431843108210BD00210180418061
:1018B0008180C180704721B1828942F400528281C7
:1018C00004E082894DF6FF731A4082817047028BD3
:1018D00002F47F420283028B0A430283704721B1E4
:1018E000828942F40042828103E08289C2F30E02BF
:1018F0008281704721B1828A42F40062828204E0D0
:10190000828A4FF2FF731A4082827047C1F3080245
:101910008280704701468888C0F308007047028AB9
:101920004FF6F0731A400282028A0A43028270471D
:1019300021B1828942F00202828104E082894FF65D
:10194000FD731A408281704782894FF2FF731A40FB
:10195000828182890A4382817047028A4FF6DF734F
:101960001A400282028A0A430282704721B1028A27
:1019700042F48042028204E0028A4BF6FF731A406E
:1019800002827047818941F001018181704721B154
:10199000828A42F00802828204E0828A4FF6F7735C
:1019A0001A4082827047028BD2B20283028B42EAD3
:1019B00001220283704721B1828A42F02002828292
:1019C00004E0828A4FF6DF731A408282704721B1A9
:1019D000828A42F01002828204E0828A4FF6EF731C
:1019E0001A4082827047828A4FF6FB731A408282C5
:1019F000828A0A438282704721B1828A42F00202BF
:101A0000828204E0828A4FF6FD731A408282704718
:101A10001AB1838A0B43838202E0838A8B438382D9
:101A20007047F0B50346002400260025002040F64C
:101A30006A17B94200D100BF1846C1F3421401F041
:101A40001F06012707FA06F5012C01D10C3004E02E
:101A5000022C01D1103000E014301AB107682F4376
:101A6000076002E00768AF430760F0BD0246002050
:101A7000B1F5007F00D100BF13880B400BB10120EE
:101A800000E00020704701F40072B2F5007F00D141
:101A900000BFCA430280704770B50246002400238D
:101AA0000025002040F66A16B14200D100BFC1F304
:101AB000421501F01F03012606FA03F3012D13D18D
:101AC0009689334017E000000010014000440040B8
:101AD00000480040004C004000500040001401400D
:101AE00000780040007C0040022D02D1168A33406D
:101AF00001E0968A33400C12012606FA04F4168897
:101B0000344013B10CB1012000E0002070BD10B5CD
:101B10000022002340F66A14A14200D100BF0A123D
:101B200001249440A3B2DC43048010BD10B50446E8
:101B3000FE48844209D101214806FFF717FD002124
:101B40004FF00070FFF712FD08E001218806FFF753
:101B50000DFD00214FF08060FFF708FD10BD30B58E
:101B6000024600200023146824F002041460146864
:101B700044F00104146000E05B1C546804F00104AC
:101B80001CB94FF6FF74A342F6D1546804F0010467
:101B90000CB900206CE08C79012C04D1146844F05D
:101BA0008004146003E0146824F080041460CC798D
:101BB000012C04D1146844F04004146003E014685C
:101BC00024F0400414600C7A012C04D1146844F011
:101BD0002004146003E0146824F0200414604C7A9C
:101BE000012C04D1146844F01004146003E014685C
:101BF00024F0100414608C7A012C04D1146844F091
:101C00000804146003E0146824F008041460CC7A1B
:101C1000012C04D1146844F00404146003E0146837
:101C200024F0040414608C78A407CD7844EA056499
:101C30000D7944EA05444D7944EA05540D886D1E3A
:101C40002C43D461146824F001041460002300E0E4
:101C50005B1C546804F001041CB14FF6FF74A342EE
:101C6000F6D1546804F001040CB1002000E001201A
:101C700030BD10B50021837A012202FA03F1AC4A8B
:101C8000126842F00102AA4B1A60A94A1C3212687B
:101C90008A43A74B1C331A60027BCAB9A44A0C3290
:101CA00012688A43A24B0C331A604288C38842EA06
:101CB00003439F4A4032847A42F834300288838852
:101CC00042EA03439A4A4032847A02EBC4025360E8
:101CD000027B012A19D1964A0C3212680A43944BAE
:101CE0000C331A604288038842EA0343904A403228
:101CF000847A42F83430C288838842EA03438C4AAB
:101D00004032847A02EBC4025360C27A3AB9884AFC
:101D1000121D12688A43864B1B1D1A6006E0844A16
:101D2000121D12680A43824B1B1D1A60028932B9C8
:101D30007F4A143212688A437D4B14331A60028939
:101D4000012A06D17A4A143212680A43784B1433B6
:101D50001A60427B012A06D1754A1C3212680A4376
:101D6000734B1C331A60724A126822F00102704BE6
:101D70001A6010BD00218171C171017241728172BE
:101D8000C1728170C1700321017102214171012171
:101D9000018070476649096841F00101644A116099
:101DA0001146096843F60E729143614A116011466B
:101DB000096841EA002111601146096821F001011A
:101DC0001160704721B1026842F48032026003E082
:101DD000026822F4803202607047E1B1026842F08A
:101DE000800202604FF4C272125842F480734FF4C2
:101DF000C27213504FF4CA72125842F480734FF4F7
:101E0000CA7213504FF4D272125842F480734FF4D6
:101E1000D27213501BE0026822F0800202604FF47D
:101E2000C272125822F480734FF4C27213504FF4EE
:101E3000CA72125822F480734FF4CA7213504FF4CE
:101E4000D272125822F480734FF4D272135070473A
:101E500010B502460020936803F08063B3F1806FF1
:101E600000D110E0936803F00063B3F1006F01D17B
:101E7000012008E0936803F08053B3F1805F01D143
:101E8000022000E00420042879D002F5C07303EB9F
:101E900000131B6803F0010402F5C07303EB001389
:101EA0001C600B7A7BB94B7A0C8843EA445302F5E9
:101EB000C07404EB00142468234302F5C07404EBDF
:101EC0000014236010E00B7A4C6843EAC4034C7A98
:101ED000234302F5C07404EB00142468234302F585
:101EE000C07404EB001423608B7A03F00F038B7231
:101EF00002F5C07303EB00135B6823F00F0402F5D7
:101F0000C07303EB00135C6002F5C07303EB0013B6
:101F10005B688C7A234302F5C07404EB00146360A1
:101F20008B7B1C064B7B44EA034403E000640040C7
:101F3000006600400B7B44EA0323CC7A234302F57E
:101F4000C07404EB0014A3608B7C1C064B7C44EA39
:101F500003440B7C44EA0323CC7B234302F5C07487
:101F600004EB0014E36002F5C07303EB00131B687D
:101F700043F0010402F5C07303EB00131C6010BDB5
:101F800010B50246002321B1012907D002290FD143
:101F900009E09068F94C00EA04030BE09068F84C03
:101FA00000EA040306E09068F64C00EA040301E04E
:101FB000002300BF00BFF44C181BA34216D007DC5F
:101FC00083B16FF08060184470B1022818D111E01D
:101FD000B0F5007F10D0ED4C204448B1B0F5003F83
:101FE0000ED10BE002230DE000230BE0002309E0FB
:101FF000002307E0012305E0012303E0012301E0C2
:10200000002300BF00BFD8B210BD21B1012907D005
:1020100002290FD109E0826842F0800282600AE062
:10202000826842F40042826005E0826842F4000265
:10203000826000E000BF00BF704710B500F5D873A4
:1020400003EB01131B6803F004031372137A53B9F3
:1020500000F5D87303EB01131B6840F2FF7404EA28
:102060005353136009E000F5D87303EB01131B68A9
:102070006FF0604404EAD303536000F5D87303EBB8
:1020800001131B6803F00203537200F5D87303EBCE
:1020900001135B6803F00F03937200F5D87303EB31
:1020A00001135B681B0AD37400F5D87303EB0113AB
:1020B0009B68D37200F5D87303EB01139B681C0A6D
:1020C000147300F5D87303EB01139B681C0C547355
:1020D00000F5D87303EB01139B681B0E937300F597
:1020E000D87303EB0113DB68D37300F5D87303EBEC
:1020F0000113DB681C0A147400F5D87303EB011399
:10210000DB681C0C547400F5D87303EB0113DB6817
:102110001B0E937421B9C36843F02003C36003E02E
:10212000036943F02003036110BD21B9C26842F086
:102130002002C26003E0026942F02002026170479F
:102140000246002019B9D36803F0030006E0012914
:1021500003D1136903F0030000E00020704710B5BD
:1021600002460B4600204FF6FF71BBB9146824F0FD
:10217000020444F00104146000E0491E546804F0B5
:102180000304012C01D00029F7D1546804F00304A2
:10219000012C01D0002032E0012030E0012B13D1CE
:1021A000146824F00304146000E0491E546804F02D
:1021B00003040CB10029F8D1546804F003040CB1F5
:1021C00000201CE001201AE0022B17D1146824F033
:1021D000010444F00204146000E0491E546804F055
:1021E0000304022C01D00029F7D1546804F0030441
:1021F000022C01D0002002E0012000E0002010BDF0
:10220000014600200A6822F0010242F002020A6040
:102210004A6802F00302022A00D1012070470146F9
:102220004FF6FF7200200B6823F002030B6000E002
:10223000521E4B6803F00203022B01D1002AF7D192
:102240004B6803F00203022B00D0012070470146C7
:1022500000208A6902F070007047014600208A69F8
:10226000100E7047014600208A69C2F3074070478C
:102270001AB143690B43436102E043698B434361F5
:10228000704710B50246002001F4700343B1936912
:10229000C1F3130423400BB101202DE000202BE0FB
:1022A00001F0807343B15368C1F3130423400BB1B1
:1022B000012021E000201FE001F0006343B193689A
:1022C000C1F3130423400BB1012015E0002013E0FB
:1022D00001F0007343B1D368C1F3130423400BB181
:1022E000012009E0002007E01369C1F31304234033
:1022F0000BB1012000E0002010BD0022244B9942C8
:1023000002D10023836111E0C1F3130201F00073D5
:102310000BB1C2600AE001F080630BB1026105E01D
:1023200001F000630BB1826000E04260704702463A
:10233000002002EA01030BB1012000E000207047F9
:1023400070B504460D46002660692840002872D00A
:10235000B5F5807F69D01DDC082D42D006DC012D4B
:102360002DD0022D31D0042D7FD134E0102D3ED060
:10237000202D42D0402D78D145E00000030000041C
:102380000003000800000310000100080001FFF72F
:102390007000F030B5F5004F61D009DCB5F5007F75
:1023A0004AD0B5F5806F4DD0B5F5006F5DD150E0E6
:1023B000B5F5803F2DD0B5F5003F56D12FE0A06890
:1023C0005549FFF7B4FF064651E0E0680321FFF7E7
:1023D000AEFF06464BE0E0680821FFF7A8FF06467F
:1023E00045E0E0681021FFF7A2FF06463FE02069C4
:1023F0000321FFF79CFF064639E020690821FFF71B
:1024000096FF064633E020691021FFF790FF06464D
:102410002DE060680821FFF78AFF064627E0606824
:102420001021FFF784FF064621E0A0690121FFF794
:102430007EFF06461BE01BE0A0690221FFF777FF45
:10244000064614E0A0690421FFF771FF06460EE07E
:102450000BE0A0697021FFF76AFF064607E060689D
:102460000421FFF764FF064601E0002600BF00E0FC
:102470000026304670BDB1F5007F3AD00FDC202930
:1024800028D006DC01291CD004291DD0082940D100
:102490001DE0402921D0B1F5807F3AD126E0B1F589
:1024A000004F31D006DCB1F5806F25D0B1F5006F5B
:1024B0002FD124E0B1F5803F12D0B1F5003F28D1F3
:1024C00011E0154A826025E00822C26022E0102255
:1024D000C2601FE0082202611CE01022026119E0C4
:1024E0000822426016E01022426013E0042242609B
:1024F00010E0042242600DE0042242600AE0002263
:1025000082610422426005E000228261042242606E
:1025100000E000BF00BF70470101010010B5044694
:10252000FE48844208D101210846FFF730F8002117
:102530000120FFF72CF89DE0B4F1804F08D1012174
:102540000846FFF713F800210120FFF70FF891E08C
:10255000F348844208D101210220FFF707F8002147
:102560000220FFF703F885E0EE48844208D10121FC
:102570000420FEF7FBFF00210420FEF7F7FF79E0BF
:10258000E948844208D101210820FEF7EFFF00212D
:102590000820FEF7EBFF6DE0E448844208D10121FA
:1025A0001020FEF7E3FF00211020FEF7DFFF61E0BF
:1025B000DF48844208D101212020FEF7D7FF002107
:1025C0002020FEF7D3FF55E0DA48844208D10121EC
:1025D0000220FEF7DCFF00210220FEF7D8FF49E0D1
:1025E000D548844209D101210804FEF7D0FF00211B
:1025F0004FF48030FEF7CBFF3CE0D048844209D155
:1026000001214804FEF7C3FF00214FF40030FEF71C
:10261000BEFF2FE0CA48844209D101218804FEF799
:10262000B6FF00214FF48020FEF7B1FF22E0C5483D
:10263000844208D101214020FEF798FF002140206C
:10264000FEF794FF16E0C048844208D101218020A3
:10265000FEF78CFF00218020FEF788FF0AE0BB48D0
:10266000844207D101218015FEF780FF0021A015CB
:10267000FEF77CFF10BD00220288A84B98420ED0C6
:10268000AC4B98420BD0B0F1804F08D0A44B98428D
:1026900005D0A44B984202D0A34B984204D14FF6E8
:1026A0008F731A404B881A43A04B984207D0A04B17
:1026B000984204D04FF6FF431A400B891A43028018
:1026C0004B68C3620B880385944B984202D0994BA8
:1026D000984201D18B7A03860123838270474FF0A1
:1026E000FF3141600021018001814180817270478A
:1026F0000185828270470A46002101884FF68F7358
:10270000194011430180704741627047C1627047B0
:102710000146486A70470146088D704721B102881A
:1027200042F00202028004E002884FF6FD731A4074
:102730000280704721B1028842F00402028004E066
:1027400002884FF6FB731A400280704721B102885D
:1027500042F08002028004E002884FF67F731A4044
:102760000280704702884FF6F7731A400280028891
:102770000A430280704702884FF6FF431A400280E6
:1027800002880A430280704721B1028842F00102A8
:10279000028004E002884FF6FE731A400280704700
:1027A00070B5002400220023058C4FF6FE763540DC
:1027B0000584028C8388048B4FF68F752C40B51EE0
:1027C0002C400D882C43751E2A408D892A434D8844
:1027D0002A43524DA84202D0564DA84213D14FF67B
:1027E000F7752A40CD892A434FF6FB752A408D881C
:1027F0002A434FF6FF652B404FF6FF552B400D8ABD
:102800002B434D8A2B43838004838D684563028468
:1028100070BD70B5002400220023058C4FF6EF76C2
:1028200035400584028C8388048B48F6FF752C4064
:102830004FF6FF452C400D884FF6FF7606EA05253A
:102840002C434FF6DF752A408D8906EA05152A4389
:102850004D8806EA05152A43304DA84202D0354D71
:10286000A8421DD14FF67F752A40CD894FF6FF76DD
:1028700006EA05152A434FF6BF752A408D8806EAF9
:1028800005152A434FF6FF352B404FF2FF752B40BD
:102890000D8A06EA85052B434D8A06EA85052B43FA
:1028A000838004838D688563028470BD70B50024C5
:1028B00000220023058C4FF6FF6635400584028C0C
:1028C0008388848B4FF68F752C404FF6FC752C4017
:1028D0000D882C434FF6FF552A408D894FF6FF7621
:1028E00006EA05252A434D8806EA05252A430B4DAD
:1028F000A84202D00F4DA84238D14FF2FF752A40AE
:10290000CD894FF6FF7606EA05252A434FF6FF35B7
:102910002A408D8806EA05252A4319E00000014077
:102920000004004000080040000C0040001000407F
:1029300000140040000401400040014000440140F8
:102940000048014000180040001C004000200040EA
:102950004EF6FF752B404DF6FF752B400D8A06EAAB
:1029600005152B434D8A06EA05152B438380848386
:102970008D68C563028470BD70B5002200230024F9
:10298000058C4EF6FF7635400584038C8488828B57
:1029900048F6FF752A404FF6FF452A400D884FF64E
:1029A000FF7606EA05252A434DF6FF752B408D89F3
:1029B00006EA05352B434D8806EA05352B43FE4DC7
:1029C000A84202D0FD4DA84208D14BF6FF752C401D
:1029D0000D8A4FF6FF7606EA85152C4384808283A4
:1029E0008D680564038470BD002101804180818071
:1029F00081608181C18101824182704770B5034647
:102A0000002000241846183001258D40ACB21D8CE2
:102A1000A5431D8409B108290AD100EB61000568AE
:102A20004FF68F76354005600568154305600FE069
:102A30000D1FC5F34E052844056848F6FF7635405E
:102A4000056005684FF6FF7606EA02263543056005
:102A500070BD4163704781637047C1637047016413
:102A600070470A460021018B4FF68F7319401143BE
:102A7000018370470A460021018B48F6FF73194015
:102A80004FF6FF7303EA02231943018370470A4696
:102A90000021818B4FF68F7319401143818370475A
:102AA0000A460021818B48F6FF7319404FF6FF73E9
:102AB00003EA02231943818370470A460021018BF0
:102AC0004FF6F77319401143018370470A460021FE
:102AD000018B4FF2FF7319404FF6FF7303EA022395
:102AE0001943018370470A460021818B4FF6F77323
:102AF00019401143818370470A460021818B4FF2B0
:102B0000FF7319404FF6FF7303EA022319438183D1
:102B100070470A460021018B4FF6FB7319401143A1
:102B2000018370470A460021018B4FF6FF3319409D
:102B30004FF6FF7303EA02231943018370470A46E5
:102B40000021818B4FF6FB7319401143818370473D
:102B50000A460021818B4FF6FF3319404FF6FF7371
:102B600003EA02231943818370470A460021018B3F
:102B70004FF67F7319401143018370470A460021C5
:102B8000018BC1F30E014FF6FF7303EA02231943D1
:102B9000018370470A460021818B4FF67F731940ED
:102BA0001143818370470A460021818BC1F30E01D6
:102BB0004FF6FF7303EA02231943818370470A46E5
:102BC0000021018C4FF6FD731940114301847047B9
:102BD0000A460021018C4FF6F77319401143018416
:102BE00070470A460021018C4FF6DF7319404FF6FB
:102BF000FF7303EA02131943018470470A46002158
:102C0000018C4FF67F7319404FF6FF7303EA0213EE
:102C10001943018470470A460021018C4FF6FF5387
:102C200019404FF6FF7303EA0223194301847047EA
:102C30000A460021018C4FF2FF7319404FF6FF73D3
:102C400003EA02231943018470470A460021018CDC
:102C50004DF6FF7319404FF6FF7303EA0233194331
:102C60000184704730B5002301248C40A3B2048C4A
:102C70009C430484048C02FA01F5ADB22C43048415
:102C800030BD30B5002304248C40A3B2048C9C4397
:102C90000484048C02FA01F5ADB22C43048430BDE7
:102CA000828B4FF2FF331A408283828B4FF6FF7381
:102CB00003EA01231A4382837047F0B50C46154698
:102CC000002100220026078C4EF6FF7C07EA0C0745
:102CD0000784818B028C4FF6FF7707EA043640F6B3
:102CE000FF4739404FF6FF7707EA052739434FF68C
:102CF000FF7707EA0337394345F6FF773A4046F452
:102D000080573A4381830284F0BD828B4FF6F37380
:102D10001A408283828B0A4382837047F0B50C4647
:102D20001546002100220026078C4FF6FF6C07EAAB
:102D30000C070784818B028C4FF6FF7707EA042685
:102D40004FF60C7739404FF6FF7707EA03172F430A
:102D500039434FF2FF573A4046F480773A43818334
:102D60000284F0BD028B4FF2FF331A400283028BC4
:102D70004FF6FF7303EA01231A4302837047F0B54D
:102D80000C461546002100220026078C4FF6EF7CEA
:102D900007EA0C070784018B028C4FF6FF7707EADE
:102DA000041640F6FF4739404FF6FF7707EA03372E
:102DB00039434FF6FF7703E0000001400004014073
:102DC00007EA052739434FF65F773A4046F0100788
:102DD0003A4301830284F0BD028B4FF6F3731A402D
:102DE0000283028B0A4302837047F0B50C461546F6
:102DF00000210022068C4FF6FE773E400684018BB0
:102E0000028C4FF60C7631407E1C06EA03162E43E8
:102E100031434FF6F576324044F0010632430183E8
:102E20000284F0BD70B505460C46208850B9238950
:102E3000A28861882846FFF7D8FFE1882846FFF777
:102E4000CBFF25E0208804280AD12389A288618845
:102E50002846FFF794FFE1882846FFF783FF17E035
:102E6000208808280AD12389A28861882846FFF78C
:102E700055FFE1882846FFF748FF09E02389A2882B
:102E800061882846FFF719FFE1882846FFF708FF09
:102E900070BD002101804180012181800021C1801D
:102EA000018170472DE9F04105460C4600260127B7
:102EB000608808B9022600E00026A088012801D118
:102EC000022700E001272088A0B92389A288618811
:102ED0002846FFF78AFFE1882846FFF77DFF238910
:102EE0003A4631462846FFF74AFFE1882846FFF771
:102EF00039FF13E02389A28861882846FFF73FFF46
:102F0000E1882846FFF72EFF23893A4631462846B6
:102F1000FFF76BFFE1882846FFF75EFFBDE8F08111
:102F20000146486B70470146886B70470146C86B85
:102F300070470146086C70470A884B881A438B8893
:102F40001A43CB881A430B891A434B891A438B893E
:102F50001A43A0F8442070470021018041808180FD
:102F6000C180018141818181704731B1B0F8442035
:102F700042F40042A0F8442005E0B0F84420C2F337
:102F80000E02A0F84420704721B1828842F004026A
:102F9000828004E082884FF6FB731A40828070477B
:102FA00021B1828842F00102828004E082884FF6DB
:102FB000FE731A40828070471AB183890B43838164
:102FC00002E083898B438381704781827047024688
:102FD0000020138A0B400BB1012000E00020704755
:102FE000CA430282704730B5024600200023002405
:102FF000158A05EA0103958905EA010413B10CB1AC
:10300000012000E0002030BDCA430282704741EA3F
:103010000203A0F8483070471AB183890B438381BB
:1030200002E083898B438381704721B1828842F01B
:103030000802828004E082884FF6F7731A4082808B
:10304000704701894FF6F8721140018170470A46B6
:10305000002101894FF68F73194011430181704798
:1030600030B504460D4629462046FFF7F0FF20897B
:1030700040F00700208130BD2DE9F04104460D46A7
:1030800016461F46602D06D13B460122314620469A
:10309000FFF775FE05E03B46012231462046FFF76B
:1030A000A4FE29462046FFF7D2FF208940F0070002
:1030B0002081BDE8F08130B50C4600210189C9B2FC
:1030C0004FF6FF7505EA0325154325432943018182
:1030D00030BD2DE9F04105460E46174698460024BE
:1030E00043463A4631462846FFF7E5FF2C894FF61E
:1030F000F870044044F007044FF68F70044044F029
:1031000070042C81BDE8F081F0B504460D461646EA
:103110001F463B46324629462046FFF7CCFF208912
:1031200040F480402081F0BD82884FF68F731A40B2
:10313000828082880A438280704702894FF6F87342
:103140001A40028102890A430281704702894FF6C0
:103150007F731A40028102890A4302817047F0B5E9
:103160000C4615461E460021002200230189028BD1
:10317000038C4FF6F877394021434FF6FC473A402D
:1031800040F201173A434FF6DD773B404FF6FF77A9
:1031900007EA06172F433B43018102830384F0BDF6
:1031A00021B1828842F08002828004E082884FF65A
:1031B0007F731A4082807047A0F85010704700005B
:1031C00030B503460C46D3F80C02007860B90021F4
:1031D00006E00020D3F8105245F82100481CC1B287
:1031E00093F809028842F4DC002030BD10B5044693
:1031F000AFF23303002241F20301204601F0CDF883
:103200000020D4F80C12087010BD7047F0B585B0DE
:1032100004460D4617461E460020B4A143F2510352
:103220006E22CDE90010B4A1B9A009F007FCD4F8D2
:103230001802008880B2ADF8080000208DF80A005E
:1032400008208DF80B00E8B28DF80C00290A8DF8E3
:103250000D108DF80E702EB90021CDF80F108DF8DD
:10326000131005E03168CDF80F1031798DF8131087
:1032700002A9D4F8E40109F0E0FA05B0F0BD2DE9A7
:10328000FC4704460E4690469946002522E004F588
:10329000077030F82500B0421AD104F5077000EB32
:1032A0008500C07868B100209FA143F252039322A9
:1032B000CDE9001090A196A009F0C0FB0020BDE868
:1032C000FC87012104F5077000EB8500C17003E065
:1032D000681CC5B2082DDADB00BF082D0DD1002512
:1032E00008E004F5077000EB8500C07800B903E042
:1032F000681CC5B2082DF4DB00BF082D0CD10020DE
:1033000090A143F253039F22CDE900107AA180A03F
:1033100009F094FB0120D2E704F5077020F825603E
:1033200000EB850080F80280012104F5077000EBB6
:103330008500C170012084F80802002500270EE0F6
:1033400004F5077000EB8500C078012805D104F56D
:10335000077000EB850080780743681CC5B2082D14
:10336000EEDBD4F81402077094F80902401EC5B2CF
:103370000BE0D4F8100200EB850050F8040CD4F8F0
:10338000101241F82500681EC5B2002DF1DC46EA96
:103390000940D4F810120860D4F80C02007894F8B0
:1033A0000912884206DAD4F80C020078401CD4F8DE
:1033B0000C1208707F20005D40B1D4F8140202782E
:1033C000002331462046FFF721FF78E7012076E70A
:1033D0002DE9FC4105460F464FF00008002408E0A7
:1033E00005F5077030F82400B84200D103E0601CF6
:1033F000C4B2082CF4DB00BF082C34D005F50770EC
:1034000000EB8400C07801282DD1002105F507705C
:1034100000EB8400C170002400260FE005F5077062
:1034200000EB8400C078012806D1804605F50770BE
:1034300000EB840080780643601CC4B2082CEDDBEE
:10344000B8F1000F0BD1002085F808027F20405D05
:1034500028B100231A4619462846FFF7D7FED5F8AB
:10346000140206700AE000203AA143F25403E2225B
:10347000CDE9001020A126A009F0E0FABDE8FC810A
:103480002DE9FC4105460C4600203AA143F25503C4
:10349000F422CDE9001018A11DA009F0CFFAE078C0
:1034A00008280CD020883AA141F25603F822CDE931
:1034B000001011A116A009F0C1FABDE8FC81207826
:1034C00000F07F062179607941EA002794F80680B0
:1034D000E01D009043463A4631462846D5F83CC2A6
:1034E000E04700BFE9E710B5029C10BD73656E644C
:1034F000454D4359000000002E2E5C43414E6F7035
:10350000656E5C7372635C656D63792E63000000A9
:1035100025732C2564203A203058257820257320E7
:1035200030582578200D0A00454D4359206D6573AC
:103530007361676520616C72656164792073656E83
:10354000740000006572726F725F6461746120665E
:10355000756C6C007265636F766572656420657268
:10356000726F7220776173206E6F7420616374696B
:1035700076650000454D435920726563656976653F
:10358000642E2050726F636565642E200000000079
:103590004572726F722073697A6520454D43592ECA
:1035A00020436F62496420203A20000002460F2029
:1035B000802902DA02F1B403585C704770B5044602
:1035C0000D46D4F8A00050F82500C0F307464FF090
:1035D000FF30D4F8A41021F81500012104F1B40043
:1035E000815531462046D4F8B020904770BD2DE972
:1035F000F04786B004460F46387800F07F05B8786B
:10360000012835D120680078A84230D120680078A0
:1036100000F5E066ADF80C6001208DF80F00002089
:103620008DF80E0094F87C008DF8100094F8E001FD
:1036300048B19DF8100040F080008DF81000002087
:1036400084F8E00102E0012084F8E00194F87C00B5
:10365000EFA143F230137222CDE90010F7A1FEA0D2
:1036600009F0ECF903A9D4F8E40109F0E6F867E001
:10367000387900F07F08FEA043F210137A22EFA100
:10368000CDE90005F4A009F0D9F9D4F8400101789A
:1036900004F5A27041559038405D404509D042463E
:1036A00029462046D4F8DC31984704F1B40000F8EC
:1036B000058004F1B400405D70B9F3A04FF44453A9
:1036C0009022DEA1CDE90005E3A009F0B7F9294673
:1036D0002046D4F8D821904704F1B400405D0F286B
:1036E0002DD0002625E0D4F8A00050F82600C0F325
:1036F00007494D451BD1D4F8A00030F826001FFA29
:1037000080FAD4F8A41031F9160008F01AFE00204F
:10371000009064200AFB00F3AFF25F1231462046AE
:1037200008F0BAFDD4F8A41021F8160000BF701CF0
:10373000C6B2D4F89C000078B042D4DC00BF00BF11
:1037400006B0BDE8F08770B586B004460E46D4F8E2
:10375000A8000088002821D02068007800F5E065E6
:10376000ADF80C5001208DF80F0000208DF80E00F0
:1037700094F87C008DF8100094F87C00CBA143F203
:103780003013BE22CDE90010ACA1B3A009F056F968
:1037900003A9D4F8E40109F050F805E0B4F9AC004D
:1037A00008F0CFFDA4F8AC0006B070BD7CB50446AF
:1037B0000E46D4F83C01008800283FD00020C1A16B
:1037C0000346D922CDE900109CA1A3A009F036F947
:1037D000002530E004F1B400405D0F2829D02068B6
:1037E0000078A84225D004F5A270405D002814DCC2
:1037F000BCA00023E62291A1CDE9000596A009F026
:103800001DF9D4F8380120B129462046D4F83821D2
:103810009047012104F1B400415504F5A270405DC8
:10382000401EC1B204F5A27041552946204600F061
:10383000CDF9681CC5B2802DCCDB05E0B4F93401AC
:1038400008F07FFDA4F834017CBD7CB50446AD4B87
:10385000002241F20C01204600F09FFDA94B0022FE
:1038600041F20D01204600F098FDD4F83C0100889B
:10387000002840D0D4F84001007800283BD0D4F88C
:103880003C010688642106FB01F006FB01F3AFF260
:10389000E30200210090204608F0FEFCA4F8340169
:1038A00099A000234FF4A77264A1CDE900066AA095
:1038B00009F0C4F8002510E004F1B400405D0F28C1
:1038C00009D020680078A84205D0D4F840010178DA
:1038D00004F5A2704155681CC5B2802DECDB0020B8
:1038E0008CA1034640F25712CDE9001053A15AA013
:1038F00009F0A4F800BF7CBD10B50446B4F934014A
:1039000008F01FFDA4F8340110BD70B504460D4643
:1039100016462046FFF7F0FF2046FFF796FF0020EF
:1039200070BDF8B504460E461746A834B4F9040035
:1039300008F007FDA08054F8A809008880B1D4F8E9
:10394000A8000588642105FB01F00023AFF20922DD
:1039500019460090204608F09FFCA4F8AC0000BF78
:103960000020F8BDF8B50446AFF24903002241F249
:103970001701204600F011FD002084F8E001002529
:1039800016E0D4F8A00030F8250086B276B1002009
:103990000090642006FB00F3AFF2DF322946204698
:1039A00008F07AFCD4F8A41021F81500681CC5B200
:1039B000D4F89C000078A842E3DCD4F8A800008882
:1039C00088B1D4F8A8000688642106FB01F006FB44
:1039D00001F3AFF28D2200210090204608F05CFC3C
:1039E000A4F8AC0000BFF8BD70B5044600250BE09C
:1039F000D4F8A41031F9150008F0A3FCD4F8A410F1
:103A000021F81500681CC5B2D4F89C00007891E03C
:103A100053656E64696E67204E4D54204E6F646529
:103A2000677561726420746F206D61737465722CA8
:103A30002073746174653A20000000002E2E5C43F0
:103A4000414E6F70656E5C7372635C6C696665672E
:103A500072642E630000000025732C2564203A2038
:103A6000305825782025732030582578200D0A00FD
:103A70005265636569766564204E4D54206E6F64AF
:103A8000654964203A200000546865204E4D54205A
:103A90006973206120626F6F7475702066726F6D3C
:103AA000206E6F6465203A200000000050726F6441
:103AB0007563696E67206865617274626561743AE6
:103AC0002000000050726F647563696E67206E6F2E
:103AD000646567756172642D726571756573747361
:103AE0003A2000004E6F6465204775617264206162
:103AF0006C61726D20666F72206E6F646549642020
:103B00003A2000000B390008477561726454696DF2
:103B1000653A200054696D657220666F72206E6F81
:103B200064652D6775617264696E67207374617274
:103B300074657400A8423FF75BAFB4F9AC0008F0BD
:103B400000FCA4F8AC0070BD10B504462046FFF799
:103B500009FF2046FFF779FE10BD10B50446204648
:103B6000FFF742FF2046FFF7C7FE10BD70477047C2
:103B70007047704770B586B006460C4615462FA0B4
:103B800043F20153322231A1CDE9000536A008F0FD
:103B900055FF3BA043F2025333222CA1CDE9000490
:103BA00031A008F04BFF0020ADF80C008DF80E009E
:103BB00002208DF80F008DF810508DF8114003A9E8
:103BC000D6F8E40108F039FE06B070BD70B586B0D5
:103BD00005460C4644F4E066ADF80C6001208DF813
:103BE0000E0000208DF80F0029A043F2035351224C
:103BF00016A1CDE900041CA008F020FF03A9D5F808
:103C0000E40108F01AFE06B070BD70B504460D461A
:103C10000F2104F1B40041555DB9002000BF05E05B
:103C20000F2204F1B4010A54411CC8B28028F7DB0A
:103C300000BF29462046FFF7C9FF70BD53656E647B
:103C40005F4E4D54206373203A2000002E2E5C43BB
:103C5000414E6F70656E5C7372635C6E6D744D6126
:103C6000737465722E63000025732C2564203A203E
:103C7000305825782025732030582578200D0A00EB
:103C800020202020746F206E6F6465203A20000091
:103C900053656E645F4E4F44455F47554152442023
:103CA000746F206E6F6465203A2000007CB5044676
:103CB0000D4694F87C007F2807D094F87C000528F6
:103CC00003D094F87C0004286AD1687947A14FF4A6
:103CD00050533222CDE900104BA152A008F0AEFEA5
:103CE000687920B1687921680978884258D12879A3
:103CF000802824D004DC012807D002284FD111E00D
:103D0000812829D082284AD132E094F87C007F288B
:103D100003D094F87C00042803D10521204608F044
:103D20000CF83CE094F87C007F2803D094F87C00E9
:103D3000052803D10421204607F0FFFF2FE094F867
:103D40007C00052803D094F87C00042803D17F214F
:103D5000204607F0F2FF22E0D4F8940018B1204684
:103D6000D4F8941088470021204607F0E6FF16E0BB
:103D7000204608F046F80646D4F8980018B12046C8
:103D8000D4F898108847FF202168087031462046F3
:103D900008F03BF80021204607F0CFFF00BF00BF2E
:103DA0007CBD10B586B00446002024A143F2074331
:103DB0007E22CDE9001014A11AA008F03FFE216870
:103DC000097841F4E060ADF80C0000208DF80E0099
:103DD00001208DF80F0000208DF8100003A9D4F801
:103DE000E40108F02AFD06B010BD00004E4D54203D
:103DF00072656365697665642E20666F72206E6FEA
:103E00006465203A202000002E2E5C43414E6F70E6
:103E1000656E5C7372635C6E6D74536C6176652E57
:103E20006300000025732C2564203A203058257843
:103E30002025732030582578200D0A0053656E64C4
:103E4000206120426F6F742D5570206D73672000C4
:103E50002DE9FC4104460E4617469846089DD8A019
:103E600042F609333122DBA1CDE90004E0A008F0DD
:103E7000E5FDE5A042F610333222D6A1CDE90006D9
:103E8000DBA008F0DBFDE649681A8D4238D00DDC76
:103E9000E4482844002828D0A0F57F40FE3870B1BF
:103EA000A0F500304138002860D13EE06FF40031C9
:103EB000084478B1202843D0212857D14BE0DAA01C
:103EC00042F611333522C3A1CDE90004C8A008F0A1
:103ED000B5FD56E0D9A042F612333822BDA1CDE996
:103EE0000006C3A008F0AAFD4BE0D9A042F61333A8
:103EF0003B22B8A1CDE90004BDA008F09FFD40E041
:103F0000DDA042F614333E22B2A1CDE90007B8A0ED
:103F100008F094FDE3A042F615333F22ADA1CDE9B0
:103F20000008B3A008F08AFD2BE0E6A042F61633A5
:103F30004222A8A1CDE90004ADA008F07FFD20E059
:103F4000EBA042F617334522A2A1CDE90005A8A0B7
:103F500008F074FD15E0F2A042F6183348229DA146
:103F6000CDE90005A2A008F069FD0AE0F8A042F63C
:103F700020334B2297A1CDE900059DA008F05EFDFE
:103F800000BF00BF0020BDE8FC812DE9FE4F814647
:103F90008A4614469846DDE90C6B02AA514648460B
:103FA000D9F8E83198470546029810B10298BDE863
:103FB000FE8F2879A04209DCEB4800231A462146EF
:103FC00000905046FFF744FFE748F0E70E9800B333
:103FD000286800EB0410007800F00100C8B12868E0
:103FE00000EB04100078E1A142F630336C22CDE9F9
:103FF000001078A17EA008F021FD8A48C04300236C
:104000001A46214600905046FFF722FF8548C043DC
:10401000CDE7B8F1000F02D14FF00060C7E7286884
:1040200000EB041040683168884206D9286800EB2C
:10403000041040683060D148B9E7286800EB0410EC
:1040400040788BF80000286800EB04104768286867
:1040500000EB04103A468168404608F0EDFD9BF8FD
:104060000000092801D037600DE0286800EB04103B
:1040700040683168884205D2002008F80700781CA3
:10408000306000E03760002091E72DE9FF4F83B0FA
:1040900080468B461446109D02AA59464046D8F8E1
:1040A000E83198470646029818B1029807B0BDE873
:1040B000F08F3079A04209DCAB4800900022214605
:1040C00058462B68FFF7C4FEA748EFE71198F8B1F0
:1040D000306800EB04100078022819D1306800EB3A
:1040E00004100078A1A142F62533BD22CDE90010CD
:1040F00038A13FA008F0A2FC4A48404200900022AC
:10410000214658462B68FFF7A3FE46484042CDE7BC
:10411000306800EB041090F80190306800EB041058
:104120004768306800EB0410D0F80CA0286810B184
:104130002868B84242D8D8F82420484606999047C3
:104140000290029848B1029800903A46214658469B
:104150002B68FFF77DFE0298A8E7316801EB041198
:1041600088682A68069908F067FDB9F1090F09D136
:104170002868B84206D20020316801EB0411896832
:104180002A6888542F60BAF1000F08D022463146C1
:104190004046D0470290029808B1029886E73068FE
:1041A00000EB0410007800F0040030B122465946BC
:1041B0004046D8F8EC31984778E7E1E0E2E00000CB
:1041C00044696374696F6E61727920696E646578A1
:1041D000203A20002E2E5C43414E6F70656E5C735A
:1041E00072635C6F626A61636365732E63000000D3
:1041F00025732C2564203A203058257820257320FB
:1042000030582578200D0A00202020202020202052
:10421000202020737562696E646578203A20000062
:1042200010000706FEFFFEF9496E646578206E6F88
:104230007420666F756E642000000000537562493B
:104240006E646578206E6F7420666F756E642000F2
:104250005772697465206E6F7420616C6C6F77653E
:10426000642C20646174612069732072656164202C
:104270006F6E6C7920000000436F6E666C6963742A
:104280002073697A6520646174612E2053686F75AC
:104290006C64206265202862797465732920203A55
:1042A0002000000042757420796F75206861766582
:1042B00020676976656E207468652073697A652069
:1042C000203A20004E6F74206D61707061626C65E1
:1042D000206461746120696E20612050444F206128
:1042E0007420696E646578202020203A2000000048
:1042F00056616C75652072616E6765206572726FBC
:1043000072203A2076616C756520746F6F206C6F37
:10431000772E2053444F61626F7274203A20000060
:1043200056616C75652072616E6765206572726F8B
:1043300072203A2076616C756520746F6F20686911
:1043400067682E2053444F61626F7274203A2000D8
:10435000556E6B6E6F776E206572726F7220636F31
:104360006465203A2000000011000906416363657E
:1043700073732054797065203A200000050004050D
:10438000002093E62F60134800903A462146584695
:104390002B68FFF75DFD0F4888E62DE9F8430546D9
:1043A000884614461E466A4641462846D5F8E831F6
:1043B00098470746009830B93879A04203DD38683D
:1043C00000EB0410C6600098BDE8F88303460020A7
:1043D00070470000100007062DE9FF4FDDE90D458D
:1043E0006CE0A5EB020A4FFA8AF3002B04DD91F88A
:1043F00000A00AFA03FA05E091F800A0C3F1000B4F
:104400004AFA0BFA0AF0FF0C002B02DDC5F1080A8C
:1044100001E0C2F1080A0AF0FF08804501DD82468A
:1044200000E0C246564605EB060B4FF0FF0A0AFABB
:104430000BFAC5F1080E4FF0FF0B4BFA0EFB4AEAE0
:104440000B0A0AF0FF072CEA070994F800A00AEA11
:10445000070A84F800A094F800A04AEA090A84F840
:1044600000A002EB060A0AF0FF0A5246BAF1070F53
:104470000BDD0022DDF80CA0BAF1000F02D04FF0E6
:10448000FF3A01E04FF0010A514405EB060A0AF039
:10449000FF0A5546BAF1070F0BDD0025DDF83CA0F9
:1044A000BAF1000F02D04FF0FF3A01E04FF0010ADD
:1044B0005444A0EB060A0AF0FF0000BF002890DC7D
:1044C000BDE8FF8F2DE9F04F8DB004468A461546B2
:1044D00061690989606800EBC10000EBCA000C90BB
:1044E00061694989606800EBC10000EBCA0B4FF0BD
:1044F00000090026DBF8000080680B900C9800682B
:1045000080690088C0F30A0028800020A8700C98F9
:10451000006880690068F2A143F209033D22CDE9F9
:104520000010F4A1F9A008F089FA0B980078FDA119
:1045300043F20D033F22CDE90010EEA1F3A008F0F5
:104540007DFA00BF00200890099009F10100DBF816
:10455000001001EB001087683868000C079097F88E
:104560000080B8F1000F60D006EB080040285CD84E
:10457000A8F10100012101EBD00006903888C0F3BA
:1045800007200590EFA1386843F20F035322CDE9CD
:104590000010D8A1DDA008F051FABBF80600F0A188
:1045A00043F250035422CDE90010D2A1D7A008F065
:1045B00045FA09F10100EEA143F251035522CDE97C
:1045C0000010CCA1D1A008F039FA012000210AAADC
:1045D00006ABCDE90032CDE9021008AB2046059AC2
:1045E0000799FFF7D2FC00280ED0E6A1386841F207
:1045F00013035A22CDE90010BEA1C4A008F01EFA90
:10460000FF200DB0BDE8F08F002206F00700291D45
:1046100001EBD601CDE90102009108F0FF0013463D
:1046200008A9FFF7D9FE464400BF09F1010000F0D8
:10463000FF090B980078484584DC701E012101EBCE
:10464000D000E8700020DEA143F215036B22CDE913
:104650000010A8A1ADA008F0F1F90020D1E72DE9E4
:10466000FE4304460D4660698688A069B0F8048060
:104670008220005D10B90020BDE8FE83D7A043F67C
:10468000301388229BA1CDE90005A0A008F0D6F93F
:10469000002E28D0B5F5A05F25DBA5F5A05030444D
:1046A00086B246451EDC606850F836008769D3A1A3
:1046B000386843F630139222CDE900108DA193A003
:1046C00008F0BCF9388880B2ADF8000001208DF800
:1046D000020000208DF803006946D4F8E40108F0D8
:1046E000ACF8C9E700BFCCA041F631139C2281A1F0
:1046F000CDE9000585A008F0A1F9FF20BCE77CB555
:1047000005460E46144606EBC601A86800EB4100BC
:10471000216840F8061F61684160A16881602088B7
:10472000C8A143F66D1340F2E712CDE9001071A164
:1047300076A008F083F9E078C6A143F66E134FF433
:10474000F472CDE900106BA170A008F077F9214652
:10475000D5F8E40108F071F87CBD70B505460C464B
:104760004FF0FF3004EBC402A96801EB42018880DE
:1047700004EBC401A86810F8110020F0010004EB5C
:10478000C402A96801F81200E1B2284600F001F85D
:1047900070BD2DE9F04385B004460D468220005DD2
:1047A00038B105EBC501A06810F8110000F0010058
:1047B00018B1002005B0BDE8F08360690089284485
:1047C00086B2606850F836008069006800F00040EA
:1047D00008B10020EEE7606850F83600806A007883
:1047E000A1A143F6681340F20F22CDE9001041A1C8
:1047F00046A008F023F9002002900390049002AA3A
:1048000029462046FFF75EFE60B1A0A043F60713DD
:1048100040F2152237A1CDE900053CA008F00EF9C1
:104820000020C7E705EBC501A06800EB4100C08888
:10483000BDF80810884217D105EBC501A06800EB50
:104840004100407A9DF80B1088420DD105EBC5025E
:10485000A16801EB420101F10A00082203A908F056
:10486000BFF908B90020A5E790A043F26A0340F21F
:104870002A2220A1CDE9000524A008F0DFF8606815
:1048800050F83600806D0788606850F83600806BFD
:10489000B0F80080C7B105EBC502A16801EB420189
:1048A000B1F9020007F04DFD00200090642007FBE5
:1048B00000F3844A2946204607F0EEFC05EBC502CA
:1048C000A16801EB42014880B8F1000F07D005EB69
:1048D000C502A16801EB4201B1F90400F4E016E160
:1048E000202050444F20436F624964206973203A6E
:1048F000200000002E2E5C43414E6F70656E5C738D
:1049000072635C70646F2E630000000025732C25B9
:1049100064203A2030582578202573203058257897
:10492000200D0A0020204E756D626572206F662092
:104930006F626A65637473206D6170706564203A9C
:10494000200000002020676F74206D617070696E18
:104950006720706172616D65746572203A20000095
:1049600020202020617420696E646578203A200040
:10497000202020207375622D696E646578203A20AE
:104980000000000020436F756C646E277420666918
:104990006E64206D61707065642076617269616219
:1049A0006C6520617420696E6465782D7375626929
:1049B0006E6465782D73697A65203A2000000000E6
:1049C0002020456E64207363616E206D6170706598
:1049D00064207661726961626C65000073656E6463
:1049E00050444F72657175657374205250444F2066
:1049F000496E646578203A200000000073656E649B
:104A000050444F7265717565737420636F624964B9
:104A1000206973203A20000073656E6450444F7221
:104A2000657175657374203A205250444F20496E69
:104A3000646578206E6F7420666F756E64203A200E
:104A40000000000073656E6450444F20636F62493C
:104A500064203A0020202020204E62206F6374657D
:104A6000747320203A200000202050444F206973A6
:104A7000206F6E204556454E542E205472616E7341
:104A80002074797065203A200000000020436F7583
:104A90006C646E2774206275696C64205450444FB6
:104AA000206E756D626572203A2000004368616E69
:104AB000676573205450444F206E756D6265722097
:104AC0003A2000001F4B000807F03BFC642008FB65
:104AD00000F00A21B0FBF1F900204B46AFF285321D
:104AE00029460090204607F0D7FB05EBC502A168D8
:104AF00001EB4201888005EBC501A06810F81100A8
:104B000040F0010005EBC502A16801F8120002AAFD
:104B100029462046FFF7F3FD00BF01204AE670B5A5
:104B200005460C464FF0FF3004EBC402A96801EBC8
:104B300042014880002004EBC402A96801EB420155
:104B4000C880E1B22846FFF724FE70BD2DE9F04F82
:104B50008DB004460F4600200C9080460B900A90C2
:104B6000022009903888C0F30A00F7A143F63513F4
:104B7000C022CDE90010AFF28421AFF2702007F01F
:104B80005DFFC1460025AB46B87800287ED160693C
:104B90008688A06980880790002E78D029E109983E
:104BA000022802D004281AD121E0606850F83600AB
:104BB00080690A900A9800683988884210D10420D8
:104BC000099005F5A050E6A143F63613D522CDE9AC
:104BD0000010AFF2E021AFF2CC2007F02FFF07E189
:104BE000681CC5B2701C86B20220099000E16069A1
:104BF000C688A069C0880790606800EBC60050F8BE
:104C0000350080680C904FF0000BCCE00020059040
:104C10000690606800EBC60050F835100BF10100FB
:104C200001EB0010D0F80880B8F1000F11D10BF1A2
:104C30000100D1A141F63713F422CDE90010AFF203
:104C40004C31AFF2383007F0F9FEFF200DB0BDE86F
:104C5000F08F98F800A0BAF1000F7DD009EB0A00A0
:104C6000F978B0EBC10F77DC002005AACDE9002070
:104C7000CDE902094FEAE97009EB5070C010A9EBC9
:104C8000C000C2B2381D00EBE90101E0B6E021E24C
:104C900000235046FFF7A0FBAAF10100012101EB20
:104CA000E00004900120002104AACDE90021029037
:104CB000B8F80000C0F30722D8F80000010C05ABDB
:104CC0002046FFF7E2F908900898002831D00BF150
:104CD0000100B2A141F638134FF48972CDE90010FA
:104CE000AFF2F031AFF2DC3007F0A8FED8F80000E8
:104CF000000CB4A142F6391340F21512CDE90010B0
:104D0000AFF21041AFF2FC3007F098FEB8F80000A7
:104D1000C0F30720B2A14FF4255340F21712CDE99A
:104D20000010AFF23041AFF21C4007F087FEFF20C9
:104D30008CE73888B1A143F642134FF48E72CDE967
:104D40000010AFF25041AFF23C4007F077FED8F8C8
:104D50000000000C9BA100E020E043F6431340F26A
:104D60001F12CDE90010AFF27441AFF2604007F0BE
:104D700065FEB8F80000C0F3072099A143F644137C
:104D800040F22112CDE90010AFF29841AFF2844019
:104D900007F054FE09EB0A0000F0FF090BF10100D7
:104DA00000F0FF0B00BF0C98007858453FF72EAF7E
:104DB000E068D8B1606850F83600806D00880690D1
:104DC000069890B1E16831F9150007F0BAFA0020B1
:104DD00000906421069800FB01F3294620462269D1
:104DE00007F05AFAE16821F8150000BF00202DE70E
:104DF00000BF079886427FF7D2AE6BE1B8780128F2
:104E0000FBD1388886A143F6461340F23712CDE92C
:104E10000010AFF22051AFF20C5007F00FFE01204E
:104E2000099060690689A06900890790002EE4D086
:104E30004CE10998012804D0042816D005280CD18B
:104E400026E1606850F8360080690A900A98006888
:104E50003988884202D10420099036E1681CC5B225
:104E6000701C86B2012009902FE1606850F836006E
:104E7000806A0B900B980078FD2802D105200990DC
:104E800023E10B980078FC2824D105EBC501A0682C
:104E900010F8110000F0010058B105EBC503A2683D
:104EA00002EB4302911DD4F8E40107F0C6FC002098
:104EB000CCE6388862A141F6471340F26F12CDE983
:104EC0000010AFF2D051AFF2BC5007F0B7FD052093
:104ED0000990FAE00B980078FF2803D00B9800782F
:104EE000FE282FD105EBC502A16801EB4201B1F903
:104EF000020007F026FA05EBC502A16801EB4201AA
:104F0000488005EBC502A16801EB4201B1F904003C
:104F100007F017FA05EBC502A16801EB4201888092
:104F200005EBC501A06810F8110020F0010005EBA9
:104F3000C502A16801F8120029462046FFF7EFFDDF
:104F4000002083E694E0000070726F636565645032
:104F5000444F2C20636F624944203A200000000037
:104F6000636F62496420666F756E642061742069A6
:104F70006E64657820000000436F756C646E277462
:104F800020676574206D617070696E672070617252
:104F9000616D65746572203A200000006572726F61
:104FA0007220616363657373696E6720746F207428
:104FB0006865206D617070656420766172203A20AA
:104FC000000000002020202020202020204D6170A3
:104FD00070656420617420696E646578203A2000F1
:104FE00020202020202020202020202020202020C1
:104FF000737562696E646578203A20005661726943
:1050000061626C65207570646174656420627920EA
:1050100050444F20636F626964203A200000000012
:105020005265636569766520612050444F20726542
:10503000717565737420636F624964203A200000C3
:105040004E6F74207265616479205254525F5359D7
:105050004E43205450444F2073656E642063757234
:1050600072656E742064617461203A200000000053
:105070003888F8A142F6471340F28912CDE90010B2
:10508000AFF29071AFF27C7007F0D8FCFF20DDE545
:1050900004AA29462046FFF715FA78B1AFF214604A
:1050A00041F6481340F29312AFF2B871CDE9000512
:1050B000AFF2A87007F0C2FCFF20C7E504A9D4F83E
:1050C000E40107F0BAFB0020C0E500BF0798864264
:1050D0007FF7AFAE0020B9E52DE9F04F85B004466B
:1050E0000F46002500264FF003096069B0F80880DC
:1050F0006069B0F80AA0A069B0F808B08220005D2D
:1051000018B9002005B0BDE8F08FB8F1000F7DD0D0
:10511000002002900390049019E1B9F1030F06D02A
:10512000B9F1050F73D0B9F10B0F71D1E5E06068EB
:1051300050F838008069006800F0004088B105F53B
:10514000C050CDA143F6601340F29122CDE900108A
:10515000AFF66001AFF64C0007F070FC4FF00B09A2
:10516000F4E0606850F83800866A05F5C050C7A1C1
:1051700043F6621340F29922CDE90010AFF68C019C
:10518000AFF6780007F05AFC002F4AD0307801289B
:1051900047DB3078F02844DC05EBC501A06810F847
:1051A0001100401CC0B205EBC502A16801F8120055
:1051B0003178884235D1002005EBC502A16801F89D
:1051C00012003078B7A143F6641340F2A522CDE96E
:1051D0000010AFF6E001AFF6CC0007F02FFC002086
:1051E00002900390049002AA29462046FFF76AF92C
:1051F000A0B1AFF2687041F6061340F2AE22AFF6EE
:105200000C11CDE90005AFF6FC0002E0A3E06CE074
:105210008DE007F013FC4FF00B0997E04FF0050904
:1052200062E0002F37D03078FC2834D105EBC5017F
:10523000A06800EB4100821D29462046FFF742F995
:10524000D0B1AFF2B87041F6661340F2BB22AFF6B0
:105250005C11CDE90005AFF64C1007F0EFFB05EB54
:10526000C501A06810F8110020F0010005EBC5028F
:10527000A16801F812000BE005EBC501A06810F869
:10528000110040F0010005EBC502A16801F8120011
:105290004FF00B095AE00FB1307870B1A7B93078F0
:1052A000FF2802D03078FE280ED105EBC501A0689A
:1052B00010F8110000F0010030B929462046FFF730
:1052C00068FA4FF00B090FE030787F4943F26C0326
:1052D0004FF43572CDE90010AFF6E811AFF6D410F7
:1052E00007F0ACFB4FF00B0930E002AA294620463C
:1052F000FFF705FA4FF00B0928E0681CC5B208F16A
:1053000001001FFA80F80AF101001FFA80FA6FA06D
:1053100043F6701340F2E222AFF62821CDE90005F2
:10532000AFF6182007F08AFB4FF003090EE06CA0DF
:1053300041F6721340F2E722AFF64821CDE90009A9
:10534000AFF6382007F07AFBFF20DBE600BFD84538
:105350007FF7E3AE00BF0020D4E610B5044600217D
:105360002046FFF7B9FE10BD70472DE9F041044615
:105370000E4617468220005DE0B3022F04D0032FB3
:1053800003D0052F37D101E000BF00BF6169098953
:10539000606800EBC108A6EB0800C0F3C70505EB89
:1053A000C502A16801EB4201B1F9020006F0C9FF94
:1053B00005EBC502A16801EB4201488005EBC5027F
:1053C000A16801EB4201B1F9040006F0BAFF05EB58
:1053D000C502A16801EB42018880002005EBC502EF
:1053E000A16801F8120029462046FFF798FB00202B
:1053F000BDE8F08101E000BF00BF0020F8E72DE923
:10540000F84304464FF4C05760690589A069B0F8B5
:105410000880C5B115E06A4639462046D4F8E8311F
:1054200098470646009838B9AFF2C1013068C162AA
:105430003068C1633068C165781C87B2681C85B26A
:1054400000BF4545E7DD00212046FFF745FEBDE8EA
:10545000F883000050444F206973206E6F742074ED
:105460006F2073656E64206F6E2072657175657351
:1054700074203A20000000004E6F74206120766195
:105480006C69642050444F20000000005265616444
:10549000696E672050444F20617420696E6465789E
:1054A000203A2000202050444F206973206F6E2046
:1054B00053594E4348524F2E205472616E732074DC
:1054C000797065203A200000E0CF00086E6578749E
:1054D0002070646F20696E646578203A20000000B7
:1054E000556E6B6E6F776E207374617465206861A2
:1054F00073206265656E2072656163686564203A39
:10550000000000002DE9F04104460025606906898D
:10551000A069078986B32DE005EBC502A16801EB00
:105520004201B1F9020006F00CFF05EBC502A168CB
:1055300001EB4201488005EBC502A16801EB420185
:10554000B1F9040006F0FDFE05EBC502A16801EB10
:1055500042018880002005EBC502A16801F8120015
:1055600005EBC502A16801EB4201C880681CC5B209
:10557000701C86B2BE42CFDDBDE8F08110B50A4690
:1055800043691B8903B910BD43691B89134499B250
:10559000436853F831309B691B6823F0004443682B
:1055A00053F831309B691C6000BFECE710B50A4628
:1055B00043691B8903B910BD43691B89134499B220
:1055C000436853F831309B691B6843F000444368DB
:1055D00053F831309B691C6000BFECE72DE9FC47B4
:1055E00005460C4617469846DDE90A96F5A043F6AF
:1055F00025234FF4EE72F8A1CDE90004FCA007F0DA
:105600001DFA022E05D0032E03D0042E01D0052E44
:105610001DD1FDA043F6062340F2DF12EEA1CDE935
:105620000004F3A007F00AFA0020FE4BFE4A2146D0
:105630000090284606F030FEC4EBC40101EB4102A5
:1056400005F1280101EB8201A1F84C0020E0F7A050
:1056500043F6052340F2E112DFA1CDE90004E4A006
:1056600007F0ECF9C4EBC40101EB410205F128019C
:1056700001EB8201B1F94C0006F063FEC4EBC401FA
:1056800001EB410205F1280101EB8201A1F84C0078
:10569000C4EBC40000EB400105F1280000F82170C4
:1056A000C4EBC40000EB400105F1280000EB8100D1
:1056B000A0F80880C4EBC40000EB400105F128000D
:1056C00000EB810080F80A90C4EBC40000EB4001BD
:1056D00005F1280000EB810086700021C4EBC400B6
:1056E00000EB400205F1280000EB8200C170C4EB22
:1056F000C40000EB400205F1280000EB8200C1600D
:10570000C4EBC40000EB400205F1280000EB82006E
:105710000161C4EBC40000EB400205F1280000EB7E
:10572000820080F83410C4EBC40000EB400205F1A5
:10573000280000EB820080F83510C4EBC40000EBB9
:10574000400205F1280000EB820080F83610C4EB1F
:10575000C40000EB400205F1280000EB82008163E9
:10576000C4EBC40000EB400205F1280000EB82000E
:10577000C163C4EBC40000EB400205F1280000EB5C
:10578000820080F84010C4EBC40000EB400205F139
:10579000280000EB820080F84110C4EBC40000EB4D
:1057A000400205F1280000EB820080F84210C4EBB3
:1057B000C40000EB400205F1280000EB820080F8F5
:1057C0004B10C4EBC40000EB400205F1280000EBD5
:1057D000820001650020BDE8FC877CB505460C46CB
:1057E00099A043F625234FF4E3727BA1CDE9000491
:1057F0007FA007F023F900200090034602462146CF
:1058000001902846FFF7EAFE00260BE00021C4EBDA
:10581000C40000EB400205F1280000EB82001430C8
:105820008155761C202EF1D30021C4EBC40000EB7F
:10583000400205F1280000EB82004170C4EBC40077
:1058400000EB400205F1280000EB820041607CBDC6
:105850002DE9F04385B00446884616469946002057
:105860007FA143F6382340F29F22CDE900105AA1D0
:105870005FA007F0E3F894F87C00052814D094F8B2
:105880007C007F2810D094F87C0077A142F6392361
:1058900040F2A122CDE900104FA155A007F0CEF8AB
:1058A000FF2005B0BDE8F083B8F1010F2CD160698D
:1058B000058825B1A819A169098888420DDD002055
:1058C00076A141F6422340F2A922CDE9001042A17F
:1058D00047A007F0B3F8FF20E3E7A919606850F884
:1058E0003100806A008880B2ADF80800BDF8080079
:1058F00072A143F6412340F2AD22CDE9001036A15A
:105900003BA007F09BF82BE06069458825B1A819FA
:10591000A169498888420DDD00206EA141F642232D
:1059200040F2B322CDE900102BA131A007F086F898
:10593000FF20B6E7A919606850F831008069008837
:1059400080B2ADF80800BDF808006AA143F6412313
:1059500040F2B722CDE900101FA125A007F06EF894
:1059600000208DF80A0008208DF80B00002705E0C4
:1059700019F8071003A8C155781CC7B2082FF7DB28
:1059800002A9D4F8E40106F058FF8AE72DE9FF47A1
:1059900006460F4690461D46DDE90C945BA042F694
:1059A00050234FF435720CA1CDE9000410A007F08C
:1059B00045F880208DF80800E8B28DF80900280A23
:1059C000AEE00000696E69742053444F206C696E2C
:1059D00065206E62203A20002E2E5C43414E6F708F
:1059E000656E5C7372635C73646F2E63000000000D
:1059F00025732C2564203A203058257820257320E3
:105A000030582578200D0A00537461727453444F46
:105A10005F54494D455220666F72206C696E652057
:105A20003A200000E0930400575B000853746F7045
:105A300053444F5F54494D455220666F72206C6944
:105A40006E65203A2000000072657365742053442F
:105A50004F206C696E65206E62203A2000000000C5
:105A600073656E6453444F00756E61626C6520749B
:105A70006F2073656E64207468652053444F20283E
:105A80006E6F7420696E206F70206F722070726567
:105A90002D6F70206D6F64650000000053656E64AB
:105AA00053444F203A2053444F20736572766572F9
:105AB000206E6F7420666F756E6400004920616D02
:105AC0002073657276657220547820636F62496432
:105AD000203A200053656E6453444F203A205344CB
