:020000040800F2
:1000000038040020850500089D0100089F010008B4
:10001000A3010008A7010008AB01000800000000D0
:10002000000000000000000000000000AF01000818
:10003000B101000800000000B30100089D050008A0
:100040009F0500089F0500089F0500089F05000800
:100050009F0500089F0500089F0500089F050008F0
:100060009F0500089F0500089F0500089F050008E0
:100070009F0500089F0500089F0500089F050008D0
:100080009F0500089F0500089F0500089F050008C0
:10009000F50300089F0500089F0500089F0500085C
:1000A0009F0500089F0500089F0500089F050008A0
:1000B0009F0500089F0500089F0500089F05000890
:1000C0009F0500089F0500089F0500089F05000880
:1000D0009F0500089F0500089F0500089F05000870
:1000E0009F0500089F0500089F0500089F05000860
:1000F0009F0500089F0500089F0500089F05000850
:100100009F0500089F0500089F0500089F0500083F
:100110009F0500089F0500089F0500089F0500082F
:100120009F0500089F0500089F0500089F0500081F
:100130009F0500089F0500089F0500089F0500080F
:10014000850400089F0500089F0500089F0500081A
:100150009F0500089F0500089F0500089F050008EF
:100160009F0500089F0500089F0500089F050008DF
:100170009F0500089F0500089F0500089F050008CF
:100180009F0500089F050008DFF80CD001F0E0FC97
:1001900000480047B501000838040020704700BF40
:1001A000FEE700BFFEE700BFFEE700BFFEE77047C7
:1001B0007047704700F0C0F900F048F800F0B0F860
:1001C00013E00A480078012805D10020074908708B
:1001D000074800F02AF907480078012805D10020D7
:1001E00004490870024800F068F9EAE708000020B6
:1001F000452341181100002010B50246002000BF21
:1002000020E000EB8003C34C54F82330934218D114
:1002100000EB800304EB83031B79CB7000EB8003BE
:1002200004EB83031B7A0B7100EB800304EB830365
:100230001B7B4B7100EB800304EB83031B8A0B8059
:1002400010BD401C1228DCD300BFF9E700B589B00F
:100250000121084600F0CCFC4FF40060079002201A
:100260008DF820008DF8210000208DF8220001205B
:100270008DF8230007A9A84800F01CFA4FF480501D
:10028000079007A9A44800F015FA09220B21A248FB
:1002900000F09BFA09220C219F4800F096FA0121F8
:1002A000480600F0EEFC9D4800F052FE04A800F065
:1002B00073FF00208DF816008DF817008DF81800D8
:1002C0008DF819008DF81A008DF81B008DF81200BA
:1002D00004A9FA20FFF790FF04A9904800F051FE0E
:1002E00000208DF80A008DF80B0001208DF80C001D
:1002F0000020ADF80000ADF80200ADF80400ADF844
:100300000600ADF8080001208DF80D00684600F0E9
:10031000C2FE01220221814801F0BCF909B000BDF2
:1003200000B589B00121022000F062FC2020079076
:1003300002208DF820008DF8210000208DF8220089
:1003400001208DF8230007A9754800F0B3F940207B
:10035000079007A9724800F0ADF9092205217048FD
:1003600000F033FA092206216D4800F02EFA01212F
:100370004FF0C06000F085FC6A4800F0E9FD04A879
:1003800000F00AFF00208DF816008DF817008DF898
:1003900018008DF819008DF81A008DF81B008DF8E3
:1003A000120004A9FA20FFF727FF04A95D4800F016
:1003B000E8FD0E208DF80A0000208DF80B000120CA
:1003C0008DF80C000020ADF80000ADF80200ADF88B
:1003D0000400ADF80600ADF8080001208DF80D000E
:1003E000684600F058FE012202214E4801F052F901
:1003F00009B000BD10B586B0002401AA002147480D
:1004000001F02DF800BF05E00DF10F00005D464939
:100410000855641C082CF7D30120444908700221B8
:100420003E4801F03AFA06B010BD70B586B00546F8
:100430000026029504208DF80C0000208DF80D0098
:1004400008208DF80E00002406E03748015D0DF10C
:100450000F000155601CC4B2082CF6DB01A92F481F
:1004600000F008FF064601E0601CC4B231462B488C
:1004700000F098FF012803D04FF6FF708442F3D1BB
:1004800006B070BD10B586B0002401AA0021254831
:1004900000F0E5FF00BF05E00DF10F00005D24490D
:1004A0000855641C082CF7D301202249087002214A
:1004B0001C4801F0F2F906B010BD70B586B00546D3
:1004C0000026029504208DF80C0000208DF80D0008
:1004D00008208DF80E00002406E01548015D0DF19E
:1004E0000F000155601CC4B2082CF6DB01A90D48B1
:1004F00000F0C0FE064601E0601CC4B23146094867
:1005000000F050FF012803D04FF6FF708442F3D172
:1005100006B070BD941B000800000240006400405B
:100520000004024000680040000000200800002095
:10053000090000201100002008B514208DF80000EB
:100540004FF4407000F094FC00208DF801008DF80D
:10055000020001208DF80300684600F08EFC402068
:100560008DF800004FF4407000F082FC00208DF800
:10057000010001208DF802008DF80300684600F0AC
:100580007CFC08BD0648804706480047FEE7FEE7BA
:10059000FEE7FEE7FEE7FEE7FEE7FEE7FEE7FEE733
:1005A0001D1A00088901000810B5044698488442C5
:1005B00008D10121084600F086FB0021012000F04F
:1005C00082FB76E09348844208D10121022000F0AA
:1005D0007AFB0021022000F076FB6AE08E4884421C
:1005E00008D10121042000F06EFB0021042000F05E
:1005F0006AFB5EE08948844208D10121082000F0AE
:1006000062FB0021082000F05EFB52E08448844237
:1006100008D10121102000F056FB0021102000F02D
:1006200052FB46E07F48844208D10121202000F09F
:100630004AFB0021202000F046FB3AE07A48844241
:1006400008D10121402000F03EFB0021402000F0B5
:100650003AFB2EE07548844208D10121802000F049
:1006600032FB0021802000F02EFB22E07048844203
:1006700008D10121801500F026FB0021A01500F013
:1006800022FB16E06B48844208D10121401500F09E
:100690001AFB0021601500F016FB0AE06648844250
:1006A00007D10121001500F00EFB0021201500F0FC
:1006B0000AFB10BDF0B50A4600210023002400BF4C
:1006C0003DE0012505FA01F3156805EA03049C42A3
:1006D00034D105684F000326BE40B5430560157947
:1006E0004E00B5400668354305601579012D02D0EE
:1006F0001579022D16D185684F000326BE40B543FB
:10070000856055794E00B5408668354385604568FB
:1007100001268E40B5434560456896798E40B6B255
:1007200035434560C5684F000326BE40B543C560EC
:10073000D5794E00B540C6683543C560491C1029BF
:10074000BFD3F0BD4FF6FF7101600021017141710F
:100750008171C171704708B54FF480320092009AE0
:100760000A430092009AC261C161009AC261C269E3
:100770000092C269009208BD0246002013690B4036
:100780000BB1012000E0002070470146086980B2EB
:1007900070470246002053690B400BB1012000E076
:1007A000002070470146486980B270470183704756
:1007B000418370470AB1018300E041837047416182
:1007C000704742694A4042617047F0B500230024F7
:1007D0004D07ED0E02FA05F3CE1000F1200555F895
:1007E00026504E07F70E0F26BE40B543CF1000F13E
:1007F000200646F82750CE1000F1200555F8265067
:1008000045EA0304CE1000F1200545F82640F0BD6E
:10081000000002400004024000080240000C0240B8
:10082000001002400014024000180240001C024068
:10083000002002400024024000280240F9480068DD
:1008400040F00100F74908600020F64908310860CF
:10085000F4480068F4490840F2490860F348091D6B
:100860000860F348EF4984310860F0481038091DEA
:100870000860EC48006820F48020EA490860002005
:10088000E8490C310860E7498C3108607047002165
:10089000E44A921C117011460870704710B5014669
:1008A0000022002300204A11012A02D1DD4C2368D6
:1008B00008E0022A03D1DB4C7034236802E0D94CF3
:1008C0007434236801F01F02012494401C400CB1D1
:1008D000012000E0002010BD38B500200090002469
:1008E000002500BF3120FFF7D9FF05460098401CC6
:1008F00000900098B0F5A04F01D0002DF2D031202B
:10090000FFF7CCFF08B1012400E00024204638BDE9
:1009100001460020C34A106820F0F80040EAC100F8
:1009200010607047C349086070470021BD4A7032AB
:1009300011701170012802D004280AD104E00121AD
:10094000B84A7032117005E00521B64A7032117054
:1009500000E000BF00BF7047B7490860704770B53E
:10096000049C41EA82150126C6EB530645EA06457A
:10097000054345EA0465AB4E361D356070BDAD4993
:1009800008667047820142EA0172A64B84331A60FE
:100990007047A8498866704710B5830143EA016330
:1009A00043EA02739F4C8834236010BDA149086755
:1009B0007047A049C864704702460020994B08332D
:1009C000186820F0EC6042EA01031843954B0833A5
:1009D0001860704702460020924B0833186820F0D8
:1009E000784042EA010318438E4B08331860704781
:1009F000014600208B4A0832106820F003000843AB
:100A00001060704787480830006800F00C0070479D
:100A100001460020834A0832106820F0F0000843A5
:100A200010607047014600207E4A0832106820F4AA
:100A3000E05008431060704701460020794A0832B0
:100A4000106820F4604040EAC10010607047F0B5C3
:100A5000002100220024022500260223714F0837BE
:100A60003F6807F00C0121B1042905D0082937D1CE
:100A700005E0724F076036E0714F076033E0694F61
:100A80003F1D3F68C7F38056664F3F1D3F6807F024
:100A90003F036EB16A4FB7FBF3F7DFF888C10CF183
:100AA000040CDCF800C0CCF3881C07FB0CF40CE051
:100AB000624FB7FBF3F7DFF86CC10CF1040CDCF804
:100AC00000C0CCF3881C07FB0CF4564F3F1D3F6859
:100AD000C7F301477F1C7D00B4FBF5F7076002E018
:100AE000564F076000BF00BF4E4F08373F6807F002
:100AF000F0010909534F7A5C0768D7404760494FB6
:100B000008373F6807F4E051890A4E4F7A5C47681E
:100B1000D7408760434F08373F6807F46041490B6F
:100B2000484F7A5C4768D740C760F0BD002100F4A9
:100B30004072B2F5407F0AD13A4A0832116821F476
:100B4000F811414A02401143364A08321160354AD1
:100B500070321268C0F30B031A43324B70331A60C1
:100B60007047354944390860704733494039086057
:100B7000704736490860704701460020294A8C3288
:100B8000106820F01F004A1E1043264A8C32106065
:100B9000704701460020234A8C32106820F4F85038
:100BA0004A1E40EA02201F4A8C32106070470146FC
:100BB00000201C4A8C32106820F44010084310605A
:100BC000704701460020174A8C32106820F440001C
:100BD00008431060704701460020124A8C321068AA
:100BE00020F440300843106070471949086070478E
:100BF00039B10C4A3032126802430A4B30331A6062
:100C000006E0084A303212688243064B30331A60DD
:100C10007047F9B1034A343212680243014B34334E
:100C20001A601CE000380240FFFFF6EA1030002492
:100C30000030002000004742800E47420024F400AC
:100C400040787D0112000020FFFCFF0F5C0147424D
:100C5000E0114742854A12688243844B1A6070470C
:100C600039B1824A121D12680243804B1B1D1A6063
:100C700006E07E4A121D126882437C4B1B1D1A60DF
:100C8000704739B1794A0C3212680243774B0C3302
:100C90001A6006E0754A0C3212688243734B0C33BB
:100CA0001A60704739B1714A1032126802436F4BB3
:100CB00010331A6006E06D4A1032126882436B4BA3
:100CC00010331A60704739B1684A243A12680243F7
:100CD000664B243B1A6006E0644A243A1268824359
:100CE000624B243B1A60704739B1604A203A12685F
:100CF00002435E4B203B1A6006E05C4A203A1268D1
:100D000082435A4B203B1A60704739B1574A1C3A0C
:100D100012680243554B1C3B1A6006E0534A1C3ACA
:100D200012688243514B1C3B1A60704739B14F4ADD
:100D3000143A126802434D4B143B1A6006E04B4ACA
:100D4000143A12688243494B143B1A60704739B118
:100D5000464A103A12680243444B103B1A6006E0C0
:100D6000424A103A12688243404B103B1A60704767
:100D700039B13E4A1C32126802433C4B1C331A60A4
:100D800006E03A4A1C3212688243384B1C331A6020
:100D9000704739B1354A203212680243334B203351
:100DA0001A6006E0314A2032126882432F4B20330A
:100DB0001A60704739B12D4A2432126802432B4B16
:100DC00024331A6006E0294A243212688243274BF2
:100DD00024331A60704739B1244A2C321268024316
:100DE000224B2C331A6006E0204A2C3212688243D0
:100DF0001E4B2C331A60704739B11C4A30321268CE
:100E000002431A4B30331A6006E0184A3032126837
:100E10008243164B30331A60704739B1134A273A70
:100E200012780243114B273B1A7006E00F4A273A0B
:100E3000127882430D4B273B1A7070470B484030A5
:100E4000006840F0807009494031086070470146F1
:100E50000020064A283A12680A400AB1012000E040
:100E60000020704701492639087070473438024025
:100E700032490143324A1160704770B500210023A6
:100E80000F22C4781CB32E4C246804F4E064C4F52B
:100E9000E064C4F30721C1F10404E3B20A414478D9
:100EA0009C40E1B28478144021430C07210E254C6C
:100EB00005786155047804F01F050124AC400578DD
:100EC0006D11AD0005F1E025C5F8004109E0047899
:100ED00004F01F050124AC401B4D0678761145F83F
:100EE000264070BD194A0A400243154B1B1F1A6069
:100EF000704739B1124A121D12680243104B1B1D74
:100F00001A6006E00E4A121D126882430C4B1B1D2C
:100F10001A607047042808D14FF0E021096941F0B8
:100F200004014FF0E022116107E04FF0E021096970
:100F300021F004014FF0E022116170470000FA0532
:100F40000CED00E000E400E080E100E080FFFF1F26
:100F500010B50446FE48844209D101214806FFF736
:100F6000E5FE00214FF00070FFF7E0FE08E00121F0
:100F70008806FFF7DBFE00214FF08060FFF7D6FE0A
:100F800010BD30B5024600200023146824F002048E
:100F90001460146844F00104146000E05B1C5468A1
:100FA00004F001041CB94FF6FF74A342F6D1546853
:100FB00004F001040CB900206CE08C79012C04D100
:100FC000146844F08004146003E0146824F0800482
:100FD0001460CC79012C04D1146844F040041460EE
:100FE00003E0146824F0400414600C7A012C04D14E
:100FF000146844F02004146003E0146824F0200412
:1010000014604C7A012C04D1146844F0100414606C
:1010100003E0146824F0100414608C7A012C04D1CD
:10102000146844F00804146003E0146824F0080411
:101030001460CC7A012C04D1146844F004041460C8
:1010400003E0146824F0040414608C78A407CD78BD
:1010500044EA05640D7944EA05444D7944EA0554AF
:101060000D886D1E2C43D461146824F001041460B3
:10107000002300E05B1C546804F001041CB14FF62F
:10108000FF74A342F6D1546804F001040CB10020AF
:1010900000E0012030BD10B50021837A012202FA60
:1010A00003F1AC4A126842F00102AA4B1A60A94A45
:1010B0001C3212688A43A74B1C331A60027BCAB9E0
:1010C000A44A0C3212688A43A24B0C331A6042883D
:1010D000C38842EA03439F4A4032847A42F834305C
:1010E0000288838842EA03439A4A4032847A02EBB8
:1010F000C4025360027B012A19D1964A0C3212684D
:101100000A43944B0C331A604288038842EA034333
:10111000904A4032847A42F83430C288838842EA66
:1011200003438C4A4032847A02EBC4025360C27A91
:101130003AB9884A121D12688A43864B1B1D1A60F1
:1011400006E0844A121D12680A43824B1B1D1A6076
:10115000028932B97F4A143212688A437D4B1433B4
:101160001A600289012A06D17A4A143212680A43A7
:10117000784B14331A60427B012A06D1754A1C321F
:1011800012680A43734B1C331A60724A126822F0C9
:101190000102704B1A6010BD00218171C171017292
:1011A00041728172C1728170C1700321017102218B
:1011B00041710121018070476649096841F00101D0
:1011C000644A11601146096843F60E729143614A00
:1011D00011601146096841EA002111601146096851
:1011E00021F001011160704721B1026842F48032A0
:1011F000026003E0026822F4803202607047E1B1CD
:10120000026842F0800202604FF4C272125842F447
:1012100080734FF4C27213504FF4CA72125842F4E2
:1012200080734FF4CA7213504FF4D272125842F4C2
:1012300080734FF4D27213501BE0026822F08002D8
:1012400002604FF4C272125822F480734FF4C272DB
:1012500013504FF4CA72125822F480734FF4CA72BA
:1012600013504FF4D272125822F480734FF4D2729A
:101270001350704710B502460020936803F0806356
:10128000B3F1806F00D110E0936803F00063B3F115
:10129000006F01D1012008E0936803F08053B3F19F
:1012A000805F01D1022000E00420042879D002F5FB
:1012B000C07303EB00131B6803F0010402F5C07355
:1012C00003EB00131C600B7A7BB94B7A0C8843EA62
:1012D000445302F5C07404EB00142468234302F560
:1012E000C07404EB0014236010E00B7A4C6843EAEE
:1012F000C4034C7A234302F5C07404EB0014246841
:10130000234302F5C07404EB001423608B7A03F0CE
:101310000F038B7202F5C07303EB00135B6823F0BD
:101320000F0402F5C07303EB00135C6002F5C07399
:1013300003EB00135B688C7A234302F5C07404EB63
:10134000001463608B7B1C064B7B44EA034403E080
:1013500000640040006600400B7B44EA0323CC7A23
:10136000234302F5C07404EB0014A3608B7C1C06BD
:101370004B7C44EA03440B7C44EA0323CC7B2343A9
:1013800002F5C07404EB0014E36002F5C07303EBD4
:1013900000131B6843F0010402F5C07303EB001354
:1013A0001C6010BD10B50246002321B1012907D0F1
:1013B00002290FD109E09068F94C00EA04030BE020
:1013C0009068F84C00EA040306E09068F64C00EAE6
:1013D000040301E0002300BF00BFF44C181BA3422C
:1013E00016D007DC83B16FF08060184470B102281A
:1013F00018D111E0B0F5007F10D0ED4C204448B179
:10140000B0F5003F0ED10BE002230DE000230BE00E
:10141000002309E0002307E0012305E0012303E0A6
:10142000012301E0002300BF00BFD8B210BD21B1ED
:10143000012907D002290FD109E0826842F0800219
:1014400082600AE0826842F40042826005E08268BD
:1014500042F40002826000E000BF00BF704710B598
:1014600000F5D87303EB01131B6803F00403137238
:10147000137A53B900F5D87303EB01131B6840F2DC
:10148000FF7404EA5353136009E000F5D87303EBCB
:1014900001131B686FF0604404EAD303536000F546
:1014A000D87303EB01131B6803F00203537200F5BA
:1014B000D87303EB01135B6803F00F03937200F51D
:1014C000D87303EB01135B681B0AD37400F5D87360
:1014D00003EB01139B68D37200F5D87303EB011380
:1014E0009B681C0A147300F5D87303EB01139B6807
:1014F0001C0C547300F5D87303EB01139B681B0E8F
:10150000937300F5D87303EB0113DB68D37300F515
:10151000D87303EB0113DB681C0A147400F5D8734D
:1015200003EB0113DB681C0C547400F5D87303EB58
:101530000113DB681B0E937421B9C36843F02003C9
:10154000C36003E0036943F02003036110BD21B9C8
:10155000C26842F02002C26003E0026942F0200249
:10156000026170470246002019B9D36803F00300F6
:1015700006E0012903D1136903F0030000E0002015
:10158000704710B502460B4600204FF6FF71BBB9FD
:10159000146824F0020444F00104146000E0491EC1
:1015A000546804F00304012C01D00029F7D15468D9
:1015B00004F00304012C01D0002032E0012030E0CF
:1015C000012B13D1146824F00304146000E0491EB9
:1015D000546804F003040CB10029F8D1546804F0F5
:1015E00003040CB100201CE001201AE0022B17D1EB
:1015F000146824F0010444F00204146000E0491E61
:10160000546804F00304022C01D00029F7D1546877
:1016100004F00304022C01D0002002E0012000E0CD
:10162000002010BD014600200A6822F0010242F0AD
:1016300002020A604A6802F00302022A00D1012075
:10164000704701464FF6FF7200200B6823F002033B
:101650000B6000E0521E4B6803F00203022B01D125
:10166000002AF7D14B6803F00203022B00D00120BF
:101670007047014600208A6902F0700070470146F9
:1016800000208A69100E7047014600208A69C2F363
:10169000074070471AB143690B43436102E0436955
:1016A0008B434361704710B50246002001F470037C
:1016B00043B19369C1F3130423400BB101202DE022
:1016C00000202BE001F0807343B15368C1F3130491
:1016D00023400BB1012021E000201FE001F0006356
:1016E00043B19368C1F3130423400BB1012015E00B
:1016F000002013E001F0007343B1D368C1F3130479
:1017000023400BB1012009E0002007E01369C1F379
:10171000130423400BB1012000E0002010BD002283
:10172000244B994202D10023836111E0C1F31302DB
:1017300001F000730BB1C2600AE001F080630BB1ED
:10174000026105E001F000630BB1826000E04260DD
:1017500070470246002002EA01030BB1012000E0BD
:101760000020704770B504460D4600266069284089
:10177000002872D0B5F5807F69D01DDC082D42D0DD
:1017800006DC012D2DD0022D31D0042D7FD134E087
:10179000102D3ED0202D42D0402D78D145E00000C4
:1017A000030000040003000800000310000100080B
:1017B0000001FFF77000F030B5F5004F61D009DC93
:1017C000B5F5007F4AD0B5F5806F4DD0B5F5006F07
:1017D0005DD150E0B5F5803F2DD0B5F5003F56D135
:1017E0002FE0A0685549FFF7B4FF064651E0E068D6
:1017F0000321FFF7AEFF06464BE0E0680821FFF744
:10180000A8FF064645E0E0681021FFF7A2FF064664
:101810003FE020690321FFF79CFF064639E020697D
:101820000821FFF796FF064633E020691021FFF7F5
:1018300090FF06462DE060680821FFF78AFF064604
:1018400027E060681021FFF784FF064621E0A069C9
:101850000121FFF77EFF06461BE01BE0A069022185
:10186000FFF777FF064614E0A0690421FFF771FF38
:1018700006460EE00BE0A0697021FFF76AFF0646FE
:1018800007E060680421FFF764FF064601E00026D8
:1018900000BF00E00026304670BDB1F5007F3AD0B1
:1018A0000FDC202928D006DC01291CD004291DD0FA
:1018B000082940D11DE0402921D0B1F5807F3AD1DF
:1018C00026E0B1F5004F31D006DCB1F5806F25D0B0
:1018D000B1F5006F2FD124E0B1F5803F12D0B1F502
:1018E000003F28D111E0154A826025E00822C2603D
:1018F00022E01022C2601FE0082202611CE01022D8
:10190000026119E00822426016E01022426013E0F2
:101910000422426010E0042242600DE00422426092
:101920000AE0002282610422426005E00022826116
:101930000422426000E000BF00BF704701010100C7
:101940000CB50020019000907648006840F480308B
:101950007449086000BF7348006800F400300090CC
:101960000198401C0190009818B90198B0F5A04F5B
:10197000F1D16C48006800F4003010B101200090F3
:1019800001E0002000900098012846D165484030D1
:10199000006840F080506349403108606248006848
:1019A00040F44040604908605E48083000685D4986
:1019B000083108600846006840F4004008600846A6
:1019C000006840F4A05008605848091F0860081FCC
:1019D000006840F08070091F086000BF514800682F
:1019E00000F000700028F9D040F2057050490860FE
:1019F0004C480830006820F003004A49083108606C
:101A00000846006840F00200086000BF4548083002
:101A1000006800F00C000828F8D10CBD10B545484E
:101A2000006840F47000434908603E48006840F098
:101A300001003C49086000203A49083108603948F3
:101A400000683D490840374908603C48091D086066
:101A5000081F006820F48020091F08600020314919
:101A60000C310860FFF76CFF4FF00060314980399E
:101A7000086010BD70B5002000220223002402215E
:101A8000284D08352D6805F00C0020B1042806D03B
:101A9000082834D107E02A4D2A4E356033E02A4D1C
:101AA000284E35602FE01F4D2D1D2D68C5F3805445
:101AB0001C4D2D1D2D6805F03F0154B1224DB5FB85
:101AC000F1F5184E361D3668C6F3881605FB06F28A
:101AD00009E01B4DB5FBF1F5124E361D3668C6F315
:101AE000881605FB06F20F4D2D1D2D68C5F3014527
:101AF0006D1C6B00B2FBF3F5124E356003E0104D28
:101B0000104E356000BF00BF064D08352D68C5F387
:101B100003150E4E705D0B4D2D68C540094E3560A6
:101B200070BD0000003802400070004019544007AA
:101B3000003C024088ED00E0FFFFF6FE103000247C
:101B40000024F4002400002040787D0128000020BB
:101B5000064C074D06E0E06840F0010394E80700FA
:101B600098471034AC42F6D3FEF712FBFC1C000879
:101B70001C1D000802E008C8121F08C1002AFAD183
:101B800070477047002001E001C1121F002AFBD1FD
:101B90007047000005000000000000000C0000007D
:101BA00001000000C20100000A0000000000000067
:101BB0000500000001000000900100000F0000007F
:101BC000000000000C000000010000009600000072
:101BD00014000000000000000500000001000000EB
:101BE000C80000001900000000000000050000000F
:101BF0000700000070000000280000000000000046
:101C00000500000001000000640000003200000038
:101C10000000000005000000070000003800000080
:101C20003E000000000000000C0000000100000069
:101C3000240000005000000000000000050000002B
:101C400001000000320000006400000000000000FD
:101C500005000000070000001C0000007D000000DF
:101C6000000000000C000000010000001200000055
:101C7000C800000000000000050000000700000090
:101C80000E000000FA000000000000000E0000003E
:101C900004000000080000009001000000000000A7
:101CA0000E0000000400000005000000F401000028
:101CB000000000000E00000004000000040000000E
:101CC0009A02000000000000040000000100000073
:101CD00008000000200300000000000007000000D2
:101CE000020000000E000000E803000000000000F9
:101CF0000E00000004000000020000001C1D00088F
:101D00000000002038000000741B0008541D00086B
:101D10003800002000040000841B000800000000C0
:101D200000000000000000000000000000000000B3
:101D30000000010203040102030406070809000071
:101D4000007A030A00000000000000000102030402
:041D50000607080971
:040000050800018965
:00000001FF
