:020000040800F2
:10000000C8060020290200083D0400084104000839
:1000100045040008490400084D04000800000000E1
:100020000000000000000000000000005104000873
:10003000530400080000000055040008570400089D
:10004000430200084302000843020008430200087C
:10005000430200084302000843020008430200086C
:10006000430200084302000843020008430200085C
:10007000430200084302000843020008430200084C
:10008000430200084302000843020008430200083C
:100090005F0400084302000843020008430200080E
:1000A000430200084302000843020008430200081C
:1000B000430200084302000843020008430200080C
:1000C00043020008430200084302000843020008FC
:1000D00043020008430200084302000843020008EC
:1000E00043020008430200084302000843020008DC
:1000F00043020008430200084302000843020008CC
:1001000043020008430200084302000843020008BB
:1001100043020008430200084302000843020008AB
:10012000430200084302000843020008430200089B
:100130004302000800000000000000004302000825
:100140006904000843020008430200084302000853
:10015000430200084302000843020008430200086B
:10016000430200084302000843020008430200085B
:1001700043020008430200080000000000000000E5
:10018000430200084302000800F002F800F03CF8C7
:100190000AA090E8000C82448344AAF10107DA45E2
:1001A00001D100F031F8AFF2090EBAE80F0013F0F8
:1001B000010F18BFFB1A43F0010318478425000004
:1001C000A4250000103A24BF78C878C1FAD8520795
:1001D00024BF30C830C144BF04680C6070470000C1
:1001E0000023002400250026103A28BF78C1FBD840
:1001F000520728BF30C148BF0B6070471FB502F0DF
:100200008EFA1FBD10B510BD02F04FFA1146FFF770
:10021000F5FF00F0FBF802F06DFA03B4FFF7F2FF10
:1002200003BC02F075FA00000948804709480047FE
:10023000FEE7FEE7FEE7FEE7FEE7FEE7FEE7FEE796
:10024000FEE7FEE704480549054A064B70470000F3
:100250009924000889010008C8000020C806002071
:10026000C8020020C802002072B600BFFEE710B529
:100270006C486D4908600220486000216A4881602E
:10028000C1604FF4702101614FF4401141610021C0
:10029000017641768176C1760177417700F00BFADD
:1002A00008B1FFF7E1FF10BD10B560486049086074
:1002B0000220486000215E488160C1604FF45021F7
:1002C00001614FF4A0014161002101764176817600
:1002D000C1760177417700F0EEF908B1FFF7C4FF6E
:1002E00010BD08B500BF002000905248006840F0E3
:1002F0000400504908600846006800F004000090BF
:1003000000BF00BF00BF002000900846006840F01A
:10031000800008600846006800F08000009000BF80
:1003200000BF00BF002000900846006840F00100B8
:1003300008600846006800F00100009000BF00BFA0
:1003400000BF002000900846006840F002000860EE
:100350000846006800F00200009000BF00BF08BD22
:1003600000B593B0302107A802F075F9142102A856
:1003700002F071F900BF002001902E481030006893
:1003800040F080502B49103108600846006800F0AA
:100390008050019000BF00BF00BF002001902648A0
:1003A000006840F48040244908600846006800F472
:1003B0008040019000BF00BF01200790000408901A
:1003C00002200D9041050E9104210F9154211091AE
:1003D000022111910421129107A800F0FDFE08B13D
:1003E000FFF742FF0F2002900220039000200490AC
:1003F0004FF48050059000200690022102A801F0E1
:1004000087F908B1FFF730FF13B000BD01F05DFFC1
:10041000FFF7A6FFFFF765FFFFF746FFFFF727FF90
:1004200000BFFEE7006800403C0000200064004080
:1004300014000020303802400070004000BFFEE78A
:1004400000BFFEE700BFFEE700BFFEE700BFFEE71C
:1004500070477047704710B501F072FF10BD10B5BE
:10046000044800F067FD10BD10B5034800F062FDC0
:1004700010BD0000140000203C00002008B500BFA3
:10048000002000908548006840F48040834908605F
:100490000846006800F48040009000BF00BF00BF25
:1004A00000200090081F006840F08050091F08607D
:1004B0000846006800F08050009000BF00BF08BDF3
:1004C00010B586B00446142101A802F0C4F874499E
:1004D0002068884244D173480068401C7149086014
:1004E00008460068012811D100BF002000906B4829
:1004F000001F006840F000706849091F0860084646
:10050000006800F00070009000BF00BF00BF002036
:10051000009062481438006840F001005F491439C7
:1005200008600846006800F00100009000BF00BFAE
:100530004FF4C0500190022002900120039003204C
:1005400004900920059001A9574801F0E7FA00221C
:100550000421142001F0DEFC142001F019FD58E004
:1005600052492068884254D100BF002000904B4877
:10057000001F006840F080604849091F0860084675
:10058000006800F08060009000BF00BF4548006830
:10059000401C4449086008460068012811D100BF8A
:1005A000002000903D48001F006840F000703B496B
:1005B000091F08600846006800F00070009000BF46
:1005C00000BF00BF0020009034481438006840F09D
:1005D00002003249143908600846006800F0020041
:1005E000009000BF00BF6020019002200290012017
:1005F0000390032004900920059001A92C4801F0E4
:100600008DFA00220421402001F084FC402001F0FA
:10061000BFFC06B010BD10B50446214920688842D1
:1006200018D120480068401E1E490860084600682E
:1006300038B91A48001F006820F000701749091FD8
:1006400008604FF4C051184801F04BFB142001F032
:10065000B3FC22E01549206888421ED10F48001FD4
:10066000006820F080600D49091F08600D4800688F
:10067000401E0C4908600846006838B90748001F4A
:10068000006820F000700549091F086060210848D3
:1006900001F027FB402001F08FFC10BD44380240E0
:1006A000006400400000002000000240006800409C
:1006B00000040240704770B504460CB9012070BDBB
:1006C00094F8200010B92046FFF7FAFE2068006871
:1006D00040F001002168086001F03AFE05460DE097
:1006E00001F036FE401B0A2808D9606A40F4003049
:1006F0006062052084F820000120E0E7206840685F
:1007000000F001000028EBD02068006820F0020013
:100710002168086001F01CFE05460DE001F018FE9E
:10072000401B0A2808D9606A40F400306062052046
:1007300084F820000120C2E72068406800F0020031
:100740000028EBD1207E012806D12068006840F007
:1007500080002168086005E02068006820F08000C3
:1007600021680860607E012806D12068006840F09A
:1007700040002168086005E02068006820F0400023
:1007800021680860A07E012806D12068006840F03A
:1007900020002168086005E02068006820F0200043
:1007A00021680860E07E012806D12068006820F0FA
:1007B00010002168086005E02068006840F0100023
:1007C00021680860207F012806D12068006840F079
:1007D00008002168086005E02068006820F0080033
:1007E00021680860607F012806D12068006840F019
:1007F00004002168086005E02068006820F004001B
:1008000021680860D4E9020108432169084361694D
:1008100008436168491E08432168C861002060627E
:10082000012084F82000002049E7704770B5044695
:1008300094F82000022828D12068006840F00100C8
:100840002168086001F084FD05460DE001F080FD9F
:10085000401B0A2808D9606A40F400306062052015
:1008600084F82000012070BD2068406800F001007D
:100870000028EBD02068006820F0020021680860A2
:10088000012084F820000020EDE7606A40F4801029
:1008900060620120E7E710B504460CB9012010BDE5
:1008A0002046FFF7C3FF2046FFF7B5FE206800682B
:1008B00040F40040216808600020606284F8200055
:1008C00000BFECE7F0B504460A46216894F82050D2
:1008D000012D01D0022D7ED1F64901F50071086885
:1008E00040F001000860086820F47C500860086847
:1008F000566A40EA06200860107D00F01F060120BD
:1009000000FA06F3C8699843C861A1F50071D0697F
:10091000C8B9D1F80C029843C1F80C02908880B293
:10092000968940EA064601F51070576940F837602D
:10093000108880B2168940EA064601F510705769A2
:1009400000EBC7004660D069012819D1D1F80C022C
:100950001843C1F80C02908880B2168840EA064617
:1009600001F51070576940F83760908980B2168998
:1009700040EA064601F51070576900EBC700466073
:10098000906928B9D1F804029843C1F8040204E040
:10099000D1F804021843C1F80402106928B9D1F84B
:1009A00014029843C1F8140204E0D1F81402184369
:1009B000C1F81402106A012804D1D1F81C021843AE
:1009C000C1F81C02D1F8000220F00100C1F80002B9
:1009D0000020F0BDFFE7606A40F4802060620120E3
:1009E000F7E770B5044694F82000012822D10220D0
:1009F00084F820002068006820F001002168086069
:100A000001F0A6FC05460DE001F0A2FC401B0A28FF
:100A100008D9606A40F400306062052084F8200044
:100A2000012070BD2068406800F001000028EBD173
:100A30006062F6E7606A40F4002060620120F0E73F
:100A4000014691F82020012A01D0022A07D1086826
:100A5000006840F002000B68186000207047486A88
:100A600040F4802048620120F8E708B501460020E4
:100A7000009091F82020012A01D0022A1AD108689A
:100A8000006820F002000B68186000BF0098401C4E
:100A90000090894B0098984205D9486A40F400308C
:100AA0004862012008BD0868406800F00200002884
:100AB000ECD1F7E7486A40F4802048620120F1E772
:100AC0000146002091F82020012A01D0022A05D1F8
:100AD0000B685B6803F0020303B101207047F0B5B7
:100AE00004460D461E4694F8207020688368A86866
:100AF00000B900E000BF012F01D0022F7ED103F02A
:100B0000806030B903F0006018B903F0805000280D
:100B10007ED0C3F30161012088403060A86860B9CD
:100B2000B5F800C0E86840EA4C5C206800F5C07089
:100B300000EB0110C0F800C00FE0D5E901C040EAA9
:100B4000CC00D5F80CC040EA0C00D4F800C00CF57D
:100B5000C07C0CEB011CCCF80000D5F810C020685C
:100B600000F5C07000EB0110C0F804C0287D01281A
:100B70000ED1206800F5C07000EB0110406840F411
:100B8000807C206800F5C07000EB0110C0F804C044
:100B9000D079000692F806C040EA0C4092F805C0F1
:100BA00040EA0C2092F804C040EA0C00D4F800C0DF
:100BB0000CF5C07C0CEB011CCCF80C00D0780006C6
:100BC00092F802C040EA0C4092F801C040EA0C20C2
:100BD00092F800C040EA0C00D4F800C00CF5C07CCC
:100BE0000CEB011CCCF80800206800F5C07000EB8D
:100BF0000110006840F0010C206801E00EE007E001
:100C000000F5C07000EB0110C0F800C00020F0BD7E
:100C1000606A40F4001060620120F8E7606A40F406
:100C2000802060620120F2E710B5024692F8203081
:100C3000012B01D0022B1CD101F0010028B110685A
:100C4000806840F080001468A06001F0020028B1C4
:100C50001068806840F400401468A06001F004004F
:100C600028B11068806840F400001468A06000207B
:100C700010BD506A40F4802050620120F8E7014620
:100C8000002091F82020012A01D0022A11D10B68FE
:100C90009B6803F0806303B1401C0B689B6803F002
:100CA000006303B1401C0B689B6803F0805303B1E1
:100CB000401C70470064004040420F0010B50246DF
:100CC000002092F82030012B01D0022B07D11468AC
:100CD000A46804EA8164B4EB816F00D0012010BDE8
:100CE00030B50246002092F82040012C01D0022CA1
:100CF0000AD191FAA1F5B5FA85F3156805F5C07525
:100D000005EB03156D68280C30BD70B5044694F8EA
:100D10002050012D01D0022D7ED151B92068C0682C
:100D200000F0030080B9606A40F4001060620120A6
:100D300070BD2068006900F0030028B9606A40F4C3
:100D4000001060620120F3E7206800F5D87000EB26
:100D50000110006800F004009060906840B92068BD
:100D600000F5D87000EB01100068400D106007E03E
:100D7000206800F5D87000EB01100068C0085060D2
:100D8000206800F5D87000EB0110006800F0020048
:100D9000D060206800F5D87000EB0110406800F0CA
:100DA0000F00082802D30820106108E0206800F531
:100DB000D87000EB0110406800F00F00106120684F
:100DC00000F5D87000EB0110406800F47F40000A85
:100DD0009061206800F5D87000EB01104068000CAD
:100DE0005061206800F5D87000EB01108068187021
:100DF000206800F5D87000EB0110806800F47F4097
:100E0000000A5870206800F5D87000EB0110806867
:100E100000F47F00000C00E03BE09870206800F5D3
:100E2000D87000EB01108068000ED870206800F5C3
:100E3000D87000EB0110C0681871206800F5D870F8
:100E400000EB0110C06800F47F40000A5871206870
:100E500000F5D87000EB0110C06800F47F00000CB2
:100E60009871206800F5D87000EB0110C068000E82
:100E7000D87131B92068C06840F020002668F06061
:100E800005E02068006940F02000266830610020FD
:100E90004EE7606A40F480206062012048E710B5A8
:100EA0000246002092F82030012B01D0022B09D1FC
:100EB00021B91468E46804F0030003E014682469AD
:100EC00004F0030010BD10B5024692F82030012B4B
:100ED00001D0022B06D11068406908431468606194
:100EE000002010BD506A40F4802050620120F8E7D5
:100EF00010B5024692F82030012B01D0022B06D10A
:100F000010684069884314686061002010BD506A11
:100F100040F4802050620120F8E770477047704726
:100F20007047704770477047704770477047704709
:100F3000704770472DE9F05F044600252068466938
:100F40002068D0F80490206887682068D0F80CA04A
:100F50002068D0F810B02068D0F8188006F00100A2
:100F6000002855D007F00100C0B101202168886039
:100F700007F0020018B12046FFF7DBFF0EE007F094
:100F8000040010B145F4006508E007F0080010B156
:100F900045F4805502E02046FFF7CAFF07F4807051
:100FA000C8B14FF480702168886007F4007018B1F0
:100FB0002046FFF7BCFF0EE007F4806010B145F457
:100FC000005508E007F4006010B145F4804502E0E8
:100FD0002046FFF7ABFF07F48030C8B14FF48030F4
:100FE0002168886007F4003018B12046FFF79DFFA4
:100FF0000EE007F4802010B145F4004508E007F446
:10100000002010B145F4803502E02046FFF78CFF48
:1010100006F0080038B10AF0100020B145F4007560
:1010200010202168C86006F0040040B10AF00800F2
:1010300028B108202168C8602046FFF774FF06F039
:10104000020038B12068C06800F0030010B12046EB
:10105000FFF768FF06F0400038B10BF0100020B138
:1010600045F4806510202168086106F0200040B139
:101070000BF0080028B10820216808612046FFF71E
:1010800050FF06F0100038B12068006900F003003E
:1010900010B12046FFF744FF06F4003040B109F0DC
:1010A000100028B11020216848602046FFF737FF64
:1010B00006F4803040B109F0080028B1082021680A
:1010C00048602046FFF72AFF06F4004088B309F085
:1010D000040078B306F4807020B108F0010008B174
:1010E00045F0010506F4007020B108F0020008B1D7
:1010F00045F0020506F4806020B108F0040008B154
:1011000045F0040506F40060A0B108F0700088B155
:1011100008F07000402817D006DC10280BD02028DB
:101120000CD0302819D10CE0502810D0602814D1F0
:1011300010E01DE019E045F008050FE045F010054E
:101140000CE045F0200509E045F0400506E045F0DB
:10115000800503E045F4807500E000BF00BF206813
:10116000806920F07000216888610420216848604F
:101170002DB1606A284360622046FFF7CEFEBDE8CD
:10118000F09F014691F82000012801D002280CD1DF
:101190000A68526802F002020AB1042005E00A68F7
:1011A000126802F0020202B1032070470146486A49
:1011B00070470146002091F82020012A01D0022A20
:1011C00002D100234B6204E04B6A43F480234B625C
:1011D0000120704700207047F8B504460CB9012083
:1011E000F8BD207800F00100002874D0F9480068AC
:1011F00000F00C0004280DD0F648006800F00C0048
:10120000082813D1F348001F006800F48000B0F5EF
:10121000800F0BD1EF4808380068C0F34040002829
:1012200059D06068002856D10120D9E700BF606816
:10123000B0F5803F08D1E7480838006840F48030B6
:10124000E449083908601EE06068B0F5A02F0DD1B0
:10125000E0480838006840F48020DE49083908601A
:101260000846006840F4803008600CE0D94808382F
:10127000006820F48030D7490839086008460068C3
:1012800020F48020086000BF606890B101F060F831
:10129000054606E001F05CF8401B642801D90320F4
:1012A0009EE7CC4808380068C0F340400028F1D0E1
:1012B00011E001F04DF8054606E001F049F8401B49
:1012C000642801D903208BE7C24808380068C0F3BE
:1012D00040400028F1D1207800F0020002285FD1C0
:1012E000BC48006800F00C0058B1BA48006800F033
:1012F0000C0008281CD1B748001F006800F48000CB
:10130000B0B9B44808380068C0F3400020B1E068C4
:10131000012801D0012063E7AE480838006820F0BA
:10132000F800216940EAC100AA490839086037E09D
:10133000E06800B30120A849086001F009F80546FB
:1013400006E001F005F8401B022801D9032047E719
:10135000A04808380068C0F340000028F1D09D483C
:101360000838006820F0F800216940EAC100994976
:101370000839086014E000209749086000F0E8FF91
:10138000054606E000F0E4FF401B022801D90320D7
:1013900026E7904808380068C0F340000028F1D1E3
:1013A000207800F0080008282CD16069A8B101203D
:1013B0008A49086000F0CCFF054606E000F0C8FF4F
:1013C000401B022801D903200AE782486C300068DC
:1013D000C0F340000028F1D014E000207F490860ED
:1013E00000F0B6FF054606E000F0B2FF401B022801
:1013F00001D90320F4E677486C300068C0F3400060
:101400000028F1D1207800F00400042870D10027D2
:1014100070483830006800F0805090B900BF00205C
:1014200000906C483830006840F08050694938318D
:1014300008600846006800F08050009000BF00BFC0
:1014400001276748006800F48070B0B964480068FC
:1014500040F480706249086000F07AFF054606E0BB
:1014600000F076FF401B022801D90320B8E65C4853
:10147000006800F480700028F2D000BFA068012846
:1014800008D154486830006840F001005149683183
:1014900008601DE0A06805280DD14E48683000683E
:1014A00040F004004B49683108600846006840F08D
:1014B000010008600CE047486830006820F0010037
:1014C0004449683108600846006820F0040008605C
:1014D00000BFA068A8B100F03BFF054609E000F09E
:1014E00037FF401B41F28831884202D9032077E65A
:1014F00026E0384868300068C0F340000028EED08D
:1015000013E000F025FF054608E000F021FF401B36
:1015100041F28831884201D9032061E62D486830C4
:101520000068C0F340000028EFD1012F07D12948FF
:101530003830006820F0805026493831086000BFFC
:10154000A069002845D02348006800F00C00082856
:101550005DD0A069022845D100201F49086600F02F
:10156000F7FE054606E000F0F3FE401B022801D915
:10157000032035E6174808380068C0F340600028AB
:10158000F1D1D4E907010843616A40EA81110122DF
:10159000A06AC2EB500041EA00412C20005D41EA04
:1015A00000600C49091F086001200B49086600F023
:1015B000CFFE054606E000F0CBFE401B022801D915
:1015C00003200DE6034808380068C0F34060002897
:1015D000F1D049E00838024000004742800E4742FF
:1015E000007000400020F849086600F0B1FE054692
:1015F00006E000F0ADFE401B022801D90320EFE514
:10160000F2480068C0F340600028F2D12CE0A069E5
:10161000012800D1E4E5ED48001D0668A069012815
:1016200020D006F48001E06981421BD106F03F0121
:10163000206A814216D147F6C0703040616AB0EB33
:10164000811F0FD106F440310122A06AC2EB500085
:10165000B1EB004F06D106F070612C20005DB1EBBC
:10166000006F01D00120BBE50020B9E52DE9F0476E
:10167000002400250026A146D4480830006800F068
:101680000C0020B1042805D008283AD105E0DFF885
:10169000409339E0DFF83C9336E0CC48001D006809
:1016A00000F03F04C948001D006800F4800078B1D4
:1016B000C848C649091D0968C1F38811A0FB01701B
:1016C000014622460023384600F04EFF05460EE054
:1016D000BF48BE49091D0968C1F38811A0FB01700C
:1016E000014622460023384600F03EFF0546B74833
:1016F000001D0068C0F30140401C4600B5FBF6F930
:1017000002E0DFF8CC9200BF00BF4846BDE8F0879A
:1017100070B504460D460CB9012070BDAE48006896
:1017200000F00700A84209D2AB490D7008460068D6
:1017300000F00700A84201D00120EEE7207800F079
:101740000200022823D1207800F00400042807D1E9
:101750009E480830006840F4E0509C490831086019
:10176000207800F00800082807D198480830006861
:1017700040F460409549083108609448083000689A
:1017800020F0F000A16808439049083108602078F3
:1017900000F00100A0B36068012806D18B48006802
:1017A000C0F34040A8B90120B7E76068022802D022
:1017B0006068032806D185480068C0F3406040B9DE
:1017C0000120AAE781480068C0F3400008B9012061
:1017D000A3E77E480830006820F0030061680843F2
:1017E0007A490831086000F0B3FD064609E000F0D0
:1017F000AFFD801B41F28831884202D903208CE77B
:1018000008E072480830006800F00C006168B0EB36
:10181000810FECD17048006800F00700A84209D998
:101820006D490D700846006800F00700A84201D01D
:10183000012072E7207800F00400042809D16348F1
:101840000830006820F4E050E16808435F4908313F
:101850000860207800F0080008280AD15B480830AA
:10186000006820F46040216940EAC100574908310E
:101870000860FFF7FBFE554908310968C1F3031101
:10188000564A515CC840564908605648006800F006
:10189000FCFC002041E770B586B006460C461546B4
:1018A00056BB00BF0020009048483030006840F030
:1018B00001004649303108600846006800F0010028
:1018C000009000BF00BF8815019002200290032005
:1018D000049000200390059001A9434800F01EF9F0
:1018E0003A480830006820F0EC6044EA05010843FB
:1018F00036490831086029E000BF002000903348D5
:101900003030006840F0040030493031086008464B
:10191000006800F00400009000BF00BF481501906F
:10192000022002900320049000200390059001A95A
:101930002E4800F0F3F825480830006820F0784081
:1019400044EAC501084321490831086006B070BD6A
:1019500001201D49C864704700201B49C8647047B6
:101960001F480068704700B5FFF7FAFF17490831B4
:101970000968C1F382211E4A515CC84000BD00B510
:10198000FFF7EEFF114908310968C1F34231184AE7
:10199000515CC84000BD0F2101600C49096801F489
:1019A0008021B1F5802F03D14FF4A021416023E0C5
:1019B0000649096801F48031B1F5803F1AD14FF42E
:1019C0008031416018E000000000474200380240CA
:1019D0000024F40000127A00003C0240282700088E
:1019E0001000002008000020000002400008024013
:1019F00038270008002141604649096801F00101CB
:101A000011B10121C16001E00021C16041490968B3
:101A1000C1F3C40101613F497031096801F004015B
:101A2000042902D1052181600AE03A497031096830
:101A300001F0010111B10121816001E0002181600B
:101A400034497431096801F0010111B1012141618A
:101A500001E0002141612F49096801F08071B1F175
:101A6000807F02D10221816101E001218161294948
:101A7000091D096801F48002C2612649091D09682F
:101A800001F03F0202622349091D0968C1F388126F
:101A900042622049091D096801F4403101F5803195
:101AA000CA0B82621B49091D0968C1F30362C26245
:101AB00070470F220260174A0832126802F00302D0
:101AC0004260144A0832126802F0F0028260114A41
:101AD0000832126802F4E052C2600E4A08321268FC
:101AE00002F46042D20802610B4A126802F0070257
:101AF0000A607047704710B506480C30006800F067
:101B00008000802805D1FFF7F5FF802001490E31C4
:101B1000087010BD00380240003C0240F8B5024693
:101B20000B460025002400200021D6E0012606FAFD
:101B300001F51E6806EA0504AC4274D11E7906F070
:101B40000306012E04D01E7906F00306022E13D1DF
:101B500090684F000326BE40B0434F00DE68BE4091
:101B600030439060506801268E40B0431E79C6F322
:101B700000168E40304350601E7906F00306032E97
:101B800009D0D0684F000326BE40B0434F009E6886
:101B9000BE403043D0601E7906F00306022E13D1FA
:101BA000CF0802F1200656F827004E07F70E0F2641
:101BB000BE40B0434F07FF0E1E69BE403043CF0802
:101BC00002F1200646F8270010684F000326BE40A9
:101BD000B0431E7906F003064F00BE40304310604C
:101BE0005E6806F44036002E76D000BF00260096D0
:101BF000AC4E366846F48046AA4F3E603E46366894
:101C000006F48046009600BF00BFA74E8F0856F826
:101C100027008E07370F0F26BE40B043A34EB242B7
:101C200002D1002624E057E0A14EB24201D10126A4
:101C30001EE0A04EB24201D1022619E09E4EB242F1
:101C400001D1032614E09D4EB24201D104260FE0DB
:101C50009B4EB24201D105260AE09A4EB24201D112
:101C6000062605E0984EB24201D1072600E008267C
:101C70008F073F0FBE4030438B4E8F0846F827003A
:101C8000924E3068A0435E6806F4801606B1204389
:101C90008E4E3060361D3068A0435E6806F4001634
:101CA00006B12043894E361D3060884E361F30689D
:101CB000A0435E6806F4003606B12043834E361F0B
:101CC0003060361F3068A0435E6806F4803606B187
:101CD00020437E4E083E3060491C1029FFF426AF99
:101CE000F8BDF0B50C46002500220023002196E047
:101CF000012606FA01F504EA0502AA427ED16A4EDF
:101D00008F0856F827308E07370F0F26BE40334016
:101D1000664EB04201D1002623E0654EB04201D1AB
:101D200001261EE0634EB04201D1022619E0624E48
:101D3000B04201D1032614E0604EB04201D1042626
:101D40000FE05F4EB04201D105260AE05D4EB04281
:101D500001D1062605E05C4EB04201D1072600E025
:101D600008268F073F0FBE409E4226D1574E083EA1
:101D700036689643554F083F3E603E1D3668964391
:101D80003F1D3E60514E361D366896434F4F3F1DF6
:101D90003E603E1F366896433F1F3E608E07370FFA
:101DA0000F2606FA07F3404E8F0856F827609E4329
:101DB0003D4F4FEA910C47F82C6006684FEA410C02
:101DC000032707FA0CF7BE430660CF0800F1200690
:101DD00056F827604F074FEAD76C0F2707FA0CF722
:101DE000BE434FEAD10C00F1200747F82C60C668CB
:101DF0004FEA410C032707FA0CF700E00EE0BE4360
:101E0000C660466801278F40BE43466086684FEA39
:101E1000410C032707FA0CF7BE438660491C1029C2
:101E2000FFF466AFF0BD024613690B400BB1012011
:101E300000E0002070470AB1816101E00B0483617A
:101E4000704710B5426921EA020302EA010443EA3D
:101E50000443836110BD08B502464FF48030009002
:101E60000098084300900098D061D1610098D0613B
:101E7000D0690090D06900F4803008B1002008BD1E
:101E80000120FCE7704710B5044610480C3000688C
:101E9000204028B10D480C3004602046FFF7F2FFC7
:101EA00010BD0000443802400838014000000240E4
:101EB0000004024000080240000C024000100240F2
:101EC0000014024000180240001C0240083C01407F
:101ED00010B5002804DB0A07130EE64A135406E087
:101EE0000A07140EE44A00F00F031B1FD45410BD60
:101EF00000BF00F00702E04B0C3B19684FF6FF03F0
:101F00001940DE4B0B4343EA0221DB4B0C3B1960CB
:101F100000BF70472DE9F05F80460D46164600274A
:101F200000F0A2F9074639462A46334601F0070079
:101F3000C0F1070ABAF1040F02D94FF0040A01E018
:101F4000C0F1070AD14600F1040ABAF1070F02D224
:101F50004FF0000A01E0A0F1030AD4464FF0010A55
:101F60000AFA09FAAAF1010A0AEA020A0AFA0CFABA
:101F70004FF0010B0BFA0CFBABF1010B0BEA030B5F
:101F80004AEA0B0421464046FFF7A2FFBDE8F09F56
:101F90000146084600280DDB00BF00BF00F01F030C
:101FA00001229A4043099B0003F1E023C3F800217A
:101FB00000BF00BF00BF704710B5014608460028AB
:101FC0000BDB00F01F0301229A40AD4B440943F89C
:101FD0002420BFF34F8FBFF36F8F00BF10BD00BF32
:101FE000BFF34F8FA4480C38006800F4E060A349A9
:101FF0000843001DA0490C390860BFF34F8F00BF94
:1020000000BF00BFFDE770B504462546681EB0F16D
:10201000807F01D301200FE0681E4FF0E02148616E
:102020000F214FF0FF30FFF753FF00204FF0E0216A
:10203000886107200861002070BDBFF35F8F8E4864
:102040000C30006820F480308B490C31086000208F
:1020500089497C310860704740F00101864A7C3232
:10206000116085490C31096841F48031824A0C3293
:102070001160BFF34F8FBFF36F8F70477E49803180
:1020800008607D498831096841F001017A4A883247
:102090001160704778498031086077498831096854
:1020A00021F00101744A8832116070474178724A08
:1020B0008032116070498831096821F001016E4A4F
:1020C00088321160121F41681160017B0907C27AD2
:1020D00041EA0261827A41EAC241427B41EA82419D
:1020E000827B41EA4241C27B41EA0241427A41EAB3
:1020F0000221027A41EA4201027811435E4A8832A3
:102100001160704740BF20BF704710B500F0ACF8B9
:1021100010BD2DE9F04304462046002803DB554F4F
:102120003F5C3F0907E0544F00F00F0CACF1040C8A
:1021300017F80C703F093D460E4606F00700C0F147
:102140000708B8F1040F02D94FF0040801E0C0F10C
:102150000708C44600F10408B8F1070F02D24FF097
:10216000000801E0A0F10308474625FA07F84FF000
:10217000010909FA0CF9A9F1010908EA0908C2F8EC
:1021800000804FF0010808FA07F8A8F1010808EAF2
:102190000508C3F8008000BFBDE8F08310B5014614
:1021A0000846002808DB00F01F0301229A40344B48
:1021B0008033440943F8242000BF10BD10B5014608
:1021C000084600280EDB2E4A8032430952F82320AD
:1021D00000F01F040123A3401A400AB1012202E0CB
:1021E000002200E00022104610BD10B5014608464E
:1021F000002807DB00F01F0301229A40214B44090D
:1022000043F8242000BF10BD10B501460846002841
:102210000EDB1C4A8032430952F8232000F01F04D1
:102220000123A3401A400AB1012202E0002200E08B
:102230000022104610BD042808D14FF0E0210969A2
:1022400041F004014FF0E022116107E04FF0E0217E
:10225000096921F004014FF0E022116170477047D5
:1022600010B5FFF7FCFF10BD03480C380068C0F341
:102270000220704700E400E018ED00E00000FA05DD
:1022800080E100E080E200E0704770B504467548E8
:1022900000784FF47A71B1FBF0F073490968B1FB33
:1022A000F0F52846FFF7AFFE08B1012070BD102CF5
:1022B00007D200222146501EFFF72CFE6B48046017
:1022C00001E00120F2E70020F0E710B5684800685F
:1022D00040F40070664908600846006840F4806079
:1022E00008600846006840F4807008600320FFF72B
:1022F000FFFD0F20FFF7C9FFFEF7C0F8002010BD5B
:10230000704710B55B485C490860002008605B4876
:10231000091D0860002008605948574910390860B5
:1023200000200860C120091D08600020086001200D
:10233000091D086000200860FFF7E2FF002010BDC3
:10234000504800684749097808444E49086070477A
:102350004C480068704745480068704770B50446AF
:10236000002540480078A0420AD03E480678047014
:102370003E480068FFF789FF05460DB139480670F1
:10238000284670BD37480078704770B50446FFF79F
:10239000DFFF06462546681C10B132480078054428
:1023A00000BFFFF7D5FF801BA842FAD370BD4FF0E6
:1023B000E020006920F002004FF0E0210861704742
:1023C0004FF0E020006940F002004FF0E02108618A
:1023D00070472D4870472D480068000C70472B4807
:1023E0000068C0F30B0070472848406840F00100C7
:1023F0002649486070472548406820F0010023497D
:10240000486070472148406840F002001F4948601A
:1024100070471E48406820F002001C494860704721
:102420001A48406840F0040018494860704717484F
:10243000406820F0040015494860704701201449A5
:102440000860704700201249086070471148006812
:1024500070471048001D006870470E48083000683B
:10246000704700000C000020100000200800002031
:10247000003C0240FFC9FEF6203802403379770461
:10248000FF1160200400002000030801002004E088
:1024900000042742107AFF1F2D48006840F47000A6
:1024A0002B490860704770B50020002202230024E9
:1024B0000221284D2D6805F00C0020B1042806D01B
:1024C000082834D107E0244D244E356033E0244DF4
:1024D000224E35602FE01F4D2D1F2D68C5F380540F
:1024E0001C4D2D1F2D6805F03F0154B11C4DB5FB4F
:1024F000F1F5184E361F3668C6F3881605FB06F24E
:1025000009E0154DB5FBF1F5124E361F3668C6F3DE
:10251000881605FB06F20F4D2D1F2D68C5F30145EA
:102520006D1C6B00B2FBF3F50C4E356003E00A4DF9
:102530000A4E356000BF00BF064D2D68C5F3031578
:10254000084E705D054D2D68C540044E356070BD68
:1025500088ED00E0083802400024F400100000205C
:1025600000127A002827000853EA020C00F0698064
:102570002DE9F04B4FF00006002B1FBFB3FA83F597
:1025800003FA05F424FA05F65E4012BF1643B2FAC8
:1025900082F502FA05F4C5F120051EBF22FA05FCFA
:1025A00044EA0C04203556EA044C4FEA144418BFA0
:1025B000641C4FF000084FF00009904271EB030CCF
:1025C00039D3002919BFB1FA81F701FA07F6B0FA39
:1025D00080F700FA07F6C7F120071EBF20FA07FCB4
:1025E00046EA0C062037B6FBF4FCA7EB0507103FC4
:1025F00007F01F0BCBF120060CFA0BFB2CFA06F6AA
:1026000044BFB3460026202FA4BF5E464FF0000B08
:102610005BEA060C08BF4FF0010B19EB0B09ABFB93
:10262000027C48EB0608C01B06FB02CC0BFB03CC6C
:1026300071EB0C01C1E70B46024641464846BDE836
:10264000F08B13B54FF000004FF00001AFF30080A6
:10265000BDE81C4070474FF0000200B51346944699
:102660009646203922BFA0E80C50A0E80C50B1F1EA
:102670002001BFF4F7AF090728BFA0E80C5048BFFE
:102680000CC05DF804EB890028BF40F8042B08BF9C
:10269000704748BF20F8022B11F0804F18BF00F898
:1026A000012B7047704770477047754600F02CF853
:1026B000AE4605006946534620F00700854618B02F
:1026C00020B5FDF7BFFDBDE820404FF000064FF0FC
:1026D00000074FF000084FF0000B21F00701AC4657
:1026E000ACE8C009ACE8C009ACE8C009ACE8C00976
:1026F0008D46704710B50446AFF300802046BDE814
:102700001040FDF78ABD00000048704764000020BB
:1027100001491820ABBEFEE72600020070474FF0CB
:102720004070E1EE100A7047000000000000000059
:102730000102030406070809000000000102030467
:10274000602700080000002014000000C4010008F9
:102750007427000814000020B4060000E0010008FF
:102760000000000000000000100000000100000058
:042770000024F4004D
:040000050800018965
:00000001FF
