:020000040800F2
:10000000F854012069020008710200087302000818
:10001000750200087702000879020008000000005D
:100020000000000000000000000000007B0200084B
:100030007D020008000000007F0200088102000825
:10004000830200088302000883020008830200087C
:10005000830200088302000883020008830200086C
:10006000830200088302000883020008830200085C
:10007000830200088302000883020008830200084C
:10008000830200088302000883020008E5080008D4
:100090006908000883020008830200088302000840
:1000A000830200088302000883020008830200081C
:1000B000D1480008014900081D49000883020008D2
:1000C00083020008830200088302000883020008FC
:1000D00083020008830200088302000883020008EC
:1000E00083020008830200088302000883020008DC
:1000F00083020008830200088302000883020008CC
:1001000083020008830200088302000883020008BB
:100110008302000883020008830200085149000896
:10012000830200088302000883020008830200089B
:10013000830200088302000883020008390B0008CC
:10014000BD0A000883020008830200088302000839
:10015000830200088302000883020008830200086B
:10016000830200088302000883020008830200085B
:10017000830200088302000883020008830200084B
:10018000830200088302000800F002F800F05CF827
:100190000AA090E8000C82448344AAF10107DA45E2
:1001A00001D100F051F8AFF2090EBAE80F0013F0D8
:1001B000010F18BFFB1A43F0010318473CDF000092
:1001C0005CDF00000A444FF0000C10F8013B13F014
:1001D000070408BF10F8014B1D1108BF10F8015BA0
:1001E000641E05D010F8016B641E01F8016BF9D193
:1001F00013F0080F1EBF10F8014BAD1C0C1B09D1EA
:100200006D1E58BF01F801CBFAD505E014F8016B5B
:1002100001F8016B6D1EF9D59142D6D370470000ED
:100220000023002400250026103A28BF78C1FBD8FF
:10023000520728BF30C148BF0B6070471FB50BF095
:10024000EFFB1FBD10B510BD00F0EEF91146FFF732
:10025000F5FF06F0DDFE00F00CFA03B4FFF7F2FF45
:1002600003BC05F09DFF000009488047094800478E
:10027000FEE7FEE7FEE7FEE7FEE7FEE7FEE7FEE756
:10028000FEE7FEE704480549034A054B70470000B6
:100290006948000889010008F8D40020F8540120BA
:1002A000F8D40020704710B54C1084EA530404D5EC
:1002B0004042C1F1000138BF491E1B4204D55242E1
:1002C000C3F1000338BF5B1E00F024F914F0804F27
:1002D00004D04042C1F1000138BF491E14F0004F64
:1002E00004D05242C3F1000338BF5B1E10BD40EA88
:1002F000010310B59B070FD1042A0DD310C808C9FC
:10030000121F9C42F8D020BA19BA884201D90120A4
:1003100010BD4FF0FF3010BD1AB1D30703D0521CEF
:1003200007E0002010BD10F8013B11F8014B1B1B2A
:1003300007D110F8013B11F8014B1B1B01D1921E94
:10034000F1D1184610BD032A40F2308010F0030CA2
:1003500000F0158011F8013BBCF1020F624498BF18
:1003600011F801CB00F8013B38BF11F8013BA2F1B5
:10037000040298BF00F801CB38BF00F8013B11F030
:10038000030300F02980083AC0F0088051F8043BCC
:10039000083A51F804CBA0E80810F5E7121D5CBF3D
:1003A00051F8043B40F8043BAFF30080D20724BF70
:1003B00011F8013B11F801CB48BF11F8012B24BF04
:1003C00000F8013B00F801CB48BF00F8012B704753
:1003D00001B5FFF7B8FF01BD10B5203AC0F00B80A2
:1003E000B1E81850203AA0E81850B1E81850A0E839
:1003F0001850BFF4F5AF5FEA027C24BFB1E8185093
:10040000A0E8185044BF18C918C0BDE810405FEA02
:10041000827C24BF51F8043B40F8043B08BF70477E
:10042000D20728BF31F8023B48BF11F8012B28BF83
:1004300020F8023B48BF00F8012B70474FF0000244
:1004400000B5134694469646203922BFA0E80C50CA
:10045000A0E80C50B1F12001BFF4F7AF090728BFA5
:10046000A0E80C5048BF0CC05DF804EB890028BF21
:1004700040F8042B08BF704748BF20F8022B11F04A
:10048000804F18BF00F8012B704700004FF0013C6F
:1004900050F8042B51F8043B9A4221D1A2EB0C03F3
:1004A000934313EACC1317D150F8042B51F8043BB3
:1004B0009A4215D1A2EB0C03934313EACC130BD150
:1004C00050F8042B51F8043B9A4209D1A2EB0C03DB
:1004D000934313EACC13DBD04FF00000704700BF0A
:1004E000D01A01BAB1FA81F101F0180122FA01F033
:1004F000CB40C1F12001DBB2C0B2C01A2CFA01F32B
:10050000D11A914311EAC311E6D170477047704781
:100510007047704753EA020C00F069802DE9F04BF8
:100520004FF00006002B1FBFB3FA83F503FA05F462
:1005300024FA05F65E4012BF1643B2FA82F502FABB
:1005400005F4C5F120051EBF22FA05FC44EA0C049F
:10055000203556EA044C4FEA144418BF641C4FF08F
:1005600000084FF00009904271EB030C39D30029C9
:1005700019BFB1FA81F701FA07F6B0FA80F700FA6D
:1005800007F6C7F120071EBF20FA07FC46EA0C0653
:100590002037B6FBF4FCA7EB0507103F07F01F0B55
:1005A000CBF120060CFA0BFB2CFA06F644BFB3463F
:1005B0000026202FA4BF5E464FF0000B5BEA060C1E
:1005C00008BF4FF0010B19EB0B09ABFB027C48EBAA
:1005D0000608C01B06FB02CC0BFB03CC71EB0C0125
:1005E000C1E70B46024641464846BDE8F08B13B5CD
:1005F0004FF000004FF00001AFF30080BDE81C4059
:10060000704710B500F008F8006810BD10B504463A
:1006100000F002F8046010BD0048704798D4002034
:100620000048704798D400207546FFF7F9FFAE46A2
:1006300005006946534620F00700854618B020B5EE
:10064000FFF720FEBDE820404FF000064FF0000706
:100650004FF000084FF0000B21F00701AC46ACE86A
:10066000C009ACE8C009ACE8C009ACE8C0098D46D7
:10067000704710B50446AFF300802046BDE8104037
:10068000FFF7EBBD70472DE9FE4F81468A46934642
:100690001C4600BF00BFAAEB0900C6170546002391
:1006A0002946A1FB047C06FB04C205FB032164224E
:1006B0003846FFF7F8FD05460E46012000FA0BF01C
:1006C000C1172A46A0FB027E01FB05E100FB0611D3
:1006D0004FF4B47200233846FFF7E5FD0090009810
:1006E00002900298BDE8FE8F10B58AB004465B48C0
:1006F00000F0A4FA0121084603F06EFB0121480630
:1007000003F07AFB09220B21554801F0C3FA0922B4
:100710000C21534801F0BEFA08A801F0EBFA4FF49F
:10072000C050089002208DF8240003208DF8250089
:1007300000208DF8260001208DF8270008A94848E0
:1007400001F040FA05A800F0B4FC00208DF81A0072
:1007500001208DF81B0000208DF81C008DF81D0075
:100760008DF81E0001208DF81F0000208DF8160066
:10077000A4F574309038F8B1A0F57430903870B1A9
:100780003849084428BB00208DF8170008208DF850
:10079000180003208DF81900ADF814001AE00020AD
:1007A0008DF8170008208DF8180003208DF8190027
:1007B0000620ADF814000DE000208DF81700082089
:1007C0008DF8180003208DF819000C20ADF81400E6
:1007D00000E000BF00BF05A9204800F068FB002032
:1007E0008DF80E008DF80F0001208DF8100000200C
:1007F000ADF80400ADF80600ADF80800ADF80A0049
:10080000ADF80C0001208DF8110001A800F032FABB
:1008100001220221114800F041FB14208DF8000054
:1008200002208DF8010001208DF802008DF80300F0
:10083000684602F06FFD13208DF8000003208DF84C
:10084000010002208DF8020001208DF803006846A7
:1008500002F060FD00200AB010BD000000640040FE
:1008600000000240E05EF8FF10B588B000220221CF
:100870001A4800F013FB03AA0021184800F0A1FB5E
:10088000039880B2ADF800009DF81500022803D14E
:1008900001208DF8020005E09DF8150010B9002038
:1008A0008DF802009DF816008DF80300002405E085
:1008B0000DF11700015D01A80155641C9DF816009B
:1008C000A042F5DC6946064805F022FD012202211E
:1008D000024800F0E3FA08B010BD000000640040D8
:1008E0001832002010B586B001AC0121114800F08B
:1008F00045FA01281CD1104806F002FB78B92146C0
:100900000D4806F0C0FC21460A4800F0E2FB04282E
:100910000AD10A480068401C0849086004E0002227
:100920000121044800F0BAFA0121024800F032F92E
:1009300006B010BD0064004078CA0020E07F0020AF
:1009400010B58AB004465A4800F078F90121022017
:1009500003F042FA0121880603F04EFA092205212C
:10096000544801F097F909220621524801F092F902
:1009700008A801F0BFF96020089002208DF824003B
:1009800003208DF8250000208DF8260001208DF829
:10099000270008A9474801F015F905A800F089FBD0
:1009A00000208DF81A008DF81B008DF81C008DF8C2
:1009B0001D008DF81E0001208DF81F0000208DF80D
:1009C0001600A4F574309038F8B1A0F57430903862
:1009D00070B13949084428BB00208DF81700082061
:1009E0008DF8180003208DF81900ADF814001AE0F6
:1009F00000208DF8170008208DF8180003208DF8CE
:100A000019000620ADF814000DE000208DF8170045
:100A100008208DF8180003208DF819000C20ADF87F
:100A2000140000E000BF00BF05A9214800F03FFA14
:100A30000E208DF80E0000208DF80F0001208DF89B
:100A400010000020ADF80400ADF80600ADF8080075
:100A5000ADF80A00ADF80C0001208DF8110001A8D6
:100A600000F008F901220221114800F017FA402095
:100A70008DF8000002208DF8010001208DF80200A1
:100A80008DF80300684602F045FC3F208DF8000019
:100A900003208DF8010002208DF8020001208DF85E
:100AA0000300684602F036FC00200AB010BD0000CA
:100AB0000068004000040240E05EF8FF10B588B016
:100AC000002202211A4800F0E9F903AA002118487F
:100AD00000F077FA039880B2ADF800009DF8150099
:100AE000022803D101208DF8020005E09DF81500D1
:100AF00010B900208DF802009DF816008DF8030053
:100B0000002405E00DF11700015D01A80155641CEA
:100B10009DF81600A042F5DC6946064805F0F8FB92
:100B200001220221024800F0B9F908B010BD00000E
:100B3000006800404864002010B586B001AC012177
:100B4000114800F01BF901281CD1104806F0D8F913
:100B500078B921460D4806F096FB21460A4800F078
:100B6000B8FA04280AD10A480068401C08490860FD
:100B700004E000220121044800F090F9012102481C
:100B800000F008F806B010BD006800407CCF0020DF
:100B9000E47F0020B1F5007F3AD00FDC202928D077
:100BA00006DC01291CD004291DD0082940D11DE0F4
:100BB000402921D0B1F5807F3AD126E0B1F5004F30
:100BC00031D006DCB1F5806F25D0B1F5006F2FD1A3
:100BD00024E0B1F5803F12D0B1F5003F28D111E0FB
:100BE000154A826025E00822C26022E01022C2601D
:100BF0001FE0082202611CE01022026119E00822B5
:100C0000426016E01022426013E00422426010E0CD
:100C1000042242600DE0042242600AE00022826168
:100C20000422426005E0002282610422426000E06A
:100C300000BF00BF704700000101010010B504466D
:100C40000B48844209D10121480603F0E5F8002150
:100C50004FF0007003F0E0F808E00121880603F08F
:100C6000DBF800214FF0806003F0D6F810BD0000E3
:100C70000064004010B50021837A012202FA03F1DA
:100C80003D4A126842F001023B4B1A603A4A1C325C
:100C900012688A43384B1C331A60027BCAB9364A41
:100CA0000C3212688A43344B0C331A604288C38872
:100CB00042EA0343304A4032847A42F834300288B0
:100CC000838842EA03432C4A4032847A02EBC4020E
:100CD0005360027B012A19D1274A0C3212680A4359
:100CE000254B0C331A604288038842EA0343224AA8
:100CF0004032847A42F83430C288838842EA03431F
:100D00001D4A4032847A02EBC4025360C27A3AB977
:100D1000194A121D12688A43174B1B1D1A6006E000
:100D2000154A121D12680A43134B1B1D1A600289D3
:100D300032B9114A143212688A430F4B14331A60C5
:100D40000289012A06D10C4A143212680A430A4B5E
:100D500014331A60427B012A06D1074A1C321268FA
:100D60000A43054B1C331A60034A126822F0010241
:100D7000014B1A6010BD00000066004070B50446CB
:100D80000D46002660692840002871D0B5F5807FA7
:100D90005CD010DC082D35D006DC012D20D0022DD2
:100DA00024D0042D72D127E0102D31D0202D35D044
:100DB000402D6BD138E0B5F5004F60D009DCB5F5BA
:100DC000007F49D0B5F5806F4CD0B5F5006F5DD18F
:100DD0004FE0B5F5803F2DD0B5F5003F56D12FE05F
:100DE000A0682D4900F000FD064651E0E0680321AF
:100DF00000F0FAFC06464BE0E068082100F0F4FC45
:100E0000064645E0E068102100F0EEFC06463FE0B3
:100E10002069032100F0E8FC064639E0206908213A
:100E200000F0E2FC064633E02069102100F0DCFC13
:100E300006462DE06068082100F0D6FC064627E053
:100E40006068102100F0D0FC064621E0A069012175
:100E500000F0CAFC06461BE0A069022100F0C4FCB9
:100E6000064615E0A069042100F0BEFC06460FE02E
:100E70000FE0A069702100F0B7FC064608E060684A
:100E8000042100F0B1FC064602E0FFE7002600BFA7
:100E900000E00026304670BD010101001AB143692F
:100EA0000B43436102E043698B434361704730B5B4
:100EB000024600200023146824F002041460146821
:100EC00044F00104146000E05B1C546804F0010469
:100ED0001CB94FF6FF74A342F6D1546804F0010424
:100EE0000CB900206CE08C79012C04D1146844F01A
:100EF0008004146003E0146824F080041460CC794A
:100F0000012C04D1146844F04004146003E0146818
:100F100024F0400414600C7A012C04D1146844F0CD
:100F20002004146003E0146824F0200414604C7A58
:100F3000012C04D1146844F01004146003E0146818
:100F400024F0100414608C7A012C04D1146844F04D
:100F50000804146003E0146824F008041460CC7AD8
:100F6000012C04D1146844F00404146003E01468F4
:100F700024F0040414608C78A407CD7844EA056456
:100F80000D7944EA05444D7944EA05540D886D1EF7
:100F90002C43D461146824F001041460002300E0A1
:100FA0005B1C546804F001041CB14FF6FF74A342AB
:100FB000F6D1546804F001040CB1002000E00120D7
:100FC00030BD10B500F5D87303EB01131B6803F0B7
:100FD00004031372137A53B900F5D87303EB0113AA
:100FE0001B6840F2FF7404EA5353136009E000F5F4
:100FF000D87303EB01131B686FF0604404EAD3035A
:10100000536000F5D87303EB01131B6803F0020370
:10101000537200F5D87303EB01135B6803F00F0301
:10102000937200F5D87303EB01135B681B0AD3744A
:1010300000F5D87303EB01139B68D37200F5D873E6
:1010400003EB01139B681C0A147300F5D87303EBC0
:1010500001139B681C0C547300F5D87303EB011348
:101060009B681B0E937300F5D87303EB0113DB68C9
:10107000D37300F5D87303EB0113DB681C0A1474F7
:1010800000F5D87303EB0113DB681C0C547400F5F6
:10109000D87303EB0113DB681B0E937421B9C3688B
:1010A00043F02003C36003E0036943F020030361BE
:1010B00010BD00218171C171017241728172C172D2
:1010C0008170C170032101710221417101210180F0
:1010D000704710B502460020936803F08063B3F1B7
:1010E000806F00D110E0936803F00063B3F1006FEC
:1010F00001D1012008E0936803F08053B3F1805FD1
:1011000001D1022000E00420042874D002F5C0734D
:1011100003EB00131B6803F0010402F5C07303EB3B
:1011200000131C600B7A7BB94B7A0C8843EA44535A
:1011300002F5C07404EB00142468234302F5C07464
:1011400004EB0014236010E00B7A4C6843EAC403FC
:101150004C7A234302F5C07404EB00142468234343
:1011600002F5C07404EB001423608B7A03F00F03C4
:101170008B7202F5C07303EB00135B6823F00F045E
:1011800002F5C07303EB00135C6002F5C07303EB60
:1011900000135B688C7A234302F5C07404EB0014DF
:1011A00063608B7B1C064B7B44EA03440B7B44EA65
:1011B0000323CC7A234302F5C07404EB0014A3602C
:1011C0008B7C1C064B7C44EA03440B7C44EA0323DF
:1011D000CC7B234302F5C07404EB0014E36002F5FA
:1011E000C07303EB00131B6843F0010402F5C073E6
:1011F00003EB00131C6010BD10B5144A14491548C8
:1012000002F03AFE144A1549124802F035FE144A1B
:101210001449104802F030FE134A14490D4802F0F8
:101220002BFE134A13490B4802F026FE124A1349BB
:10123000084802F021FE124A1249064802F01CFE3C
:10124000114A1249034802F017FE10BDA1AB000875
:1012500000003F6048640020D1AB000800004160FE
:10126000B9AB00080000606089AB00080000646052
:10127000D7AB000800007A60CBAB000800008160AB
:10128000BFAB000800008360C5AB000800008460AD
:1012900010B5032418480068048018481649C1F89E
:1012A000CC0800200CE04FF0FF3200EB4001C1EB16
:1012B00040131149243101EB8301A1F86E20401C39
:1012C0001028F0DB0C49B1F824090D4905F0EAFCBF
:1012D00003F0DAFB0020084989690880064A526950
:1012E0001188054A506802F073F8FFF785FF002166
:1012F000014809F061FD10BD48640020006800400D
:1013000020A107003EB5044601200321064A074BF1
:10131000CDE900210290002242F60171204604F03E
:10132000B5FE00203EBD000008800020C04D00201A
:1013300010B58CB004462046FFF7E4FF7D480B90C3
:1013400042F210700A90012003217B4A0BABCDE9D9
:1013500000210290002241F20501204604F096FE91
:1013600001200321744A0AABCDE90021029000223A
:1013700041F20601204604F089FE2068008800F54D
:10138000C0600B902068008800F5B0600A900120D2
:1013900009900321684A0BABCDE900210290024677
:1013A0004FF49051204604F071FE01200321624A5F
:1013B0000AABCDE90021029002224FF49051204661
:1013C00004F064FE012003215C4A09ABCDE9002151
:1013D00002900A464FF49051204604F057FE40F226
:1013E00001600B9040F281500A9001200990032186
:1013F000514A0BABCDE90021029002464FF49451C3
:10140000204604F043FE012003214B4A0AABCDE9FC
:101410000021029002224FF49451204604F036FE3F
:1014200001200321454A09ABCDE9002102900A467B
:101430004FF49451204604F029FE4FF4D0700B90E5
:10144000FE200A903E4809903E4808900120032162
:10145000394A0BABCDE90021029002464FF4A0516E
:10146000204604F013FE01200321344A0AABCDE9E3
:101470000021029002224FF4A051204604F006FE03
:10148000012003212C4A09ABCDE90021029002463C
:101490004FF4B051204604F0F9FD01200321264A03
:1014A00008ABCDE90021029002224FF4B051204652
:1014B00004F0ECFD4FF428700790FE2006902248BF
:1014C000059022480490012003211B4A07ABCDE977
:1014D00000210290024641F20141204604F0D6FD6F
:1014E00001200321154A06ABCDE90021029002221A
:1014F00041F20141204604F0C9FD012003210E4ABA
:1015000005ABCDE900210290024641F2016120467F
:1015100004F0BCFD01200321074A04ABCDE9002102
:101520000290022241F20161204604F0AFFD0CB0AE
:1015300010BD0000800000400880002000800020D6
:101540002000646020006C6010003F60100041606B
:1015500002469F2A04D1087808B10348704700BFAB
:1015600000BF0020FAE700003000090610B5114A5C
:101570001149124802F080FC114A12490F4802F04A
:101580007BFC114A11490D4802F076FC104A4FF0DD
:10159000C0510A4802F070FC002406E00D482118F2
:1015A0000D4A064802F068FC641CB4F5807FF5DD46
:1015B00010BD000035350008000001601832002021
:1015C000A133000800000360B93300080000056083
:1015D000494C00080000C160E96E000810B505F034
:1015E0000BFA044619480460194800680480194839
:1015F0001749C1F8CC0800200CE04FF0FF3200EB97
:101600004001C1EB40131249243101EB8301A1F8E1
:101610006E20401C1028F0DB0D49B1F824090E495A
:1016200005F040FB03F067FA012009498969088049
:10163000074A52691188064A506801F0C9FEFFF74F
:1016400095FF0021024809F0B7FB10BD0000002003
:10165000183200200064004020A107003EB5044677
:10166000012003213E4A3F4BCDE900210290002298
:1016700042F61971204604F009FD0120384ACDE9EF
:101680000020394B002242F630710290204604F0CF
:10169000FDFC0120324ACDE90020344B002242F605
:1016A00031710290204604F0F1FC01202C4ACDE972
:1016B00000202F4B002242F632710290204604F0A7
:1016C000E5FC01200321264A2A4BCDE900210290A6
:1016D000002242F63371204604F0D8FC0120204A53
:1016E000CDE90020244B002242F6347102902046BE
:1016F00004F0CCFC0120214ACDE90020204B00223F
:1017000042F624710290204604F0C0FC012003211F
:10171000134A1C4BCDE900210290002242F62571AC
:10172000204604F0B3FC01200321144A164BCDE9F6
:1017300000210290002243F20101204604F0A6FCA1
:10174000012003210D4A104B1B1DCDE90021029001
:10175000024643F20101204604F098FC00203EBD01
:10176000048000209C290020BC290020DC290020C6
:10177000FC2900201C2A00203C2A00200880002090
:101780005C2A00207C2A002020290020014600201D
:10179000034AD26C521A40F2C92392FBF3F070470D
:1017A000FC81002003460020704710B5FFF716FFAC
:1017B000FFF76EFD10BD000010B504460120094979
:1017C00008720720887046F2810048810020087363
:1017D0000846046102F0BEFD08B1FF2010BD0020E4
:1017E000FCE700007C8100200246002002EA0103A1
:1017F0000BB1012000E000207047000010B5002070
:10180000184948720021174880F87D1080F8961317
:10181000012180F87C10002180F898134FF4437167
:101820008030FEF70BFE4FF440610F48FEF706FED6
:1018300000210C48C0F89013A0F89413A0F89E1350
:10184000A0F89C1380894FF4FA6191FBF0F10548F0
:101850008167B0F8740020F0100010300149A1F841
:10186000740010BDFC810020A485002010B50C4838
:10187000C08998B101200B4908720620887046F291
:10188000400048810020087380200861084602F06B
:1018900061FD08B1FF2010BD0020FCE700BFFAE7A2
:1018A000908100207C81002070B504460D46D4F85C
:1018B000880750F82500C0F307464FF0FF30D4F8F2
:1018C0008C1721F81500012104F29C7081553146D6
:1018D0002046D4F89827904770BD2DE9FF4FDDE9E9
:1018E0000D456CE0A5EB020A4FFA8AF3002B04DDEC
:1018F00091F800A00AFA03FA05E091F800A0C3F1FC
:10190000000B4AFA0BFA0AF0FF0C002B02DDC5F1BE
:10191000080A01E0C2F1080A0AF0FF08804501DD6B
:10192000824600E0C246564605EB060B4FF0FF0A22
:101930000AFA0BFAC5F1080E4FF0FF0B4BFA0EFB3B
:101940004AEA0B0A0AF0FF072CEA070994F800A0FC
:101950000AEA070A84F800A094F800A04AEA090AF3
:1019600084F800A002EB060A0AF0FF0A5246BAF118
:10197000070F0BDD0022DDF80CA0BAF1000F02D03A
:101980004FF0FF3A01E04FF0010A514405EB060A1F
:101990000AF0FF0A5546BAF1070F0BDD0025DDF806
:1019A0003CA0BAF1000F02D04FF0FF3A01E04FF037
:1019B000010A5444A0EB060A0AF0FF0000BF002809
:1019C00090DCBDE8FF8F70B505460E461446002238
:1019D0000221D4F8CC08FFF761FA681C80B1B4F991
:1019E000EC09A84205D1B4F8EC09401E00B2A4F8F5
:1019F000EC09002105EB450204F62C1000F832102A
:101A00004FF0FF3070BD10B5044600F023F8012000
:101A100002F034FD10BD000010B501200B49087222
:101A200046F2400048810620887040F20F100849B5
:101A300048810846408905490861084602F08AFC49
:101A400008B1FF2010BD0020FCE700007C810020D1
:101A50009081002040F6B830044948644FF4FA60A1
:101A60008864C86440F6B8300865704790810020EB
:101A700010B501200B49087246F24000488106204B
:101A80008870094948810846408906490861084626
:101A900002F060FC08B1FF2010BD0020024908716F
:101AA00000BFF9E77C8100209081002010B5012063
:101AB0000C49087246F240004881062088700F20C9
:101AC000094948810846408906490861084602F0EC
:101AD00041FC08B1FF2010BD01200349087100201E
:101AE000F9E700007C810020908100200BA00F49C5
:101AF0000860002088820EA0104908602820088114
:101B00000A2088820EA0124908600A200B498882A8
:101B100010A0144908600A208882704748616E64EA
:101B20004772697046726F6365000000288000206C
:101B30005772697374466F72636500007880002085
:101B4000466F726561726D466F72636500000000DA
:101B5000C8800020557070657261726D466F726347
:101B600065000000188100201CB50121052002F04D
:101B700033F900208DF8040003208DF805000120C2
:101B80008DF807004002009069460C4800F01AF8F2
:101B90004FF4807000906946094800F013F84FF444
:101BA000007000906946064800F00CF84FF4806021
:101BB00000906946024800F005F81CBD000802408C
:101BC00000000240F0B50A4600210023002400BFB7
:101BD0003DE0012505FA01F3156805EA03049C427E
:101BE00034D105684F000326BE40B5430560157922
:101BF0004E00B5400668354305601579012D02D0C9
:101C00001579022D16D185684F000326BE40B543D5
:101C1000856055794E00B5408668354385604568D6
:101C200001268E40B5434560456896798E40B6B230
:101C300035434560C5684F000326BE40B543C560C7
:101C4000D5794E00B540C6683543C560491C10299A
:101C5000BFD3F0BD1CB50121042002F0BDF84FF444
:101C6000E050009001208DF8040000208DF806005F
:101C700003208DF8050001208DF80700694604480F
:101C8000FFF7A0FF4FF4E051014800F02FF81CBD12
:101C900000080240F0B5002300244D07ED0E02FAC3
:101CA00005F3CE1000F1200555F826504E07F70E2B
:101CB0000F26BE40B543CF1000F1200646F827504E
:101CC000CE1000F1200555F8265045EA0304CE1049
:101CD00000F1200545F82640F0BD024600201369BA
:101CE0000B400BB1012000E000207047418370479A
:101CF000018370474FF6FF7101600021017141714E
:101D00008171C1717047000010B501200849087247
:101D10000420887046F26400488100200873084659
:101D200002F09CFA10B90248006910BD0020FCE7DF
:101D30006881002010B501200D49087206208870C6
:101D40004FF40850488101200873084602F086FAD3
:101D500048B9074800690A2190FBF1F000B2054933
:101D6000C880002010BD00200249C880FF20F9E78C
:101D7000688100209081002010B501200A49087276
:101D80000620887046F2410048810020087308460A
:101D900002F064FA28B90448008A044988810020C6
:101DA00010BDFF20FCE7000068810020908100202A
:101DB00070B504460E46D4F82408008860B30025A8
:101DC00027E004F29C70405D0F2820D02068008836
:101DD000A8421CD004F62C00405D00280BDCD4F88F
:101DE000200820B129462046D4F820289047012118
:101DF00004F29C70415504F62C00405D401EC1B2B7
:101E000004F62C0041552946204605F03FF9681C90
:101E1000C5B2802DD5DB0EE0B4F91C082246AFF226
:101E20006F01FFF7D0FDA4F81C0801220221D4F8AD
:101E3000CC08FFF733F870BD70B5002400251848B2
:101E4000C46CD0F8A85317484460002181609FED0E
:101E5000160A80ED030A05614161B1EE000A80EDCA
:101E6000060A011D00F58050C0F80818A0F57F6033
:101E700000F57F61C1F810080948808900EE100A5A
:101E8000B8EE400A094880ED000A012300221146FD
:101E90009FED070A034801F04DFF012070BD0000CF
:101EA000FC8100200C9E002000000000EC000020BF
:101EB0000AD7233C10B5002003F050F95F4948834E
:101EC000B1F91A00002801DB014600E041425B4AFB
:101ED000128B914212DD5A480088401C58490880F4
:101EE000002058490880564800880A2817DB00203F
:101EF0005349088001205149087410E05148008876
:101F0000401C5049088000204D4908804D480088F9
:101F1000052804DB00204B490880484908744748DD
:101F2000007C00287ED04549B1F91A00002801DB69
:101F3000014600E04142414A128B891A3F4AD38B45
:101F4000128C9A1A5143404A13893C4A128B9A1AAE
:101F500091FBF2F23949098C11448AB237494A841B
:101F6000B1F91A00002801DB014600E04142334A82
:101F7000128B91421CDD3149B1F91A00002801DBB6
:101F8000014600E041422D4A128B891A2B4A536ABE
:101F9000926A9A1A51432C4A1389284A128B9A1A28
:101FA000B1FBF2F22549896A0A442449CA6202E077
:101FB00000212248C1622148B0F91A00002814DD2E
:101FC00000211E480177416C408C01441B4841644C
:101FD000416C006BA0F5006081421ADD1748006B70
:101FE000A0F500601549486413E00121134801770A
:101FF000416C408C091A11484164416C406B00F5FA
:102000008050814205DA0D48406B00F580500B4945
:1020100048640A48426B016B443001F0A5FE074A50
:10202000D16A00E004E0506C3F2201F0A5FB04E01F
:102030000248C16C4164FFF7EFFC10BDFC81002039
:10204000E6000020E80000207880002010B5002481
:10205000FFF74CFD00F036FDFFF78EFE4048C089CB
:1020600020B93F48007BC0F3C00088B1FFF7FEFBFA
:10207000142004F0E9FA3B480088401C39490880E4
:10208000084600880A2801DAFF2010BDFF20FCE77F
:10209000FFF70CFD0A2004F0D7FAFFF7BDFC002083
:1020A0003149C87288720A208881FFF72DFE2E49B7
:1020B000C8642E492C4881660146886EFFF766FB8E
:1020C0002949C8660120C8710A2004F0BDFA41F20E
:1020D00070712548C16549420166002141664FF48F
:1020E0002F6141624FF4487181624FF49661C16281
:1020F0004FF4C861C1834FF416710184022101833A
:102100001B48808A801C81B21748C1820020164972
:102110000874012012498870002008701248006B72
:1021200008611148406B48610F48C06A48630E4817
:10213000406A88630C48C06C486202E00848FFF7B8
:1021400062FC074800780028F8D00748808820F013
:102150000100401C04498880FFF7A8FC204694E752
:1021600090810020E0000020FC810020364B1F0001
:102170001881002010B53449886EFFF707FB3249FB
:10218000C8660846C06E3149886008460069304913
:1021900088612E4880682F4988612F48007BC0F3F2
:1021A000400008B9FFF782FC2748807AC22835D062
:1021B0000BDCA12823D003DC80B155283DD133E0CE
:1021C000AA2834D0B22838D11CE0CC2823D0CE287D
:1021D00030D0E52819D0F6282FD119E01E48807894
:1021E000012809D001201C49887000201649487236
:1021F0001949887802F042F900F0ECF921E000F08A
:102200002DF81EE0FFF756FE1BE000F065FA18E01F
:1022100000F0A4F815E000F08DF812E00A4A516BC6
:10222000106B00F063FB0CE0FFF722FC09E0FFF706
:102230003DFC06E0FFF71AFB03E00020024988722C
:1022400000BF00BF10BD0000FC81002004C90020B9
:10225000E8B60020B0B600209081002010B5002420
:102260003248C16BC06E6430814205DC2F48C16BBF
:10227000C06E6438814238DA2C48C16BC06D81422F
:1022800004DC2A48C16B006E814205DA2748C16E22
:10229000C163FFF7C1FB10BD2448016CC06B8142D4
:1022A00023D02248C16B01640246928F11B20246CC
:1022B000B2F86C2010B2C1231122FEF7E4F91B49D9
:1022C00091F9071000FB01F41848C06C0119174878
:1022D00041640246D16A506C3F2201F04DFA144825
:1022E000808920F48060124988811048C16A806A20
:1022F000814203D20D48816AC16207E00B48C16A7E
:10230000406A814202D90948416AC162084880890D
:10231000C0F3802030B9054AD16A506C3F2201F0E9
:102320002BFA01E0FFF778FB00BFB4E7FC81002047
:102330009081002010B50748007B00F00F0008B91D
:10234000FFF7B4FB044AD16A906C3F2201F014FA03
:1023500010BD000090810020FC81002010B596483F
:10236000B0F8720000287CD0B2281BD0B52879D0F4
:10237000CE2878D14FF443718F488030FEF75EF855
:102380004FF440618D48FEF759F800218A48A0F8C3
:102390009E13A0F89C1380F8971380F89613A0F86A
:1023A000721007E1844890F89803002870D18248A1
:1023B00090F89703002876D17F48B0F89C03022854
:1023C00068DB7D48B0F88C03012863D1002434E039
:1023D00004EB4403784A803232F8232011B2764A63
:1023E000B2F8642010B2C1231122FEF74CF97249F1
:1023F000096D014404EB4402704840F8221004EBDC
:102400004401A0F54A7000EB810004EB44024168EE
:102410006A4800EB8200416004EB4401664880306A
:1024200000EB810090ED020A04EB4401634800EBED
:10243000810080ED020A601C84B25F48B0F89C0302
:10244000A042C5DC00215C48A0F88C13012180F873
:102450009713B0F8740020F004015748A0F87410E6
:1024600002E0A6E062E0A3E0B0F8740020F0100102
:102470005148A0F87410B0F89C03401E83B20022AB
:1024800011469FED4F0A4D48001F01F053FC0AE032
:1024900047E0FFE74848B0F8740020F00400001D52
:1024A0004549A1F87400444890F8970301281FD1CA
:1024B000414890F87400C0F38000C8B93E4890F8D5
:1024C0007400C0F3001098B93E488078082805D001
:1024D00008203C498870887801F0D0FF00F0A8FE01
:1024E0000021354880F8A51300203749487018E0CE
:1024F0000020314981F8A4030021344880F8101CE1
:102500002D4880F89813B0F8740020F008012A488C
:10251000A0F87410B0F8740020F020012648A0F84C
:10252000741000212448A0F8721043E0274890F866
:10253000100C90B12048806F78B91F4890F8740053
:10254000C0F3401048B101201F49487001F5805088
:10255000D0F818181848416523E0174890F8A403EC
:1025600090B11548806F78B9134890F87400C0F3A3
:10257000C00048B10121104880F8A5131448D0F8D4
:1025800018180D4841650CE001210B4880F8A5138F
:1025900001200D4948700021074880F89813C16C4C
:1025A00041650021044880F89613A0F8721001E0FC
:1025B00000BF00BF00BF10BDFC810020A48500202B
:1025C0000AD7233C908100200C9E0020FC91002023
:1025D000A095002010B52DED088B00243848C16E61
:1025E000406E9638814205DB3548C16E406E9630AC
:1025F00081421CDD324AB2F8642011B2304AB2F88E
:102600006C2010B2C1231122FEF73DF82C4991F93C
:10261000071000FB01F42A48C06C011928484164E6
:102620000246D16A506C3F2201F0A6F845E02449E9
:1026300091F9070008F0D5FF41EC1B0B9FED210B32
:1026400053EC102B08F0F8FF41EC190B1C49C86C37
:1026500008F0C7FF41EC1A0B53EC192B08F092FD60
:1026600041EC180B08F08EFF1549086391F907003B
:1026700008F0B7FF41EC1B0B9FED140B53EC102B34
:1026800008F0DAFF41EC190B0D49C86C08F0A9FFFE
:1026900041EC1A0B53EC192B08F074FD41EC180BAC
:1026A00008F070FF064948630846006B0949086155
:1026B0000348406B4861FFF7AFF9BDEC088B10BDD4
:1026C000FC810020555555555515504155555555CA
:1026D000551550C19081002010B57F4890F87D00BD
:1026E00070B97E488078012808D001207B49887025
:1026F000887801F0C3FE002077494872FFF7DAFBC3
:102700007548B0F87200B22855D006DC00287BD09E
:10271000A1280DD0A52878D133E0B52876D0CE28D1
:10272000F9D1FFF76BF800216B48A0F87210D0E0E8
:10273000694890F8740000F00100E8B9FFF75EF80E
:102740006548B0F8740020F00100401C6249A1F80F
:1027500074000121604880F87C1080F8A0130021EB
:10276000A0F89E13C0F89013A0F89C135C48A0F842
:102770000418594880F8981300215748A0F872109F
:10278000A7E05548806F38B1FFF746F95248806F8F
:10279000401E514988679CE000214F4880F87C101A
:1027A000B0F8740020F001014B48A0F8741000212B
:1027B000A0F872108DE0484890F8980318BB46487E
:1027C00090F87D00012822D1434890F87400C0F3AE
:1027D0008000E0B9404890F87400C0F30010B0B930
:1027E0003E488078082805D008203C4988708878C1
:1027F00001F044FE00F01CFD0021374880F8A513CD
:102800000020384948701BE062E060E01DE00020D5
:10281000314981F8A4030021334880F8101C2E4868
:1028200080F89813B0F8740020F008012A48A0F846
:102830007410B0F8740020F020012748A0F874103C
:1028400000212548A0F8721043E0274890F8100CAA
:1028500090B12148806F78B91F4890F87400C0F398
:10286000401048B101201F49487001F58050D0F850
:1028700018181948416523E0174890F8A40390B14F
:102880001548806F78B9144890F87400C0F3C00000
:1028900048B10121104880F8A5131148D0F8181844
:1028A0000D4841650CE001210B4880F8A51301207B
:1028B0000C4948700021084880F89813C16C4165A4
:1028C0000021054880F89613A0F8721001E000BFBF
:1028D00000BF00BF10BD0000FC81002090810020DF
:1028E000A09500200C9E0020FC91002070B50446AD
:1028F0000D460026AC4202DA26462C4635465C4898
:10290000007900F0010000287ED05A480088032892
:10291000FAD05948007A002848D1584800880A2837
:102920000BDB002055490880514844640246D16AB7
:10293000506C3F2200F020FF04E050480088401C0B
:102940004E4908804C488089C0F38020D8B148485F
:10295000C16CA4F50030814215DB00204749088096
:10296000012045490872002141484182424880893E
:1029700020F48060404988813E48008840F0010092
:102980003C4908805BE03A48408A401C81B23848A4
:102990004182408AB0F5FA6F51DDFA20344948800F
:1029A0000846808820F00200888048E0334800888C
:1029B0000A280BDB0020314908802D484564024677
:1029C000D16A506C3F2200F0D7FE04E02B4800880B
:1029D000401C2A49088028488089C0F38020E0B143
:1029E0002348C16C05F50030814216DC00202349E4
:1029F00008802149087200211D4841821E488089B3
:102A000020F480601C4900E030E08881194800888B
:102A100040F002001749088011E01548408A401C28
:102A200081B213484182408AB0F5FA6F07DDFA207F
:102A30000F4948800846808820F0020088800D48B1
:102A4000007800F00300032810D100200949088015
:102A500000210748418200200549488008468088B7
:102A600020F00200801C88800020887270BD000069
:102A7000FC810020E400002090810020E200002082
:102A800010B504462CB14FF480610C48FFF730F9C3
:102A900004E04FF480610948FFF728F908484088AE
:102AA00028B14FF480510548FFF722F904E04FF4B4
:102AB00080510248FFF71AF910BD000000080240DB
:102AC000FC81002010B501200A4908720620887098
:102AD00046F23F00488100200873084601F0BEFB23
:102AE00028B90448008A0449C881002010BDFF208D
:102AF000FCE70000688100209081002070B52DED7A
:102B0000028B9FEDF90AB0EE408A0024F748D0F816
:102B1000900340F6B83188425AD8F448B0F89C0384
:102B2000412855DAF148B0F87200A52850D0EF4896
:102B3000D0F89003401CED49C1F890030846C16CE1
:102B4000EB48B0F8040800EB4002EA4840F82210D5
:102B5000E948016CE648B0F8040800EB4002E5489B
:102B600000EB82004160E14890EDE40AB8EE400AD3
:102B7000B0EE408A9FEDE10AC8EE000ADC48B0F8EA
:102B8000040800EB4001DB4800EB8100C0ED020AC5
:102B9000D648C16ED648B0F8040800EB4000D84AC9
:102BA00042F820109FEDD50AC8EE000AD048B0F8D0
:102BB000040800EB4000114601EB8000C0ED020A62
:102BC000CB48B0F80408401C81B2C948A0F80418EA
:102BD000C748B0F80408FF287DDD0024CBE004EBF3
:102BE0004402C44901EB82014868002801DB014628
:102BF00000E041423C291DDABC4890F8A003D0B166
:102C00000021BA4880F8A013A0F89E13B0F89E23C4
:102C10002346B84900F56A7001F00EF9B348B0F8E0
:102C20009E03401C81B2B148A0F89E13B0F89E13D9
:102C3000A0F89C139DE0002C51DDFF2C4FDA651E9F
:102C400005EB4506AB4D05EB86056B68002B01DBFC
:102C50001D4600E05D423C2D0DDD651C05EB450683
:102C6000A44D05EB86056A68002A01DB154600E0E5
:102C700055423C2D1BDC651E05EB45069D4D05EBC5
:102C800086056968002901DB0D4600E04D423C2DB8
:102C90000DDC651C05EB4506964D05EB8605686861
:102CA000002801DB054600E045423C2D61DD8F48F0
:102CB000B0F89E2323468F4900F56A7001F0BCF8F6
:102CC0008A48B0F89E03401C81B28848A0F89E1341
:102CD000B0F89E1300E06AE0A0F89C1349E0FF2CD6
:102CE00023D1611E01EB4102824901EB8201486858
:102CF000002801DB014600E041423C2939DD7B48E8
:102D0000B0F89E2323467B4900F56A7001F094F8E1
:102D10007648B0F89E03401C81B27448A0F89E1318
:102D2000B0F89E13A0F89C1323E014BB611C01EBC8
:102D30004102704901EB82014868002801DB01462D
:102D400000E041423C2914DD6848B0F89E23234648
:102D5000684900F56A7001F06FF86448B0F89E03A6
:102D6000401C81B26148A0F89E13B0F89E13A0F8F1
:102D70009C13601C84B25E48B0F80408A0423FF780
:102D80002EAF00215A48A0F804185A48D0F8F41B76
:102D90005648C0F8A81F5748D0F8F81B5348C0F849
:102DA000AC1F584890ED020A524880ED020A4F4885
:102DB000D0F8900340F6B831884209D84B48B0F8B3
:102DC0009C03402804DA4948B0F87200A5287AD15B
:102DD0004748B0F80408012876DB0024BBE004EB88
:102DE0004402444901EB82014868002801DB0146A6
:102DF00000E041423C2923DA1CBB611C01EB41028B
:102E00003C4901EB82014868002801DB014600E0F3
:102E100041423C2914DD3548B0F89E23234635490C
:102E200000F56A7001F008F83048B0F89E03401CC5
:102E300081B22E48A0F89E13B0F89E13A0F89C1300
:102E400087E0FF2C23D1611E01EB4102294901EBF0
:102E500082014868002801DB014600E041423C292C
:102E600077DD2248B0F89E232346224900F56A7098
:102E700000F0E2FF1D48B0F89E03401C81B21B48E1
:102E8000A0F89E13B0F89E13A0F89C1361E0002CEC
:102E90005FDDFF2C5DDA621E02EB4203154A02EB96
:102EA000830252683C2A01DD012200E000227AB14F
:102EB000621C02EB42030F4A02EB830251680029B5
:102EC00003DB0A4602E00BE188E04A423C2A2BDCA5
:102ED000621E02EB4203074A02EB830252683C2A5D
:102EE00012DD012211E0000000000000FC81002042
:102EF000A0950020A4910020908100200000C842ED
:102F000020B70020989D002000226AB9621C02EBC5
:102F10004203754A02EB83025068002801DB024637
:102F200000E042423C2A14DD7048B0F89E2323465C
:102F30006D4900F56A7000F07FFF6C48B0F89E03A1
:102F4000401C81B26948A0F89E13B0F89E13A0F807
:102F50009C13601C84B26648B0F80408A0423FF796
:102F60003EAF1FED1F0A614880EDEC0A6048B0F8E3
:102F70000408401E00EB40015B4850F821105B48FC
:102F8000B0F89E0300EB40025A4840F8221000219E
:102F90005648B0F89E0300EB4002564800EB820012
:102FA00041605348B0F80408401E00EB40014E4811
:102FB00000EB810090ED020A4C48B0F89E0300EB54
:102FC00040014C4800EB810080ED020A4748B0F810
:102FD0009E03401C81B24548A0F89C1300252FE0B9
:102FE00005EB4503434A52F82310404AC123106DB4
:102FF000112203F07DFB014605EB45023B48803082
:1030000040F8221005EB45013A4800EB810005EB42
:10301000450241683548803000EB8200416005EB95
:103020004501344800EB810090ED020A05EB4501B3
:103030002E48803000EB810080ED020A681C85B2CA
:103040002A48B0F89C03A842CADC0021274880F82F
:103050007C10B0F89C0302281BDB0121234880F878
:103060007D10B0F8740020F00200801C1F49A1F808
:1030700074000846B0F8740020F004011B48A0F862
:103080007410B0F8740020F010011848A0F8741003
:1030900017E01648B0F8740020F002011348A0F8B9
:1030A0007410B0F8740020F00400001D0F49A1F85E
:1030B00074000846B0F8740020F010001030A1F839
:1030C00074000A48B0F8740020F001010748A0F825
:1030D00074100021C0F89013A0F89413A0F89E1368
:1030E000BDEC028B70BD0000A4910020FC8100208B
:1030F000A0950020A485002070B500240025454837
:1031000090F87400C0F3401000283DD04148806F13
:1031100038B14048416D4164806F401E3D49886729
:1031200070BD3D4800F06EFB002869D039488089A9
:103130004FF4FA6191FBF0F136488167B0F89C33A7
:10314000002211469FED350A00F5697000F0F2FD8E
:103150000120304981F8A40300213148A0F8221849
:103160002C48C16C4165B0F8740020F008000830AC
:103170002849A1F874000846B0F8740020F0200136
:103180002448A0F874103BE0224890F87400C0F383
:10319000C000A8B31F48806F38B11E48416D41641C
:1031A000806F401E1B498867BAE71E4800F02AFB63
:1031B00030B3184880894FF4FA6191FBF0F115485B
:1031C0008167C16C4165FEF737FE124981F89603AD
:1031D0000121154880F8101C00211448A0F822187D
:1031E0000C48B0F8740020F008010A48A0F87410E8
:1031F000B0F8740020F0200020300649A1F87400D7
:103200000448046B456B2A462146443000F0ACFD6F
:1032100000BF85E7FC8100200C9E00200AD7233CDC
:10322000A0950020A0850020FC9100200CAE00207D
:1032300000B53548C16EC06D814264DA3248C16E56
:10324000006E81425FDD3048C16CD0F8A803C83001
:1032500081422ADA2C48C16CD0F8A803C8388142D0
:1032600023DD2948B0F89C33002211469FED270A40
:1032700000F5697000F05EFD0021254880F8101C03
:103280002148B0F8740020F020011F48A0F8741005
:1032900001201D4981F8A4030846B0F8740020F00D
:1032A00008000830A1F8740020E0174890F8960351
:1032B00020B9FEF7C1FD144981F896030121144895
:1032C00080F8101C1048B0F8740020F02000203066
:1032D0000D49A1F87400002081F8A4030846B0F855
:1032E000740020F008010848A0F87410064880898E
:1032F0004FF4FA6191FBF0F103488167C16C4165BD
:10330000012180F8981300BDFC8100200AD7233CDE
:10331000FC91002070B5002100230F22C4781CB35B
:10332000174C246804F4E064C4F5E064C4F3072196
:10333000C1F10404E3B20A4144789C40E1B28478CC
:10334000144021430C07210E0E4C0578615504787A
:1033500004F01F050124AC4005786D11AD0005F1A6
:10336000E025C5F8004109E0047804F01F050124B8
:10337000AC40054D0678761145F8264070BD00003A
:103380000CED00E000E400E080E100E002490143D0
:10339000024A1160704700000000FA050CED00E0E1
:1033A00010B50346024844680248C463002010BDBB
:1033B000EC810020FC81002010B50346024884689F
:1033C0000248C462002010BDEC810020FC81002076
:1033D0002DE9F04106460D461446002737460020E9
:1033E000184908600CE038461C370069D4F8F01919
:1033F0000844C4F8F00913480068401C11490860EB
:1034000010480068A842EED3D4F8F0092844C4F864
:10341000F00922462946304600F016F8B4F8A00E0E
:10342000421E002104F6F41000F52F6007F06EFD37
:10343000B4F8A00E421E002104F6A46007F04FFD70
:10344000BDE8F081E87F00202DE9F04180460F467D
:103450001446B4F8A00E3844D4F8F019884202D9C2
:103460000020BDE8F081002628E0C6EBC60008EB8E
:103470008005B4F8A01E04F6F41000F52F6040F8A3
:103480002150B4F8A01E04F6A46040F82150B4F80E
:10349000A00E401CA4F8A00E287A062805D0287A91
:1034A000082802D0287A092807D12246D5E9030145
:1034B000FFF7CAFF08B90020D3E7761CBE42D4D379
:1034C0000120CEE770B504460D461646204607F0AB
:1034D00037FD002070BD70B504460D4616462046E7
:1034E00003F088FB204603F031FB002070BD70B56F
:1034F00004460D461646204603F06AFE204603F0B9
:103500001DFE002070BD30B503460C46D3F8F00810
:10351000007860B9002106E00020D3F8F45845F89F
:103520002100481CC1B293F8ED088842F4DC002069
:1035300030BD000010B503460748807A074C647818
:10354000A04206D00448807A034CE07203484078D9
:10355000A072002010BD0000FC810020EC81002042
:1035600070B505460C464FF0FF3004EBC402A96865
:1035700001EB42014880002004EBC402A96801EB82
:103580004201C880E1B2284607F030F970BD70B53D
:1035900005460C464FF0FF3004EBC402A96801EB6E
:1035A0004201888004EBC401A86810F8110020F0E3
:1035B000010004EBC402A96801F81200E1B2284638
:1035C00007F014F970BD0000F8B504464FF4C0557B
:1035D00023466A4629040020276AB84720498842C2
:1035E0003CD02FE04FF0C05040EA054123466A46E8
:1035F0000020276AB8470646009808BB7069F8B1F2
:10360000184840EA054123466A460020276AB84721
:10361000154941611348401C40EA054123466A466A
:103620000020276AB847104941610E48C01C40EA93
:10363000054123466A460020276AB8470A49416186
:10364000681C85B24FF0C05040EA054123466A46E7
:103650000020276AB84702498842C3D1F8BD00005C
:103660005CCA002002000018514C00080EB540F260
:103670008510ADF8000000208DF8020004208DF8C0
:1036800003000C48007A8DF804000A480089010AFA
:103690008DF8051007488068010C8DF80610054864
:1036A0008068010E8DF807106946034802F090FE0D
:1036B0000EBD000004C9002018320020F8B50446F1
:1036C000002523466A464FF0C0510020266AB047C5
:1036D0002649884248D03BE005EBC502A16801EBD2
:1036E0004201B1F9020022462149FEF76CF905EBCF
:1036F000C502A16801EB4201488001220221D4F8F1
:10370000CC08FDF7CBFB05EBC502A16801EB42013C
:10371000B1F9040022461749FEF755F905EBC50239
:10372000A16801EB4201888001220221D4F8CC0873
:10373000FDF7B4FB002005EBC502A16801F81200FB
:1037400005EBC502A16801EB4201C880681CC5B247
:103750004FF0C05040EA054123466A460020266AE1
:10376000B04702498842B7D1F8BD00005CCA0020CA
:10377000613500088F35000870B505460C461646C1
:103780001D48007B00F00F0008B9FEF78FF90120FB
:103790001A4908720420887046F27A004881002095
:1037A00008730846056100F0D5FD08B1FF2070BD23
:1037B0001148807801281CD111480068A04204D02B
:1037C0000F4804602046FDF7F7FF01200B490872FF
:1037D00046F24000488106208870074846814089AB
:1037E0000861084600F0B6FD08B1FF20DFE7FEF7EC
:1037F0005DF90020DBE70000908100207C81002043
:10380000280000200146087800287CD041F62200DC
:10381000405A002878D141F6080040580068FE4A16
:10382000106041F6080040584068FC4A106041F6BC
:103830000800405890ED020AF94880ED000A41F670
:10384000080040580C3041F60C025050101F4258EE
:1038500041F61000405882422BD141F658000844EE
:10386000C07830BB00200870002241F6220042528E
:1038700001F1100041F608025050121D5050121D67
:1038800050509FEDE80A01F5C05080ED090A9FED08
:10389000E50A80ED170A9FEDE30A80ED180A9FED17
:1038A000E10A80ED190A9FEDDF0A80ED1A0A012076
:1038B0007047DB4890ED000A01F5C05080ED090A21
:1038C00041F60C0040580068D74A106041F60C00E1
:1038D00040584068D54A106041F60C00405890EDC1
:1038E000020AD34880ED000ACF48026841F614006E
:1038F0004250CF4890ED000AC948D0ED000A30EEA2
:10390000600ACC4801E0CEE1BBE080ED000A90ED1A
:10391000000AB5EEC00AF1EE10FA0ED8C6480068EB
:10392000401CC54A106000200870002241F62200A9
:103930004252801E4252FF20BAE701F5C05090ED7E
:10394000110ABC48D0ED000A80EE801ABCEEC10A14
:1039500010EE100A82B24FF4C1504252B2480068D1
:103960004000404200EE100AB8EEC00AAF48D0ED69
:10397000000AF8EEE00AAF4890ED001A00EE810A66
:10398000A648D0ED000AF8EEE00AAA4890ED001A29
:1039900000EE810AA0480068400000EE900AF8EEB0
:1039A000E00A30EE200AA348D0ED000A60EEA00A3B
:1039B00090ED001A60EE810A80EE201A01F5C050E9
:1039C00080ED171A9848006800EB400000EE100ADE
:1039D000B8EEC00A9548D0ED000AF8EEE00A954826
:1039E00090ED001A00EEC10A8C480068400000EE1D
:1039F000900AF8EEE00A8F4890ED001A00EEC10A36
:103A00008548006800EB400000EE900AF8EEE00AFE
:103A100030EE600A8748D0ED000A60EEA00A80EE22
:103A2000201A01F5C05080ED181A7C4890ED000A6C
:103A3000B8EEC00A01F5C05080ED190A764890ED45
:103A4000000AB8EEC00A01F5C05080ED1A0A90EDE8
:103A5000170A7A4880ED000A01F5C05090ED180A67
:103A6000774880ED000A01F5C05090ED190A7548BD
:103A700080ED000A01F5C05090ED1A0A724880ED01
:103A8000000A41F62200405A00EE100AF8EE400A01
:103A900001F5C05090ED111A614890ED000A00EE5A
:103AA000810A01F5C05080ED090A90ED090A5C48D1
:103AB000D0ED000A30EE600A6048D0ED000A20EE3A
:103AC000200A01F5C050D0ED090A554890ED001AC2
:103AD00070EEC10A20EE200A01F5C050D0ED090AAF
:103AE0004F4890ED001A70EEC10A20EE200A01F551
:103AF000C05080ED0A0A90ED090A4948D0ED000A4D
:103B000030EE600A4E48D0ED000A20EE200A01F5A2
:103B1000C050D0ED090A424890ED001A70EEC10A7B
:103B200020EE200A01F5C05080ED0B0A90ED090A45
:103B30003B48D0ED000A30EE600A4248D0ED000A62
:103B400020EE200A01F5C05080ED0C0A3E4890EDB1
:103B5000000A01F5C05080ED0D0A384890ED000ACA
:103B6000F0EE080A20EE200A01F5C050D0ED090A57
:103B70002B4890ED001A70EEC10A20EE200A01F5E4
:103B8000C050D0ED090A264890ED001A70EEC10A27
:103B900020EE200A01F5C05080ED0E0A284890ED75
:103BA000000AF0EE000A20EE200A01F5C050D0ED28
:103BB000090A1B4890ED001A70EEC10A20EE200A97
:103BC00001F5C05080ED0F0A1E4890ED000A01F586
:103BD000C05080ED100A90ED0A0AD0ED0B0A30EECD
:103BE000200AD0ED0C0A30EE200AD0ED0D0A30EE9E
:103BF000200A80ED140A90ED0E0AD0ED0F0A30EE87
:103C0000200AD0ED100A30EE200A80ED150A90ED62
:103C1000140ABDEEC00A19E00001002004010020D2
:103C200008010020000000000C010020100100200D
:103C30001401002028010020F800002018010020B5
:103C40001C010020200100202401002010EE100A99
:103C500041F61802505001F5C05090ED150ABDEE26
:103C6000C00A10EE100A121D5050101F42582F4863
:103C7000426441F62200405A401C82B241F62200C2
:103C80004252425A801E405A82424DD1487858B919
:103C900041F6080040580C3041F60802505000220E
:103CA00041F6220042523FE000200870002241F617
:103CB0002200425201F1100041F608025050121D3C
:103CC0005050121D50501FED290A01F5C05080EDD3
:103CD000090A1FED2C0A80ED170A1FED2E0A80ED50
:103CE000180A1FED300A80ED190A1FED320A80ED27
:103CF0001A0A00200D4A82F8A40300220C4880F81A
:103D0000102C0A4880F89823B0F8740020F00802BC
:103D10000648A0F87420B0F8740020F02002034890
:103D2000A0F874200120C3E50020C1E5FC8100203B
:103D3000FC91002030B500F5C05484ED110A41F625
:103D400058040444E17002EB4205041D04EB8505B0
:103D500041F60804255003EB4305041D04EB8505DB
:103D600041F61004255030BD03688B4201DD01602F
:103D700003E00368934200DA02607047FEB5044630
:103D80000E46D4F890070088A8B12068008800F596
:103D9000E06085B2ADF8005001208DF803000020EE
:103DA0008DF8020094F864078DF8040069462046F7
:103DB00002F00EFB0EE0B4F994072246AFF2430185
:103DC000FDF701FEA4F8940701220221D4F8CC08E3
:103DD000FDF764F8FEBD000029B1064A12680243EF
:103DE000044B1A6004E0034A12688243014B1A60D4
:103DF000704700003038024029B1064A1268024379
:103E0000044B1A6004E0034A12688243014B1A60B3
:103E1000704700004038024029B1064A1268024348
:103E2000044B1A6004E0034A12688243014B1A6093
:103E3000704700002038024030B503EB430451F8CE
:103E4000244002EB420540F8254003EB430401EB1C
:103E50008404646802EB420500EB85056C6003EBAB
:103E6000430401EB840494ED020A02EB420400EBEC
:103E7000840484ED020A30BDF8B504460E461546AA
:103E800023466A4631460020D4F820C0E047074662
:103E9000009800B97D610098F8BD0000FEB50446A9
:103EA0000D4600260121D4F8280900F028FE05EB74
:103EB0004500C0EB451104F1240000EB810040787F
:103EC00002280FD101E0701C86B24FF0945040EAF6
:103ED0000641234602AA0020D4F820C0E0476049EA
:103EE0008842F0D105EB4500C0EB451104F12400F8
:103EF00000EB8100407801280FD101E0701C86B2F0
:103F00004FF0905040EA0641234602AA0020D4F820
:103F100020C0E04752498842F0D105EB4500C0EB94
:103F2000451104F1240010F82100401CB04200DDCE
:103F3000FEBD05EB4500C0EB451104F1240000EB8C
:103F400081004078022812D105EB4500C0EB4512F4
:103F500004F1240010F82200424A42EA00412346BC
:103F600002AA0020D4F820C0E047C068077805EB1B
:103F70004500C0EB451104F1240000EB81004078BE
:103F8000012812D105EB4500C0EB451204F12400D5
:103F900010F82200344A42EA0041234602AA0020D7
:103FA000D4F820C0E047C06807784FF0FF3105EB38
:103FB0004500C0EB451204F1240000EB8200A0F89C
:103FC0006E10852105EB4500C0EB451204F124007D
:103FD00000EB82008170254905EB4500C0EB4512DE
:103FE00004F1240000EB8200807BCDE9000105EBA9
:103FF0004500C0EB451C04F1240000EB8C008389D4
:1040000005EB4500C0EB451C04F1240010F82C2002
:1040100005EB4500C0EB451C04F1240000EB8C00CF
:104020004178204606F04CFD104905EB4500C0EBF9
:10403000451204F1240000EB8200816005EB45008D
:10404000C0EB451104F1240000EB81004078012809
:1040500003D1E9B2204606F08FFB00BF68E70000FD
:104060005CCA002003008012030000120000040557
:104070002DE9FF4104460D4605EB4500C0EB451117
:1040800004F1240000EB8100006988B905EB4500CC
:10409000C0EB451104F1240000EB8100416905EB00
:1040A0004500C0EB451204F1240000EB82000161E1
:1040B00005EB4500C0EB451104F1240000EB810045
:1040C00000690390012003AACDE90020029005EBCE
:1040D0004500C0EB451704F1240000EB870000F118
:1040E000180305EB4500C0EB451704F1240000EB75
:1040F0008700827B05EB4500C0EB451704F12400E7
:1041000000EB87008189204601F0C0FF06461EB102
:10411000304604B0BDE8F0810020FAE7F0B504466F
:10412000154601EB4100C0EB411704F1240000EB00
:10413000870040692844402801D9FF20F0BD01EBE9
:104140004100C0EB411704F1240000EB87004669F1
:1041500000220FE09F5C01EB4100C0EB411C04F129
:10416000240000EB8C00183006EB020C00F80C70F9
:10417000501CC2B2AA42EDD301EB4100C0EB411783
:1041800004F1240000EB87004069471901EB41006E
:10419000C0EB411C04F1240000EB8C0047610020BF
:1041A000CCE770B50D8805F4B065B5F5B06F52D1A8
:1041B000057A0E7806F07F06B5424CD1CD78082DF1
:1041C00000D070BD0D79802D04D10025C580032558
:1041D0004570F6E74E798D7906EB0525AAB2CB79C5
:1041E0004589954237D1057B9D4234D10C79432CCA
:1041F0001DD0472C10D04B2C06D04F2C25D10D7A3A
:1042000005610225457025E00E7A4D7A06EB0525FD
:104210000561022545701DE08D7A2E044D7A06EB6E
:1042200005260D7A354405610225457012E0CD7AE8
:104230002E068D7A06EB05464D7A06EB05260D7A9D
:10424000354405610225457004E00025056103251C
:10425000457000BF00BF00BFB3E700002DE9FF417C
:10426000044600270025002600200390A67A6089D6
:10427000050A207A00F07F0000F5C060ADF800006C
:1042800000208DF8020008208DF8030040208DF8F2
:1042900004008DF805608DF80650207B8DF807002E
:1042A0009DF80C108DF808109DF80D108DF8091070
:1042B0009DF80E108DF80A109DF80F108DF80B1058
:1042C000012060700020E08069460E4802F080F80E
:1042D00007461FB1FF2004B0BDE8F0810DE0E08883
:1042E000052805DB0020E08003206070FF20F2E756
:1042F0006078032801D1FF20EDE760780128EED037
:104300000020E8E74864002030B50C8804F4B0646D
:10431000B4F5B06F1DD1047A0D7805F07F05AC427D
:1043200017D14D798C7905EB0424A2B2CB7944895D
:1043300094420ED1047B9C420BD10C79602C04D1A9
:10434000052444700024848003E006244470002483
:10435000848030BD2DE9FF4104460025002600275A
:1043600000200390A77A6089060A207A00F07F0077
:1043700000F5C060ADF8000000208DF802000820B4
:104380008DF80300A078062819D008DC02280DD08B
:10439000032813D004282DD005283FD107E0072893
:1043A00029D0102816D0162838D114E000BF2F20AD
:1043B0008DF80400207C8DF80C0035E000BF2B2028
:1043C0008DF80400207C8DF80C00208A000A8DF8FE
:1043D0000D0029E000BF27208DF80400207C8DF817
:1043E0000C00208A000A8DF80D002069000C8DF861
:1043F0000E0019E000BF23208DF80400207C8DF80A
:104400000C00208A000A8DF80D002069000C8DF840
:104410000E002069000E8DF80F0005E00620607088
:10442000FF2004B0BDE8F08100BFF9B28DF805109F
:10443000F1B28DF80610207B8DF807009DF80C1066
:104440008DF808109DF80D108DF809109DF80E10CC
:104450008DF80A109DF80F108DF80B100420607075
:104460000020A0806946044801F0B2FF05460DB166
:10447000FF20D6E70020D4E74864002010B50446AA
:1044800001207749087246F26000488100200873D5
:104490000520887008460461FFF75CFF18B1FF2013
:1044A0007049487010BD012002F0CEF801206C491F
:1044B00008724FF4C14048810020087307208870BB
:1044C0006848806B08610846FFF744FF18B1FF2079
:1044D00064494870E6E7012002F0B6F8012060491F
:1044E000087246F27F004881002008730720887018
:1044F0005C48806B08610846FFF72CFF18B1FF206D
:1045000058494870CEE7012002F09EF80120544936
:10451000087246F2810048810020087307208870E5
:104520005048406B4F49896B884203D94D48806B96
:104530004C4948634B48406B494908610846FFF7BE
:1045400009FF18B1FF2047494870ABE7012002F08E
:104550007BF801204249087246F2C50048810020DC
:104560000873072088703F48406C08610846FFF7D1
:10457000F1FE18B1FF203B49487093E7012002F09B
:1045800063F801203649087246F28300488107200B
:1045900088703448806C08610846FFF7DBFE18B16C
:1045A000FF20304948707DE7012002F04DF8082CCB
:1045B00016D101202A49087246F2C2004881012022
:1045C0000873052088700A2008610846FFF7C2FEBC
:1045D00018B1FF202349487064E7012002F034F845
:1045E00001201F49087246F28400488100200873A8
:1045F000072088701B48C06C08610846FFF7AAFEB8
:1046000018B1FF20174948704CE7012002F01CF850
:1046100001201349087246F2850048810020087382
:10462000072088700F48006D08610846FFF792FE6A
:1046300018B1FF200B49487034E7012002F004F85C
:10464000FDF716FA052001F0FFFFFDF72FFA052010
:1046500001F0FAFF012003490870487000BF21E70C
:104660007C810020908100202DE9F05F04468B467C
:104670009246994600220221D4F8CC08FCF70EFCA1
:10468000002704F62C1543E0BAF1000F3DD028783E
:10469000D0BBB4F9EC09401CB84205D1B4F8EC0920
:1046A000401C00B2A4F8EC09204602F083F906464B
:1046B000C84608F1010008B1404601E04FF0FF3064
:1046C000804641F624300059B0420ED941F62430DC
:1046D0000059801B404508D906EB080141F62430FB
:1046E00001512146404606F0CDFBC5F808A06C609C
:1046F000C5F80CB009EB060028610A986861012032
:1047000028703846BDE8F09FFFE7781C07B21835DF
:10471000B4F9EC09401CB84201DB082FB4DB4FF0C0
:10472000FF30EFE70CB5002001900090344800689E
:1047300040F480303249086000BF3148006800F41E
:10474000003000900198401C0190009818B9019821
:10475000B0F5A04FF1D12A48006800F4003010B144
:104760000120009001E0002000900098012846D12F
:1047700023484030006840F08050214940310860B3
:104780002048006840F440401E4908601C4808303A
:1047900000681B49083108600846006840F4004082
:1047A00008600846006840F4A05008601648091FD9
:1047B0000860081F006840F08070091F086000BF93
:1047C0000F48006800F000700028F9D040F2057032
:1047D0000E4908600A480830006820F003000849C4
:1047E000083108600846006840F00200086000BF19
:1047F00003480830006800F00C000828F8D10CBD10
:10480000003802400070004019544007003C02404C
:1048100001460120C8600A22C868B2FBF0F00861B6
:104820004FF47A72C868B2FBF0F04861002070471C
:1048300070B504460D46204606F06BF970BD04289D
:1048400008D14FF0E021096941F004014FF0E02266
:10485000116107E04FF0E021096921F004014FF0F8
:10486000E02211617047000010B51548006840F45F
:104870007000134908601348006840F001001149B6
:10488000086000200F49083108600E4800680E4992
:1048900008400C4908600D48091D0860081F0068A1
:1048A00020F48020091F0860002006490C310860B0
:1048B000FFF738FF4FF0006001498039086010BDF4
:1048C00088ED00E000380240FFFFF6FE10300024C3
:1048D00010B50121880700F058F970B14FF0804001
:1048E00000F050F90549C1F82C0BA1F5805000F0FB
:1048F000D7FB0121880700F002F910BD1842002003
:1049000010B50121044800F040F918B10121024816
:1049100000F0F5F810BD00000004004010B50121C2
:10492000094800F032F968B1074800F02BF907494F
:10493000C1F82C0BA1F5805000F0B2FB0121024818
:1049400000F0DDF810BD00000008004048740020B1
:1049500010B501212D4800F018F9002855D02C4839
:104960000068401C2A49086008468068401C88602E
:10497000084600680969884227D300202449086056
:1049800001202449087008720846807AE5280AD177
:10499000084690F87D0030B9084690F87C00012860
:1049A00001D1FEF7ABF81B4890F8980320B1012025
:1049B00018494872FEF7A0FB06F0CAFB1548407A7A
:1049C00018B11449486C01F0E5FD114880681049A0
:1049D000496988420CD300200D4988600E48007850
:1049E00080F001000C49087008460078FEF748F88E
:1049F0000A484078012804D10848C088401C07496B
:104A0000C8800121014800F07AF810BD0014004070
:104A100080D40020FC81002010000020688100204C
:104A20001FB501210420FFF7E7F95320ADF800007E
:104A30000020ADF80200401E01900020ADF80800F3
:104A40008DF80A0069460F4800F0BCF801221146B3
:104A50000C4800F0ABF801210A4800F053F84FF47D
:104A60008060FEF793FC1E208DF80C0001208DF86D
:104A70000D008DF80E008DF80F0003A8FEF74AFC1C
:104A80001FBD00000008004010B5FFF7C9FF10BDB2
:104A90001FB501210846FFF7AFF95320ADF800001C
:104AA0000020ADF80200401E01900020ADF8080083
:104AB0008DF80A0069464FF0804000F083F801222B
:104AC0001146900700F072F80121880700F01AF8EB
:104AD0004FF48060FEF75AFC1C208DF80C00022079
:104AE0008DF80D0001208DF80E008DF80F0003A841
:104AF000FEF710FC1FBD10B5FFF7CAFF10BDCA437B
:104B00000282704721B1028842F00102028004E073
:104B100002884FF6FE731A40028070477FB5044644
:104B20000D4601212020FFF767F9681E80B2ADF81D
:104B300000000020ADF80200601E01900020ADF8DA
:104B400008008DF80A0069460D4800F03BF8012284
:104B500011460B4800F02AF801210948FFF7D2FF5F
:104B600037208DF80C0003208DF80D0000208DF803
:104B70000E0001208DF80F0003A8FEF7CBFB7FBDD0
:104B8000001400400146486A704730B502460020D4
:104B900000230024158A05EA0103958905EA01042A
:104BA00013B10CB1012000E0002030BD1AB183899F
:104BB0000B43838102E083898B4383817047C16209
:104BC0007047000000220288184B98420ED0184B04
:104BD00098420BD0B0F1804F08D0164B984205D0C8
:104BE000154B984202D0154B984204D14FF68F7363
:104BF0001A404B881A43124B984207D0114B9842E7
:104C000004D04FF6FF431A400B891A4302804B68C9
:104C1000C3620B880385054B984202D0044B98422F
:104C200001D18B7A03860123838270470000014003
:104C3000000401400004004000080040000C004057
:104C400000100040001400400346002070470000A0
:104C50002DE9F84304460E46174640F26A70005D9F
:104C6000002854D0022F04D0032F03D0052F4CD19D
:104C700001E000BF00BF23466A464FF0C05100204C
:104C8000D4F820C0E0478046A6EB08001C2190FB2A
:104C9000F1F0C5B205EBC502A16801EB4201B1F923
:104CA000020022461B49FCF78EFE05EBC502A168F7
:104CB00001EB4201488001220221D4F8CC08FCF724
:104CC000EDF805EBC502A16801EB4201B1F9040062
:104CD00022461149FCF777FE05EBC502A16801EBFE
:104CE0004201888001220221D4F8CC08FCF7D6F8D2
:104CF000002005EBC502A16801F8120029462046F4
:104D0000FEF72EFC0020BDE8F88300BF00BF0020A6
:104D1000F9E70000613500088F3500081CB5012156
:104D20000220FFF759F84FF44060009001208DF801
:104D3000040000208DF8060003208DF805000120F6
:104D40008DF8070069460448FCF73CFF4FF44061CA
:104D50000148FCF7CBFF1CBD0004024010B59CB01D
:104D600004462046FCF77AFC4FF47A700490012048
:104D70000321BA4A04ABCDE900210290002241F29E
:104D80001701204601F082F9B5480068401CB4497B
:104D900008602068008800F5C0601B9020680088CB
:104DA00000F5B0601A90012019900321AD4A1BABA9
:104DB000CDE90021029002464FF49051204601F0C7
:104DC00065F901200321A74A1AABCDE90021029021
:104DD00002224FF49051204601F058F9012003219E
:104DE000A14A19ABCDE9002102900A464FF4905137
:104DF000204601F04BF92068008800F5C07018903B
:104E0000FF201790C8201690142015900120032130
:104E1000944A18ABCDE9002102900246C90220460F
:104E200001F034F9012003218F4A17ABCDE90021AD
:104E300002900222C902204601F028F90120032134
:104E4000884A16ABCDE9002102900A46C9022046E5
:104E500001F01CF901200321824A15ABCDE90021A4
:104E600002900522C902204601F010F97F481490F3
:104E7000012003217B4A14ABCDE9002102900246B8
:104E80004FF4D051204601F001F940F28310139005
:104E9000FE20129001200321724A13ABCDE90021BC
:104EA0000290024641F20341204601F0EFF8012052
:104EB00003216D4A12ABCDE900210290022241F29A
:104EC0000341204601F0E2F86948119001200321D6
:104ED000644A11ABCDE900210290024641F2036120
:104EE000204601F0D3F84FF4C2701090FE200F90CE
:104EF000012003215B4A10ABCDE90021029002465C
:104F000041F20441204601F0C1F801200321564A34
:104F10000FABCDE900210290022241F2044120466C
:104F200001F0B4F853480E90012003214D4A0EAB16
:104F3000CDE900210290024641F20461204601F0D1
:104F4000A5F84FF4C3700D90FE200C9001200321B2
:104F5000444A0DABCDE900210290024641F20641E0
:104F6000204601F093F8012003213F4A0CABCDE924
:104F700000210290022241F20641204601F086F80B
:104F80003D480B9001200321364A0BABCDE90021AF
:104F90000290024641F20661204601F077F840F2A5
:104FA00087100A90FE200990012003212D4A0AABA8
:104FB000CDE900210290024641F20741204601F06E
:104FC00065F801200321284A09ABCDE900210290B0
:104FD000022241F20741204601F058F82748089084
:104FE000012003211F4A08ABCDE9002102900246AF
:104FF00041F20761204601F049F84FF4C470079070
:10500000FE20069001200321164A07ABCDE90021BE
:105010000290024641F20841204601F037F8012093
:105020000321114A06ABCDE900210290022241F290
:105030000841204601F02AF811480590012003217B
:10504000084A05ABCDE900210290024641F2086111
:10505000204601F01BF81CB010BD000004800020A9
:10506000108000200880002000800020200367605E
:105070002001676020026760200467602005676088
:105080002006676002469F2A04D1087808B10348C9
:10509000704700BF00BF0020FAE70000300009069B
:1050A0002DE9F047054640F2F317284601F082FC4F
:1050B000804641F62430405900EB0809002605F6E9
:1050C0002C1425E0207800F00100F0B1206948455B
:1050D00013D8606910B90220207016E06069B8FB2F
:1050E000F0F100FB11806169081A20610320207033
:1050F0002069B84209D2276907E02069A0EB0900BE
:1051000020612069B84200D22769701C06B21834A9
:10511000B5F9EC09B042D5DA41F6243047512946B9
:10512000384605F0AFFE002605F62C1410E0207876
:1051300000F0020048B1207820F002002070A06842
:1051400018B1D4E9022160689047701C06B2183487
:10515000B5F9EC09B042EADABDE8F08770B52DED9B
:10516000108B8AB0044600BF00BF00BF9FED8B0BC1
:10517000B0EE40AAF0EE60AA00BF00BF00BF8948B1
:10518000C068642190FBF1F08648006990FBF1F65D
:10519000304606F026FA9FED840B53EC102B06F0F8
:1051A0004BFA9FED830B53EC102B06F093F841EC78
:1051B0001D0BB0EE4D0AF0EE6D0A00F081F9B0EE75
:1051C00040BAF0EE60BA77480069642190FBF1F6CE
:1051D000304606F006FA9FED740B53EC102B06F0E8
:1051E0002BFA9FED730B53EC102B06F073F841EC88
:1051F0001D0BB0EE4D0AF0EE6D0A00F0FDF8B0EEBA
:1052000040CAF0EE60CA67488068642190FBF1F6FE
:10521000304606F0E6F99FED640B53EC102B06F0D8
:105220000BFA9FED630B53EC102BCDE902019DEDC2
:10523000020B51EC100B06F04DF8CDE904019DED89
:10524000040B00F0D9F8B0EE40DAF0EE60DA204658
:1052500006F0C7F953EC1D2B06F0EEF9CDE9080175
:105260005549B1F90E0006F0BCF953EC1B2B06F0C2
:10527000E3F941EC1D0B5049B1F90A0006F0B1F910
:1052800053EC1C2B06F0D8F953EC1D2B05F07AFFDC
:10529000CDE906019DED080B53EC102B9DED060B9F
:1052A00051EC100B06F0D2FA41EC180B53EC182B12
:1052B00051EC1A0B06F0C0F941EC190B3948806823
:1052C000642190FBF1F6304606F08BF99FED360B2A
:1052D00053EC102B06F0B0F99FED350B53EC102B6F
:1052E00005F0F8FFCDE900019DED000B00F084F81A
:1052F0008DED020B204606F074F99DED020B53EC88
:10530000102B06F099F9CDE906012C49B1F90E00F0
:1053100006F067F953EC1B2B06F08EF941EC1D0BE0
:105320002649B1F90A0006F05CF953EC1C2B06F093
:1053300083F953EC1D2B05F025FFCDE904019DED0C
:10534000060B53EC102B9DED040B51EC100B06F0EB
:105350007DFA53EC182BCDE908019DED080B51ECBB
:10536000100B05F00FFF41EC180B53EC182B51EC10
:105370001A0B06F061F953EC192B05F003FF41EC11
:10538000190B51EC190B06F0FDF8642110FB01F02C
:1053900005B228460AB0BDEC108B70BD00000000BD
:1053A0000000000004C900204AD8124DFB2109402A
:1053B0000000000000806640C88000207880002047
:1053C000704703B401984100009850EAC12018BF0B
:1053D00004204A0D18BF40F0010040F2FF72B2EB0A
:1053E000515F08BF40F00200012808BF052002B04D
:1053F000704700000000000010B52F499FED2C1BE6
:105400002DED020B84B0059820F000408842D8BFF3
:105410009DED040B2DDD2949884209D1049840B93E
:105420004FF00100FBF7F2F800F0A2FC06B010BD4F
:1054300005DB9DED040B00F08FFC06B010BD684647
:105440009DED040B00F0A0F810F0030004BF9DEDEB
:10545000021B9DED000B0CD001280ED09DED021B10
:105460009DED000B022817D0012000F0DDFB06B0F7
:1054700010BD00F0A5FA06B010BD9DED021B9DED1C
:10548000000B012000F0D0FB51EC100B05F06EFE7C
:1054900006B041EC100B10BD00F092FA51EC100B6D
:1054A00005F064FE06B041EC100B10BD00000000DA
:1054B0000000000000000000FB21E93F0000F07F39
:1054C00010B52F499FED2C1B2DED020B84B00598D4
:1054D00020F000408842DCBF00209DED040B32DD4F
:1054E0002849884209D1049840B94FF00100FBF7E0
:1054F0008DF800F03DFC06B010BD05DB9DED040B02
:1055000000F02AFC06B010BD68469DED040B00F0CB
:105510003BF810F0030011D0012818D09DED021BBC
:105520009DED000B02281AD000F04AFA51EC100B46
:1055300005F01CFE06B041EC100B10BD9DED021BEA
:105540009DED000B012000F06FFB06B010BD9DED3E
:10555000021B9DED000B00F033FA06B010BD0120D8
:1055600000F062FB51EC100B05F000FE06B041ECC0
:10557000100B10BD00000000000000000000000043
:10558000FB21E93F0000F07F2DE9F14F04462DEDAE
:10559000020B2DED088B8AB09FEDE70B80ED020B1F
:1055A000139EE74826F0004585420ADC9DED120B6C
:1055B000002084ED000B0AB0BDEC088B03B0BDE801
:1055C000F08FE0489FEDE0AB9FEDE1BBA84247DDE7
:1055D000E14F9FEDE39B9FEDE48B9DED120B53ECB0
:1055E0001A2B51EC100B002E1CDD06F02FF941ECAC
:1055F000100BBD4208D053EC1B2B51EC100B06F0E6
:1056000025F9C4E900010BE053EC192B51EC100B08
:1056100006F01CF953EC182B06F018F9C4E9000148
:105620000120C8E705F0AEFD41EC100BBD4208D0EB
:1056300053EC1B2B51EC100B05F0A4FDC4E9000149
:105640000BE053EC192B51EC100B05F09BFD53ECC8
:10565000182B05F097FDC4E900014FF0FF30AAE7D1
:10566000C348A84279DB9DED120B51EC100B01F001
:105670009FF841EC180B9FEDC00B53EC102B05F07D
:10568000DBFF9FEDBF1B53EC112B05F07BFD05F0FD
:1056900079FF074605F0A5FF41EC190B53EC1A2BD7
:1056A00005F0CAFF53EC182B06F0C4F841EC180BB8
:1056B00053EC1B2B51EC190B05F0BEFFDFF8C8A211
:1056C00041EC100B4FEA15580125FA4453EC102B0E
:1056D00051EC180B06F0BAF8032DC4E900013DD0D7
:1056E000C1F30A5005EB4511A8EB000011398142C6
:1056F00034DA0AEB051BB0EE48AA9BED000BF0EE86
:1057000068AA53EC102B51EC190B05F095FF41ECF6
:105710001B0B51EC1A0B53EC1B2B06F097F841ECCA
:10572000180B51EC1A0B53EC182B06F08FF853ECB6
:105730001B2B06F08BF89BED020B41EC1A0B53EC84
:10574000102B51EC190B05F077FF53EC1A2B06F0D8
:105750007DF841EC100B6D1CB8E70EE0002EA8BFE1
:105760003846BFF628AF94ED000B51EC100B05F056
:10577000FDFCC4E9000178421DE7C6F3130040F4C4
:10578000801EC6F30A50A0F2F530471100F01F0545
:10579000C5F12000DDF848B0089000200690079081
:1057A0000520EC467949002D07EB0002794408BF3B
:1057B00051F8221009D051F8223001EB8201AB40A0
:1057C0004A68089922FA01F11943A1FB0E26A1FBB0
:1057D0000B131A449A4234BF0123002303EB06083B
:1057E0000CEB8003D3E901A60E448E4234BF0121A5
:1057F000002192448A4411B1924502D903E09245B6
:1058000001D2012100E00021C3E901A641444CF886
:105810002010011EA0F10100C4DC029800F100502C
:10582000850F0298DDE903678000DDF8148005F03C
:10583000D8FE41EC1A0B304605F0EAFE9FED541BF2
:1058400053EC112B05F0F8FE41EC1B0B384605F02C
:10585000DFFE9FED511B53EC112B05F0EDFE41ECEB
:10586000180B404605F0D4FE9FED4D1B53EC112B59
:1058700005F0E2FE41EC190B51EC180B53EC192B1F
:1058800005F080FC53EC1B2B05F07CFC53EC1A2B31
:1058900005F078FCCDE90801002008909DED080B8B
:1058A00053EC1A2B51EC100B05F0D0FF53EC1B2BD3
:1058B00005F0CCFF53EC182B05F0C8FF53EC192B67
:1058C00005F0B8FF9FED381B53EC112B05F0B4FE2B
:1058D0009FED370B41EC180B53EC102B9DED080B93
:1058E00051EC100B05F0A8FE53EC182B05F04AFC08
:1058F0009FED310B41EC180B53EC102B9DED080B79
:1059000051EC100B05F098FE53EC182B05F03AFC07
:1059100041EC100B139810F0004F06D06D4251EC83
:10592000100B05F023FC41EC100B284684ED000B16
:1059300041E6000000000000000000000000000040
:10594000FB21E93F7CD9024000004054FB21F93F94
:105950003163621A61B4D03DFB21F93F00000000C1
:105960000000601A61B4D03D7370032E8A19A33B06
:10597000FB2139410000000083C8C96D305FE43F5E
:10598000000000000000E03FD26300002063000040
:10599000000000000000103E000000000000103C6D
:1059A000000000000000103A182D4454FB21F93D7E
:1059B0003326A611460B113C00000054FB21F93D93
:1059C00010B52DED040B2DED088B82B0B0EE419A91
:1059D000F0EE619A0B9820F000449FED4BABB4F1D0
:1059E000795F11DA9DED0A0B51EC100B05F0CAFD41
:1059F000002801BFB0EE4A0AF0EE6A0A02B0BDEC20
:105A0000088B04BF04B010BD9DED0A0B53EC102BA6
:105A100051EC100B05F010FE41EC180B3C48062130
:105A2000B0EE480AF0EE680A784400F081F853ECD2
:105A3000182B51EC100B05F0FFFD9DED0A0B41EC0E
:105A40001B0B53EC192B51EC100B05F0F5FD41EC41
:105A5000190B53EC1B2B51EC180B05F0EDFD53EC1F
:105A6000192B05F0F3FE9FED2C0B41EC190B53ECB9
:105A7000102B51EC180B05F0DFFD41EC100B284802
:105A8000844210DA53EC192B51EC100B05F0DEFEBA
:105A900053EC1A2B05F0CEFE41EC100B02B0BDEC1E
:105AA000088B04B010BD1F48A042BCBF9FED1E1B59
:105AB0008DED001B06DBA4F5001001900020009086
:105AC0009DED001B51EC100B53EC112B05F0BEFEAD
:105AD0009DED000B41EC180B53EC102B51EC1A0B05
