:020000040800F2
:10000000F854012069020008710200087302000818
:10001000750200087702000879020008000000005D
:100020000000000000000000000000007B0200084B
:100030007D020008000000007F0200088102000825
:10004000830200088302000883020008830200087C
:10005000830200088302000883020008830200086C
:10006000830200088302000883020008830200085C
:10007000830200088302000883020008830200084C
:10008000830200088302000883020008F1080008C8
:100090007508000883020008830200088302000834
:1000A000830200088302000883020008830200081C
:1000B000B14F0008E14F0008FD4F0008830200081F
:1000C00083020008830200088302000883020008FC
:1000D00083020008830200088302000883020008EC
:1000E00083020008830200088302000883020008DC
:1000F00083020008830200088302000883020008CC
:1001000083020008830200088302000883020008BB
:1001100083020008830200088302000831500008AF
:10012000830200088302000883020008830200089B
:10013000830200088302000883020008450B0008C0
:10014000C90A00088302000883020008830200082D
:10015000830200088302000883020008830200086B
:10016000830200088302000883020008830200085B
:10017000830200088302000883020008830200084B
:10018000830200088302000800F002F800F05CF827
:100190000AA090E8000C82448344AAF10107DA45E2
:1001A00001D100F051F8AFF2090EBAE80F0013F0D8
:1001B000010F18BFFB1A43F001031847E4EB0000DE
:1001C00004EC00000A444FF0000C10F8013B13F05F
:1001D000070408BF10F8014B1D1108BF10F8015BA0
:1001E000641E05D010F8016B641E01F8016BF9D193
:1001F00013F0080F1EBF10F8014BAD1C0C1B09D1EA
:100200006D1E58BF01F801CBFAD505E014F8016B5B
:1002100001F8016B6D1EF9D59142D6D370470000ED
:100220000023002400250026103A28BF78C1FBD8FF
:10023000520728BF30C148BF0B6070471FB50CF094
:10024000C7F91FBD10B510BD00F0EEF91146FFF75C
:10025000F5FF07F06DFC00F00CFA03B4FFF7F2FFB6
:1002600003BC06F02DFD00000948804709480047FF
:10027000FEE7FEE7FEE7FEE7FEE7FEE7FEE7FEE756
:10028000FEE7FEE704480549034A054B70470000B6
:100290000D4F000889010008F8D40020F85401200F
:1002A000F8D40020704710B54C1084EA530404D5EC
:1002B0004042C1F1000138BF491E1B4204D55242E1
:1002C000C3F1000338BF5B1E00F024F914F0804F27
:1002D00004D04042C1F1000138BF491E14F0004F64
:1002E00004D05242C3F1000338BF5B1E10BD40EA88
:1002F000010310B59B070FD1042A0DD310C808C9FC
:10030000121F9C42F8D020BA19BA884201D90120A4
:1003100010BD4FF0FF3010BD1AB1D30703D0521CEF
:1003200007E0002010BD10F8013B11F8014B1B1B2A
:1003300007D110F8013B11F8014B1B1B01D1921E94
:10034000F1D1184610BD032A40F2308010F0030CA2
:1003500000F0158011F8013BBCF1020F624498BF18
:1003600011F801CB00F8013B38BF11F8013BA2F1B5
:10037000040298BF00F801CB38BF00F8013B11F030
:10038000030300F02980083AC0F0088051F8043BCC
:10039000083A51F804CBA0E80810F5E7121D5CBF3D
:1003A00051F8043B40F8043BAFF30080D20724BF70
:1003B00011F8013B11F801CB48BF11F8012B24BF04
:1003C00000F8013B00F801CB48BF00F8012B704753
:1003D00001B5FFF7B8FF01BD10B5203AC0F00B80A2
:1003E000B1E81850203AA0E81850B1E81850A0E839
:1003F0001850BFF4F5AF5FEA027C24BFB1E8185093
:10040000A0E8185044BF18C918C0BDE810405FEA02
:10041000827C24BF51F8043B40F8043B08BF70477E
:10042000D20728BF31F8023B48BF11F8012B28BF83
:1004300020F8023B48BF00F8012B70474FF0000244
:1004400000B5134694469646203922BFA0E80C50CA
:10045000A0E80C50B1F12001BFF4F7AF090728BFA5
:10046000A0E80C5048BF0CC05DF804EB890028BF21
:1004700040F8042B08BF704748BF20F8022B11F04A
:10048000804F18BF00F8012B704700004FF0013C6F
:1004900050F8042B51F8043B9A4221D1A2EB0C03F3
:1004A000934313EACC1317D150F8042B51F8043BB3
:1004B0009A4215D1A2EB0C03934313EACC130BD150
:1004C00050F8042B51F8043B9A4209D1A2EB0C03DB
:1004D000934313EACC13DBD04FF00000704700BF0A
:1004E000D01A01BAB1FA81F101F0180122FA01F033
:1004F000CB40C1F12001DBB2C0B2C01A2CFA01F32B
:10050000D11A914311EAC311E6D170477047704781
:100510007047704753EA020C00F069802DE9F04BF8
:100520004FF00006002B1FBFB3FA83F503FA05F462
:1005300024FA05F65E4012BF1643B2FA82F502FABB
:1005400005F4C5F120051EBF22FA05FC44EA0C049F
:10055000203556EA044C4FEA144418BF641C4FF08F
:1005600000084FF00009904271EB030C39D30029C9
:1005700019BFB1FA81F701FA07F6B0FA80F700FA6D
:1005800007F6C7F120071EBF20FA07FC46EA0C0653
:100590002037B6FBF4FCA7EB0507103F07F01F0B55
:1005A000CBF120060CFA0BFB2CFA06F644BFB3463F
:1005B0000026202FA4BF5E464FF0000B5BEA060C1E
:1005C00008BF4FF0010B19EB0B09ABFB027C48EBAA
:1005D0000608C01B06FB02CC0BFB03CC71EB0C0125
:1005E000C1E70B46024641464846BDE8F08B13B5CD
:1005F0004FF000004FF00001AFF30080BDE81C4059
:10060000704710B500F008F8006810BD10B504463A
:1006100000F002F8046010BD0048704798D4002034
:100620000048704798D400207546FFF7F9FFAE46A2
:1006300005006946534620F00700854618B020B5EE
:10064000FFF720FEBDE820404FF000064FF0000706
:100650004FF000084FF0000B21F00701AC46ACE86A
:10066000C009ACE8C009ACE8C009ACE8C0098D46D7
:10067000704710B50446AFF300802046BDE8104037
:10068000FFF7EBBD10B504F075FC04F041F810BDA8
:100690002DE9FE4F81468A4693461C4600BF00BFA7
:1006A000AAEB0900C617054600232946A1FB047CD6
:1006B00006FB04C205FB032164223846FFF7F3FD65
:1006C00005460E46012000FA0BF0C1172A46A0FB92
:1006D000027E01FB05E100FB06114FF4B47200231A
:1006E0003846FFF7E0FD0090009802900298BDE8C0
:1006F000FE8F000010B58AB004465B4800F0A4FAF3
:100700000121084603F0E2FD0121480603F0EEFD59
:1007100009220B21554801F021FC09220C215348E4
:1007200001F01CFC08A801F049FC4FF4C0500890EF
:1007300002208DF8240003208DF8250000208DF87C
:10074000260001208DF8270008A9484801F09EFBEB
:1007500005A800F0B4FC00208DF81A0001208DF8E7
:100760001B0000208DF81C008DF81D008DF81E0068
:1007700001208DF81F0000208DF81600A4F57430BC
:100780009038F8B1A0F57430903870B13849084409
:1007900028BB00208DF8170008208DF818000320D2
:1007A0008DF81900ADF814001AE000208DF817003C
:1007B00008208DF8180003208DF819000620ADF8E8
:1007C00014000DE000208DF8170008208DF81800A7
:1007D00003208DF819000C20ADF8140000E000BFD4
:1007E00000BF05A9204800F068FB00208DF80E002E
:1007F0008DF80F0001208DF810000020ADF80400E6
:10080000ADF80600ADF80800ADF80A00ADF80C0030
:1008100001208DF8110001A800F032FA0122022116
:10082000114800F041FB14208DF8000002208DF8E3
:10083000010001208DF802008DF80300684602F0E7
:10084000E3FF13208DF8000003208DF80100022043
:100850008DF8020001208DF80300684602F0D4FFF5
:1008600000200AB010BD00000064004000000240FB
:10087000E05EF8FF10B588B0002202211A4800F0AF
:1008800013FB03AA0021184800F0A1FB039880B2D3
:10089000ADF800009DF81500022803D101208DF865
:1008A000020005E09DF8150010B900208DF8020047
:1008B0009DF816008DF80300002405E00DF11700E7
:1008C000015D01A80155641C9DF81600A042F5DCED
:1008D0006946064806F0ACFA01220221024800F0FF
:1008E000E3FA08B010BD0000006400401832002098
:1008F00010B586B001AC0121114800F045FA01287D
:100900001CD1104807F08CF878B921460D4807F043
:100910004AFA21460A4800F0E2FB04280AD10A48B4
:100920000068401C0849086004E0002201210448D6
:1009300000F0BAFA0121024800F032F906B010BD09
:100940000064004078CA0020E07F002010B58AB023
:1009500004465A4800F078F90121022003F0B6FC61
:100960000121880603F0C2FC09220C21544801F041
:10097000F5FA09220D21524801F0F0FA08A801F019
:100980001DFB4FF44050089002208DF824000320F6
:100990008DF8250000208DF8260001208DF8270015
:1009A00008A9474801F072FA05A800F088FB00206A
:1009B0008DF81A008DF81B008DF81C008DF81D00B5
:1009C0008DF81E0001208DF81F0000208DF8160004
:1009D000A4F574309038F8B1A0F57430903870B147
:1009E0003849084428BB00208DF8170008208DF8EE
:1009F000180003208DF81900ADF814001AE000204B
:100A00008DF8170008208DF8180003208DF81900C4
:100A10000620ADF814000DE000208DF81700082026
:100A20008DF8180003208DF819000C20ADF8140083
:100A300000E000BF00BF05A9204800F03EFA0E20EC
:100A40008DF80E0000208DF80F0001208DF81000A9
:100A50000020ADF80400ADF80600ADF80800ADF8D0
:100A60000A00ADF80C0001208DF8110001A800F07B
:100A700007F901220221114800F016FA40208DF8F2
:100A8000000002208DF8010001208DF802008DF891
:100A90000300684602F0B8FE3F208DF800000320F6
:100AA0008DF8010002208DF8020001208DF803006E
:100AB000684602F0A9FE00200AB010BD00680040A0
:100AC00000040240E05EF8FF10B588B00022022169
:100AD0001A4800F0E9F903AA0021184800F077FA53
:100AE000039880B2ADF800009DF81500022803D1EC
:100AF00001208DF8020005E09DF8150010B90020D6
:100B00008DF802009DF816008DF80300002405E022
:100B10000DF11700015D01A80155641C9DF8160038
:100B2000A042F5DC6946064806F082F9012202215E
:100B3000024800F0B9F908B010BD0000006800409C
:100B40004864002010B586B001AC0121114800F0C6
:100B50001BF901281CD1104806F062FF78B9214624
:100B60000D4807F020F921460A4800F0B8FA042899
:100B70000AD10A480068401C0849086004E00022C5
:100B80000121044800F090F90121024800F008F822
:100B900006B010BD006800407CCF0020E47F00203C
:100BA000B1F5007F3AD00FDC202928D006DC0129DE
:100BB0001CD004291DD0082940D11DE0402921D096
:100BC000B1F5807F3AD126E0B1F5004F31D006DC97
:100BD000B1F5806F25D0B1F5006F2FD124E0B1F5CC
:100BE000803F12D0B1F5003F28D111E0154A826054
:100BF00025E00822C26022E01022C2601FE0082225
:100C000002611CE01022026119E00822426016E035
:100C10001022426013E00422426010E0042242608D
:100C20000DE0042242600AE0002282610422426058
:100C300005E0002282610422426000E000BF00BFA4
:100C4000704700000101010010B504460B488442C2
:100C500009D10121480603F059FB00214FF0007033
:100C600003F054FB08E00121880603F04FFB00214C
:100C70004FF0806003F04AFB10BD000000640040AC
:100C800010B50021837A012202FA03F13D4A12686D
:100C900042F001023B4B1A603A4A1C3212688A4306
:100CA000384B1C331A60027BCAB9364A0C321268C0
:100CB0008A43344B0C331A604288C38842EA0343A8
:100CC000304A4032847A42F834300288838842EADB
:100CD00003432C4A4032847A02EBC4025360027B05
:100CE000012A19D1274A0C3212680A43254B0C33CA
:100CF0001A604288038842EA0343224A4032847AD7
:100D000042F83430C288838842EA03431D4A4032A5
:100D1000847A02EBC4025360C27A3AB9194A121DAE
:100D200012688A43174B1B1D1A6006E0154A121DF4
:100D300012680A43134B1B1D1A60028932B9114A0B
:100D4000143212688A430F4B14331A600289012A45
:100D500006D10C4A143212680A430A4B14331A6043
:100D6000427B012A06D1074A1C3212680A43054B0E
:100D70001C331A60034A126822F00102014B1A6008
:100D800010BD00000066004070B504460D46002608
:100D900060692840002871D0B5F5807F5CD010DCF8
:100DA000082D35D006DC012D20D0022D24D0042DB5
:100DB00072D127E0102D31D0202D35D0402D6BD1B0
:100DC00038E0B5F5004F60D009DCB5F5007F49D0BB
:100DD000B5F5806F4CD0B5F5006F5DD14FE0B5F53E
:100DE000803F2DD0B5F5003F56D12FE0A0682D49AA
:100DF00000F0F4FC064651E0E068032100F0EEFC50
:100E000006464BE0E068082100F0E8FC064645E0B5
:100E1000E068102100F0E2FC06463FE02069032173
:100E200000F0DCFC064639E02069082100F0D6FC21
:100E3000064633E02069102100F0D0FC06462DE084
:100E40006068082100F0CAFC064627E060681021AF
:100E500000F0C4FC064621E0A069012100F0BEFCC0
:100E600006461BE0A069022100F0B8FC064615E02A
:100E7000A069042100F0B2FC06460FE00FE0A06973
:100E8000702100F0ABFC064608E06068042100F029
:100E9000A5FC064602E0FFE7002600BF00E00026B2
:100EA000304670BD010101001AB143690B43436133
:100EB00002E043698B434361704730B5024600202E
:100EC0000023146824F002041460146844F0010440
:100ED000146000E05B1C546804F001041CB94FF678
:100EE000FF74A342F6D1546804F001040CB9002049
:100EF0006CE08C79012C04D1146844F080041460F7
:100F000003E0146824F080041460CC79012C04D12F
:100F1000146844F04004146003E0146824F04004B2
:100F200014600C7A012C04D1146844F0200414607D
:100F300003E0146824F0200414604C7A012C04D1DE
:100F4000146844F01004146003E0146824F01004E2
:100F500014608C7A012C04D1146844F008041460E5
:100F600003E0146824F008041460CC7A012C04D146
:100F7000146844F00404146003E0146824F00404CA
:100F800014608C78A407CD7844EA05640D7944EAAE
:100F900005444D7944EA05540D886D1E2C43D461F7
:100FA000146824F001041460002300E05B1C546802
:100FB00004F001041CB14FF6FF74A342F6D154684B
:100FC00004F001040CB1002000E0012030BD10B598
:100FD00000F5D87303EB01131B6803F004031372CD
:100FE000137A53B900F5D87303EB01131B6840F271
:100FF000FF7404EA5353136009E000F5D87303EB60
:1010000001131B686FF0604404EAD303536000F5DA
:10101000D87303EB01131B6803F00203537200F54E
:10102000D87303EB01135B6803F00F03937200F5B1
:10103000D87303EB01135B681B0AD37400F5D873F4
:1010400003EB01139B68D37200F5D87303EB011314
:101050009B681C0A147300F5D87303EB01139B689B
:101060001C0C547300F5D87303EB01139B681B0E23
:10107000937300F5D87303EB0113DB68D37300F5AA
:10108000D87303EB0113DB681C0A147400F5D873E2
:1010900003EB0113DB681C0C547400F5D87303EBED
:1010A0000113DB681B0E937421B9C36843F020035E
:1010B000C36003E0036943F02003036110BD002116
:1010C0008171C171017241728172C1728170C1708E
:1010D000032101710221417101210180704710B586
:1010E00002460020936803F08063B3F1806F00D163
:1010F00010E0936803F00063B3F1006F01D10120A9
:1011000008E0936803F08053B3F1805F01D10220BF
:1011100000E00420042874D002F5C07303EB001330
:101120001B6803F0010402F5C07303EB00131C609D
:101130000B7A7BB94B7A0C8843EA445302F5C074AE
:1011400004EB00142468234302F5C07404EB00147C
:10115000236010E00B7A4C6843EAC4034C7A2343C3
:1011600002F5C07404EB00142468234302F5C07434
:1011700004EB001423608B7A03F00F038B7202F5EB
:10118000C07303EB00135B6823F00F0402F5C07318
:1011900003EB00135C6002F5C07303EB00135B68A4
:1011A0008C7A234302F5C07404EB001463608B7BDC
:1011B0001C064B7B44EA03440B7B44EA0323CC7AB2
:1011C000234302F5C07404EB0014A3608B7C1C065F
:1011D0004B7C44EA03440B7C44EA0323CC7B23434B
:1011E00002F5C07404EB0014E36002F5C07303EB76
:1011F00000131B6843F0010402F5C07303EB0013F6
:101200001C6010BD10B5144A1449154803F0CEF8FF
:10121000144A1549124803F0C9F8144A14491048F1
:1012200003F0C4F8134A14490D4803F0BFF8134AF9
:1012300013490B4803F0BAF8124A1349084803F05F
:10124000B5F8124A1249064803F0B0F8114A12499B
:10125000034803F0ABF810BDC1B6000800003F60C2
:1012600048640020F1B6000800004160D9B60008CB
:1012700000006060A9B6000800006460F7B60008CE
:1012800000007A60EBB6000800008160DFB600085D
:1012900000008360E5B600080000846010B50324F8
:1012A00018480068048018481649C1F8CC08002086
:1012B0000CE04FF0FF3200EB4001C1EB401311494D
:1012C000243101EB8301A1F86E20401C1028F0DBD3
:1012D0000C49B1F824090D4906F074FA03F044FFF3
:1012E0000020084989690880064A52691188054A20
:1012F000506802F0E7FAFFF785FF002101480AF085
:10130000EBFA10BD486400200068004020A10700EF
:101310003EB5044601200321064A074BCDE90021D2
:101320000290002242F60171204605F03FFC0020A9
:101330003EBD000008800020C04D002010B58CB0DC
:1013400004462046FFF7E4FF7D480B9042F2107000
:101350000A90012003217B4A0BABCDE900210290CA
:10136000002241F20501204605F020FC0120032166
:10137000744A0AABCDE900210290002241F2060135
:10138000204605F013FC2068008800F5C0600B9033
:101390002068008800F5B0600A90012009900321C0
:1013A000684A0BABCDE90021029002464FF4905100
:1013B000204605F0FBFB01200321624A0AABCDE980
:1013C0000021029002224FF49051204605F0EEFBDE
:1013D000012003215C4A09ABCDE9002102900A46B5
:1013E0004FF49051204605F0E1FB40F201600B9074
:1013F00040F281500A90012009900321514A0BAB21
:10140000CDE90021029002464FF49451204605F0A8
:10141000CDFB012003214B4A0AABCDE9002102900C
:1014200002224FF49451204605F0C0FB0120032115
:10143000454A09ABCDE9002102900A464FF4945188
:10144000204605F0B3FB4FF4D0700B90FE200A90BD
:101450003E4809903E48089001200321394A0BABD1
:10146000CDE90021029002464FF4A051204605F03C
:101470009DFB01200321344A0AABCDE900210290F3
:1014800002224FF4A051204605F090FB01200321D9
:101490002C4A09ABCDE90021029002464FF4B0512D
:1014A000204605F083FB01200321264A08ABCDE945
:1014B0000021029002224FF4B051204605F076FB45
:1014C0004FF428700790FE2006902248059022488D
:1014D0000490012003211B4A07ABCDE900210290B3
:1014E000024641F20141204605F060FB0120032144
:1014F000154A06ABCDE900210290022241F20141DA
:10150000204605F053FB012003210E4A05ABCDE92F
:1015100000210290024641F20161204605F046FB9F
:1015200001200321074A04ABCDE9002102900222E9
:1015300041F20161204605F039FB0CB010BD0000FE
:1015400080000040088000200080002020006460AF
:1015500020006C6010003F601000416002469F2A2E
:1015600004D1087808B10348704700BF00BF0020CD
:10157000FAE700003000090610B5114A1149124877
:1015800002F014FF114A12490F4802F00FFF114AEE
:1015900011490D4802F00AFF104A4FF0C0510A48A5
:1015A00002F004FF002406E00D4821180D4A064809
:1015B00002F0FCFE641CB4F5807FF5DD10BD000078
:1015C000293A000800000160183200209538000810
:1015D00000000360AD3800080000056029530008D2
:1015E0000000C160097A000810B505F095FF0446B7
:1015F0001948046019480068048019481749C1F85F
:10160000CC0800200CE04FF0FF3200EB4001C1EBB2
:1016100040131249243101EB8301A1F86E20401CD4
:101620001028F0DB0D49B1F824090E4906F0CAF87C
:1016300003F0D1FD0120094989690880074A5269F0
:101640001188064A506802F03DF9FFF795FF002126
:1016500002480AF041F910BD0000002018320020B5
:101660000064004020A107003EB50446012003218C
:101670003E4A3F4BCDE900210290002242F619710B
:10168000204605F093FA0120384ACDE90020394B75
:10169000002242F630710290204605F087FA0120C0
:1016A000324ACDE90020344B002242F631710290DB
:1016B000204605F07BFA01202C4ACDE900202F4B73
:1016C000002242F632710290204605F06FFA0120A6
:1016D0000321264A2A4BCDE900210290002242F63E
:1016E0003371204605F062FA0120204ACDE900203E
:1016F000244B002242F634710290204605F056FA3F
:101700000120214ACDE90020204B002242F624711D
:101710000290204605F04AFA01200321134A1C4B8F
:10172000CDE900210290002242F62571204605F005
:101730003DFA01200321144A164BCDE90021029005
:10174000002243F20101204605F030FA0120032176
:101750000D4A104B1B1DCDE900210290024643F2B9
:101760000101204605F022FA00203EBD0480002041
:101770009C290020BC290020DC290020FC29002015
:101780001C2A00203C2A0020088000205C2A00201F
:101790007C2A00202029002003460020704710B535
:1017A000FFF722FFFFF77AFD10BD000010B50446D9
:1017B0000120094908720720887046F2810048819B
:1017C000002008730846046103F016F908B1FF20F1
:1017D00010BD0020FCE700007C81002002460020B4
:1017E00002EA01030BB1012000E000207047000075
:1017F00010B50020184948720021174880F87D1064
:1018000080F89613012180F87C10002180F898134D
:101810004FF443718030FEF711FE4FF440610F48E2
:10182000FEF70CFE00210C48C0F89013A0F89413AA
:10183000A0F89E13A0F89C1380894FF4FA6191FBE5
:10184000F0F105488167B0F8740020F01000103006
:101850000149A1F8740010BDFC810020A48500207E
:1018600010B50C48C08998B101200B4908720620B8
:10187000887046F24000488100200873802008618B
:10188000084603F0B9F808B1FF2010BD0020FCE7BE
:1018900000BFFAE7908100207C81002070B50446EB
:1018A0000D46D4F8880750F82500C0F307464FF0DE
:1018B000FF30D4F88C1721F81500012104F29C7038
:1018C000815531462046D4F89827904770BD2DE9C0
:1018D000FF4FDDE90D456CE0A5EB020A4FFA8AF3F4
:1018E000002B04DD91F800A00AFA03FA05E091F854
:1018F00000A0C3F1000B4AFA0BFA0AF0FF0C002B10
:1019000002DDC5F1080A01E0C2F1080A0AF0FF0889
:10191000804501DD824600E0C246564605EB060BD7
:101920004FF0FF0A0AFA0BFAC5F1080E4FF0FF0B51
:101930004BFA0EFB4AEA0B0A0AF0FF072CEA0709EA
:1019400094F800A00AEA070A84F800A094F800A01E
:101950004AEA090A84F800A002EB060A0AF0FF0A24
:101960005246BAF1070F0BDD0022DDF80CA0BAF1E8
:10197000000F02D04FF0FF3A01E04FF0010A51444E
:1019800005EB060A0AF0FF0A5546BAF1070F0BDD10
:101990000025DDF83CA0BAF1000F02D04FF0FF3A6D
:1019A00001E04FF0010A5444A0EB060A0AF0FF00E0
:1019B00000BF002890DCBDE8FF8F70B505460E46DD
:1019C000144600220221D4F8CC08FFF76DFA681CF7
:1019D00080B1B4F9EC09A84205D1B4F8EC09401E75
:1019E00000B2A4F8EC09002105EB450204F62C1026
:1019F00000F832104FF0FF3070BD000070B52DEDD3
:101A0000108B88B0044600259FEDA80BB0EE408AED
:101A1000F0EE608A9FEDA50BB0EE409AF0EE609A72
:101A20009FEDA20B8DED060B9FEDA00BB0EE40CA13
:101A3000F0EE60CA9FED9D0BB0EE40AAF0EE60AAFA
:101A40009FED9A0BB0EE40BAF0EE60BA9FED970BA7
:101A50008DED040B9FED950B8DED020B9FED930B20
:101A60008DED000B93480069642190FBF1F6304640
:101A70000AF08FFB41EC1A0B8E48C068642190FB82
:101A8000F1F630460AF085FB41EC1D0BB0EE4D1A25
:101A9000F0EE6D1AB0EE4A0AF0EE6A0A00F098FA1B
:101AA000B0EE40BAF0EE60BA82484068642190FB24
:101AB000F1F630460AF06DFB41EC1D0B53EC1B2B8D
:101AC0000AF0F0F841EC1B0B9FED7B0B53EC102B55
:101AD00051EC1A0B0AF088FB41EC1E0B9FED780BC2
:101AE00053EC102B0AF092F941EC1D0BB0EE4D0AAD
:101AF000F0EE6D0A04F08CF8B0EE408AF0EE608AE9
:101B00009FED6D0B53EC102B51EC1A0B0AF06CFB94
:101B100041EC1E0B9FED6A0B53EC102B0AF076F98B
:101B200041EC1D0BB0EE4D0AF0EE6D0A04F00CF81E
:101B3000B0EE409AF0EE609A9FED5F0B53EC102BE5
:101B400051EC1B0B0AF050FB41EC1E0B9FED5C0BA4
:101B500053EC102B0AF05AF941EC1D0BB0EE4D0A74
:101B6000F0EE6D0A04F054F88DED060B9FED520B6C
:101B700053EC102B51EC1B0B0AF036FB41EC1E0B07
:101B80009FED4F0B53EC102B0AF040F941EC1D0B6D
:101B9000B0EE4D0AF0EE6D0A03F0D6FFB0EE40CA8B
:101BA000F0EE60CA4848B0F90A00642190FBF1F6F3
:101BB00030460AF0EEFA41EC1F0B53EC182B0AF0FA
:101BC00013FB41EC1D0B4048B0F90E00642190FB63
:101BD000F1F630460AF0DDFA41EC1F0B53EC192BFD
:101BE0000AF002FB41EC1E0B53EC1D2B0AF05AF8D5
:101BF000CDE904013548B0F90A00642190FBF1F603
:101C000030460AF0C6FA41EC1F0B53EC182B0AF0D1
:101C1000EBFA41EC1D0B2D48B0F90E00642190FB4E
:101C2000F1F630460AF0B5FA41EC1F0B53EC192BD4
:101C30000AF0DAFA41EC1E0B53EC1D2B0AF032F8D5
:101C4000CDE9020160000AF0A4FA41EC1F0B53EC4D
:101C50001C2B0AF0C9FA41EC1E0B53EC192B0AF0AD
:101C6000C3FA41EC1D0B53EC182B0AF0BDFACDE979
:101C700000019DED020B53EC102B9DED040B51EC7C
:101C8000100B0AF00FF841EC1E0B9DED000B53EC0E
:101C9000102B0AF0B3FB41EC1D0B0AF04BFA05B216
:101CA000284608B0BDEC108B70BD0000000000009D
:101CB0000000000004C900204AD8124DFB21094051
:101CC0000000000000806640C8800020788000206E
:101CD00010B5044600F022F8012002F021FF10BDEB
:101CE00010B501200B49087246F2400048810620D9
:101CF000887040F20F10084948810846408905491C
:101D00000861084602F078FE08B1FF2010BD0020EF
:101D1000FCE700007C8100209081002040F6B83074
:101D2000044948644FF4FA608864C86440F6B830E7
:101D3000086570479081002010B501200B4908729A
:101D400046F24000488106208870094948810846CB
:101D5000408906490861084602F04EFE08B1FF209E
:101D600010BD00200249087100BFF9E77C81002006
:101D70009081002010B501200C49087246F2400005
:101D80004881062088700F2009494881084640890B
:101D900006490861084602F02FFE08B1FF2010BD79
:101DA0000120034908710020F9E700007C81002030
:101DB000908100200BA00F490860002088820EA0AF
:101DC00010490860282008810A2088820EA0124944
:101DD00008600A200B49888210A0144908600A2074
:101DE0008882704748616E644772697046726F639B
:101DF00065000000288000205772697374466F7276
:101E00006365000078800020466F726561726D46E0
:101E10006F72636500000000C88000205570706517
:101E20007261726D466F7263650000001881002058
:101E30001CB50121052002F049FA00208DF80400AC
:101E400003208DF8050001208DF807004002009066
:101E500069460C4800F01AF84FF48070009069460B
:101E6000094800F013F84FF40070009069460648E6
:101E700000F00CF84FF4806000906946024800F0D2
:101E800005F81CBD0008024000000240F0B50A46FB
:101E900000210023002400BF3DE0012505FA01F3E5
:101EA000156805EA03049C4234D105684F000326F7
:101EB000BE40B543056015794E00B5400668354310
:101EC00005601579012D02D01579022D16D185688E
:101ED0004F000326BE40B543856055794E00B5409E
:101EE000866835438560456801268E40B543456068
:101EF000456896798E40B6B235434560C5684F0057
:101F00000326BE40B543C560D5794E00B540C668CE
:101F10003543C560491C1029BFD3F0BD1CB5012154
:101F2000042002F0D3F94FF4E050009001208DF826
:101F3000040000208DF8060003208DF80500012024
:101F40008DF8070069460448FFF7A0FF4FF4E05101
:101F5000014800F02FF81CBD00080240F0B5002336
:101F600000244D07ED0E02FA05F3CE1000F1200516
:101F700055F826504E07F70E0F26BE40B543CF103A
:101F800000F1200646F82750CE1000F1200555F844
:101F9000265045EA0304CE1000F1200545F82640FE
:101FA000F0BD0246002013690B400BB1012000E098
:101FB0000020704741837047018370474FF6FF71DF
:101FC00001600021017141718171C1717047000090
:101FD00010B52DED108BB0EE409AF0EE609AB0EE99
:101FE000418AF0EE618A9FED410BB0EE40AAF0EE1F
:101FF00060AA9FED3E0BB0EE40BAF0EE60BA53EC33
:10200000182B9FED3C0B51EC100B0AF057F806D142
:102010009FED3A0BB0EE40AAF0EE60AA03E0B0EEFE
:1020200048AAF0EE68AA9FED370B53EC102B51EC49
:10203000190B0AF0D9F841EC1F0B9FED340B53EC50
:10204000102B09F0E3FE41EC1E0BB0EE4E0AF0EE51
:102050006E0A03F0DDFDB0EE40CAF0EE60CA9FEDFF
:10206000290B53EC102B51EC1A0B0AF0BDF841EC84
:102070001F0B9FED260B53EC102B09F0C7FE41EC14
:102080001E0BB0EE4E0AF0EE6E0A03F025FEB0EE27
:1020900040DAF0EE60DA53EC1C2B51EC1D0B0AF029
:1020A000A3F841EC1B0BB0EE4B0AF0EE6B0A03F009
:1020B000DFFBB0EE40DAF0EE60DA9FED140B53EC8C
:1020C000102B51EC1D0B0AF08FF841EC1C0B9FED0F
:1020D0000D0B53EC102B09F099FE41EC1B0BB0EEED
:1020E0004B0AF0EE6B0ABDEC108B10BD0000000037
:1020F0000000000000000000008056409A99999965
:10210000997956404AD8124DFB2109400000000041
:102110000080664010B501200849087204208870CC
:1021200046F26400488100200873084602F0E8FB8C
:1021300010B90248006910BD0020FCE7688100204A
:1021400010B501200D490872062088704FF4085020
:10215000488101200873084602F0D2FB48B90748BD
:1021600000690A2190FBF1F000B20549C880002007
:1021700010BD00200249C880FF20F9E768810020D7
:102180009081002010B501200A490872062088704D
:1021900046F24100488100200873084602F0B0FB77
:1021A00028B90448008A04498881002010BDFF2016
:1021B000FCE70000688100209081002070B500BF1E
:1021C00000BF00BF00BF10211148FFF7F3FE05203C
:1021D00002F082FAFF2002F07FFA0446FF2002F0AC
:1021E0007BFA00EB042084B2FF2002F075FAFF2096
:1021F00002F072FA10210648FFF7DEFE48F6A04012
:1022000060434FF6FF7101EA2045284670BD00008B
:102210000000024070B505460024FFF7CFFF441BC5
:10222000002C02DA48F6A040044448F6A04094FB93
:10223000F0F100FB1144204670BD000070B504466B
:102240000E46D4F82408008860B3002527E004F285
:102250009C70405D0F2820D020680088A8421CD0C8
:1022600004F62C00405D00280BDCD4F8200820B1D7
:1022700029462046D4F820289047012104F29C707A
:10228000415504F62C00405D401EC1B204F62C00FE
:1022900041552946204605F089FC681CC5B2802DB1
:1022A000D5DB0EE0B4F91C082246AFF26F01FFF750
:1022B00084FBA4F81C0801220221D4F8CC08FEF704
:1022C000F3FD70BD70B5002400251848C46CD0F82B
:1022D000A85317484460002181609FED160A80EDE5
:1022E000030A05614161B1EE000A80ED060A011D95
:1022F00000F58050C0F80818A0F57F6000F57F61F8
:10230000C1F810080948808900EE100AB8EE400AAA
:10231000094880ED000A0123002211469FED070ABB
:10232000034801F081FF012070BD0000FC81002006
:102330000C9E002000000000EC0000200AD7233C87
:1023400010B50020FFF75AFB5F494883B1F91A0026
:10235000002801DB014600E041425B4A128B9142BA
:1023600012DD5A480088401C58490880002058490E
:102370000880564800880A2817DB00205349088047
:1023800001205149087410E051480088401C504910
:10239000088000204D4908804D480088052804DB4E
:1023A00000204B490880484908744748007C0028B1
:1023B0007ED04549B1F91A00002801DB014600E052
:1023C0004142414A128B891A3F4AD38B128C9A1A86
:1023D0005143404A13893C4A128B9A1A91FBF2F2FC
:1023E0003949098C11448AB237494A84B1F91A0033
:1023F000002801DB014600E04142334A128B914242
:102400001CDD3149B1F91A00002801DB014600E06A
:1024100041422D4A128B891A2B4A536A926A9A1AA0
:1024200051432C4A1389284A128B9A1AB1FBF2F2B3
:102430002549896A0A442449CA6202E000212248E7
:10244000C1622148B0F91A00002814DD00211E489D
:102450000177416C408C01441B484164416C006B26
:10246000A0F5006081421ADD1748006BA0F50060FE
:102470001549486413E0012113480177416C408CF1
:10248000091A11484164416C406B00F5805081424B
:1024900005DA0D48406B00F580500B4948640A4846
:1024A000426B016B443001F0D9FE074AD16A00E06B
:1024B00004E0506C3F2201F0D9FB04E00248C16CFB
:1024C0004164FFF70DFC10BDFC810020E6000020F8
:1024D000E80000207880002010B52DED048B00244A
:1024E000FFF768FC00F068FDFFF74CFE5548C08917
:1024F00020B95448007BC0F3C00098B1FFF7B0F991
:10250000142004F031FE50480088401C4E490880D9
:10251000084600880A2803DAFF20BDEC048B10BDB2
:10252000FF20FAE7FFF726FC0A2004F01DFEFFF764
:10253000D7FB00204549C87288720A208881FFF7BE
:10254000E9FD4249C86445F2D43140488166002023
:10255000FFF760FE3D49886EFFF75CFE3B49C866A9
:10256000FF20C8710846C06E3949C8600A2004F0CF
:10257000FBFD42F65C313548C16564210166416668
:102580000146C86C09F005FE41EC190B9FED310BBB
:1025900053EC102B09F086FB41EC180B09F0CAFD37
:1025A0002A490863C86C09F0F4FD41EC190B9FED52
:1025B0002B0B53EC102B09F075FB41EC180B09F0B9
:1025C000B9FD224948634FF41661204841628910E1
:1025D0008162C1624FF4C861C18349100184022144
:1025E00001832048808A801C81B21848C182002063
:1025F0001649087401201349887000200870134898
:10260000006B08611148406B48611048C06A48631C
:102610000E48406A88630D48C06C486202E0094871
:10262000FFF756FB074800780028F8D00748808855
:1026300020F00100401C05498880FFF79BFB2046E5
:102640006BE7000090810020E0000020FC8100206A
:1026500004C900205555555555550241000000004C
:10266000000000001881002010B53449886EFFF783
:10267000D1FD3249C8660846C06E3149C860084677
:102680000069304988612E4880682F4988612F4849
:10269000007BC0F3400008B9FFF76CFB2748807A45
:1026A000C22835D00BDCA12823D003DC80B155280B
:1026B0003DD133E0AA2834D0B22838D11CE0CC2850
:1026C00023D0CE2830D0E52819D0F6282FD119E014
:1026D0001E488078012809D001201C4988700020FC
:1026E000164948721949887802F01AFA00F0ECF994
:1026F00021E000F02DF81EE0FFF722FE1BE000F0C5
:1027000065FA18E000F0A4F815E000F08DF812E08A
:102710000A4A516B106B00F063FB0CE0FFF70CFBF7
:1027200009E0FFF727FB06E0FFF79AF803E0002037
:102730000249887200BF00BF10BD0000FC8100206C
:1027400004C90020E8B60020B0B600209081002027
:1027500010B500243248C16BC06E6430814205DC84
:102760002F48C16BC06E6438814238DA2C48C16B87
:10277000C06D814204DC2A48C16B006E814205DADB
:102780002748C16EC163FFF7ABFA10BD2448016C46
:10279000C06B814223D02248C16B01640246928FF4
:1027A00011B20246B2F86C2010B278230C22FDF769
:1027B0006FFF1B4991F9071000FB01F41848C06C2A
:1027C0000119174841640246D16A506C3F2201F05A
:1027D0004DFA1448808920F480601249888110489D
:1027E000C16A806A814203D20D48816AC16207E0F2
:1027F0000B48C16A406A814202D90948416AC162F4
:1028000008488089C0F3802030B9054AD16A506CED
:102810003F2201F02BFA01E0FFF762FA00BFB4E7B4
:10282000FC8100209081002010B50748007B00F05B
:102830000F0008B9FFF79EFA044AD16A906C3F2254
:1028400001F014FA10BD000090810020FC810020EE
:1028500010B59648B0F8720000287CD0B2281BD082
:10286000B52879D0CE2878D14FF443718F48803085
:10287000FDF7E4FD4FF440618D48FDF7DFFD0021D9
:102880008A48A0F89E13A0F89C1380F8971380F84C
:102890009613A0F8721007E1844890F89803002876
:1028A00070D1824890F89703002876D17F48B0F81D
:1028B0009C03022868DB7D48B0F88C03012863D1B3
:1028C000002434E004EB4403784A803232F82320B9
:1028D00011B2764AB2F8642010B278230C22FDF7C8
:1028E000D7FE7249096D014404EB4402704840F878
:1028F000221004EB4401A0F54A7000EB810004EBC8
:10290000440241686A4800EB8200416004EB4401E4
:102910006648803000EB810090ED020A04EB440130
:10292000634800EB810080ED020A601C84B25F48BE
:10293000B0F89C03A042C5DC00215C48A0F88C13D1
:10294000012180F89713B0F8740020F00401574873
:10295000A0F8741002E0A6E062E0A3E0B0F8740012
:1029600020F010015148A0F87410B0F89C03401EEC
:1029700083B2002211469FED4F0A4D48001F01F01F
:1029800053FC0AE047E0FFE74848B0F8740020F045
:102990000400001D4549A1F87400444890F89703CD
:1029A00001281FD1414890F87400C0F38000C8B9D5
:1029B0003E4890F87400C0F3001098B93E48807803
:1029C000082805D008203C498870887802F0A8F8CB
:1029D00000F0A8FE0021354880F8A51300203749F3
:1029E000487018E00020314981F8A40300213448E0
:1029F00080F8101C2D4880F89813B0F8740020F06F
:102A000008012A48A0F87410B0F8740020F02001E2
:102A10002648A0F8741000212448A0F8721043E062
:102A2000274890F8100C90B12048806F78B91F4863
:102A300090F87400C0F3401048B101201F4948705D
:102A400001F58050D0F818181848416523E0174860
:102A500090F8A40390B11548806F78B9134890F8A6
:102A60007400C0F3C00048B10121104880F8A513DC
:102A70001448D0F818180D4841650CE001210B48A6
:102A800080F8A51301200D4948700021074880F8FF
:102A90009813C16C41650021044880F89613A0F892
:102AA000721001E000BF00BF00BF10BDFC8100201C
:102AB000A48500200AD7233C908100200C9E002092
:102AC000FC910020A095002010B52DED088B00246E
:102AD0003848C16E406E9638814205DB3548C16E7C
:102AE000406E963081421CDD324AB2F8642011B249
:102AF000304AB2F86C2010B278230C22FDF7C8FDE2
:102B00002C4991F9071000FB01F42A48C06C011907
:102B1000284841640246D16A506C3F2201F0A6F871
:102B200045E0244991F9070009F033FB41EC1B0B08
:102B30009FED210B53EC102B09F056FB41EC190BC8
:102B40001C49C86C09F025FB41EC1A0B53EC192BFE
:102B500009F0A8F841EC180B09F0ECFA15490863E4
:102B600091F9070009F015FB41EC1B0B9FED140BCD
:102B700053EC102B09F038FB41EC190B0D49C86CD4
:102B800009F007FB41EC1A0B53EC192B09F08AF8FA
:102B900041EC180B09F0CEFA064948630846006B71
:102BA000094908610348406B4861FFF799F8BDEC9B
:102BB000088B10BDFC8100205555555555550241D7
:102BC00000000000000000009081002010B57F4848
:102BD00090F87D0070B97E488078012808D00120E7
:102BE0007B498870887801F09BFF00207749487204
:102BF000FFF7A6FB7548B0F87200B22855D006DC86
:102C000000287BD0A1280DD0A52878D133E0B528A5
:102C100076D0CE28F9D1FEF7EBFD00216B48A0F865
:102C20007210D0E0694890F8740000F00100E8B933
:102C3000FEF7DEFD6548B0F8740020F00100401C8E
:102C40006249A1F874000121604880F87C1080F886
:102C5000A0130021A0F89E13C0F89013A0F89C13B5
:102C60005C48A0F80418594880F898130021574888
:102C7000A0F87210A7E05548806F38B1FFF730F820
:102C80005248806F401E514988679CE000214F48A0
:102C900080F87C10B0F8740020F001014B48A0F8D7
:102CA00074100021A0F872108DE0484890F8980345
:102CB00018BB464890F87D00012822D1434890F87F
:102CC0007400C0F38000E0B9404890F87400C0F38D
:102CD0000010B0B93E488078082805D008203C494B
:102CE0008870887801F01CFF00F01CFD0021374837
:102CF00080F8A5130020384948701BE062E060E0CE
:102D00001DE00020314981F8A4030021334880F8F8
:102D1000101C2E4880F89813B0F8740020F00801B9
:102D20002A48A0F87410B0F8740020F02001274859
:102D3000A0F8741000212548A0F8721043E027483D
:102D400090F8100C90B12148806F78B91F4890F826
:102D50007400C0F3401048B101201F49487001F5CC
:102D60008050D0F818181948416523E0174890F8AA
:102D7000A40390B11548806F78B9144890F8740096
:102D8000C0F3C00048B10121104880F8A5131148D4
:102D9000D0F818180D4841650CE001210B4880F867
:102DA000A51301200C4948700021084880F89813A9
:102DB000C16C41650021054880F89613A0F8721097
:102DC00001E000BF00BF00BF10BD0000FC8100207B
:102DD00090810020A09500200C9E0020FC910020F6
:102DE00070B504460D460026AC4202DA26462C4653
:102DF00035465C48007900F0010000287ED05A4832
:102E000000880328FAD05948007A002848D1584849
:102E100000880A280BDB002055490880514844648B
:102E20000246D16A506C3F2200F020FF04E0504877
:102E30000088401C4E4908804C488089C0F380209F
:102E4000D8B14848C16CA4F58050814215DB002000
:102E500047490880012045490872002141484182C4
:102E60004248808920F48060404988813E4800883B
:102E700040F001003C4908805BE03A48408A401C31
:102E800081B238484182408AB0F5FA6F51DDFA20AC
:102E9000344948800846808820F00200888048E055
:102EA000334800880A280BDB0020314908802D4870
:102EB00045640246D16A506C3F2200F0D7FE04E020
:102EC0002B480088401C2A49088028488089C0F384
:102ED0008020E0B12348C16C05F58050814216DCAA
:102EE0000020234908802149087200211D484182A1
:102EF0001E48808920F480601C4900E030E0888111
:102F00001948008840F002001749088011E0154870
:102F1000408A401C81B213484182408AB0F5FA6F62
:102F200007DDFA200F4948800846808820F002001B
:102F300088800D48007800F00300032810D100209D
:102F4000094908800021074841820020054948803E
:102F50000846808820F00200801C8880002088724B
:102F600070BD0000FC810020E40000209081002062
:102F7000E200002010B504462CB14FF480610C48EB
:102F8000FFF71AF804E04FF480610948FFF712F8E0
:102F90000848408828B14FF480510548FFF70CF8E5
:102FA00004E04FF480510248FFF704F810BD000020
:102FB00000080240FC81002010B501200A49087277
:102FC0000620887046F23F004881002008730846BA
:102FD00001F096FC28B90448008A0449C881002001
:102FE00010BDFF20FCE700006881002090810020D8
:102FF00070B52DED028B9FEDF90AB0EE408A0024EA
:10300000F748D0F8900340F6B83188425AD8F448CF
:10301000B0F89C03412855DAF148B0F87200A528B1
:1030200050D0EF48D0F89003401CED49C1F8900310
:103030000846C16CEB48B0F8040800EB4002EA48CF
:1030400040F82210E948016CE648B0F8040800EBAB
:103050004002E54800EB82004160E14890EDE40A5F
:10306000B8EE400AB0EE408A9FEDE10AC8EE000AD1
:10307000DC48B0F8040800EB4001DB4800EB8100BD
:10308000C0ED020AD648C16ED648B0F8040800EB7D
:103090004000D84A42F820109FEDD50AC8EE000A39
:1030A000D048B0F8040800EB4000114601EB800066
:1030B000C0ED020ACB48B0F80408401C81B2C948F0
:1030C000A0F80418C748B0F80408FF287DDD0024E4
:1030D000CBE004EB4402C44901EB820148680028BC
:1030E00001DB014600E041423C291DDABC4890F872
:1030F000A003D0B10021BA4880F8A013A0F89E1315
:10310000B0F89E232346B84900F56A7001F02EF905
:10311000B348B0F89E03401C81B2B148A0F89E139A
:10312000B0F89E13A0F89C139DE0002C51DDFF2CFD
:103130004FDA651E05EB4506AB4D05EB86056B6862
:10314000002B01DB1D4600E05D423C2D0DDD651CC2
:1031500005EB4506A44D05EB86056A68002A01DBF0
:10316000154600E055423C2D1BDC651E05EB45066F
:103170009D4D05EB86056968002901DB0D4600E0E1
:103180004D423C2D0DDC651C05EB4506964D05EBCF
:1031900086056868002801DB054600E045423C2DB5
:1031A00061DD8F48B0F89E2323468F4900F56A7091
:1031B00001F0DCF88A48B0F89E03401C81B28848D0
:1031C000A0F89E13B0F89E1300E06AE0A0F89C13EC
:1031D00049E0FF2C23D1611E01EB4102824901EB42
:1031E00082014868002801DB014600E041423C2999
:1031F00039DD7B48B0F89E2323467B4900F56A7091
:1032000001F0B4F87648B0F89E03401C81B27448CF
:10321000A0F89E13B0F89E13A0F89C1323E014BBF3
:10322000611C01EB4102704901EB820148680028F2
:1032300001DB014600E041423C2914DD6848B0F85A
:103240009E232346684900F56A7001F08FF86448B0
:10325000B0F89E03401C81B26148A0F89E13B0F8FC
:103260009E13A0F89C13601C84B25E48B0F804085A
:10327000A0423FF72EAF00215A48A0F804185A4840
:10328000D0F8F41B5648C0F8A81F5748D0F8F81BD0
:103290005348C0F8AC1F584890ED020A524880EDE0
:1032A000020A4F48D0F8900340F6B831884209D856
:1032B0004B48B0F89C03402804DA4948B0F8720043
:1032C000A5287AD14748B0F80408012876DB002405
:1032D000BBE004EB4402444901EB8201486800284A
:1032E00001DB014600E041423C2923DA1CBB611CA2
:1032F00001EB41023C4901EB82014868002801DBF7
:10330000014600E041423C2914DD3548B0F89E23D7
:103310002346354900F56A7001F028F83048B0F8C6
:103320009E03401C81B22E48A0F89E13B0F89E1355
:10333000A0F89C1387E0FF2C23D1611E01EB410212
:10334000294901EB82014868002801DB014600E0C1
:1033500041423C2977DD2248B0F89E23234622498A
:1033600000F56A7001F002F81D48B0F89E03401C99
:1033700081B21B48A0F89E13B0F89E13A0F89C13CE
:1033800061E0002C5FDDFF2C5DDA621E02EB420380
:10339000154A02EB830252683C2A01DD012200E05B
:1033A00000227AB1621C02EB42030F4A02EB830255
:1033B0005168002903DB0A4602E00BE188E04A423B
:1033C0003C2A2BDC621E02EB4203074A02EB83021B
:1033D00052683C2A12DD012211E0000000000000CA
:1033E000FC810020A0950020A49100209081002065
:1033F0000000C84220B70020989D002000226AB932
:10340000621C02EB4203754A02EB830250680028FB
:1034100001DB024600E042423C2A14DD7048B0F86D
:103420009E2323466D4900F56A7000F09FFF6C48AB
:10343000B0F89E03401C81B26948A0F89E13B0F812
:103440009E13A0F89C13601C84B26648B0F8040870
:10345000A0423FF73EAF1FED1F0A614880EDEC0A26
:103460006048B0F80408401E00EB40015B4850F88B
:1034700021105B48B0F89E0300EB40025A4840F828
:10348000221000215648B0F89E0300EB4002564837
:1034900000EB820041605348B0F80408401E00EB86
:1034A00040014E4800EB810090ED020A4C48B0F814
:1034B0009E0300EB40014C4800EB810080ED020AC6
:1034C0004748B0F89E03401C81B24548A0F89C13C1
:1034D00000252FE005EB4503434A52F82310404AEC
:1034E0007823106D0C2203F093FE014605EB450294
:1034F0003B48803040F8221005EB45013A4800EB8C
:10350000810005EB450241683548803000EB8200C0
:10351000416005EB4501344800EB810090ED020A63
:1035200005EB45012E48803000EB810080ED020A5A
:10353000681C85B22A48B0F89C03A842CADC002166
:10354000274880F87C10B0F89C0302281BDB01217F
:10355000234880F87D10B0F8740020F00200801C31
:103560001F49A1F874000846B0F8740020F0040167
:103570001B48A0F87410B0F8740020F0100118482F
:10358000A0F8741017E01648B0F8740020F002019B
:103590001348A0F87410B0F8740020F00400001D67
:1035A0000F49A1F874000846B0F8740020F010002C
:1035B0001030A1F874000A48B0F8740020F001013E
:1035C0000748A0F874100021C0F89013A0F89413D5
:1035D000A0F89E13BDEC028B70BD0000A4910020EA
:1035E000FC810020A0950020A485002070B5002457
:1035F0000025454890F87400C0F3401000283DD0E5
:103600004148806F38B14048416D4164806F401E31
:103610003D49886770BD3D4800F06EFB002869D0C9
:10362000394880894FF4FA6191FBF0F1364881679F
:10363000B0F89C33002211469FED350A00F5697001
:1036400000F0F2FD0120304981F8A4030021314847
:10365000A0F822182C48C16C4165B0F8740020F025
:10366000080008302849A1F874000846B0F8740032
:1036700020F020012448A0F874103BE0224890F884
:103680007400C0F3C000A8B31F48806F38B11E4853
:10369000416D4164806F401E1B498867BAE71E4830
:1036A00000F02AFB30B3184880894FF4FA6191FB8F
:1036B000F0F115488167C16C4165FEF703FE1249C0
:1036C00081F896030121154880F8101C0021144848
:1036D000A0F822180C48B0F8740020F008010A483D
:1036E000A0F87410B0F8740020F0200020300649D3
:1036F000A1F874000448446B056B2A462146443007
:1037000000F0ACFD00BF85E7FC8100200C9E00208E
:103710000AD7233CA0950020A0850020FC91002022
:103720000CAE002000B53548C16EC06D814264DA30
:103730003248C16E006E81425FDD3048C16CD0F806
:10374000A803C83081422ADA2C48C16CD0F8A803FB
:10375000C838814223DD2948B0F89C330022114645
:103760009FED270A00F5697000F05EFD00212548F5
:1037700080F8101C2148B0F8740020F020011F4888
:10378000A0F8741001201D4981F8A4030846B0F880
:10379000740020F008000830A1F8740020E01748F9
:1037A00090F8960320B9FEF78DFD144981F8960331
:1037B0000121144880F8101C1048B0F8740020F063
:1037C000200020300D49A1F87400002081F8A403E6
:1037D0000846B0F8740020F008010848A0F87410FA
:1037E000064880894FF4FA6191FBF0F10348816744
:1037F000C16C4165012180F8981300BDFC81002057
:103800000AD7233CFC91002070B5002100230F2231
:10381000C4781CB3174C246804F4E064C4F5E06475
:10382000C4F30721C1F10404E3B20A4144789C4087
:10383000E1B28478144021430C07210E0E4C057828
:103840006155047804F01F050124AC4005786D1122
:10385000AD0005F1E025C5F8004109E0047804F069
:103860001F050124AC40054D0678761145F8264029
:1038700070BD00000CED00E000E400E080E100E03D
:1038800002490143024A1160704700000000FA0536
:103890000CED00E010B50346024844680248C463DA
:1038A000002010BDEC810020FC81002010B50346F3
:1038B000024884680248C462002010BDEC810020E8
:1038C000FC8100202DE9F04106460D4614460027F4
:1038D00037460020184908600CE038461C3700695C
:1038E000D4F8F0190844C4F8F00913480068401CE3
:1038F0001149086010480068A842EED3D4F8F009D6
:103900002844C4F8F00922462946304600F016F84B
:10391000B4F8A00E421E002104F6F41000F52F604A
:1039200008F084F8B4F8A00E421E002104F6A4604A
:1039300008F065F8BDE8F081E87F00202DE9F0414E
:1039400080460F461446B4F8A00E3844D4F8F01957
:10395000884202D90020BDE8F081002628E0C6EBAD
:10396000C60008EB8005B4F8A01E04F6F41000F5BC
:103970002F6040F82150B4F8A01E04F6A46040F86F
:103980002150B4F8A00E401CA4F8A00E287A0628F6
:1039900005D0287A082802D0287A092807D122469B
:1039A000D5E90301FFF7CAFF08B90020D3E7761C69
:1039B000BE42D4D30120CEE770B504460D4616466C
:1039C000204608F04DF8002070BD70B504460D4645
:1039D0001646204603F09EFE204603F047FE0020D8
:1039E00070BD70B504460D461646204604F080F9B9
:1039F000204604F033F9002070BD30B503460C4674
:103A0000D3F8F008007860B9002106E00020D3F870
:103A1000F45845F82100481CC1B293F8ED088842DB
:103A2000F4DC002030BD000010B503460748807A62
:103A3000074C6478A04206D00448807A034CE072B8
:103A400003484078A072002010BD0000FC810020D7
:103A5000EC81002070B505460C464FF0FF3004EBBA
:103A6000C402A96801EB42014880002004EBC402B3
:103A7000A96801EB4201C880E1B2284607F046FC84
:103A800070BD70B505460C464FF0FF3004EBC40224
:103A9000A96801EB4201888004EBC401A86810F812
:103AA000110020F0010004EBC402A96801F8120023
:103AB000E1B2284607F02AFC70BD0000F8B50446C4
:103AC0004FF4C05523466A4629040020276AB847A8
:103AD000204988423CD02FE04FF0C05040EA0541D9
:103AE00023466A460020276AB8470646009808BB66
:103AF0007069F8B1184840EA054123466A4600203B
:103B0000276AB847154941611348401C40EA0541FE
:103B100023466A460020276AB847104941610E488B
:103B2000C01C40EA054123466A460020276AB84780
:103B30000A494161681C85B24FF0C05040EA054116
:103B400023466A460020276AB84702498842C3D103
:103B5000F8BD00005CCA00200200001831530008C4
:103B60000EB54FF4C370ADF8000000208DF80200D0
:103B700004208DF803000C48007B8DF804000A48EF
:103B80008089010A8DF805100748C068010C8DF87E
:103B900006100548C068010E8DF8071069460348F5
:103BA00003F0A6F90EBD000004C900201832002061
:103BB000F8B50446002523466A464FF0C051002060
:103BC000266AB0472649884248D03BE005EBC5024B
:103BD000A16801EB4201B1F9020022462149FDF73B
:103BE000ECFE05EBC502A16801EB42014880012211
:103BF0000221D4F8CC08FDF757F905EBC502A168FE
:103C000001EB4201B1F9040022461749FDF7D5FE48
:103C100005EBC502A16801EB420188800122022167
:103C2000D4F8CC08FDF740F9002005EBC502A168E7
:103C300001F8120005EBC502A16801EB4201C88042
:103C4000681CC5B24FF0C05040EA054123466A46A1
:103C50000020266AB04702498842B7D1F8BD00006B
:103C60005CCA0020553A0008833A000870B5054642
:103C70000C4616461D48007B00F00F0008B9FEF701
:103C800079F801201A4908720420887046F27A00F7
:103C90004881002008730846056100F0ADFE08B1B8
:103CA000FF2070BD1148807801281CD111480068A0
:103CB000A04204D00F4804602046FDF777FD0120A4
:103CC0000B49087246F24000488106208870074878
:103CD000468140890861084600F08EFE08B1FF2049
:103CE000DFE7FEF747F80020DBE7000090810020C7
:103CF0007C810020280000200146087800287CD024
:103D000041F62200405A002878D141F60800405878
:103D10000068FE4A106041F6080040584068FC4ABE
:103D2000106041F60800405890ED020AF94880ED15
:103D3000000A41F6080040580C3041F60C02505081
:103D4000101F425841F61000405882422BD141F6D4
:103D500058000844C07830BB00200870002241F6AB
:103D60002200425201F1100041F608025050121D8B
:103D70005050121D50509FEDE80A01F5C05080EDE3
:103D8000090A9FEDE50A80ED170A9FEDE30A80ED31
:103D9000180A9FEDE10A80ED190A9FEDDF0A80ED18
:103DA0001A0A01207047DB4890ED000A01F5C05067
:103DB00080ED090A41F60C0040580068D74A1060AF
:103DC00041F60C0040584068D54A106041F60C009E
:103DD000405890ED020AD34880ED000ACF480268AF
:103DE00041F614004250CF4890ED000AC948D0ED8A
:103DF000000A30EE600ACC4801E0CEE1BBE080ED85
:103E0000000A90ED000AB5EEC00AF1EE10FA0ED8E5
:103E1000C6480068401CC54A106000200870002297
:103E200041F622004252801E4252FF20BAE701F5BD
:103E3000C05090ED110ABC48D0ED000A80EE801A07
:103E4000BCEEC10A10EE100A82B24FF4C1504252C9
:103E5000B24800684000404200EE100AB8EEC00AC6
:103E6000AF48D0ED000AF8EEE00AAF4890ED001A36
:103E700000EE810AA648D0ED000AF8EEE00AAA4852
:103E800090ED001A00EE810AA0480068400000EEA4
:103E9000900AF8EEE00A30EE200AA348D0ED000ABE
:103EA00060EEA00A90ED001A60EE810A80EE201A02
:103EB00001F5C05080ED171A9848006800EB4000EB
:103EC00000EE100AB8EEC00A9548D0ED000AF8EEF0
:103ED000E00A954890ED001A00EEC10A8C4800688F
:103EE000400000EE900AF8EEE00A8F4890ED001ACC
:103EF00000EEC10A8548006800EB400000EE900A21
:103F0000F8EEE00A30EE600A8748D0ED000A60EE75
:103F1000A00A80EE201A01F5C05080ED181A7C48E6
:103F200090ED000AB8EEC00A01F5C05080ED190A04
:103F3000764890ED000AB8EEC00A01F5C05080ED59
:103F40001A0A90ED170A7A4880ED000A01F5C05070
:103F500090ED180A774880ED000A01F5C05090ED09
:103F6000190A754880ED000A01F5C05090ED1A0A53
:103F7000724880ED000A41F62200405A00EE100A15
:103F8000F8EE400A01F5C05090ED111A614890ED2D
:103F9000000A00EE810A01F5C05080ED090A90ED9B
:103FA000090A5C48D0ED000A30EE600A6048D0EDA6
:103FB000000A20EE200A01F5C050D0ED090A55484C
:103FC00090ED001A70EEC10A20EE200A01F5C050F3
:103FD000D0ED090A4F4890ED001A70EEC10A20EEAC
:103FE000200A01F5C05080ED0A0A90ED090A4948FF
:103FF000D0ED000A30EE600A4E48D0ED000A20EE07
:10400000200A01F5C050D0ED090A424890ED001A8F
:1040100070EEC10A20EE200A01F5C05080ED0B0AB7
:1040200090ED090A3B48D0ED000A30EE600A4248A4
:10403000D0ED000A20EE200A01F5C05080ED0C0AF8
:104040003E4890ED000A01F5C05080ED0D0A384859
:1040500090ED000AF0EE080A20EE200A01F5C050AB
:10406000D0ED090A2B4890ED001A70EEC10A20EE3F
:10407000200A01F5C050D0ED090A264890ED001A3B
:1040800070EEC10A20EE200A01F5C05080ED0E0A44
:10409000284890ED000AF0EE000A20EE200A01F513
:1040A000C050D0ED090A1B4890ED001A70EEC10A0D
:1040B00020EE200A01F5C05080ED0F0A1E4890ED59
:1040C000000A01F5C05080ED100A90ED0A0AD0ED0B
:1040D0000B0A30EE200AD0ED0C0A30EE200AD0EDAB
:1040E0000D0A30EE200A80ED140A90ED0E0AD0ED94
:1040F0000F0A30EE200AD0ED100A30EE200A80EDD3
:10410000150A90ED140ABDEEC00A19E00001002066
:104110000401002008010020000000000C01002024
:10412000100100201401002028010020F8000020C8
:10413000180100201C010020200100202401002083
:1041400010EE100A41F61802505001F5C05090EDE3
:10415000150ABDEEC00A10EE100A121D5050101FB5
:1041600042582F48426441F62200405A401C82B215
:1041700041F622004252425A801E405A82424DD19C
:10418000487858B941F6080040580C3041F608020A
:104190005050002241F6220042523FE000200870B9
:1041A000002241F62200425201F1100041F60802BD
:1041B0005050121D5050121D50501FED290A01F58C
:1041C000C05080ED090A1FED2C0A80ED170A1FED83
:1041D0002E0A80ED180A1FED300A80ED190A1FED36
:1041E000320A80ED1A0A00200D4A82F8A403002248
:1041F0000C4880F8102C0A4880F89823B0F8740016
:1042000020F008020648A0F87420B0F8740020F0EE
:1042100020020348A0F874200120C3E50020C1E576
:10422000FC810020FC91002030B500F5C05484EDE5
:10423000110A41F658040444E17002EB4205041DE2
:1042400004EB850541F60804255003EB4305041DE6
:1042500004EB850541F61004255030BD03688B4200
:1042600001DD016003E00368934200DA02607047F9
:10427000FEB504460E46D4F890070088A8B1206821
:10428000008800F5E06085B2ADF8005001208DF89F
:10429000030000208DF8020094F864078DF80400F4
:1042A0006946204602F024FE0EE0B4F99407224647
:1042B000AFF24301FDF781FBA4F89407012202212C
:1042C000D4F8CC08FCF7F0FDFEBD000029B1064A89
:1042D00012680243044B1A6004E0034A12688243E6
:1042E000014B1A60704700003038024029B1064A7D
:1042F00012680243044B1A6004E0034A12688243C6
:10430000014B1A60704700004038024029B1064A4C
:1043100012680243044B1A6004E0034A12688243A5
:10432000014B1A60704700002038024029B1064A4C
:1043300012680243044B1A6004E0034A1268824385
:10434000014B1A60704700004438024029B1064A08
:1043500012680243044B1A6004E0034A1268824365
:10436000014B1A60704700002438024030B503EB5F
:10437000430451F8244002EB420540F8254003EB8A
:10438000430401EB8404646802EB420500EB8505FD
:104390006C6003EB430401EB840494ED020A02EB2E
:1043A000420400EB840484ED020A30BDF8B50446F3
:1043B0000E46154623466A4631460020D4F820C0F2
:1043C000E0470746009800B97D610098F8BD0000FD
:1043D000FEB504460D4600260121D4F8280900F058
:1043E000FEFE05EB4500C0EB451104F1240000EB97
:1043F0008100407802280FD101E0701C86B24FF096
:10440000945040EA0641234602AA0020D4F820C076
:10441000E04760498842F0D105EB4500C0EB45110B
:1044200004F1240000EB8100407801280FD101E065
:10443000701C86B24FF0905040EA0641234602AA13
:104440000020D4F820C0E04752498842F0D105EB63
:104450004500C0EB451104F1240010F82100401C78
:10446000B04200DDFEBD05EB4500C0EB451104F197
:10447000240000EB81004078022812D105EB4500B2
:10448000C0EB451204F1240010F82200424A42EA2F
:104490000041234602AA0020D4F820C0E047C068AB
:1044A000077805EB4500C0EB451104F1240000EB53
:1044B00081004078012812D105EB4500C0EB451280
:1044C00004F1240010F82200344A42EA0041234655
:1044D00002AA0020D4F820C0E047C06807784FF057
:1044E000FF3105EB4500C0EB451204F1240000EB61
:1044F0008200A0F86E10852105EB4500C0EB451247
:1045000004F1240000EB82008170254905EB450091
:10451000C0EB451204F1240000EB8200807BCDE962
:10452000000105EB4500C0EB451C04F1240000EB45
:104530008C00838905EB4500C0EB451C04F1240089
:1045400010F82C2005EB4500C0EB451C04F12400BD
:1045500000EB8C004178204607F042F8104905EB4B
:104560004500C0EB451204F1240000EB820081609D
:1045700005EB4500C0EB451104F1240000EB810080
:104580004078012803D1E9B2204606F085FE00BF3D
:1045900068E700005CCA00200300801203000012DC
:1045A000000004052DE9FF4104460D4605EB4500DA
:1045B000C0EB451104F1240000EB8100006988B9CB
:1045C00005EB4500C0EB451104F1240000EB810030
:1045D000416905EB4500C0EB451204F1240000EBF6
:1045E0008200016105EB4500C0EB451104F1240098
:1045F00000EB810000690390012003AACDE90020AF
:10460000029005EB4500C0EB451704F1240000EBD8
:10461000870000F1180305EB4500C0EB451704F1D6
:10462000240000EB8700827B05EB4500C0EB4517BB
:1046300004F1240000EB87008189204602F0B6FADD
:1046400006461EB1304604B0BDE8F0810020FAE70E
:10465000F0B50446154601EB4100C0EB411704F1EB
:10466000240000EB870040692844402801D9FF203E
:10467000F0BD01EB4100C0EB411704F1240000EB59
:104680008700466900220FE09F5C01EB4100C0EB10
:10469000411C04F1240000EB8C00183006EB020CE6
:1046A00000F80C70501CC2B2AA42EDD301EB4100DD
:1046B000C0EB411704F1240000EB87004069471963
:1046C00001EB4100C0EB411C04F1240000EB8C0025
:1046D00047610020CCE7000010B5044600BF02216E
:1046E0000A4800F085F80028F9D02146074800F074
:1046F0008BF800BF0121054800F07AF80028F9D0B6
:10470000024800F07EF800B210BD00000030014009
:1047100000B587B001210846FFF7D8FD0121080345
:10472000FFF704FEE020059002208DF8180000201D
:104730008DF81A0003208DF8190001208DF81B0058
:1047400005A92348FDF7A2FB052211462048FDF7E5
:1047500005FC052206211E48FDF700FC0522072165
:104760001B48FDF7FBFB01210803FFF7EFFD0021CC
:104770004FF48050FFF7EAFD0020ADF800004FF441
:104780008270ADF802000020ADF80400ADF806001C
:104790000120ADF808004002ADF80A002020ADF875
:1047A0000C000020ADF80E000720ADF8100069469F
:1047B000084800F02BF80121064800F00DF8FF2012
:1047C000FFF78AFFFF20FFF787FF07B000BD00005B
:1047D000000002400030014021B1028842F0400256
:1047E000028004E002884FF6BF731A4002807047CF
:1047F0000246002013890B400BB1012000E000208D
:1048000070470146888970478181704710B5002242
:10481000028802F441520B884C8823438C8823433E
:10482000CC8823430C8923434C8923438C8923431D
:10483000CC8923431A430280838B4FF2FF742340B9
:1048400083830B8A038210BD70B50D8805F4B065B3
:10485000B5F5B06F52D1057A0E7806F07F06B542F5
:104860004CD1CD78082D00D070BD0D79802D04D1AC
:104870000025C58003254570F6E74E798D7906EB56
:104880000525AAB2CB794589954237D1057B9D4252
:1048900034D10C79432C1DD0472C10D04B2C06D092
:1048A0004F2C25D10D7A05610225457025E00E7A41
:1048B0004D7A06EB05250561022545701DE08D7AD0
:1048C0002E044D7A06EB05260D7A35440561022546
:1048D000457012E0CD7A2E068D7A06EB05464D7AAC
:1048E00006EB05260D7A354405610225457004E086
:1048F000002505610325457000BF00BF00BFB3E779
:104900002DE9FF41044600270025002600200390E2
:10491000A67A6089050A207A00F07F0000F5C06061
:10492000ADF8000000208DF8020008208DF803008B
:1049300040208DF804008DF805608DF80650207B2E
:104940008DF807009DF80C108DF808109DF80D10DB
:104950008DF809109DF80E108DF80A109DF80F10B3
:104960008DF80B10012060700020E08069460E4831
:1049700002F0BEFA07461FB1FF2004B0BDE8F08187
:104980000DE0E088052805DB0020E0800320607052
:10499000FF20F2E76078032801D1FF20EDE760787F
:1049A0000128EED00020E8E74864002030B50C88EC
:1049B00004F4B064B4F5B06F1DD1047A0D7805F03D
:1049C0007F05AC4217D14D798C7905EB0424A2B256
:1049D000CB79448994420ED1047B9C420BD10C7953
:1049E000602C04D1052444700024848003E0062454
:1049F00044700024848030BD2DE9FF410446002529
:104A00000026002700200390A77A6089060A207AF2
:104A100000F07F0000F5C060ADF8000000208DF8C8
:104A2000020008208DF80300A078062819D008DCC1
:104A300002280DD0032813D004282DD005283FD1FB
:104A400007E0072829D0102816D0162838D114E0FE
:104A500000BF2F208DF80400207C8DF80C0035E07D
:104A600000BF2B208DF80400207C8DF80C00208ADC
:104A7000000A8DF80D0029E000BF27208DF8040002
:104A8000207C8DF80C00208A000A8DF80D0020692A
:104A9000000C8DF80E0019E000BF23208DF80400F3
:104AA000207C8DF80C00208A000A8DF80D0020690A
:104AB000000C8DF80E002069000E8DF80F0005E047
:104AC00006206070FF2004B0BDE8F08100BFF9B29D
:104AD0008DF80510F1B28DF80610207B8DF80700D7
:104AE0009DF80C108DF808109DF80D108DF8091028
:104AF0009DF80E108DF80A109DF80F108DF80B1010
:104B0000042060700020A0806946044802F0F0F99B
:104B100005460DB1FF20D6E70020D4E74864002009
:104B200010B5044601207749087246F260004881BA
:104B3000002008730520887008460461FFF75CFFB9
:104B400018B1FF207049487010BD012002F00CFB25
:104B500001206C4908724FF4C1404881002008735D
:104B6000072088706848806B08610846FFF744FF9B
:104B700018B1FF2064494870E6E7012002F0F4FA1A
:104B800001206049087246F27F00488100200873C6
:104B9000072088705C48806B08610846FFF72CFF8F
:104BA00018B1FF2058494870CEE7012002F0DCFA26
:104BB00001205449087246F28100488100200873A0
:104BC000072088705048406B4F49896B884203D951
:104BD0004D48806B4C4948634B48406B49490861DC
:104BE0000846FFF709FF18B1FF2047494870ABE7B7
:104BF000012002F0B9FA01204249087246F2C500CC
:104C0000488100200873072088703F48406C086185
:104C10000846FFF7F1FE18B1FF203B49487093E7C3
:104C2000012002F0A1FA01203649087246F2830001
:104C30004881072088703448806C08610846FFF777
:104C4000DBFE18B1FF20304948707DE7012002F0FB
:104C50008BFA082C16D101202A49087246F2C200AC
:104C6000488101200873052088700A2008610846E1
:104C7000FFF7C2FE18B1FF202349487064E7012006
:104C800002F072FA01201F49087246F2840048813E
:104C900000200873072088701B48C06C0861084614
:104CA000FFF7AAFE18B1FF20174948704CE7012012
:104CB00002F05AFA01201349087246F28500488131
:104CC00000200873072088700F48006D08610846AF
:104CD000FFF792FE18B1FF200B49487034E701201E
:104CE00002F042FAFDF728F8052002F03DFAFDF740
:104CF00041F8052002F038FA012003490870487095
:104D000000BF21E77C810020908100202DE9F05F29
:104D100004468B469246994600220221D4F8CC08DC
:104D2000FCF7C2F8002704F62C1543E0BAF1000F97
:104D30003DD02878D0BBB4F9EC09401CB84205D16D
:104D4000B4F8EC09401C00B2A4F8EC09204602F0CB
:104D5000C1FB0646C84608F1010008B1404601E023
:104D60004FF0FF30804641F624300059B0420ED952
:104D700041F624300059801B404508D906EB080154
:104D800041F6243001512146404606F00BFEC5F89D
:104D900008A06C60C5F80CB009EB060028610A9801
:104DA0006861012028703846BDE8F09FFFE7781C55
:104DB00007B21835B4F9EC09401CB84201DB082FE2
:104DC000B4DB4FF0FF30EFE70CB50020019000900E
:104DD0003448006840F480303249086000BF3148F0
:104DE000006800F4003000900198401C0190009889
:104DF00018B90198B0F5A04FF1D12A48006800F425
:104E0000003010B10120009001E0002000900098D7
:104E1000012846D123484030006840F080502149A5
:104E2000403108602048006840F440401E49086056
:104E30001C48083000681B490831086008460068B3
:104E400040F4004008600846006840F4A050086044
:104E50001648091F0860081F006840F08070091F8D
:104E6000086000BF0F48006800F000700028F9D00B
:104E700040F205700E4908600A480830006820F0CA
:104E800003000849083108600846006840F0020045
:104E9000086000BF03480830006800F00C000828D4
:104EA000F8D10CBD00380240007000401954400792
:104EB000003C024001460120C8600A22C868B2FBDB
:104EC000F0F008614FF47A72C868B2FBF0F0486104
:104ED0000020704770B504460D46204606F0A9FB39
:104EE00070BD042808D14FF0E021096941F00401A8
:104EF0004FF0E022116107E04FF0E021096921F055
:104F000004014FF0E02211617047000010B5154810
:104F1000006840F47000134908601348006840F0CE
:104F200001001149086000200F49083108600E484F
:104F300000680E4908400C4908600D48091D0860CA
:104F4000081F006820F48020091F0860002006491F
:104F50000C310860FFF738FF4FF0006001498039DD
:104F6000086010BD88ED00E000380240FFFFF6FE4B
:104F7000103000241CB501210846FFF7A7F90120D5
:104F80008DF8040000208DF8060003208DF8050040
:104F900002208DF807001020009069460348FCF7B6
:104FA00075FF10210148FDF705F81CBD0000024007
:104FB00010B50121880700F058F970B14FF080401A
:104FC00000F050F90549C1F82C0BA1F5805000F014
:104FD000D7FB0121880700F002F910BD184200201C
:104FE00010B50121044800F040F918B10121024830
:104FF00000F0F5F810BD00000004004010B50121DC
:10500000094800F032F968B1074800F02BF9074968
:10501000C1F82C0BA1F5805000F0B2FB0121024831
:1050200000F0DDF810BD00000008004048740020CA
:1050300010B501212D4800F018F9002855D02C4852
:105040000068401C2A49086008468068401C886047
:10505000084600680969884227D30020244908606F
:1050600001202449087008720846807AE5280AD190
:10507000084690F87D0030B9084690F87C00012879
:1050800001D1FDF7B5FF1B4890F8980320B101202E
:1050900018494872FEF7AAFA06F0EAFD1548407A68
:1050A00018B11449486C02F005F81148806810499D
:1050B000496988420CD300200D4988600E48007869
:1050C00080F001000C49087008460078FDF752FF97
:1050D0000A484078012804D10848C088401C074984
:1050E000C8800121014800F07AF810BD001400408A
:1050F00080D40020FC810020100000206881002066
:105100001FB501210420FFF7F1F85320ADF800008E
:105110000020ADF80200401E01900020ADF808000C
:105120008DF80A0069460F4800F0BCF801221146CC
:105130000C4800F0ABF801210A4800F053F84FF496
:105140008060FEF79DFB1E208DF80C0001208DF87D
:105150000D008DF80E008DF80F0003A8FEF754FB2C
:105160001FBD00000008004010B5FFF7C9FF10BDCB
:105170001FB501210846FFF7B9F85320ADF800002C
:105180000020ADF80200401E01900020ADF808009C
:105190008DF80A0069464FF0804000F083F8012244
:1051A0001146900700F072F80121880700F01AF804
:1051B0004FF48060FEF764FB1C208DF80C00022089
:1051C0008DF80D0001208DF80E008DF80F0003A85A
:1051D000FEF71AFB1FBD10B5FFF7CAFF10BDCA438B
:1051E0000282704721B1028842F00102028004E08D
:1051F00002884FF6FE731A40028070477FB504465E
:105200000D4601212020FFF771F8681E80B2ADF82D
:1052100000000020ADF80200601E01900020ADF8F3
:1052200008008DF80A0069460D4800F03BF801229D
:1052300011460B4800F02AF801210948FFF7D2FF78
:1052400037208DF80C0003208DF80D0000208DF81C
:105250000E0001208DF80F0003A8FEF7D5FA7FBDE0
:10526000001400400146486A704730B502460020ED
:1052700000230024158A05EA0103958905EA010443
:1052800013B10CB1012000E0002030BD1AB18389B8
:105290000B43838102E083898B4383817047C16222
:1052A0007047000000220288184B98420ED0184B1D
:1052B00098420BD0B0F1804F08D0164B984205D0E1
:1052C000154B984202D0154B984204D14FF68F737C
:1052D0001A404B881A43124B984207D0114B984200
:1052E00004D04FF6FF431A400B891A4302804B68E3
:1052F000C3620B880385054B984202D0044B984249
:1053000001D18B7A0386012383827047000001401C
:10531000000401400004004000080040000C004070
:1053200000100040001400400346002070470000B9
:105330002DE9F84304460E46174640F26A70005DB8
:10534000002854D0022F04D0032F03D0052F4CD1B6
:1053500001E000BF00BF23466A464FF0C051002065
:10536000D4F820C0E0478046A6EB08001C2190FB43
:10537000F1F0C5B205EBC502A16801EB4201B1F93C
:10538000020022461B49FCF718FB05EBC502A16889
:1053900001EB4201488001220221D4F8CC08FBF73E
:1053A00083FD05EBC502A16801EB4201B1F90400E0
:1053B00022461149FCF701FB05EBC502A16801EB90
:1053C0004201888001220221D4F8CC08FBF76CFD51
:1053D000002005EBC502A16801F81200294620460D
:1053E000FEF738FB0020BDE8F88300BF00BF0020B7
:1053F000F9E70000553A0008833A00081CB501217E
:105400000220FEF763FF4FF44060009001208DF80A
:10541000040000208DF8060003208DF8050001200F
:105420008DF8070069460448FCF730FD4FF44061F1
:105430000148FCF7BFFD1CBD0004024010B59CB044
:1054400004462046FCF710F94FF47A7004900120CE
:105450000321BA4A04ABCDE900210290002241F2B7
:105460001701204601F0A2FBB5480068401CB44972
:1054700008602068008800F5C0601B9020680088E4
:1054800000F5B0601A90012019900321AD4A1BABC2
:10549000CDE90021029002464FF49051204601F0E0
:1054A00085FB01200321A74A1AABCDE90021029018
:1054B00002224FF49051204601F078FB0120032195
:1054C000A14A19ABCDE9002102900A464FF4905150
:1054D000204601F06BFB2068008800F5C070189032
:1054E000FF201790C820169014201590012003214A
:1054F000944A18ABCDE9002102900246C902204629
:1055000001F054FB012003218F4A17ABCDE90021A4
:1055100002900222C902204601F048FB012003212B
:10552000884A16ABCDE9002102900A46C9022046FE
:1055300001F03CFB01200321824A15ABCDE900219B
:1055400002900522C902204601F030FB7F481490EA
:10555000012003217B4A14ABCDE9002102900246D1
:105560004FF4D051204601F021FB40F283101390FC
:10557000FE20129001200321724A13ABCDE90021D5
:105580000290024641F20341204601F00FFB012048
:1055900003216D4A12ABCDE900210290022241F2B3
:1055A0000341204601F002FB6948119001200321CC
:1055B000644A11ABCDE900210290024641F2036139
:1055C000204601F0F3FA4FF4C2701090FE200F90C5
:1055D000012003215B4A10ABCDE900210290024675
:1055E00041F20441204601F0E1FA01200321564A2C
:1055F0000FABCDE900210290022241F20441204686
:1056000001F0D4FA53480E90012003214D4A0EAB0D
:10561000CDE900210290024641F20461204601F0EA
:10562000C5FA40F285100D90FE200C900120032158
:10563000444A0DABCDE900210290024641F20541FA
:10564000204601F0B3FA012003213F4A0CABCDE91B
:1056500000210290022241F20541204601F0A6FA03
:105660003D480B9001200321364A0BABCDE90021C8
:105670000290024641F20561204601F097FA40F29D
:1056800087100A90FE200990012003212D4A0AABC1
:10569000CDE900210290024641F20741204601F087
:1056A00085FA01200321284A09ABCDE900210290A7
:1056B000022241F20741204601F078FA274808907B
:1056C000012003211F4A08ABCDE9002102900246C8
:1056D00041F20761204601F069FA4FF4C470079067
:1056E000FE20069001200321164A07ABCDE90021D8
:1056F0000290024641F20841204601F057FA01208B
:105700000321114A06ABCDE900210290022241F2A9
:105710000841204601F04AFA114805900120032172
:10572000084A05ABCDE900210290024641F208612A
:10573000204601F03BFA1CB010BD000004800020A0
:105740001080002008800020008000202004676076
:1057500020016760200267602003676020056760A2
:105760002006676002469F2A04D1087808B10348E2
:10577000704700BF00BF0020FAE7000030000906B4
:105780002DE9F047054640F2F317284601F0A2FE46
:10579000804641F62430405900EB0809002605F602
:1057A0002C1425E0207800F00100F0B12069484574
:1057B00013D8606910B90220207016E06069B8FB48
:1057C000F0F100FB11806169081A2061032020704C
:1057D0002069B84209D2276907E02069A0EB0900D7
:1057E00020612069B84200D22769701C06B21834C3
:1057F000B5F9EC09B042D5DA41F6243047512946D3
:10580000384606F0CFF8002605F62C1410E0207874
:1058100000F0020048B1207820F002002070A0685B
:1058200018B1D4E9022160689047701C06B21834A0
:10583000B5F9EC09B042EADABDE8F087704703B485
:1058400001984100009850EAC12018BF04204A0D79
:1058500018BF40F0010040F2FF72B2EB515F08BF89
:1058600040F00200012808BF052002B07047000088
:1058700070B59B482DED020B2DED068B079D25F095
:105880000044A04218DC9748844202DC0AD1069802
:1058900040B19DED060BBDEC068B02B0BDE870403B
:1058A00000F0EABF002DCCBF9FED8F0B9FED900B5A
:1058B000BDEC068B02B070BD8F48A04215DD8F484D
:1058C000A042D8BF4FF0FF3458DD9DED060B51ECE0
:1058D000100BFFF7B4FF042808BF00F0E9FF9DEDAF
:1058E000060BBDEC068B02B070BD9DED060B51ECB6
:1058F000100B01F0EDFCCDE9060181489FED828B94
:10590000A0423CDD8248A0421FDD00249FED82AB17
:105910009DED060B53EC1A2B51EC100B06F0C2F95F
:105920009DED060B41EC190B53EC1A2B51EC100BAF
:1059300006F05AFC53EC182B06F060FD53EC192BC3
:1059400006F064FACDE9060149E09DED060B01245D
:1059500053EC182B51EC100B06F0A4F99DED060B3F
:1059600041EC190B53EC182B51EC100B06F046FDD3
:1059700053EC192B06F04AFACDE906012FE06848EE
:10598000A0421FDD02249FED689B9DED060B53ECAA
:10599000192B51EC100B06F027FC53EC182B06F0DA
:1059A00081F99DED060B41EC180B53EC192B51ECD2
:1059B000100B06F023FD53EC182B06F027FACDE967
:1059C00006010CE09DED060B032453EC102B9FED1C
:1059D000580B51EC100B06F019FACDE906019DEDBC
:1059E000060B53EC102B51EC100B06F0FDFB41ECB9
:1059F000180B53EC182B06F0F7FB41EC190B4E4833
:105A00000621B0EE490AF0EE690A784400F078FC0D
:105A100053EC182B51EC100B06F0E6FB41EC180B85
:105A20004648B0EE490AF0EE690A0521784400F0D4
:105A300067FC53EC192B51EC100B06F0D5FB41EC35
:105A4000100B51EC180B53EC102B002C0EDA06F057
:105A500029F99DED061B53EC112B06F0C5FB9DEDBE
:105A6000061B53EC112B06F0BDFC35E006F01AF9CD
:105A70009DED061B53EC112B06F0B6FB41EC100B11
:105A80002F48784400EBC40090ED001B51EC100B44
:105A900053EC112B06F0B2FC9DED061B53EC112BC1
:105AA00006F0ACFC41EC100B2648784400EBC40037
:105AB00090ED001B51EC100B53EC112B06F092FCF7
:105AC00041EC100B002DA2BFBDEC068B02B070BDE7
:105AD00051EC100B06F0DAF841EC100B01E7000076
