:020000040800F2
:10000000D80400209D010008311C0008131B0008C3
:100010002D1C000885020008712100080000000066
:100020000000000000000000000000006F1C00083D
:10003000D1060008000000006D1C0008711C0008BB
:10004000B7010008B7010008B7010008B7010008B0
:10005000B7010008B7010008B7010008B7010008A0
:10006000B7010008B7010008B7010008B701000890
:10007000B7010008B7010008B7010008B701000880
:10008000B7010008B7010008B7010008B701000870
:10009000B7010008B7010008B7010008B701000860
:1000A000B7010008B7010008B7010008B701000850
:1000B000B7010008B7010008B7010008B701000840
:1000C000B7010008B7010008B7010008B701000830
:1000D000B7010008B7010008B7010008B701000820
:1000E000B7010008B7010008B7010008B701000810
:1000F000B7010008B7010008B7010008B701000800
:10010000B7010008B7010008B7010008B7010008EF
:10011000B7010008B7010008B7010008B7010008DF
:10012000B7010008B7010008B7010008B7010008CF
:10013000B7010008B7010008B701000899020008DC
:1001400089020008B7010008B7010008B7010008DC
:10015000B7010008B7010008B7010008B70100089F
:10016000B7010008B7010008B7010008B70100088F
:10017000B7010008B7010008B7010008000000003F
:10018000B7010008B7010008DFF80CD000F068F8EC
:100190000048004735260008D8040020064880475C
:1001A00006480047FEE7FEE7FEE7FEE7FEE7FEE75C
:1001B000FEE7FEE7FEE7FEE7391D000889010008BB
:1001C0002DE9F05F0546002092469B46884606468C
:1001D000814640241BE0284641464746224600F01F
:1001E0002FF853465A46C01A914110D3114618466B
:1001F000224600F016F82D1A67EB01084F462246FA
:100200000120002100F00DF817EB00094E41201EDF
:10021000A4F10104DFDC484631462A464346BDE8E6
:10022000F09F202A04DB203A00FA02F100207047F8
:100230009140C2F1200320FA03F319439040704724
:10024000202A04DB203A21FA02F00021704721FA2B
:1002500002F3D040C2F12002914008431946704792
:10026000064C074D06E0E06840F0010394E8070003
:1002700098471034AC42F6D3FFF78AFFF8280008FD
:100280001829000800BFFEE710B5024800F0C4FAC4
:1002900010BD00005800002010B5024800F0BCFA64
:1002A00010BD00005800002010B500F02DF800F03F
:1002B000B1F800F065F800F009F801F02DFC00211C
:1002C000014800F070FC10BD5800002000B58BB054
:1002D0000E20069000200790012008900020019039
:1002E00049F6A40002904FF6FF700390049000209E
:1002F00005900120099001A9024800F0EBF90BB02C
:1003000000BD00005800002000B587B000BF0020ED
:1003100001901948006840F002001749086008463B
:10032000006800F00200019000BF00BF00BF002085
:1003300001900846006840F0020008600846006826
:1003400000F00200019000BF00BF4FF40050029087
:10035000022003900590012004900920069002A934
:10036000064800F0B5FD4FF48050029002A9034802
:1003700000F0AEFD07B000BD30380240000402407E
:1003800008B500BF002000901D48006840F00070D4
:100390001B4908600846006800F00070009000BF2C
:1003A00000BF00BF002000900846006840F0806059
:1003B00008600846006800F08060009000BF00BF41
:1003C000104811490860114808631148486300212A
:1003D0000D4881610121C161016200214162816298
:1003E000C1628160C1604FF4003101610901416166
:1003F000062005494860084600F0F4FA08BD0000F0
:10040000403802400068004058000020980000205A
:10041000B400002010B5062000F0ECFE00221146CA
:10042000402000F0A8FE402000F098FE10BD70B5FE
:1004300004460D46206800F5D87000EB05100068F2
:1004400000F00400616B8860606B806860B92068B0
:1004500000F5D87000EB0510006840F2FF7101EA6A
:100460005050616B08600BE0206800F5D87000EB1D
:10047000051000686FF0604101EAD000616B4860D0
:10048000206800F5D87000EB0510006800F002004D
:10049000616BC860206800F5D87000EB05104068FB
:1004A00000F00F00616B0861206800F5D87000EB68
:1004B00005104068C0F30720616BC861206800F533
:1004C000D87000EB05108068616B0875206800F536
:1004D000D87000EB05108068010A606B41752068D8
:1004E00000F5D87000EB05108068010C606B817519
:1004F000206800F5D87000EB05108068000E616B75
:10050000C875206800F5D87000EB0510C068C1B24E
:10051000606B0176206800F5D87000EB0510C068AC
:10052000010A606B4176206800F5D87000EB051079
:10053000C068010C606B8176206800F5D87000EB14
:100540000510C068000E616BC8764DB92020216887
:10055000C8602068406920F002002168486108E016
:100560002020216808612068406920F0100021687F
:10057000486194F8380022281DD12068406920F491
:100580008070216848612068406920F4007021680B
:1005900048612068406920F48060216848612068D3
:1005A000406920F40060216848612068406920F4B7
:1005B00000402168486194F83800322803D11220A5
:1005C00084F8380002E0012084F83800204600F06A
:1005D00041FB002070BD0000002000210F4A126B7B
:1005E000116041F214310D4A126B516004210B4A23
:1005F000126B91600021094A126BD1600821074AF1
:10060000126B116100BF05E00449096B14310854F5
:10061000411CC8B20828F7DB7047000058000020D2
:1006200010B504462068406920F001002168486147
:1006300094F8380012281DD12068406920F4807099
:10064000216848612068406920F400702168486191
:100650002068406920F48060216848612068406912
:1006600020F40060216848612068406920F400405F
:100670002168486194F83800322803D1222084F898
:10068000380002E0012084F83800204600F00BFC1E
:10069000002010BD10B50C480C4908604FF4E13043
:1006A0004860002109488160C160016181610C21BD
:1006B000416101F02FF905480068C06840F0200052
:1006C00002490968C86010BD0010014018000020F0
:1006D0007047000030B5034600220C7D012000FA6F
:1006E00004F24648006840F00100444C2060204677
:1006F000006820F47C502060204600684C6A40EA84
:1007000004203E4C20603D481C30006890433B4C28
:100710001C342060C869D8B938480C300068904350
:10072000364C0C342060888880B28C8940EA0444BE
:10073000324840304D6940F83540088880B20C8915
:1007400040EA04442D4840304D6900EBC500446048
:10075000C86901281BD129480C3000681043274C78
:100760000C342060888880B20C8840EA0444234816
:1007700040304D6940F83540888980B20C8940EAA4
:1007800004441E4840304D6900EBC5004460886950
:1007900038B91A48001D00689043184C241D206089
:1007A00006E01648001D00681043144C241D20600C
:1007B000086930B911481430006890430F4C143464
:1007C00020600869012806D10C48143000681043E5
:1007D0000A4C14342060086A012806D107481C30EE
:1007E00000681043054C1C3420600448006820F069
:1007F0000100024C2060002030BD00000066004077
:1008000010B5044601A001F0B5FC10BD0D0A43412E
:100810004EB3F6B4ED0D0A002DE9F0410446002573
:10082000002600272068406900F0010018B3206806
:10083000806869490840884201D1012000E0002019
:1008400005462068806865490840884201D101203A
:1008500000E0002006462068806861490840884220
:1008600001D1012000E0002007460DB906B917B1FB
:100870002046FFF7D5FE2068C06800F00305206819
:100880004069C0F3400625B11EB100212046FFF7A4
:10089000CEFD2068006900F0030520684069C0F3C0
:1008A000001625B11EB101212046FFF7C0FD2068CA
:1008B000806900F0010520684069C0F300262068C7
:1008C0004069C0F3C0372DB126B11FB1E06B40F0D5
:1008D0000100E06320688069C0F34005206840693A
:1008E000C0F3402620684069C0F3C0372DB126B15F
:1008F0001FB1E06B40F00200E06320688069C0F344
:10090000800520684069C0F3802620684069C0F3F4
:10091000C0372DB126B11FB1E06B40F00400E06399
:100920002068806900F0700008B9012000E0002014
:10093000054620684069C0F3C02620684069C0F3BE
:10094000C03795BB8EB387B32068806900F070050F
:10095000402D1BD006DC102D09D0202D0CD0302DC1
:1009600024D10EE0502D16D0602D1FD118E0E06B81
:1009700040F00800E0631AE0E06B40F01000E06334
:1009800015E0E06B40F02000E06310E0E06B40F029
:100990004000E0630BE0E06B40F08000E06306E0C5
:1009A000E06B40F48070E06301E007E000BF00BF4F
:1009B0002068806920F0700021688861E06B40B198
:1009C000042021684860012084F838002046FFF7A1
:1009D00017FFBDE8F08100000300000400030008D9
:1009E0000000031070B50446032600250CB9012051
:1009F00070BD94F8380028B9002084F839002046EA
:100A000000F0D0F8022084F838002068006820F058
:100A10000200216808602068006840F00100216839
:100A2000086000F063FB05460EE000F05FFB401B32
:100A30000A2809D9032084F8380000BF002084F870
:100A4000390000BF0320D3E72068406800F00100B0
:100A50000028EAD02068406800F0010008B90026AC
:100A600092E0A069012806D12068006840F080006B
:100A70002168086005E02068006820F08000216897
:100A80000860E069012806D12068006840F0400055
:100A90002168086005E02068006820F040002168B7
:100AA0000860206A012806D12068006840F0200014
:100AB0002168086005E02068006820F020002168B7
:100AC0000860606A012806D12068006840F01000C4
:100AD0002168086005E02068006820F010002168A7
:100AE0000860A06A012806D12068006840F008006C
:100AF0002168086005E02068006820F0080021688F
:100B00000860E06A012806D12068006840F004000F
:100B10002168086005E02068006820F00400216872
:100B20000860D4E902010843216908436169084368
:100B30006168491E08432168C8612068006820F088
:100B400001002168086000F0D1FA05460EE000F0CF
:100B5000CDFA401B0A2809D9032084F8380000BFC9
:100B6000002084F8390000BF032041E72068406876
:100B700000F001000028EAD12068406800F0010080
:100B800008B1002600E00126012E06D10020E06316
:100B9000012084F8380000202AE7042084F8380077
:100BA000012025E7704710B50246002392F838303F
:100BB000012B01D0122B49D100BF92F83900012836
:100BC00001D1022010BD012082F8390000BF92F847
:100BD0003800122803D1322082F8380002E02220A7
:100BE00082F838000020D0631068406940F48070BB
:100BF000146860611068406940F4007014686061B6
:100C00001068406940F48060146860611068406951
:100C100040F40060146860611068406940F400406E
:100C20001468606100BF002082F8390000BF31B94C
:100C30001068406940F002001468606108E01068C4
:100C4000406940F010001468606101E00220B9E7DB
:100C50000020B7E710B50446606B406841F21431DC
:100C600088420BD1606B8068042807D1606B0069F3
:100C7000082803D101200549086002E0002003494B
:100C8000086000210248FFF78EFF10BD1000002011
:100C90005800002010B5014605220868806800F061
:100CA0008060B0F1806F0DD00868806800F000604F
:100CB000B0F1006F06D00868806800F08050B0F195
:100CC000805F7DD100BF91F83900012801D1022059
:100CD00010BD012081F8390000BF0868806800F06D
:100CE0008060B0F1806F01D1002209E0086880685F
:100CF00000F00060B0F1006F01D1012200E002229B
:100D0000086800F5C07000EB0210006800F00103F5
:100D1000086800F5C07000EB02100360086B806883
:100D200098B9086800F5C07000EB021000680B6B02
:100D3000DB680C6B248843EA445318430B6803F5C3
:100D4000C07303EB0213186015E0086800F5C0706B
:100D500000EB021000680B6B9B680C6B646843EA45
:100D6000C4030C6BE468234318430B6803F5C0739A
:100D700003EB02131860086B007C00F00F000B6B94
:100D80001861086800F5C07000EB0210406820F0A0
:100D90000F03086800F5C07000EB0210436008689C
:100DA00000F5C07000EB02104368086B0069034354
:100DB000086800F5C07000EB02104360086B00E0AB
:100DC0006AE0C07D0306086B807D43EA0043086B40
:100DD000407D43EA00200B6B1B7D18430B6803F535
:100DE000C07303EB02139860086BC07E0306086BA8
:100DF000807E43EA0043086B407E43EA0023086B91
:100E0000007E0343086800F5C07000EB0210C36069
:100E100091F83800222803D1322081F8380002E00E
:100E2000122081F838000020C86300BF81F8390023
:100E300000BF0868406940F480700B68586108681A
:100E4000406940F400700B6858610868406940F4DC
:100E500080600B6858610868406940F400600B6866
:100E600058610868406940F400400B6858610868A0
:100E7000406940F001000B685861086800F5C070D7
:100E800000EB0210006840F00103086800F5C07034
:100E900000EB0210036004E0042081F83800012018
:100EA00016E7002014E7704770B5044600F01EF9FD
:100EB00006462546681C10B104480078054400BF6A
:100EC00000F014F9801BA842FAD370BD0C0000207A
:100ED000F8B502460B460025002400200021DCE086
:100EE000012606FA01F51E6806EA0504AC4273D134
:100EF0005E68022E02D05E68122E13D1CF0802F176
:100F0000200656F827004E07F70E0F26BE40B043C6
:100F10004F07FF0E1E69BE403043CF0802F1200686
:100F200046F8270010684F000326BE40B0431E79E4
:100F300006F003064F00BE40304310605E68012E8D
:100F400008D05E68022E05D05E68112E02D05E6861
:100F5000122E13D190684F000326BE40B0434F00BD
:100F6000DE68BE4030439060506801268E40B0433A
:100F70001E79C6F300168E4030435060D0684F0093
:100F80000326BE40B0434F009E68BE403043D06051
:100F90005E6806F08056B6F1805F7DD100BF002606
:100FA0000096404E366846F480463E4F3E603E46D0
:100FB000366806F48046009600BF00BF3A4E8F08A0
:100FC00056F827008E07370F0F26BE40B043374E26
:100FD000B24202D1002624E05EE0354EB24201D199
:100FE00001261EE0334EB24201D1022619E0324EF4
:100FF000B24201D1032614E0304EB24201D10426A0
:101000000FE02F4EB24201D105260AE02D4EB2422A
:1010100001D1062605E02C4EB24201D1072600E0A0
:1010200008268F073F0FBE4030431F4E8F0846F8FB
:101030002700264E3068A0435E6806F48036B6F579
:10104000803F00D12043214E3060361D3068A043E0
:101050005E6806F40036B6F5003F00D120431B4E13
:10106000361D3060361D3068A0435E6806F4801679
:10107000B6F5801F00D12043144E08363060361D6F
:101080003068A0435E6806F40016B6F5001F00D174
:1010900020430E4E0C363060491C1029FFF420AF5F
:1010A000F8BD00004438024008380140000002400A
:1010B0000004024000080240000C02400010024000
:1010C0000014024000180240001C0240003C014095
:1010D000024613690B400BB1012000E0002070476D
:1010E00001480068000C7047002004E001480068D7
:1010F0007047000004000020034800680349097895
:101100000844014908607047040000200C000020DA
:1011100070B504460E4800784FF47A71B1FBF0F0D8
:101120000C490968B1FBF0F5284600F0D9FB08B17D
:10113000012070BD102C07D200222146501E00F065
:101140001AF80548046001E00120F2E70020F0E70A
:101150000C000020000000200800002000BF00F06C
:101160001F02012191404209920002F1E022C2F8DF
:10117000001100BF70472DE9F05F80460D4616460E
:10118000002700F057FD074639462A46334601F04E
:101190000700C0F1070ABAF1040F02D94FF0040AA0
:1011A00001E0C0F1070AD14600F1040ABAF1070FC5
:1011B00002D24FF0000A01E0A0F1030AD4464FF03A
:1011C000010A0AFA09FAAAF1010A0AEA020A0AFA63
:1011D0000CFA4FF0010B0BFA0CFBABF1010B0BEA15
:1011E000030B4AEA0B042146404600F02BFDBDE804
:1011F000F09F000000BF00F00702064B19684FF691
:10120000FF031940044B0B4343EA0221014B1960D1
:1012100000BF70470CED00E00000FA0570B5044611
:101220000D460CB9012070BD5848006800F00F0051
:10123000A84209D255490D700846006800F00F0019
:10124000A84201D00120EEE7207800F00200022839
:101250001DD1207800F00400042805D14C48006816
:1012600040F4E0504A490860207800F0080008285F
:1012700005D14748006840F460404549086044484B
:10128000006820F0F000A168084341490860207818
:1012900000F00100A8B36068012807D13C48083875
:1012A0000068C0F34040B8B90120BCE7606802287C
:1012B00002D06068032807D1354808380068C0F3B9
:1012C000406048B90120AEE7314808380068C0F3F3
:1012D000400008B90120A6E72D48006820F003006F
:1012E000616808432A490860FFF700FF064609E0E5
:1012F000FFF7FCFE801B41F28831884202D90320AF
:1013000091E707E02248006800F00C006168B0EB4C
:10131000810FEDD11D48006800F00F00A84209D9E7
:101320001A490D700846006800F00F00A84201D06D
:10133000012078E7207800F00400042807D1144841
:10134000006820F4E050E168084311490860207803
:1013500000F00800082808D10D48006820F460401B
:10136000216940EAC1000A49086000F03DF80849D7
:101370000968C1F30311074A515CC8400649086077
:101380000F20FFF7C5FE00204DE70000003C0240A3
:101390000838024044280008000000200148006886
:1013A000704700000000002000B5FFF7F7FF044978
:1013B0000968C1F38221034A515CC84000BD0000A6
:1013C000083802405428000800B5FFF7E7FF044939
:1013D0000968C1F34231034A515CC84000BD0000B6
:1013E00008380240542800082DE9F0470024002561
:1013F0000026A1462548006800F00C0020B1042812
:1014000005D008283AD105E0DFF8849039E0DFF80C
:10141000849036E01D48001F006800F03F041B4820
:10142000001F006800F4800078B11A481749091FAE
:101430000968C1F38811A0FB017001462246002310
:101440003846FEF7BDFE05460EE011480F49091F5C
:101450000968C1F38811A0FB0170014622460023F0
:101460003846FEF7ADFE05460848001F0068C0F389
:101470000140401C4600B5FBF6F902E0DFF8109091
:1014800000BF00BF4846BDE8F087000008380240B2
:101490000024F40040787D01F8B504460CB9012021
:1014A000F8BD207800F00100002874D0F9480068E9
:1014B00000F00C0004280DD0F648006800F00C0085
:1014C000082813D1F348001F006800F48000B0F52D
:1014D000800F0BD1EF4808380068C0F34040002867
:1014E00059D06068002856D10120D9E700BF606854
:1014F000B0F5803F08D1E7480838006840F48030F4
:10150000E449083908601EE06068B0F5A02F0DD1ED
:10151000E0480838006840F48020DE490839086057
:101520000846006840F4803008600CE0D94808386C
:10153000006820F48030D749083908600846006800
:1015400020F48020086000BF606890B1FFF7CEFDF6
:10155000054606E0FFF7CAFD401B642801D90320B9
:101560009EE7CC4808380068C0F340400028F1D01E
:1015700011E0FFF7BBFD054606E0FFF7B7FD401B96
:10158000642801D903208BE7C24808380068C0F3FB
:1015900040400028F1D1207800F0020002285FD1FD
:1015A000BC48006800F00C0058B1BA48006800F070
:1015B0000C0008281CD1B748001F006800F4800008
:1015C000B0B9B44808380068C0F3400020B1E06802
:1015D000012801D0012063E7AE480838006820F0F8
:1015E000F800216940EAC100AA490839086037E0DB
:1015F000E06800B30120A8490860FFF777FD0546C1
:1016000006E0FFF773FD401B022801D9032047E7DE
:10161000A04808380068C0F340000028F1D09D4879
:101620000838006820F0F800216940EAC1009949B3
:101630000839086014E0002097490860FFF756FD5C
:10164000054606E0FFF752FD401B022801D90320A2
:1016500026E7904808380068C0F340000028F1D120
:10166000207800F0080008282CD16069A8B101207A
:101670008A490860FFF73AFD054606E0FFF736FDA8
:10168000401B022801D903200AE782486C30006819
:10169000C0F340000028F1D014E000207F4908602A
:1016A000FFF724FD054606E0FFF720FD401B02285A
:1016B00001D90320F4E677486C300068C0F340009D
:1016C0000028F1D1207800F00400042870D1002611
:1016D00070483830006800F0805090B900BF00209A
:1016E00000906C483830006840F0805069493831CB
:1016F00008600846006800F08050009000BF00BFFE
:1017000001266748006800F48070B0B9644800683A
:1017100040F4807062490860FFF7E8FC054606E087
:10172000FFF7E4FC401B022801D90320B8E65C481F
:10173000006800F480700028F2D000BFA068012883
:1017400008D154486830006840F0010051496831C0
:1017500008601DE0A06805280DD14E48683000687B
:1017600040F004004B49683108600846006840F0CA
:10177000010008600CE047486830006820F0010074
:101780004449683108600846006820F00400086099
:1017900000BFA068A8B1FFF7A9FC054609E0FFF764
:1017A000A5FC401B41F28831884202D9032077E62C
:1017B00026E0384868300068C0F340000028EED0CA
:1017C00013E0FFF793FC054608E0FFF78FFC401B92
:1017D00041F28831884201D9032061E62D48683002
:1017E0000068C0F340000028EFD1012E07D129483E
:1017F0003830006820F0805026493831086000BF3A
:10180000A069B8B32348006800F00C0008285ED037
:10181000A069022846D100201F490866FFF766FC30
:10182000054606E0FFF762FC401B022801D90320B1
:1018300036E6184808380068C0F340600028F1D147
:10184000D4E907010843616A40EA81110122A06AD4
:10185000C2EB500041EA00412C20005D41EA0060EB
:101860000C49091F086001200B490866FFF73EFC80
:10187000054607E02DE0FFF739FC401B022801D99F
:1018800003200DE6034808380068C0F340600028D4
:10189000F1D01EE00838024000004742800E474267
:1018A0000070004000200C490866FFF71FFC054649
:1018B00006E0FFF71BFC401B022801D90320EFE5DF
:1018C00006480068C0F340600028F2D101E0012022
:1018D000E6E50020E4E50000000047420038024051
:1018E00070B504462546681EB0F1807F01D3012003
:1018F0000FE0681E4FF0E02148610F214FF0FF30EC
:1019000000F0A0F900204FF0E02188610720086175
:10191000002070BD10B504460CB9012010BDA069AF
:1019200000B100E000BF94F8390028B9002084F825
:101930003800204600F028F8242084F83900206878
:10194000C06820F400502168C860204600F026FAE4
:101950002068006920F4904021680861206840698F
:1019600020F02A00216848612068C06840F40050D7
:101970002168C8600020E063202084F8390084F8E2
:101980003A000020CAE7000010B586B0044600BF48
:10199000002000902748006840F0100025490860AA
:1019A0000846006800F01000009000BF00BF00BFB4
:1019B000002000901F481438006840F001001D49C5
:1019C000143908600846006800F00100009000BF6C
:1019D00000BF00BF002000900846006840F00100F2
:1019E00008600846006800F00100009000BF00BFDA
:1019F00048150190022002900120039003200490DA
:101A00000720059001A90C48FFF762FA4FF48060A7
:101A100001900720059001A90748FFF759FA012214
:101A200000212520FFF7A7FB2520FFF797FB06B035
:101A300010BD000044380240000002402DE9F84388
:101A400004460D4616461F464FF0000994F839002B
:101A500020285CD105B116B90120BDE8F88300BF8C
:101A600094F83800012801D10220F6E7012084F81B
:101A7000380000BF0020E063212084F83900FFF720
:101A800035FB8146A684E6842BE0E08C401EE08492
:101A9000A068B0F5805F16D14B4600228021204619
:101AA000009700F02FFB08B10320D6E7A846B8F84E
:101AB0000000C0F3080021684860206908B9AD1C27
:101AC0000FE06D1C0DE04B46002280212046009760
:101AD00000F018FB08B10320BFE715F8010B2168DF
:101AE0004860E08C0028D0D14B460022402120469F
:101AF000009700F007FB08B10320AEE7202084F830
:101B0000390000BF002084F8380000BFA5E702209C
:101B1000A3E700BFFEE70000002000210D4A526B42
:101B200011600C4A526B51600A4A526B9160094A2B
:101B3000526B1161074A526BD16100BF06E000226F
:101B40000449496B14310A54411CC8B20828F6DB19
:101B5000704700005800002070B504460D46294625
:101B60002046FFF7B5FA012808D100BF29462046D4
:101B7000FFF7AEFA0128F9D0012070BD0020FCE784
:101B800000B587B000BF002001902648006840F0F3
:101B90002000244908600846006800F020000190F9
:101BA00000BF00BF00BF002001900846006840F061
:101BB000200008600846006800F02000019000BF87
:101BC00000BF00BF002001900846006840F02000E0
:101BD00008600846006800F02000019000BF00BFC8
:101BE000402002900120039004900320059002A958
:101BF0000D48FFF76DF98020029002A90A48FFF70F
:101C000067F94FF48070029002A90748FFF760F966
:101C100040200549183108608020086040000860B5
:101C200007B000BD303802400014024000BFFEE79C
:101C30007047000002480068C0F3022070470000AF
:101C40000CED00E010B5002807DA0A07140E054A6B
:101C500000F00F031B1FD45403E00A07130E024ABF
:101C6000135410BD18ED00E000E400E07047704729
:101C700010B5FFF741FA10BD00B593B000BF0020CA
:101C800001902A48006840F08050284908600846C2
:101C9000006800F08050019000BF00BF00BF00202E
:101CA00001902348006840F48040214908600846BC
:101CB000006800F48040019000BF00BF0120029046
:101CC00000040390022008904105099119210A910E
:101CD0004FF4A8710B9102210C9107210D9102A8DC
:101CE000FFF7DAFB08B100BFFEE70F200E900220DD
:101CF0000F90002010904FF4A05011904FF480509E
:101D0000129005210EA8FFF789FA08B100BFFEE77F
:101D1000FFF7E6F941F20101884205D10548006864
:101D200040F480700349086013B000BD40380240A1
:101D300000700040003C02401448006840F470000D
:101D4000124908601248006840F00100104908601C
:101D500000200F49083108600D4800680D4908400F
:101D60000B4908600C48091D0860081F006820F432
:101D70008020091F0860002005490C3108604FF0E1
:101D800000600249803908607047000088ED00E07B
:101D900000380240FFFFF6FE103000242DE9F0412C
:101DA000044600252068056925F44055E068054390
:101DB000206805612068C56849F20C608543216987
:101DC000A068084361690843E16908430543206846
:101DD000C5602068456925F44075A0690543206801
:101DE0004561E069B0F5004F7ED1C4492068884262
:101DF00003D0C349206888425DD1FFF7E5FA00EBC4
:101E0000C00101EB001061684900B0FBF1F06421F2
:101E1000B0FBF1F00601FFF7D7FA00EBC00101EBD0
:101E2000001061684900B0FBF1F7FFF7CDFA00EB55
:101E3000C00101EB001061684900B0FBF1F06421C2
:101E4000B0FBF1F000EBC00101EB0010A7EB80004C
:101E5000322101EBC0006421B0FBF1F000F0F8008A
:101E600006EB4006FFF7B0FA00EBC00101EB0010F3
:101E700061684900B0FBF1F7FFF7A6FA00EBC0017B
:101E800001EB001061684900B0FBF1F06421B0FB88
:101E9000F1F000EBC00101EB0010A7EB8000322154
:101EA00001EBC0006421B0FBF1F000F0070030440A
:101EB0002168886020E1FFF777FA00EBC00101EBB1
:101EC000001061684900B0FBF1F06421B0FBF1F053
:101ED0000601FFF769FA00EBC00101EB0010616831
:101EE0004900B0FBF1F700E045E0FFF75DFA00EBD9
:101EF000C00101EB001061684900B0FBF1F0642102
:101F0000B0FBF1F000EBC00101EB0010A7EB80008B
:101F1000322101EBC0006421B0FBF1F000F0F800C9
:101F200006EB4006FFF740FA00EBC00101EB0010A2
:101F300061684900B0FBF1F7FFF736FA00EBC0012A
:101F400001EB001061684900B0FBF1F06421B0FBC7
:101F5000F1F000EBC00101EB0010A7EB8000322193
:101F600001EBC0006421B0FBF1F000F00700304449
:101F700021688860C0E061492068884203D06049D8
:101F8000206888425CD1FFF71FFA00EBC00101EB2B
:101F9000001061688900B0FBF1F6FFF715FA00EB5D
:101FA000C00101EB001061688900B0FBF1F0642111
:101FB000B0FBF1F000EBC00101EB0010A6EB8000DC
:101FC000322101EB00106421B0FBF1F000F0F006CB
:101FD000FFF7FAF900EBC00101EB0010616889001E
:101FE000B0FBF1F06421B0FBF1F006EB0016FFF757
:101FF000EBF900EBC00101EB001061688900B0FB58
:10200000F1F7FFF7E1F900EBC00101EB00106168A7
:102010008900B0FBF1F06421B0FBF1F000EBC001EE
:1020200001EB0010A7EB8000322101EB00106421CE
:10203000B0FBF1F000F00F003044216888605BE0F5
:10204000FFF7B2F900EBC00101EB001061688900F5
:10205000B0FBF1F6FFF7A8F900EBC00101EB0010AF
:1020600061688900B0FBF1F06421B0FBF1F000EB96
:10207000C00101EB0010A6EB8000322101EB001043
:102080006421B0FBF1F000F0F006FFF78DF900EBF2
:10209000C00101EB001061688900B0FBF1F0642120
:1020A000B0FBF1F006EB0016FFF77EF900EBC00184
:1020B00001EB001061688900B0FBF1F7FFF774F9DC
:1020C00000EBC00101EB001061688900B0FBF1F08A
:1020D0006421B0FBF1F000EBC00101EB0010A7EBB5
:1020E0008000322101EB00106421B0FBF1F000F020
:1020F0000F00304421688860BDE8F0810010014085
:10210000001401402DE9F04104460D46174698465B
:10211000069E21E0701CF8B12EB1FEF7E7FFA0EBA0
:102120000800B04218D92068C06820F4D070216837
:10213000C8602068406920F00100216848612020C3
:1021400084F8390084F83A0000BF002084F8380091
:1021500000BF0320BDE8F081206800682840A84245
:1021600001D1012000E00020B842D3D00020F1E7E7
:1021700000BFFEE70FB4054B10B503A9044A02984F
:1021800000F018F810BC5DF814FB000019260008D8
:102190001400002002E008C8121F08C1002AFAD16A
:1021A00070477047002001E001C1121F002AFBD1D7
:1021B000704700002DE9FF4F8DB00F460546002601
:1021C00006E025280BD0DDE90F1290476D1C761C28
:1021D00028780028F5D111B03046BDE8F08F0024F2
:1021E000A246A1460122EC4900E0044315F8013F54
:1021F000203B02FA03F00842F7D128782A2810D0B1
:102200006FF02F022878A0F13001092914D80AEBC9
:102210008A0102EB410144F0020400EB010A6D1C4B
:10222000F0E701CF5FEA000A03D544F40054CAF195
:10223000000A44F002046D1C28782E2817D115F8E6
:10224000010F44F004042A280ED06FF02F022878E2
:10225000A0F1300109290AD809EB890102EB4101FB
:1022600000EB01096D1CF2E757F8049B6D1C287800
:102270006C280FD006DC4C2817D068280DD06A28AF
:1022800014D104E0742810D07A280FD10DE044F462
:1022900000140AE044F4801401E044F44014697826
:1022A000814202D104F580146D1C6D1C2A786E2ABF
:1022B0001FD00CDC632A31D004DC002A8BD0582AD2
:1022C00011D1A3E0642A68D0692A0CD165E0732A91
:1022D0002ED004DC6F2A73D0702A04D19BE0752ABB
:1022E0006FD0782A6ED01046DDE90F129047761C29
:1022F00050E1C4F30250022806D0032809D0042874
:1023000001CF09D0066045E101CFF117C0E90061B6
:1023100040E101CF06803DE106703BE117F8040B78
:102320008DF8000000208DF80100EB46012003E04D
:1023300057F804BB4FF0FF3061074FF0000102D4A3
:102340000DE008F10101884649450FDA8045F8DBC8
:102350001BF808100029F4D108E008F101018846B3
:102360008142FADB1BF808100029F6D1DDE90F23C2
:10237000AAEB08008146214600F036F9304400EB14
:10238000080604E0DDE90F121BF8010B9047B8F1D5
:102390000108F7D221464846F7E00A21C4F3025368
:1023A0004FF0000B0891022B04D001CFC117032B73
:1023B00009D00AE0FF1D27F00707F7E8020108E04F
:1023C00032E01FE020E000B2C117042B01D140B27F
:1023D000C117031E71F1000307DA4FF0000CD0EBB8
:1023E0000C006CEB01012D2302E0230504D52B2307
:1023F0008DF82430012303E0E30701D02023F7E721
:10240000984658E00A2110E010210EE010204FF00D
:10241000000B08900CE010214FF0000B44F0040476
:102420004FF00809089103E008214FF0000B0891D4
:10243000C4F30253022B04D001CF0021032B06D09A
:1024400006E0FF1D27F00707F7E8020103E080B26E
:10245000042B00D1C0B24FF0000823072BD5702AFF
:1024600007D0DDF820C08CF0100C5CEA0B0C05D016
:102470000EE040238DF82430012308E050EA0103E8
:1024800006D030238DF824308DF82520022398467D
:10249000DDF820C08CF0080C5CEA0B0C0BD150EA84
:1024A000010301D1630706D530238DF824304FF0A6
:1024B0000108A9F10109582A04D038A20B9208AAF0
:1024C0000A920BE03AA2F9E75B46089AFDF778FE1C
:1024D0000B9B9B5C0A9A521E0A92137050EA0102EF
:1024E000F2D10A98ADEB000000F1200B600702D595
:1024F00024F4803401E04FF00109D94502DDA9EB55
:102500000B0000E0002000EB0B0141440890AAEB17
:10251000010AE00306D4DDE90F232146504600F00E
:1025200063F806444FF0000908E009A911F8090012
:10253000DDE90F12904709F10109761CC145F4DB72
:10254000E0030CD5DDE90F232146504600F04CF89E
:10255000064404E0DDE90F1230209047761C08990C
:10256000481E08900029F5DC08E00A980A990078CE
:10257000491C0A91DDE90F129047761CBBF100015E
:10258000ABF1010BF1DC21465046DDE90F2300F0F1
:1025900019F806446D1C1BE609280100303132335E
:1025A000343536373839616263646566000000008F
:1025B0003031323334353637383941424344454679
:1025C000000000002DE9F041044600251E46174694
:1025D000880404D405E039462020B0476D1C641EF1
:1025E000F9D52846BDE8F0812DE9F04104460025E3
:1025F0001E469046C80301D5302700E020278804F6
:1026000004D505E041463846B0476D1C641EF9D537
:102610002846BDE8F081000013B50C464FF47A73EC
:10262000012269460248FFF709FA00981CBD000024
:1026300018000020FFF720FBFFF7A2FAFEF72AF8A8
:10264000FDF732FE34A0FFF795FD3DA0FFF792FDA8
:1026500043A0FFF78FFD46A0FFF78CFD4DA0FFF7CD
:1026600089FD5648FFF786FD5548FFF783FD55A0C5
:10267000FFF780FD4EE001216148FFF76DFA012868
:1026800015D140205F490860802008604004086040
:10269000FDF7A2FF5C48FEF7FDFA6420FEF704FC9C
:1026A0004020584908608020086040000860574872
:1026B000006801282ED156A0FFF75CFD00BF5248EC
:1026C000406B00F1140557A0FFF754FD00240EE005
:1026D000295D5AA0FFF74EFD601C0A2190FBF1F224
:1026E00001FB120010B91DA0FFF744FD641C082C6B
:1026F000EEDB1AA0FFF73EFD00BF00204349086053
:102700006420FEF7D1FB40203E4908604004086089
:10271000C0130860AFE700000D0A20BBB6D3ADCAF6
:10272000B9D3C3D2B0BBF0202053544D333220462E
:1027300034303720BFAAB7A2B0E5A1A30D0A00002C
:102740000D0A20D2B0BBF0463430372043414ECD85
:10275000A8D1B6CAB5D1E9C0FDB3CC0D0A000000BE
:102760000D0A20CAB5D1E9B2BDD6E8A3BA0D0A0058
:102770000D0A20312ECAB9D3C3B5BCCFDFC1ACBD61
:10278000D3BAC3C1BDB8F643414ED1B6C9E8B1B85A
:102790000D0A00000D0A20322ECAB9D3C3CCF8CFDF
:1027A000DFC3B1C1ACBDD3BAC33A3576202D2D2DD0
:1027B00020432F342D3556200D0A00005C280008D8
:1027C000AC2800080D0A20352EB1BEC0FDD6D0B50C
:1027D000C463616EB2A8CCD8C2CACEAA314D4270D1
:1027E00073A3ACCEAA73746D3332B5C463616ED774
:1027F000EEB8DFCBD9C2CAA1A3200D0A00000000A9
:102800000000024018140240580000201000002070
:102810000D0A43414EBDD3CAD5B5BDCAFDBEDDA329
:10282000BA0D0A003C3C2D43414E2D4445425547CC
:102830002D41525241592D3E3E0A0000253032783A
:10284000202020000000000000000000010203041E
:102850000607080900000000010203040D0A2033E6
:102860002EB0B4CFC2BFAAB7A2B0E5B5C44B45598C
:1028700031BCFCA3ACBBE1CAB9D3C343414ECFF2D8
:10288000CDE2B7A2CBCD302D37B5C4CAFDBEDDB089
:10289000FCA3ACB0FCB5C4C0A9D5B94944CEAA309C
:1028A0007831333134200D0A000000000D0A203445
:1028B0002EC8F4BFAAB7A2B0E5B5C443414EBDD3FC
:1028C000CAD5B5BDC0A9D5B94944CEAA30783133EF
:1028D0003134B5C4CAFDBEDDB0FCA3ACBBE1B0D1A0
:1028E000CAFDBEDDD2D4B4F2D3A1B5BDB4AEBFDA59
:1028F000A1A3200D0A0000001829000800000020F4
:102900001800000094210008302900081800002059
:10291000C0040000A42100080024F400000000000E
:102920001000000001000000000000000000000096
:040000050800018965
:00000001FF
